:1000000065C5000084C5000082C5000080C50000F1
:100010007EC500007CC500007AC5000078C50000E0
:1000200076C500000C941B5A72C500000C94594808
:100030006EC500006CC500006AC500000C94E65453
:1000400066C500000C94412A62C5000060C500002E
:100050005EC500005CC500005AC500000C94CC29A8
:1000600056C500000C94A5300C94953150C5000085
:100070004EC500004CC500004AC5000048C5000040
:1000800046C5000044C5000042C500000C94D05491
:100090000C943D300C9467313AC5000038C500001F
:1000A00036C5000034C5000032C5000030C5000070
:1000B0002EC500000C9495542AC5000028C50000E8
:1000C00026C5000024C500000C9460540C94D52F64
:1000D0000C9439311CC500000C946D2F0C940B311D
:1000E00016C500006E14D41ED41E7C149114A614E0
:1000F000BB14D41EC414D41ED714D41EE614F0149A
:100100005015D41ED41ED41E071521153B15A31D52
:10011000B31DE21DB31DE61DFD1DEC1DF61D211EC8
:10012000281E331E3E1E5D1E5F1E621E641E1426A8
:100130002D2646265F2678269B26B426A32DA92D9C
:10014000AC2DAF2DB32DBB2DC32D302E302E302E28
:10015000CB2DCE2DD72DE02D302E302E302E302E23
:10016000302E302EE82DF22DFE2D082E0B2E142EC3
:100170001D2E232ED853DB53CA53CE53D4531254BF
:10018000DF53E353E953ED53F153F753FB53FF535D
:100190001254055409540D54084AD73B3BCE016E06
:1001A00084BCBFFDC12F3D6C74319ABD56833DDACE
:1001B0003D00C77F11BED9E4BB4C3E916BAAAABEDD
:1001C000000000803F072C7AA5BA6CC590DA3B93FB
:1001D00065FC8BBC53F810FD3C5692834DBD879D4A
:1001E0003AB63DCBC9BF5BBE73DA0FC93F05A84C19
:1001F000CDB2D44EB93836A9020C50B991868808D0
:100200003CA6AAAA2ABE000000803F0000407A1047
:10021000F35A00A0724E18090010A5D4E80000E8B7
:100220007648170000E40B54020000CA9A3B000015
:1002300000E1F505000080969800000040420F00A4
:100240000000A08601000000102700000000E80365
:10025000000000006400000000000A000000000030
:100260000100000000002C76D888DC674F0823DFEF
:10027000C1DFAE59E1B1B796E5E3E453C63AE651C2
:10028000997696E8E6C28426EB898C9B62ED407CE9
:100290006FFCEFBC9C9F40F2BAA56FA5F490055A85
:1002A0002AF75C936B6CF9676DC11BFCE0E40D47AA
:1002B000FEF520E6B500D0ED902E030094357705CD
:1002C0000080841E080000204E0A000000C80C3385
:1002D0003333330F986E12831141EF8D2114893B14
:1002E000E65516CFFEE6DB18D1844B381BF77C1D94
:1002F000901DA4BBE424203284725E228100C9F1E7
:1003000024ECA1E53D276364696E6F7073757858BE
:100310005B00000020002300260029002C002F0095
:100320003200000100000301060109010D0A003D31
:1003300000244E005D0D0A005B302E396A2E3230EB
:100340003136303732363A005D0D0A005B544C4F7F
:100350003A005D0D0A002C005B4739323A005D0D12
:100360000A002C003A003330003238005B47005D51
:100370000D0A00205300204600205400204D380074
:10038000204D3900204D3500204D3400204D3300E4
:10039000204D3200204D3100204D300020473934AF
:1003A00000204739330020473931002047393000D9
:1003B00020473230002047323100204731390020B9
:1003C0004731380020473137002047004733382E67
:1003D000004738300047330047320047310047308C
:1003E000005B00290D0A00206D617820747261762F
:1003F000656C2C206D6D0020616363656C2C206D35
:100400006D2F7365635E3200206D617820726174B8
:10041000652C206D6D2F6D696E002C2073746570D6
:100420002F6D6D007A00790078002028003D0024AF
:10043000002028686F6D696E672070756C6C2D6F79
:1004400066662C206D6D290D0A002028686F6D6985
:100450006E67206465626F756E63652C206D7365D1
:1004600063290D0A2432373D002028686F6D696EBC
:1004700067207365656B2C206D6D2F6D696E290D7E
:100480000A2432363D002028686F6D696E67206649
:100490006565642C206D6D2F6D696E290D0A2432FF
:1004A000353D00290D0A2432343D002028686F6D47
:1004B000696E672064697220696E76657274206D5A
:1004C00061736B3A002028686F6D696E67206379ED
:1004D000636C652C20626F6F6C290D0A2432333DEA
:1004E00000202868617264206C696D6974732C2027
:1004F000626F6F6C290D0A2432323D002028736F21
:100500006674206C696D6974732C20626F6F6C293E
:100510000D0A2432313D0020287265706F727420FC
:10052000696E636865732C20626F6F6C290D0A24F5
:1005300032303D00202861726320746F6C657261F7
:100540006E63652C206D6D290D0A2431333D00202A
:10055000286A756E6374696F6E206465766961746C
:10056000696F6E2C206D6D290D0A2431323D0029F2
:100570000D0A2431313D0020287374617475732095
:100580007265706F7274206D61736B3A0020287011
:10059000726F62652070696E20696E766572742C68
:1005A00020626F6F6C290D0A2431303D0020286CC9
:1005B000696D69742070696E7320696E76657274F6
:1005C0002C20626F6F6C290D0A24363D00202873A1
:1005D00074657020656E61626C6520696E76657207
:1005E000742C20626F6F6C290D0A24353D00290D93
:1005F0000A24343D00202864697220706F727420D0
:10060000696E76657274206D61736B3A00290D0A0C
:1006100024333D0020287374657020706F7274203D
:10062000696E76657274206D61736B3A0020287371
:100630007465702069646C652064656C61792C2038
:100640006D736563290D0A24323D0020287374659B
:10065000702070756C73652C2075736563290D0AA5
:1006600024313D0024303D0024242028766965771C
:10067000204772626C2073657474696E6773290D0C
:100680000A2423202876696577202320706172610F
:100690006D6574657273290D0A2447202876696593
:1006A0007720706172736572207374617465290DAF
:1006B0000A2449202876696577206275696C642070
:1006C000696E666F290D0A244E20287669657720A9
:1006D0007374617274757020626C6F636B73290D33
:1006E0000A24783D76616C756520287361766520F3
:1006F0004772626C2073657474696E67290D0A24F1
:100700004E783D6C696E6520287361766520737440
:10071000617274757020626C6F636B290D0A2443DB
:100720002028636865636B2067636F6465206D6F65
:100730006465290D0A245820286B696C6C20616C53
:1007400061726D206C6F636B290D0A24482028723A
:10075000756E20686F6D696E67206379636C6529BB
:100760000D0A7E20286379636C652073746172744E
:10077000290D0A2120286665656420686F6C64294C
:100780000D0A3F202863757272656E742073746160
:10079000747573290D0A6374726C2D782028726544
:1007A000736574204772626C290D0A0000002100F5
:1007B000240027002A002D00300033000101000032
:1007C000040107010A010D0A00496E76616C696433
:1007D0002067636F64652049443A00556E6465661E
:1007E000696E656420666565642072617465004D9C
:1007F0006F64616C2067726F75702076696F6C61D1
:1008000074696F6E00486F6D696E67206E6F74203B
:10081000656E61626C656400416C61726D206C6F25
:10082000636B004E6F742069646C650045455052DF
:100830004F4D2072656164206661696C2E2055738E
:10084000696E672064656661756C74730056616CCF
:100850007565203C2033207573656300536574749F
:10086000696E672064697361626C65640056616CCF
:100870007565203C203000496E76616C6964207398
:10088000746174656D656E7400426164206E756D8F
:1008900062657220666F726D617400457870656381
:1008A00074656420636F6D6D616E64206C65747433
:1008B0006572006572726F723A20006F6B0D0A00EC
:1008C0000D0A00486F6D696E67206661696C0050A3
:1008D000726F6265206661696C0041626F7274209C
:1008E000647572696E67206379636C6500536F6627
:1008F00074206C696D69740048617264206C696D64
:10090000697400414C41524D3A20003E0D0A002CC2
:100910004C696D3A002C52583A002C4275663A00E8
:100920002C002C57506F733A002C002C4D506F73D5
:100930003A003C446F6F72003C436865636B003C57
:10094000416C61726D003C486F6D65003C486F6C96
:1009500064003C52756E003C49646C65005D0D0A94
:1009600000526573746F72696E67206465666175A5
:100970006C74730050676D20456E64004368656356
:100980006B20446F6F720044697361626C65640030
:10099000456E61626C65640043617574696F6E3A9F
:1009A00020556E6C6F636B656400272448277C2795
:1009B00024582720746F20756E6C6F636B0052652E
:1009C00073657420746F20636F6E74696E75650053
:1009D0005B005D0D0A003A002C005B5052423A0069
:1009E00000002200250028002B002E0031003400DA
:1009F00002010000050108010B01050505050705B9
:100A000008080808020202020A0A0808040404048A
:100A100001010101010101010303030303030303B6
:100A2000040707070C0C0C0C0C0C0C0C0202020245
:100A300006060606060606060B0B0B0B0B0B0B0B2E
:100A400001021020200808102040102040800201E0
:100A500002010804020101020408102040808040C5
:100A600020100804020180040201804020100804C4
:100A70000201080402010102040810204080010262
:100A800004081020408000000A0B02090C0D0E081B
:100A90000703040100000000000000000000000047
:100AA0000000000000000000000000000000000046
:100AB0000000121110000000000000000000000003
:100AC00000000000000000000000000011241FBE14
:100AD000CFEFD1E2DEBFCDBF00E00CBF14E0A0E05D
:100AE000B2E0E0EEF2EF00E00BBF02C007900D9223
:100AF000A63AB107D9F725E1A6EAB4E001C01D92F4
:100B0000A639B207E1F70E940A5D0C946E7978CAA3
:100B10002F923F924F925F926F927F928F929F920D
:100B2000AF92BF92CF92DF92EF92FF920F931F93FB
:100B3000CF93DF93CDB7DEB7C85CD1090FB6F89479
:100B4000DEBF0FBECDBFC754DF4F99838883C95B1B
:100B5000D04089E3EEE1F5E1DF011D928A95E9F7E6
:100B60008AE0E7E5F5E1AFE1B5E101900D928A9504
:100B7000E1F7FE01E756FF4F1082CD54DF4F198297
:100B80001882C35BD040C155DF4F19821882CF5AFB
:100B9000D040C154DF4F1882CF5BD040C655DF4FE5
:100BA0001882CA5AD040C255DF4F1882CE5AD04060
:100BB000E859F109C456DF4FF983E883CC59D04096
:100BC0009E01235A3F4FC256DF4F39832883CE59A7
:100BD000D040CE018F5A9F4FC056DF4F99838883F4
:100BE000C05AD040DE01A959BF4FCE55DF4FB9835F
:100BF000A883C25AD040E059FF4FCC55DF4FF9834C
:100C0000E883C45AD0409C01285F3F4FCD53DF4F4B
:100C100039832883C35CD040C756DF4F8881C959C8
:100C2000D040C754DF4FE881F981C95BD040E80F5D
:100C3000F11D1081112311F40C94B3159FEB910F4A
:100C40009A3110F00C94C61E8F5FC756DF4F888311
:100C5000C959D040AE014B565F4FBE0167567F4F1A
:100C6000C754DF4F88819981C95BD0400E941955D4
:100C7000882311F40C94C81ECB56DF4FC880D9804E
:100C8000EA80FB80C559D040C701B6010E947C7242
:100C90000E94E96FCB54DF4F688379838A839B83FB
:100CA000C55BD040CB54DF4F48805980C55BD040F6
:100CB000B20180E090E00E9415709B01AC01C70179
:100CC000B6010E949B6E20E030E048EC52E40E94A6
:100CD000CE714B015C0120E030E0A9010E949371CC
:100CE00020E030E040E05FE387FD05C0C501B401CE
:100CF0000E949C6E04C0C501B4010E949B6E0E94BC
:100D0000E46F1B011D3411F40C942F0F24F41734DD
:100D100061F00C945B14103511F40C94C50F13356D
:100D200011F40C94E7130C945B14C756DF4F8881C1
:100D3000C959D040C754DF4FA881B981C95BD040A1
:100D4000A80FB11DCD01BAE94B16B8E05B0609F456
:100D500016C160F4F4ED4F16F7E05F06D1F029E913
:100D6000421628E0520609F440C0FAC53DE9431690
:100D700038E0530609F451C3AEE94A16A8E05A0612
:100D800009F436C5BCE94B16B8E05B0609F0E8C5C6
:100D900049C21A821982E1E0F0E0EC0FFD1FFF93D7
:100DA000EF932FE434E03F932F939F938F930E9410
:100DB00042730F900F900F900F900F900F90181696
:100DC00019060CF03BC589819A8190938510809318
:100DD000841011E010938C0D8091100D811148C585
:100DE0000E94003E1093100D43C58E010B5E1F4FF5
:100DF0001F930F939E01275D3F4F3F932F937E01DB
:100E0000FDE3EF0EF11CFF92EF92CF55DF4F2881EB
:100E1000C15AD0402F93C056DF4F3881C05AD040BE
:100E20003F9329E132E03F932F939F938F930E944A
:100E300042730FB6F894DEBF0FBECDBF04970CF41B
:100E4000FDC4EF961CAE1DAE1EAE1FAEEF97E5962D
:100E50001CAE1DAE1EAE1FAEE597AB961CAE1DAE12
:100E60001EAE1FAEAB97A1961CAE1DAE1EAE1FAE42
:100E7000A1978CE0C456DF4FE881F981CC59D0406E
:100E800011928A95E9F7AE0145585F4F60E070E036
:100E9000CE018F5A9F4F0E941955882309F4E8C448
:100EA000AE014F585F4F60E070E0C7010E941955D6
:100EB000882309F4DDC4AE0149595F4F60E070E05A
:100EC000CE0189960E941955882309F4D1C4AE0138
:100ED000435A5F4F60E070E0C8010E9419558823B3
:100EE00009F4C6C420E030E044EB52E4E5966CAD72
:100EF0007DAD8EAD9FADE5970E949B6E21EE3EE2EB
:100F000045E652E40E947C6F6B017C01E5966CAF74
:100F10007DAF8EAF9FAFE5970E94796FEF968CAC57
:100F20009DACAEACBFACEF97A50194010E94CE7111
:100F300069837A838B839C83C701B6010E943172D7
:100F40009B01AC01C501B4010E94CE716D837E830B
:100F50008F839887AB968CAD9DADAEADBFADAB9793
:100F600089879A87AB87BC87A1962CAD3DAD4EADE6
:100F70005FADA19700E0BE016F5F7F4F37C46596FC
:100F80001CAE1DAE1EAE1FAE659721961CAE1DAEEB
:100F90001EAE1FAE219721E030E02C0F3D1F3F9386
:100FA0002F938E010B5E1F4F1F930F93C156DF4F80
:100FB0003881CF59D0403F93C256DF4FA881CE59D8
:100FC000D040AF9322E432E03F932F939F938F93CF
:100FD0000E9442730FB6F894DEBF0FBECDBF0397D9
:100FE0000CF42CC4AE014F5A5F4F60E070E0C801B2
:100FF0000E941955882309F43BC4AE01435C5F4F3E
:1010000060E070E0CE0101960E941955882309F432
:101010002FC43E01F9E26F0E711C8CE0D3011D92CA
:101020008A95E9F76091730D7091740D8091750D3B
:101030009091760D0E94177020E030E040EA52E473
:101040000E947C6F2091670D3091680D4091690D71
:1010500050916A0D0E949C6ECA55DF4F6883798358
:101060008A839B83C65AD0406091770D7091780D2A
:101070008091790D90917A0D0E94177020E030E0F8
:1010800040EA52E40E947C6F20916B0D30916C0D10
:1010900040916D0D50916E0D0E949C6EC554DF4FB6
:1010A000688379838A839B83CB5BD04060917B0D7F
:1010B00070917C0D80917D0D90917E0D0E94177036
:1010C00020E030E040EA52E40E947C6F6B017C013A
:1010D00020E030E044EB52E460916F0D7091700DB0
:1010E0008091710D9091720D0E949B6E9B01AC01DD
:1010F000C701B6010E949C6E7B018C016F968EAD7C
:101100009FAD6F978130910509F450C00CF03FC03E
:10111000892B09F0A0C320E030E044EB52E465964F
:101120006CAD7DAD8EAD9FAD65970E949B6E659653
:101130006CAF7DAF8EAF9FAF6597FE01F1964F010B
:101140009E01235D3F4F5901DE0199966D017B01A0
:101150008C01C554DF4F288139814A815B81CB5B8B
:10116000D040CA55DF4F688179818A819B81C65AF8
:10117000D0400E94B044A401B501C6010E94514272
:1011800021962CAD3DAD4EAD5FAD2197E2C38230CF
:10119000910519F1039709F05EC365966CAD7DADBD
:1011A0008EAD9FAD65970E94DB3E62C365966CADC8
:1011B0007DAD8EAD9FAD6597FE01F1964F019E010D
:1011C000235D3F4F59016301C554DF4F28813981A9
:1011D0004A815B81CB5BD04015C065962CAD3DAD9F
:1011E0004EAD5FAD6597CE01C1964C01DE019D9677
:1011F0005D016301CA55DF4F688179818A819B81D6
:10120000C65AD0400E94B044A401B501C3010E9457
:10121000514221962CAD3DAD4EAD5FAD219700E022
:10122000B30199C38E010B5E1F4F1F930F937E0175
:10123000B9E2EB0EF11CFF92EF926E01EDE3CE0EE0
:10124000D11CDF92CF92CF55DF4FF881C15AD040E9
:10125000FF93C056DF4F2881C05AD0402F932AE514
:1012600032E03F932F939F938F930E9442730FB668
:10127000F894DEBF0FBECDBF04970CF4DFC2EF962B
:101280001CAE1DAE1EAE1FAEEF97E5961CAE1DAE9A
:101290001EAE1FAEE597AB961CAE1DAE1EAE1FAECA
:1012A000AB97A1961CAE1DAE1EAE1FAEA197AE01B0
:1012B00045585F4F60E070E0CE018F5A9F4F0E940B
:1012C0001955882309F4D4C2AE014F585F4F60E02E
:1012D00070E0C6010E941955882309F4C9C2AE0105
:1012E00049595F4F60E070E0C7010E94195588239B
:1012F00009F4BEC2AE01435A5F4F60E070E0C8011E
:101300000E941955882309F4B3C260917B0D709136
:101310007C0D80917D0D90917E0D0E941770CA55B5
:10132000DF4F688379838A839B83C65AD04060915C
:10133000770D7091780D8091790D90917A0D0E94C2
:101340001770C554DF4F688379838A839B83CB5B97
:10135000D0406091730D7091740D8091750D9091D6
:10136000760D0E941770FE0139964F019E012B5F8A
:101370003F4F5901DE0111966D01CA55DF4FE880DC
:10138000F9800A811B81C65AD040C554DF4F28819D
:1013900039814A815B81CB5BD0400E949545A40195
:1013A000B501C6010E945142EF962CAD3DAD4EAD48
:1013B0005FADEF9769817A818B819C810E949C6EE1
:1013C00069837A838B839C83E5962CAD3DAD4EADCE
:1013D0005FADE5976D817E818F8198850E949C6EBF
:1013E0006D837E838F839887AB962CAD3DAD4EADDC
:1013F0005FADAB9769857A858B859C850E949C6ED5
:1014000069877A878B879C87A1962CAD3DAD4EADC1
:101410005FADA19700E0B601E9C1C156DF4FB881C9
:10142000CF59D040BF93C256DF4FE881CE59D0404C
:10143000EF93CD55DF4FF881C35AD040FF93CE557F
:10144000DF4F2881C25AD0402F93CB55DF4F3881D0
:10145000C55AD0403F93CC55DF4FA881C45AD040E5
:10146000AF938E0105581F4F1F930F9329E132E070
:101470003F932F939F938F930E9442730FB6F894DC
:10148000DEBF0FBECDBF04970CF4D8C1CF56DF4FDF
:10149000188219821A821B82C159D040C357DF4F6C
:1014A000188219821A821B82CD58D040C757DF4F4D
:1014B000188219821A821B82C958D040CB57DF4F3D
:1014C000188219821A821B82C558D0408CE0C056FF
:1014D000DF4FA881B981C05AD0401D928A95E9F7A3
:1014E000AE014F565F4F60E070E0C8010E94195591
:1014F000882309F4BDC1AE0143575F4F60E070E03F
:10150000CE018F589F4F0E941955882309F4B0C10E
:10151000AE0147575F4F60E070E0CE0189599F4FA1
:101520000E941955882309F4A3C1AE014B575F4FA0
:1015300060E070E0CE01835A9F4F0E9419558823C6
:1015400009F496C160917B0D70917C0D80917D0DA9
:1015500090917E0D0E941770CA55DF4F6883798382
:101560008A839B83C65AD04020E030E044EB52E4AB
:1015700060916F0D7091700D8091710D9091720D51
:101580000E949B6E6B017C0120E030E040EA52E457
:10159000CA55DF4F688179818A819B81C65AD040C4
:1015A0000E947C6F9B01AC01C701B6010E949C6E3A
:1015B000C554DF4F688379838A839B83CB5BD0409C
:1015C0006091770D7091780D8091790D90917A0DE1
:1015D0000E941770CB53DF4F688379838A839B8384
:1015E000C55CD0406091730D7091740D8091750D44
:1015F0009091760D0E941770CD53DF4F88809980AF
:10160000C35CD040F1E56F2E712C6C0E7D1EB4E0F2
:101610006B0E711C5301FE01EF5AFF4F6F01CA554B
:10162000DF4FE880F9800A811B81C65AD040CB5336
:10163000DF4F288139814A815B81C55CD0400E949F
:101640009545CD53DF4F48815981C35CD040B301EC
:10165000C6010E94514265966CAD7DAD8EAD9FADC9
:1016600065976996CCACDDACEEACFFAC69979B019D
:10167000AC010E94CE714B015C01A7019601C7012C
:10168000B6010E94CE719B01AC01C501B4010E945C
:101690009C6E0E943B72CF56DF4F288139814A8170
:1016A0005B81C159D0400E949C6E6B017C01CF567A
:1016B000DF4F688379838A839B83C159D040C357A6
:1016C000DF4F288139814A815B81CD58D040C55494
:1016D000DF4F688179818A819B81CB5BD0400E94FA
:1016E0009C6E21EE3EE245E652E40E947C6FCA55B4
:1016F000DF4F688379838A839B83C65AD0400E94D8
:10170000796F9B01AC01C701B6010E94CE714B01FC
:101710005C0165966CAF7DAF8EAF9FAF6597CA5584
:10172000DF4F688179818A819B81C65AD0400E94AF
:1017300031729B01AC01C701B6010E94CE7169965E
:101740006CAF7DAF8EAF9FAF6997C757DF4F2881D2
:1017500039814A815B81C958D0406D966CAD7DADB1
:101760008EAD9FAD6D970E949C6E6D966CAF7DAFF8
:101770008EAF9FAF6D978E01035C1F4F24E045E055
:10178000C501B4010E94206C69966CAD7DAD8EAD33
:101790009FAD69970451110924E045E00E94206C37
:1017A0006D966CAD7DAD8EAD9FAD6D9704511109F9
:1017B00024E045E00E94206CCF56DF4F688179819C
:1017C0008A819B81C159D0400451110924E045E030
:1017D0000E94206CCB57DF4F288139814A815B8181
:1017E000C558D04000E0BE016F5A7F4F81E0B4C0C1
:1017F00021E030E02C0F3D1F3F932F938E010B5EB5
:101800001F4F1F930F937E0139E2E30EF11CFF92ED
:10181000EF926E01ADE3CA0ED11CDF92CF9223E8A6
:1018200032E03F932F939F938F930E9442730FB6A2
:10183000F894DEBF0FBECDBF049784F41F9281E001
:101840008F938DE092E09F938F930E94AF330F9020
:101850000F900F900F9082E390E084C0AE01455846
:101860005F4F60E070E0C6010E941955811103C00E
:1018700080E090E077C0AE014F585F4F60E070E0CD
:10188000C7010E941955882399F3AE0149595F4F4A
:1018900060E070E0C8010E941955882349F3AE0149
:1018A000435A5F4F60E070E0CE0101960E941955E7
:1018B0008823F1F220E030E044EB52E4EF966CAD87
:1018C0007DAD8EAD9FADEF970E949B6E7B018C012D
:1018D000EF966CAF7DAF8EAF9FAFEF978CE0C056A9
:1018E000DF4FA881B981C05AD0401D928A95E9F78F
:1018F000AB962CAD3DAD4EAD5FADAB97E5966CAD07
:101900007DAD8EAD9FADE597CD53DF4F888099803B
:10191000C35CD040E1E56E2E712C6C0E7D1EB4E0F0
:101920006B0E711C5301FE01EF5AFF4F6F010E94B5
:10193000B044CD53DF4F48815981C35CD040B301DF
:10194000C6010E945142A1962CAD3DAD4EAD5FAD9A
:10195000A19700E0B60180E00E94035690E002C02B
:1019600081E090E09C01215031092230310510F0D6
:101970000C942F1FF8E24F16510409F414C280F59D
:1019800034E14316510498F481E14816510408F0FB
:1019900061C194E04916510409F474C008F4E3C02D
:1019A000BAE04B16510409F45EC00C94D41EECE16D
:1019B0004E16510409F457C038F426E1421651047A
:1019C00008F4A2C10C94D41E3EE14316510409F45C
:1019D0004AC086E24816510409F4C5C00C94D41ECE
:1019E0009DE34916510409F4D3C110F5B5E34B1634
:1019F000510409F447C060F4FBE24F16510409F4A6
:101A000095C121E34216510409F490C10C94D41EEF
:101A10003CE34316510410F00C94D41ECB54DF4F1A
:101A20008881C55BD040865380932515A9E0AAC163
:101A30008CE54816510460F49AE54916510408F003
:101A40001FC1A0E54A16510409F49BC00C94D41E92
:101A5000BCE54B16510439F0EFE54E16510408F47D
:101A60003CC10C94D41E2114310411F00C94E81ED6
:101A7000C255DF4FF881CE5AD040FF2309F445C04C
:101A80000C94CA1E2CE14216510491F148F484E0F2
:101A90004816510479F09AE049165104E1F08AC1E0
:101AA000AEE14A165104D9F1B5E34B16510409F4DD
:101AB00056C080C181E054C0BFE14B16510408F00C
:101AC00042C0EAE04E16510441F4E1E0C255DF4F56
:101AD000E883CE5AD04082E043C0FCE14F16510467
:101AE00009F078C1F1E0C255DF4FF883CE5AD040FB
:101AF0002114310441F02AE02216310411F00C9433
:101B0000D41E84E010C083E00EC0AEE14A1651043A
:101B100099F631E0C255DF4F3883CE5AD0402114B8
:101B2000310449F485E080931E15CA55DF4F1882B1
:101B3000C65AD0405AC18AE02816310411F00C94DC
:101B4000D41E86E0F0CF25E34216510411F00C9428
:101B5000141F91E0C255DF4F9883CE5AD04087E0E2
:101B600080931E1527C1C255DF4FE881CE5AD04061
:101B7000E1110C94CA1EF2E0C255DF4FF883CE5A31
:101B8000D04022E04216510419F158F44114510496
:101B9000D9F04A94452809F013C181E080931F15BC
:101BA0000FC196E249165104C1F0A0E54A1651044E
:101BB00009F44BC0B3E04B16510409F001C183E0B6
:101BC00080931F1531E09AC010921F15E1E0ECC020
:101BD00082E080931F1521E088C08EE12816310431
:101BE00001F180F4A4E12A16310411F00C94D41E02
:101BF00084E080931F15F1E0CA55DF4FF883C65A81
:101C0000D040F3C0B8E22B163104A9F0E2E32E165F
:101C1000310411F00C94D41E87E080931F1581E0ED
:101C200039C085E080931F1521E0CA55DF4F288316
:101C3000C65AD040DAC086E080931F1531E0CA55FD
:101C4000DF4F3883C65AD040D0C088E080931F153C
:101C500091E062C0A2E14A16510441F0B3E14B1693
:101C6000510449F010922315E2E09EC081E0809378
:101C70002315F2E0A6C082E08093231522E035C050
:101C800021143104B9F43AE54316510449F4109291
:101C9000221583E0CA55DF4F8883C65AD040A5C0BD
:101CA00081E08093221593E0CA55DF4F9883C65A8E
:101CB000D0409BC0AAE02A16310411F00C94D41E27
:101CC000BAE54B16510411F40C94D41EE4E0CA5545
:101CD000DF4FE883C65AD04088C0FDE54F16510457
:101CE00051F481E08093201525E0CA55DF4F288309
:101CF000C65AD0406BC01092201535E0CA55DF4F50
:101D00003883C65AD04062C084E14816510451F469
:101D100081E08093211596E0CA55DF4F9883C65A1B
:101D2000D04054C010922115A6E02CC0C255DF4F00
:101D3000B881CE5AD040B1110C94CA1EE1E34E16C0
:101D4000510451F410922415F8E0CA55DF4FF8837E
:101D5000C65AD04023E044C03AE02316310411F0C3
:101D60000C94D41E81E08093241588E0CA55DF4F7F
:101D70008883C65AD04093E0C255DF4F9883CE5A2D
:101D8000D04033C0CA55DF4FA883C65AD0401EC0CA
:101D9000232811F00C94D41EBAE0CA55DF4FB88343
:101DA000C65AD04022C0E7E0CA55DF4FE883C65A82
:101DB000D0400CC0CA55DF4F1882C65AD04006C06A
:101DC000F1E0CA55DF4FF883C65AD040232869F0A6
:101DD0000C94FB1ECA55DF4F1882C65AD04021E032
:101DE000C255DF4F2883CE5AD040C155DF4FE8811E
:101DF000F981CF5AD040CF01A0E0B0E0CA55DF4F03
:101E00000880C65AD04004C0B695A7959795879587
:101E10000A94D2F780FF03C085E10C942F1F81E064
:101E200090E0A0E0B0E0CA55DF4F0880C65AD0402D
:101E300004C0880F991FAA1FBB1F0A94D2F7C1556F
:101E4000DF4F28813981CF5AD040282B392BC155FB
:101E5000DF4F39832883CF5AD0400C940C06672B70
:101E600011F00C94FB1EC756DF4F8881C959D04032
:101E7000C754DF4F68817981C95BD040680F711DFD
:101E8000AE0147565F4FCB54DF4F88819981C55BC8
:101E9000D0400E94491F9C01215031092230310558
:101EA00010F00C942F1F36E04316510428F483E001
:101EB0004816510490F026C098E04916510410F4D9
:101EC0000C94D41EAAE04A16510408F440C0BEE1A6
:101ED0004B16510411F00C94D41EE2E04E1651043E
:101EE00061F0FEE14F16510441F0452809F046C06B
:101EF00081E0809326152BE032C082E08093261586
:101F00003BE036C084E04816510471F095E0491674
:101F10005104A1F081E080932815ACE0CA55DF4F51
:101F2000A883C65AD04022C482E080932815BCE022
:101F3000CA55DF4FB883C65AD04018C4109228152E
:101F4000ECE0CA55DF4FE883C65AD0400FC4F9E031
:101F50004F16510451F082E0809327152DE0CA55A9
:101F6000DF4F2883C65AD04001C4109227153DE0A8
:101F7000CA55DF4F3883C65AD040F8C38BE0CA55E4
:101F8000DF4F8883C65AD040F1C3672B11F00C9401
:101F9000FB1EC756DF4F8881C959D040C754DF4F59
:101FA000E881F981C95BD040E80FF11D27EB4216AB
:101FB00028E0520609F4E7C208F05EC18CE9481631
:101FC00088E0580609F499C108F076C0A9E94A16D4
:101FD000A8E05A0609F48BC108F05FC0E8E94E1684
:101FE000E8E05E0609F0B8C384E16E0199E2C90E2B
:101FF000D11CD601E82F1D92EA95E9F77E01F5E1A3
:10200000EF0EF11CD701E82F1D92EA95E9F7C456AF
:10201000DF4FA881B981CC59D0401D928A95E9F74C
:1020200080E090E00E943C47CB54DF4F6883798387
:102030008A839B83C55BD04081E090E00E943C474F
:102040002B013C0182E090E00E943C474B015C0187
:10205000860124E045E0CB54DF4F688179818A8195
:102060009B81C55BD0400E94206C870124E045E045
:10207000C301B2010E94206C0451110924E045E023
:10208000C501B4010E94206CFF92EF92DF92CF92C3
:102090001F930F938CEA92E03DC3FAE94F16F8E0E4
:1020A0005F0609F427C12BE9421628E0520609F021
:1020B00053C388EC92E023C13EE9431638E053064F
:1020C00009F427C108F420C19CEA491698E0590692
:1020D00009F4B5C1ADEA4A16A8E05A0609F03CC3B6
:1020E000A1961CAE1DAE1EAE1FAEA19765961CAE8E
:1020F0001DAE1EAE1FAE659721961CAE1DAE1EAE68
:102100001FAE219784E1DE019996C656DF4FB98351
:10211000A883CA59D040E82F1D92EA95E9F71E011D
:10212000F5E12F0E311CD101E82F1D92EA95E9F758
:10213000C456DF4FA881B981CC59D0401D928A95F1
:10214000E9F780E090E00E943C47CB54DF4F688382
:1021500079838A839B83C55BD04081E090E00E94B5
:102160003C47C554DF4F688379838A839B83CB5B6D
:10217000D04082E090E00E943C4720E030E044EB19
:1021800052E40E949B6E2B013C01FE01FD964F0123
:102190009E012F5A3F4F5901CE01835A9F4F6C0128
:1021A00083017201C554DF4F288139814A815B81E7
:1021B000CB5BD040CB54DF4F688179818A819B8192
:1021C000C55BD0400E94B044A401B501C6010E9485
:1021D0005142A1966CAD7DAD8EAD9FADA197659638
:1021E000CCACDDACEEACFFAC65979B01AC010E94C2
:1021F000CE714B015C01A7019601C701B6010E9497
:10220000CE719B01AC01C501B4010E949C6E0E947D
:102210003B728E01075D1F4F24E045E00E94206C59
:1022200020E030E044EB52E4C301B2010E949C6E16
:10223000810124E045E00E94206C21966CAD7DADCB
:102240008EAD9FAD21970451110924E045E00E9415
:10225000206C1F930F933F922F92C556DF4FB8818A
:10226000CB59D040BF93C656DF4FE881CA59D04002
:10227000EF938BEE92E04EC2B0EC4B16B8E05B06EB
:1022800009F4ADC1D0F439EB431638E0530609F434
:1022900091C108F484C19AEB491698E0590609F4F3
:1022A00091C1ABEB4A16A8E05A0609F055C28091DD
:1022B000020185FB882780F990C1B2EC4B16B8E08B
:1022C0005B0609F4FDC108F4CCC133EC431638E0D9
:1022D000530609F407C280E6481689E0580609F05B
:1022E0003BC280915A0D8F938091590D21C28AEB88
:1022F00092E005C086E890E102C080ED92E09F93F5
:102300008F9383EC92E017C284E19DE09F938F93BB
:1023100093C080818E3409F0C8C18181805384309C
:1023200008F0C3C194E16E013DE3C30ED11CD60198
:10233000E92F1D92EA95E9F77E01F9E2EF0EF11C13
:10234000D701E92F1D92EA95E9F75E01F5E1AF0E9D
:10235000B11CD501E92F1D92EA95E9F7C456DF4F6C
:10236000A881B981CC59D0401D929A95E9F7823065
:10237000E1F0833031F1813061F082E090E00E9441
:102380003C47850124E045E00E94206CBF92AF925B
:1023900053C080E090E00E943C47860124E045E085
:1023A0000E94206CDF92CF9247C081E090E00E94B3
:1023B0003C47870124E045E00E94206CFF92EF92A9
:1023C0003BC08091590D90915A0D0497029748F4A3
:1023D0006091801070918110809182109091831093
:1023E00022C020E030E040E05FE3609100027091A5
:1023F000010280910202909103020E949B6E20E0F4
:1024000030E040E05FE30E94CE7120E030E044E342
:1024100053E40E94CE719B01AC0160E070E084E364
:1024200093E40E949B6E8E010F5F1F4F24E045E0F6
:102430000E94206C1F930F9387ED92E07CC1A196C0
:102440001CAE1DAE1EAE1FAEA19765961CAE1DAE96
:102450001EAE1FAE659721961CAE1DAE1EAE1FAE02
:10246000219784E19E01275D3F4FC656DF4F398398
:102470002883CA59D040D901E82F1D92EA95E9F77F
:102480001E01F5E12F0E311CD101E82F1D92EA95B6
:10249000E9F7C456DF4FA881B981CC59D0401D92CD
:1024A0008A95E9F780E090E00E943C472B013C01CF
:1024B00081E090E00E943C47CB54DF4F68837983F2
:1024C0008A839B83C55BD04082E090E00E943C47BA
:1024D00020E030E044EB52E40E949B6EFE01FD964A
:1024E0004F019E012F5A3F4F5901DE01A35ABF4FA2
:1024F0006D017B018C01CB54DF4F288139814A81EA
:102500005B81C55BD040C301B2010E94B044A4010D
:10251000B501C6010E945142A1966CAD7DAD8EAD54
:102520009FADA1978E01075D1F4F24E045E00E94FB
:10253000206C65966CAD7DAD8EAD9FAD65978101CC
:1025400024E045E00E94206C21966CAD7DAD8EADFF
:102550009FAD21970451110924E045E00E94206CB1
:102560001F930F933F922F92C556DF4FF881CB599F
:10257000D040FF93C656DF4F2881CA59D0402F93D1
:102580008DED92E0C7C0A49B11C08FE30E9441541F
:102590008A30910558F08734910550F005C047996D
:1025A00005C00898009B04C081E017C080E015C0FA
:1025B00082E013C082B386958695869591E089273F
:1025C00081700BC08BE30E94415421E08536910558
:1025D00008F420E01F922F93ACC01F92A9C081E0A5
:1025E00090E08C0F9D1F9F938F9389EF92E09F93B4
:1025F0008F93FF93EF930E9442730F900F900F9071
:102600000F900F900F90181619060CF041C02981F9
:102610003A812634310508F048C0F901EA57F54FF0
:102620008491F901E05CF54F1491F901E650F64F01
:102630000491002391F081110E94BD53E02FF0E03E
:10264000EE0FFF1FEE5EFC4FA591B491EC911E239F
:1026500081E090E021F480E002C080E090E09F9370
:1026600067C0A1E0B0E0AC0FBD1FBF93AF9389EF8F
:1026700092E09F938F93FF93EF930E9442730F908A
:102680000F900F900F900F900F901816190684F06E
:102690001F9281E08F938DE092E09F938F930E9431
:1026A000AF330F900F900F900F9082E390E056C0E1
:1026B00089819A8180319105C0F70E944154CFCF22
:1026C0008091580D8F938091570D8F938091560D67
:1026D0008F938091550D8F938091540D8F9380919E
:1026E000530D15C080E090E00E94EA46182F092F94
:1026F00081E090E00E94EA46F82EE92E82E090E028
:102700000E94EA46EF92FF920F931F939F938F933D
:102710008DEF92E09F938F9381E29DE09F938F9343
:102720000E9414730FB6F894DEBF0FBECDBF11C068
:102730008F9383EB93E09F938F9381E29DE09F9330
:102740008F930E9414730F900F900F900F900F9023
:102750000F9080E090E002C081E090E09C01215069
:1027600031092230310510F00C942F1FC155DF4F75
:10277000E881F981CF5AD040CF01A0E0B0E0CA553E
:10278000DF4F0880C65AD04004C0B695A7959795EC
:1027900087950A94D2F780FD3FCB81E090E0A0E0DE
:1027A000B0E0CA55DF4F0880C65AD04004C0880F39
:1027B000991FAA1FBB1F0A94D2F7E82BF92BC1550A
:1027C000DF4FF983E883CF5AD0400C940C06672B77
:1027D00011F00C94FB1EF8EE4F16F3E05F0641F08B
:1027E0002CE4421624E0520649F50E94D95523C034
:1027F000C756DF4F8881C959D040C754DF4FE881A1
:10280000F981C95BD040E80FF11D80818635C9F49C
:10281000818180538230A8F49FB7813029F0F894E9
:102820008091AF14886004C0F8948091AF148260E6
:102830008093AF149FBF80E090E005C081E090E0FE
:1028400002C082E390E09C01215031092230310521
:1028500010F00C942F1FC155DF4FE881F981CF5A3A
:10286000D040CF01A0E0B0E0CA55DF4F0880C65A83
:10287000D04004C0B695A795979587950A94D2F74E
:1028800080FDCACA81E090E0A0E0B0E0CA55DF4F09
:102890000880C65AD04004C0880F991FAA1FBB1FCA
:1028A0000A94D2F7E82BF92BC155DF4FF983E8835F
:1028B000CF5AD04095C0812F110F990BAA0BBB0B9B
:1028C000FC01E654F109E531F10510F00C94D41E39
:1028D0008827EE58FF4F8F4F0C94E172C092291554
:1028E000D0922A15E0922B15F0922C15CA55DF4F85
:1028F0001882C65AD040DAC0C0922D15D0922E153B
:10290000E0922F15F0923015C154DF4FF881CF5B64
:10291000D040F160C154DF4FF883CF5BD04021E05D
:102920004FC0C0923115D0923215E0923315F0921B
:102930003415C154DF4F3881CF5BD0403260C15471
:10294000DF4F3883CF5BD04082E05BC0C09235154B
:10295000D0923615E0923715F0923815C154DF4FFA
:102960009881CF5BD0409460C154DF4F9883CF5B98
:10297000D040A3E060C0CB54DF4FB881C55BD040EE
:10298000B0933915E4E071C0C701B6010E94E46F4D
:1029900060933A1570933B1580933C1590933D15C9
:1029A000F5E0CA55DF4FF883C65AD0407FC0C092C9
:1029B0003E15D0923F15E0924015F092411526E069
:1029C000CA55DF4F2883C65AD04070C0C092421506
:1029D000D0924315E0924415F092451537E061C05E
:1029E000CB56DF4F88819981AA81BB81C559D040E0
:1029F0008093461590934715A0934815B0934915B9
:102A000088E0CA55DF4F8883C65AD0404FC0C09275
:102A10004B15D0924C15E0924D15F0924E15C655BF
:102A2000DF4F9881CA5AD0409160C655DF4F9883D6
:102A3000CA5AD040AAE0CA55DF4FA883C65AD04030
:102A400035C0C0924F15D0925015E0925115F092BA
:102A50005215C655DF4FB881CA5AD040B260C6552C
:102A6000DF4FB883CA5AD040EBE0CA55DF4FE88346
:102A7000C65AD0401BC0C0925315D0925415E09254
:102A80005515F0925615C655DF4FF881CA5AD040F9
:102A9000F460C655DF4FF883CA5AD0402CE090CF7F
:102AA00039E0CA55DF4F3883C65AD040CA55DF4F88
:102AB0008881C65AD040082FCD54DF4FE881F98174
:102AC000C35BD040CF01A0E0B0E0CA55DF4F088023
:102AD000C65AD04004C0B695A795979587950A9495
:102AE000D2F780FF02C00C94CC1E81E693E0A0E0F8
:102AF000B0E0CA55DF4F0880C65AD04004C0B69532
:102B0000A795979587950A94D2F780FF11C020E08A
:102B100030E0A901CB56DF4F688179818A819B81A2
:102B2000C559D0400E94756F87FF02C00C94CE1E1D
:102B300081E090E0A0E0B0E004C0880F991FAA1FD8
:102B4000BB1F0A95D2F7CD54DF4F28813981C35B73
:102B5000D040282B392BCD54DF4F39832883C35BDA
:102B6000D0400C940C06C655DF4F3881CA5AD0406D
:102B7000332369F0C255DF4F8881CE5AD04081118E
:102B800006C092E0C255DF4F9883CE5AD040CD5454
:102B9000DF4FA881C35BD040A5FF0FC080913A15DD
:102BA00090913B15A0913C15B0913D158038964908
:102BB000A849B10514F00C94D01E809120158130E5
:102BC00091F4C255DF4FF881CE5AD040F23009F06F
:102BD00040C0CD54DF4F2881C35BD04020FD02C0F0
:102BE0000C94DA1E36C080915815811132C0CD5434
:102BF000DF4F3881C35BD04030FF1BC0809121156F
:102C0000813039F523E333E34BEC51E4609129152E
:102C100070912A1580912B1590912C150E94CE71E0
:102C20006093291570932A1580932B1590932C157A
:102C300010C08091651590916615A0916715B091AF
:102C400068158093291590932A15A0932B15B0939E
:102C50002C15CD54DF4F88819981C35BD04090FD06
:102C600010C08091611590916215A0916315B0918B
:102C700064158093461590934715A0934815B0931B
:102C8000491580911E158130B9F4CD54DF4F9881DC
:102C9000C35BD04096FD03C08CE10C942F1FCD5434
:102CA000DF4FA881B981C35BD040AF7BCD54DF4FEC
:102CB000B983A883C35BD040809123158823A1F0FA
:102CC000813021F1CB54DF4F1882C55BD040F2E058
:102CD000C754DF4FF883C95BD04021E0CA55DF4FAE
:102CE0002883C65AD04023C0B2E0CB54DF4FB8830C
:102CF000C55BD040E1E0C754DF4FE883C95BD040FB
:102D0000CA55DF4F1882C65AD04011C031E0CB54AB
:102D1000DF4F3883C55BD040C754DF4F1882C95B93
:102D2000D04082E0CA55DF4F8883C65AD040809198
:102D30002115813049F0C255DF4F9881CE5AD040DD
:102D4000933009F043C036C0BEE1EB2EB5E1FB2E57
:102D500000E010E0C655DF4FA881CA5AD0408A2E45
:102D6000912CA12CB12CD501C401002E04C0B69524
:102D7000A795979587950A94D2F780FF12C023E311
:102D800033E34BEC51E4F70165A576A587A590A93F
:102D90000E94CE71D7019D966D937D938D939C93E8
:102DA000D0970F5F1F4FB4E0EB0EF11C03301105FD
:102DB000D1F6C1CF80912415813041F4C655DF4F43
:102DC000E881CA5AD040E43009F0ECC78CE0EAE769
:102DD000F5E1DE01119601900D928A95E1F7C1555A
:102DE000DF4F28813981CF5AD04031FD08C0109182
:102DF0001E151230C1F0183009F4EAC058C1809194
:102E00002515873018F08DE10C942F1F90915D15DA
:102E1000891769F3BE016F5F7F4F0E94452E88239B
:102E200009F4D4C7E4CFC655DF4F3881CA5AD04021
:102E3000311103C08AE10C942F1FCD54DF4F8881DC
:102E40009981C35BD04080759927892B09F424CFE1
:102E500060913E1570913F158091401590914115FC
:102E60000E947C720E94E96F673068F68091391584
:102E7000843151F0823009F097C7CD54DF4F8881FB
:102E8000C35BD04087FD90C7CD54DF4FA881B98187
:102E9000C35BD040AF7ACD54DF4FB983A883C35B07
:102EA000D040662321F022242A94260E02C02090CE
:102EB0002515BE016B5E7F4F822D0E94452E882313
:102EC00009F484C73090391580909215909093152D
:102ED000A0909415B0909515AEE1CA2EA5E1DA2E1A
:102EE0008E010B5E1F4FE7E5F5E1C155DF4FF9831A
:102EF000E883CF5AD040E12CF12CC655DF4FF88142
:102F0000CA5AD0404F2E512C612C712CD301C201D2
:102F10000E2C04C0B695A795979587950A94D2F77D
:102F200080FF3BC024E132122EC0C155DF4FA88183
:102F3000B981CF5AD0409F962D913D914D915C9192
:102F4000D29757966D917D918D919C915A970E9441
:102F50009B6EF60125A536A547A550A90E949B6E3C
:102F6000D8016D937D938D939C931397B2E0EB12F0
:102F700014C0A50194010E949B6EF80160837183C7
:102F8000828393830AC0F60185A596A5A7A5B0A95B
:102F9000F80180839183A283B383FFEFEF1AFF0AC6
:102FA00024E0C20ED11C0C5F1F4FC155DF4F88813A
:102FB0009981CF5AD0400496C155DF4F99838883B9
:102FC000CF5AD04093E0E916F10409F09FCF4CC1ED
:102FD000C655DF4FA881CA5AD040AA2309F42ACF88
:102FE0008090921590909315A0909415B09095159F
:102FF000F7E5CF2EF5E1DF2EFE0131961F010EE140
:1030000015E1E12CF12C4A2E512C612C712CD301AD
:10301000C2010E2C04C0B695A795979587950A9482
:10302000D2F780FF29C0D1012D913D914D915C9146
:10303000F6016789708D818D928D0E949B6ED801FB
:103040009D962D913D914D915C91D0970E949B6EE4
:10305000F80165A776A787A790ABF2E0EF1216C03C
:10306000A50194010E949B6ED8019D966D937D935E
:103070008D939C93D0970AC0F60187A590A9A1A92A
:10308000B2A9F80185A796A7A7A7B0ABFFEFEF1AE3
:10309000FF0A24E0C20ED11C34E0230E311C0C5F69
:1030A0001F4F83E0E816F10409F0B1CFDCC0C25530
:1030B000DF4F9881CE5AD040933009F49DC0C65559
:1030C000DF4FA881CA5AD040AA2309F4C2C0009198
:1030D0002215409092155090931560909415709021
:1030E000951577E5A72E75E1B72EEEE1EE2EE5E119
:1030F000FE2EFE0131964F01C12CD12C8A2F90E07B
:10310000A0E0B0E0C155DF4F88839983AA83BB83D9
:10311000CF5AD040C155DF4F88819981AA81BB81A8
:10312000CF5AD0400C2C04C0B695A795979587959B
:103130000A94D2F780FD0BC0F5018789908DA18D8F
:10314000B28DF70185A796A7A7A7B0AB43C01730EC
:1031500009F440C001112BC0D5019F962D913D91DE
:103160004D915C91D297F40160817181828193814C
:103170000E949C6ED7019D962D913D914D915C9141
:10318000D0970E949C6EF70165A776A787A790ABA2
:10319000F2E0CF121FC0A30192010E949C6ED701E2
:1031A0009D966D937D938D939C93D09713C0F5015D
:1031B0002789308D418D528DD7019D966D917D91DE
:1031C0008D919C91D0970E949C6EF70165A776A780
:1031D00087A790ABFFEFCF1ADF0A24E0A20EB11C45
:1031E00034E0E30EF11C84E0880E911C93E0C916D4
:1031F000D10409F08FCF29C61530A9F0173071F12D
:10320000133089F5C655DF4FA881CA5AD040A111A5
:1032100005C0C255DF4F1882CE5AD040BE016B5E4A
:103220007F4F86E010C0C655DF4FB881CA5AD040E4
:10323000B11105C0C255DF4F1882CE5AD040BE0131
:103240006B5E7F4F87E00E94452E882309F4BEC540
:103250000AC0153079F3173009F0F3C580911F15B6
:10326000823008F0A3C5212C30901F15E8E03E12F3
:1032700011C0C655DF4FF881CA5AD040FF2309F468
:1032800005C3C255DF4F2881CE5AD040213009F006
:103290008FC511C3C255DF4F3881CE5AD04032306E
:1032A00009F0F4C2311009C0C655DF4F8881CA5AEF
:1032B000D040882309F4F1C2FEC220E030E0A90129
:1032C0006091291570912A1580912B1590912C15DC
:1032D0000E94756F882309F46DC593E0931538F04B
:1032E000A2E03A1690F4B1E03B1631F0E4C2E7E018
:1032F000E31508F0BEC2DFC2C655DF4FF881CA5AD7
:10330000D040FF2309F4C9C2D6C2C655DF4F288179
:10331000CA5AD040222309F48DCDCA55DF4F988177
:10332000C65AD040892F90E0C155DF4F99838883DA
:10333000CF5AD040C754DF4FB881C95BD040AB2FC4
:10334000B0E0CD53DF4FB983A883C35CD04081E0A8
:1033500090E0A0E0B0E06C017D01CA55DF4F08802D
:10336000C65AD04004C0CC0CDD1CEE1CFF1C0A94D5
:10337000D2F7C754DF4F0880C95BD04004C0880F24
:10338000991FAA1FBB1F0A94D2F7C82AD92AEA2A72
:10339000FB2A822F90E0A0E0B0E08C219D21AE219D
:1033A000BF21892B8A2B8B2B09F406C5C155DF4F12
:1033B00088819981CF5AD040880F991F880F991F13
:1033C000FC01E25EFA4EDC01A95ABA4E57962D91E5
:1033D0003D914D915C915A9765A576A587A590A9D9
:1033E0000E949B6E4B015C01CD53DF4F8881998118
:1033F000C35CD040880F991F880F991FFC01E25EC3
:10340000FA4EDC01A95ABA4E57962D913D914D9135
:103410005C915A9765A576A587A590A90E949B6E99
:10342000C655DF4F688379838A839B83CA5AD0400D
:10343000CD54DF4F08811981C35BD040007811273C
:10344000CD54DF4FE881C35BD040E7FF15C1CD54B9
:10345000DF4F28813981C35BD0402F77CD54DF4FB8
:1034600039832883C35BD0400E94BA68882311F057
:1034700081E2F5C4809121158130B1F423E333E377
:103480004BEC51E4609142157091431580914415C5
:10349000909145150E94CE7160934215709343152B
:1034A00080934415909345154090421550904315D4
:1034B0006090441570904515A5019401C501B401B3
:1034C0000E94CE71C154DF4F688379838A839B83C6
:1034D000CF5BD040C655DF4F288139814A815B815F
:1034E000CA5AD040CA01B9010E94CE71C554DF4FFB
:1034F000688379838A839B83CB5BD04020E030E074
:1035000040E850E4C301B2010E94CE71A3019201D0
:103510000E94CE71C154DF4F288139814A815B817D
:10352000CF5BD0400E949B6EC554DF4F288139810C
:103530004A815B81CB5BD0400E949B6E6B017C011A
:1035400020E030E0A9010E94756F87FD37C4C701F4
:10355000B6010E943B726B017C01C554DF4F28818C
:1035600039814A815B81CB5BD040C154DF4F688198
:1035700079818A819B81CF5BD0400E949C6E0E94A2
:103580003B729B01AC01C701B60190580E947C6F51
:103590006B017C0133E0331204C0F7FAF094F7F8C2
:1035A000F09420E030E0A901C301B2010E94756FE0
:1035B00087FF0FC0F7FAF094F7F8F094D301C20137
:1035C000B0588093421590934315A0934415B0933F
:1035D0004515C155DF4F08811981CF5AD040000FE2
:1035E000111F000F111F0E5D1A4EC655DF4F2881A7
:1035F00039814A815B81CA5AD040C701B6010E9415
:10360000CE719B01AC01C501B4010E949B6E20E00C
:1036100030E040E05FE30E94CE71D8011B966D93CD
:103620007D938D939C931E97CD53DF4F0881198115
:10363000C35CD040000F111F000F111F0E5D1A4E0A
:10364000A5019401C701B6010E94CE71C655DF4F96
:10365000288139814A815B81CA5AD0400E949C6E80
:1036600020E030E040E05FE30E94CE71F801638724
:103670007487858796871FC1C154DF4FF881CF5B60
:10368000D0404F2E512C612C712CC420D520E62027
:10369000F720CD28CE28CF2809F492C3CD54DF4F90
:1036A00028813981C35BD040217FCD54DF4F3983DE
:1036B0002883C35BD04080912115813009F491C0EB
:1036C000C155DF4FE881F981CF5AD040EE0FFF1F7F
:1036D000EE0FFF1FEE5DFA4EC384D484E584F684BA
:1036E000A7019601C501B4010E949B6E2B013C010C
:1036F000CD53DF4FE881F981C35CD040EE0FFF1F4F
:10370000EE0FFF1FEE5DFA4E83859485A585B68585
:10371000C155DF4F88839983AA83BB83CF5AD0409A
:103720009C01AD01C655DF4F688179818A819B81FB
:10373000CA5AD0400E949B6E4B015C01A3019201CA
:10374000C301B2010E94CE712B013C01A50194017D
:10375000C501B4010E94CE719B01AC01C301B2014D
:103760000E949C6E0E943B724B015C01A701960176
:10377000C701B6010E94CE716B017C01C155DF4FBC
:10378000288139814A815B81CF5AD040CA01B90171
:103790000E94CE719B01AC01C701B6010E949C6ED4
:1037A0000E943B726B017C0160934215709343153C
:1037B00080934415909345159B01AC01C501B4015C
:1037C0000E949B6E4B015C01E894B7F82AE037ED4C
:1037D00043EA5BE3C501B4010E949371181664F1DA
:1037E0006AC08EE1E82E85E1F82ED301C201002ED9
:1037F00004C0B695A795979587950A94D2F780FF50
:1038000012C023E333E34BEC51E4D7011F966D91D3
:103810007D918D919C9152970E94CE71F70167879F
:10382000708B818B928B0F5F1F4FF4E0EF0EF11CBA
:1038300003301105D1F644CF20E030E040E05FE3F3
:10384000C501B4010E94937118160CF411CE2FE635
:1038500032E143E85AE3C701B6010E94CE719B01F1
:10386000AC01C501B4010E94937118160CF400CE8E
:1038700022C0C655DF4F2881CA5AD040222309F4FE
:10388000D9CA0E94BA688111F3CD15C0C255DF4F65
:103890003881CE5AD04031110EC0CD54DF4F8881CF
:1038A0009981C35BD0408E7D9C7FC255DF4F1882CB
:1038B000CE5AD04008C0CD54DF4F88819981C35B78
:1038C000D0408E7D907E892B09F07CC280913A1584
:1038D00090913B15A0913C15B0913D1580936A15D0
:1038E00090936B15A0936C15B0936D158091201576
:1038F000809358158091291590912A15A0912B1528
:10390000B0912C158093651590936615A09367155B
:10391000B0936815C0904615D0904715E0904815B3
:10392000F0904915A701960160916115709162159B
:1039300080916315909164150E94756F8823F9F04A
:1039400010916015112359F080910115823039F0E2
:103950000E949D68B701A601812F0E94D72C8091FB
:10396000461590914715A0914815B091491580933F
:10397000611590936215A0936315B09364158091BF
:103980004A1580936915109128158091601581174B
:10399000B9F080910115823079F0C0906115D09016
:1039A0006215E0906315F09064150E949D68B70160
:1039B000A601812F0E94D72C809128158093601535
:1039C0001091271580915F15811781F08091011565
:1039D000823041F00E949D68123011F45C9A02C05E
:1039E0000E94085D8091271580935F1580911E15B8
:1039F000813089F08091231580935B15809121158A
:103A000080935915C255DF4F8881CE5AD0408330FC
:103A100009F074C054C080910115823059F3809030
:103A20003E1590903F15A0904015B090411520E0B4
:103A300030E040EA51E4C501B4010E94CE710E9419
:103A400052700E94E96F6B017C010E949D6820E02A
:103A500030E04AE754E4C501B4010E94CE714B0145
:103A60005C0182E38C9DB0018D9D700D112480E07E
:103A700090E00E9415709B01AC01C501B4010E9449
:103A80009B6E0E9452700E94E96FCB010E944F39D9
:103A900086010115110509F4ADCF0E945A39015074
:103AA0001109809100158111A5CF9FEFA0E7B2E029
:103AB0009150A040B040E1F700C00000EACF8091F3
:103AC000241580935C15813089F480915315909171
:103AD0005415A0915515B091561580939215909359
:103AE0009315A0939415B093951508C01092921554
:103AF000109293151092941510929515809125159A
:103B000090915D15981759F080935D158CE0FE013A
:103B10003196AAE7B5E101900D928A95E1F780917F
:103B2000221580935A15E0911E158E2F90E0FC010E
:103B30003297E830F10508F060C08827E957FF4F59
:103B40008F4F0C94E172BE016B5E7F4F822D0E94FD
:103B50003C2E80915D15281250C08CE0FE017596B8
:103B6000AAE7B5E13EC0C255DF4FE881CE5AD0404A
:103B7000EE2371F02091651530916615409167151F
:103B80005091681500E06BE475E181E00E940356F6
:103B90002091651530916615409167155091681513
:103BA00000E0BE016B5E7F4F81E00E940356182F3C
:103BB0008CE0FE017596AEE6B5E101900D928A9516
:103BC000E1F71CC06EE675E186E003C06EE675E1C4
:103BD00087E00E943C2E11C08CE0EBE4F5E1A6E802
:103BE000B5E101900D928A95E1F707C08CE0E6E817
:103BF000F5E1DF011D928A95E9F710E080911F152C
:103C000080935715883009F470C0C255DF4FB881D2
:103C1000CE5AD040B23009F068C090E088309105AB
:103C200008F05AC0FC0140906515509066156090F0
:103C30006715709068158827E157FF4F8F4F0C94D8
:103C4000E17200E0A30192016BE475E180E007C03E
:103C500000915815A30192016BE475E181E00E9487
:103C60000356182F39C06091421570914315809109
:103C70004415909145158824839409C0609142159C
:103C8000709143158091441590914515812CCB542A
:103C9000DF4FA880C55BD040C754DF4FC880C95BE9
:103CA000D040CA55DF4FE880C65AD0400091581521
:103CB000A30192010E948E690FC000E001C001E0E3
:103CC00020E004C000E001C001E021E0409158156F
:103CD000C301B2010E94F8688CE0EBE4F5E1AEE6C6
:103CE000B5E101900D928A95E1F7809126158093B8
:103CF0005E15882309F468C00E949D6890915E1546
:103D000080910115913069F48230E9F19FB7F89400
:103D10008091AF1488608093AF149FBF0E945A397E
:103D200032C091E09093571510925B1510925A157E
:103D30001092581510925D151092601510925F1533
:103D40008230A9F0BE016F5F7F4F80E00E94452E58
:103D50008823E1F18CE0FE013196AAE7B5E10190FC
:103D60000D928A95E1F70E94D02C0E94085D80EDAB
:103D700099E00E940A3484E799E00E940A348DE5B4
:103D800099E00E940A3410925E151EC081E067C05F
:103D900082E065C088E163C089E161C084E05FC002
:103DA0008BE15DC085E25BC084E159C08EE157C004
:103DB0008FE155C086E153C080E251C082E24FC01E
:103DC00083E24DC084E24BC0812F49C087E047C0E9
:103DD000EEE14E16510411F40C948F0D70F42AE0AC
:103DE0004216510411F40C946B0D3CE1431651043E
:103DF00011F40C94780D87E132C085E34816510424
:103E000011F40C94AF0D9CE549165104A1F721144F
:103E1000310439F0BAE02B16310431F689E00C9404
:103E2000930D88E00C94930D3CE54316510411F07A
:103E30000C94EA0EA1E0C255DF4FA883CE5AD040C1
:103E4000E6CF133009F00FCAE4C9153009F4F7C9F9
:103E5000173009F403CA133009F005CADFC9C85383
:103E6000DF4F0FB6F894DEBF0FBECDBFDF91CF910D
:103E70001F910F91FF90EF90DF90CF90BF90AF9088
:103E80009F908F907F906F905F904F903F902F907A
:103E900008952F923F924F925F926F927F928F92EE
:103EA0009F92AF92BF92CF92DF92EF92FF920F93C9
:103EB0001F93CF93DF93CDB7DEB7C459D1090FB6A7
:103EC000F894DEBF0FBECDBFFB01873A28E0920712
:103ED00009F480C208F046C08B34A8E09A0709F4C0
:103EE00045C1F0F4833E27E0920709F4FFC060F477
:103EF0008231910509F4FAC08C3C910509F493C014
:103F0000419709F075C078C08934A8E09A0709F490
:103F100012C108F018C18834984009F4C2C068C0C2
:103F20008D3938E0930709F4E6C178F48A39B8E0AE
:103F30009B0709F488C18B3928E0920709F4BEC1B8
:103F40008939984009F054C024C1823AA8E09A0700
:103F500009F404C208F44CC0863A984010F40C945A
:103F6000622946C0803C28E0920709F4A0C508F504
:103F7000873BA8E09A0709F453C570F48D3A28E00E
:103F8000920709F43AC38E3A38E0930709F443C420
:103F90008C3A984069F524C2893BB8E09B0709F444
:103FA00063C508F450C58A3B984011F40C9462290B
:103FB0001FC08A36A9E09A0709F44EC770F480360C
:103FC00029E0920709F402C6813639E0930709F423
:103FD000ECC6813C984061F495C58C36B9E09B07EE
:103FE00009F4B6C708F485C7843C994009F4F9C7B9
:103FF00081E090E00C9464298091EE1482FF08C067
:104000008A9A809108018160809308015F9A07C0B5
:104010008A98809108018E7F809308015F980E94A2
:104020007F3F8FE00CC18E010F5F1F4F1F930F93D7
:1040300088EC93E09F938F93FF936F930E9442735A
:104040000F900F900F900F900F900F901816190669
:104050000CF09DC71D8A1E8A1F8A188EAE014B5E0A
:104060005F4F60E070E0C8010E9419558823D1F1CC
:104070004D895E896F89788D88E70E943A2D4D8938
:104080005E896F89788D89E70E943A2D4D895E8916
:104090006F89788D8AE70E943A2D0E9459320C94DC
:1040A00062298E010F5F1F4F1F930F9383ED93E0E3
:1040B0009F938F93FF936F930E9442730F900F9083
:1040C0000F900F900F900F90181619060CF05FC705
:1040D000AE014B5E5F4F60E070E0C8010E94195571
:1040E000811108C082E390E00C9464290E94C43ED0
:1040F0000C94622920E030E04AE754E46D897E891F
:104100008F89988D0E94CE710E94E46F1616170653
:1041100094F47093120D6093110D11E01093130D30
:104120008091100D81110C9462290E94003E109321
:10413000100D0C9462291092130D1092120D109212
:10414000110D0C9462298081863561F6818180533E
:10415000823040F610928F0D813021F010928E0D3A
:104160000C94622980938E0D0C946229808186358F
:1041700009F0B8CF81818053823008F0B3CF81300D
:1041800021F01092940D0C9462298093940D0C945C
:10419000622980818E3409F0A5CF918190539430AB
:1041A00008F0A0CF923079F1933009F443C0209108
:1041B000EE1480918B0D913099F022FF08C08A9AFD
:1041C000909108019160909308015F9A07C08A98C6
:1041D000909108019E7F909308015F9884602FC0A2
:1041E00022FF08C08A9A909108019160909308017B
:1041F0005F9A07C08A98909108019E7F909308016A
:104200005F9881601CC08091EE1482FF08C08A9A7A
:10421000809108018160809308015F9A07C08A98A5
:10422000809108018E7F809308015F9880918B0DAB
:10423000826005C00E947F3F80918B0D88608093D3
:104240008B0D0C94602980818E3409F04BCF9181C5
:104250009053943008F046CF9230B1F0933041F152
:104260002091EE1480918B0D913039F022FF02C025
:104270005F9801C05F9A8B7F17C022FF02C08A98A7
:1042800001C08A9A8E7F10C08091EE1482FF04C014
:10429000809108018E7F03C0809108018160809326
:1042A000080180918B0D8D7F80938B0D0C9462297A
:1042B0000E94B63E80918B0D877FF6CF80818E3431
:1042C00009F010CF81818053843008F00BCF90919A
:1042D0008B0D823051F0833059F0813019F090FF0E
:1042E00098C394C391FD92C394C392FD8FC391C3AD
:1042F00093FF8FC38BC38E010F5F1F4F1F930F93CD
:104300008CED93E09F938F93FF936F930E94427382
:104310000F900F900F900F900F900F901816190696
:104320000CF035C68CE0F801A4E1BDE001900D92DF
:104330008A95E1F704E11DE08AEE93E0D8016D91E2
:104340008D017C01BFEFEB1AFB0A0E94615CC70183
:10435000E6EFEE16E3E0FE0689F7B4C71AA619A643
:104360001D8A1E8A1F8A188E8E010F5F1F4F8AE0DA
:10437000D8011D928A95E9F7CE0189969F938F9374
:104380001F930F9387EE93E09F938F93FF936F9309
:104390000E9442730FB6F894DEBF0FBECDBF0297E6
:1043A0000CF4F5C5AE014B5E5F4F60E070E0C801F4
:1043B0000E941955882309F495CE2D893E894F898D
:1043C000588D69A57AA5072E000C880B990B0E94C1
:1043D0001B3E78C78FEF0E94652E0E94863D72C7F4
:1043E0002E0125E6420E511C84E1D201282F1D9298
:1043F0002A95E9F73E0131E5630E711CD301282FA0
:104400001D922A95E9F78E01035C1F4FD8011D927A
:104410008A95E9F7C357DF4F188219821A821B82E7
:10442000CD58D040C757DF4F188219821A821B829D
:10443000C958D040CB57DF4F188219821A821B828D
:10444000C558D0401F930F937F926F925F924F9207
:1044500083EF93E09F938F93FF936F930E94427338
:104460000FB6F894DEBF0FBECDBF03970CF48FC517
:10447000AE0143575F4F60E070E0C2010E941955E2
:10448000882309F42FCEAE0147575F4F60E070E0FC
:10449000C3010E941955882309F424CEAE014B575D
:1044A0005F4F60E070E0C8010E941955882309F44D
:1044B00019CECF57DF4F188219821A821B82C1583A
:1044C000D040C358DF4F188219821A821B82CD5701
:1044D000D040ED961CAE1DAE1EAE1FAEED9784E132
:1044E0003E01F9E26F0E711CD301E82F1D92EA958F
:1044F000E9F72E01F5E14F0E511CD201E82F1D9274
:10450000EA95E9F79E012F5F3F4F1901D9011D92EE
:104510008A95E9F7AE014B575F4FBE0167577F4F52
:10452000CE0183579F4F0E94A641CB57DF4FE880B3
:10453000F9800A811B81C558D040C757DF4F2881B9
:1045400039814A815B81C958D040C357DF4F6881A8
:1045500079818A819B81CD58D040FE01EF57FF4F72
:104560004F01DE01A758BF4F5D0134976F010E94D4
:10457000FA4220E030E044EB52E4CF57DF4F68814D
:1045800079818A819B81C158D0400E949C6ECF570F
:10459000DF4F688379838A839B83C158D040C35897
:1045A000DF4F688179818A819B81CD57D04082011C
:1045B00024E045E00E94206CED966CAD7DAD8EADA3
:1045C0009FADED97810124E045E00E94206CCF571C
:1045D000DF4F688179818A819B81C158D0408301F6
:1045E00024E045E00E94206C3F922F925F924F9210
:1045F0007F926F928CEA92E000C12E0135E6430E65
:10460000511C84E1D201282F1D922A95E9F73E0121
:1046100031E5630E711CD301282F1D922A95E9F70D
:104620008E01035C1F4FD8011D928A95E9F7C3578D
:10463000DF4F188219821A821B82CD58D040C7578B
:10464000DF4F188219821A821B82C958D040CB577B
:10465000DF4F188219821A821B82C558D0401F93DF
:104660000F937F926F925F924F9282E194E09F93BB
:104670008F93FF936F930E9442730FB6F894DEBF3F
:104680000FBECDBF03970CF482C4AE0143575F4FFA
:1046900060E070E0C2010E941955882309F422CD20
:1046A000AE0147575F4F60E070E0C3010E941955AB
:1046B000882309F417CDAE014B575F4F60E070E0DF
:1046C000C8010E941955882309F40CCDCF57DF4F3C
:1046D000188219821A821B82C158D040C358DF4FFA
:1046E000188219821A821B82CD57D040ED961CAEDB
:1046F0001DAE1EAE1FAEED9784E13E01F9E26F0ED6
:10470000711CD301E82F1D92EA95E9F72E01F5E11E
:104710004F0E511CD201E82F1D92EA95E9F79E0138
:104720002F5F3F4F1901D9011D928A95E9F720E0CB
:1047300030E044EB52E4C357DF4F688179818A81CE
:104740009B81CD58D0400E949B6E7B018C01C3574A
:10475000DF4F688379838A839B83CD58D040CB57C2
:10476000DF4F288139814A815B81C558D040C757C6
:10477000DF4F688179818A819B81C958D040FE01D1
:10478000E758FF4F4F01DE01A358BF4F5D01389638
:104790006F010E94B044A401B501C6010E945142BC
:1047A000CF57DF4F688179818A819B81C158D04082
:1047B000830124E045E00E94206CC358DF4F6881EC
:1047C00079818A819B81CD57D040820124E045E0E8
:1047D0000E94206CED966CAD7DAD8EAD9FADED97DA
:1047E000810124E045E00E94206C3F922F925F926D
:1047F0004F927F926F928DED92E09F938F9381E223
:104800009DE09F938F930E9414730FB6F894DEBFC0
:104810000FBECDBF57C5CF57DF4F188219821A82FE
:104820001B82C158D040C358DF4F188219821A82A8
:104830001B82CD57D040ED961CAE1DAE1EAE1FAEF6
:10484000ED9784E12E0139E2430E511CD201282F4D
:104850001D922A95E9F73E0135E1630E711CD301E3
:10486000282F1D922A95E9F7DE0111967D011D92F0
:104870008A95E9F78E010B571F4F8FEF90E0D80113
:104880008D939C931F930F93FF92EF927F926F9261
:104890005F924F9281E394E09F938F93FF936F9386
:1048A0000E9442730FB6F894DEBF0FBECDBF0497CF
:1048B0000CF46DC3AE014F575F4F60E070E0C20172
:1048C0000E941955882309F40DCCAE0143585F4F5F
:1048D00060E070E0C3010E941955882309F402CCFE
:1048E000AE0147585F4F60E070E0C7010E94195564
:1048F000882309F4F7CBD8018D919C91009709F496
:1049000043C0019709F0EECBCF57DF4F4880598065
:104910006A807B80C158D04020E030E044EB52E414
:10492000C358DF4F688179818A819B81CD57D04000
:104930000E949B6E21EE3EE245E652E40E947C6FAF
:104940006B017C010E94796F9B01AC01C301B20134
:104950000E94CE71CF57DF4F688379838A839B8310
:10496000C158D040C701B6010E9431729B01AC0111
:10497000C301B2010E94CE71C358DF4F68837983AF
:104980008A839B83CD57D040AE0147585F4FBE010D
:1049900063587F4FCE018F579F4F0E94A641ED96DF
:1049A000ECACFDAC0EAD1FADED97C358DF4F2881C9
:1049B00039814A815B81CD57D040CF57DF4F688125
:1049C00079818A819B81C158D040FE01FD964F01BB
:1049D000DE01AF5ABF4F5D01B8966F010E94FA42E7
:1049E0002196ECACFDAC0EAD1FAD219765962CADBC
:1049F0003DAD4EAD5FAD6597A9966CAD7DAD8EAD0D
:104A00009FADA9970E942646882319F067ED73E0B1
:104A100002C063EC73E081E29DE00E940D7352C41A
:104A20008081863509F05ECB81818053823008F029
:104A300059CB813019F00E94813D44C49C9A9D9AC3
:104A4000A49AA5983FC48081863509F04BCB81811B
:104A50008053823008F046CB813019F00E947E3DB1
:104A600031C43F9A47982EC48081863509F03ACBED
:104A700081818053823008F035CB813019F00E945B
:104A80006D3D20C48091010180628093010180917D
:104A90000101806480930101809102018062809312
:104AA0000201809102018064809302010BC4CE0157
:104AB00001969F938F9344969F938F9383E594E001
:104AC0009F938F93FF936F930E9442730FB6F89456
:104AD000DEBF0FBECDBF02970CF459C28D899E89EF
:104AE0008634910508F0FECA29813A8122303105C9
:104AF00008F0F8CA232B11F061E001C060E00E94C9
:104B00001354E0C3CE0101969F938F9344969F93D5
:104B10008F9383E594E09F938F93FF936F930E940D
:104B200042730FB6F894DEBF0FBECDBF02970CF4F0
:104B30002EC28D899E898634910508F0D3CA2981B9
:104B40003A812230310508F0CDCAFC01E05CF54F16
:104B50008650964F232BD1F02491FC018491882319
:104B600009F4B0C390E0880F991FFC01E455F84F99
:104B7000A591B491FC01E052F64F859194918FB7C5
:104B8000F894EC91E22BEC938FBF9CC32491FC0131
:104B90008491882309F496C390E0880F991FFC0143
:104BA000E455F84F45915491FC01E052F64FA59120
:104BB000B4919FB7F894FA01808120958223808375
:104BC0008C91E22FE823EC939FBF7CC380818335D7
:104BD00009F088CA8181E0EDE80FE83008F082CA68
:104BE0008E2F90E0FC013197E730F10530F48827F3
:104BF000E956FF4F8F4F0C94E1720E94B63E10921F
:104C00005A0D1092590D8AE999E1A5E9B2E4809311
:104C10005F0D9093600DA093610DB093620D8AE9D2
:104C200099E9A2E6B2E4B8C00E94B63E81E090E005
:104C300090935A0D8093590D86EF98E2ACE4B2E45C
:104C400080935F0D9093600DA093610DB093620D02
:104C50008DEC9CECA0E8B2E49FC00E94B63E82E0DE
:104C600090E090935A0D8093590D89E29CEDA4E950
:104C7000B2E480935F0D9093600DA093610DB093AB
:104C8000620D80E090E0A2E6B2E486C00E94B63EEB
:104C900083E090E090935A0D8093590D80E090E06E
:104CA000ACE2B2E480935F0D9093600DA093610D30
:104CB000B093620D80E090E0ABE8B2E46DC00E947A
:104CC000B63E84E090E090935A0D8093590D80E0B9
:104CD00090E0ACE1B2E480935F0D9093600DA093FF
:104CE000610DB093620D80E090E0A9E9B2E418C0D4
:104CF0000E94B63E85E090E090935A0D8093590D46
:104D00008DEC9CECA2E9B2E480935F0D9093600D72
:104D1000A093610DB093620D80E090E0A8E9B2E449
:104D200080935B0D90935C0DA0935D0DB0935E0D31
:104D30000E94893EDBC00E94B63E86E090E09093E0
:104D40005A0D8093590D86E696E6AAE9B2E480935F
:104D50005F0D9093600DA093610DB093620D80E0A4
:104D600090E0AAE5B2E418C00E94B63E87E090E069
:104D700090935A0D8093590D85E89BEEABECB1E40E
:104D800080935F0D9093600DA093610DB093620DC1
:104D900080E090E0A2E3B2E480935B0D90935C0D21
:104DA000A0935D0DB0935E0DA1C080E090E00E94E5
:104DB000EA469093560D8093550D81E090E00E9455
:104DC000EA469093580D8093570D82E090E00E9440
:104DD000EA469093540D8093530D03E51DE084E360
:104DE00093E0D8016D918D017C01BFEFEB1AFB0AB6
:104DF0000E94615CC701EAE3EE16E3E0FE0689F774
:104E00006BEB82E393E00E94615C0E94C04680E00D
:104E100090E00E943C476093670D7093680D80930B
:104E2000690D90936A0D81E090E00E943C47609389
:104E30006B0D70936C0D80936D0D90936E0D82E0F1
:104E400090E00E943C4760936F0D7093700D8093CB
:104E5000710D9093720D36C260910C1570910D1505
:104E600080910E1590910F150E9417702B013C0137
:104E7000609108157091091580910A1590910B1594
:104E80000E941770CF56DF4F688379838A839B8394
:104E9000C159D04060910415709105158091061597
:104EA000909107150E9417709E012F5F3F4F490197
:104EB000DE0155965D01FE01B9966F018301720115
:104EC000CF56DF4F288139814A815B81C159D0405B
:104ED0000E94954589819A81AB81BC8180935F0D49
:104EE0009093600DA093610DB093620D0E94C13D3F
:104EF000E9C11D8A1E8A1F8A188E8E010F5F1F4FFF
:104F000084E1D8011D928A95E9F71F930F938AE5F2
:104F100094E09F938F93FF936F930E9442730F903F
:104F20000F900F900F900F900F90181619067CF5A8
:104F3000AE014B5E5F4F60E070E0C8010E94195502
:104F4000882309F4CFC88D899E89AF89B88D24CF75
:104F50001D8A1E8A1F8A188E8E010F5F1F4F84E1E3
:104F6000D8011D928A95E9F71F930F9385E694E087
:104F70009F938F93FF936F930E9442730F900F90B4
:104F80000F900F900F900F901816190674F01F9243
:104F900081E08F938DE092E09F938F930E94AF33D7
:104FA0000F900F900F900F909DC8AE014B5E5F4F1A
:104FB00060E070E0C8010E941955882309F492C886
:104FC0008D899E89AF89B88D8093630D9093640D10
:104FD000A093650DB093660D0E94C13D0E94893E6D
:104FE00071C189986FE8662E6EE0762E830182E0AB
:104FF00090E00E94EA46F801819391938F0150E975
:10500000E52EFF24F394889A6AE070E080E090E057
:105010000E94113988986CE271E080E090E00E9473
:105020001139F1E0EF1AF10871F788EE93E00E9470
:105030004F392FE007351207D1F682E090E00E9449
:10504000EA469093580F8093570F899A00E21EE426
:10505000889A6AE070E080E090E00E9411398898B8
:105060006CE271E080E090E00E941139015011097A
:1050700079F78F984EE0E42EF12C00E911E08E9A3A
:105080006AE070E080E090E00E9411398E986CE256
:1050900071E080E090E00E9411390150110979F728
:1050A00031E0E31AF10849F788EE93E00E944F39A6
:1050B0008F9A3FE0232E3EE0332E210100E010E0E6
:1050C00080E090E00E94EA46D2018D939D932D01ED
:1050D00020E9E22EFF24F3948E9A6AE070E080E0EB
:1050E00090E00E9411398E9864EF71E080E090E0CA
:1050F0000E941139B1E0EB1AF10871F70E30110579
:10510000A9F088EE93E00E944F390F5F1F4F0F33D5
:105110001105B1F680E090E00E94EA4690938E0E71
:1051200080938D0E8F9800E51DE223C080910B01C6
:105130008D7F80930B01E12C92E3F92E80910B017E
:10514000886080930B016AE070E080E090E00E944C
:10515000113980910B01877F80930B016CE271E024
:1051600080E090E00E941139E1E0EE1AF10831F799
:10517000C8CF8E9A6AE070E080E090E00E9411391A
:105180008E986CE271E080E090E00E94113901504D
:10519000110979F788EE93E00E944F3980910B0155
:1051A000826080930B0100E913E380910B0188601A
:1051B00080930B016AE070E080E090E00E9411397A
:1051C00080910B01877F80930B016CE271E080E09E
:1051D00090E00E9411390150110939F788EE93E0EF
:1051E0000E944F3980910B018D7F80930B0105E95F
:1051F0001DE0280181E090E00E94EA46D2018D93F3
:105200009D932D0180E9E82EFF24F39480910B01FA
:10521000886080930B016AE070E080E090E00E947B
:10522000113980910B01877F80930B016CE271E053
:1052300080E090E00E941139B1E0EB1AF10831F7FB
:1052400088EE93E00E944F39EDE04E16EEE05E06E8
:1052500089F681E090E00E94EA4690930E0E8093DA
:105260000D0E81E090E0D3016D913D012C01BFEF67
:105270004B1A5B0A0E94615CC2018B3C910599F755
:10528000F10161911F013201FFEF6F1A7F0AC20124
:105290000E94615C23012BE4621621E0720681F713
:1052A000D8016D918D017301BFEFEB1AFB0AC301A9
:1052B0000E94615C3701E5ECEE16E1E0FE0681F745
:1052C0000E94F93C80E090E0CC56DF4F0FB6F89496
:1052D000DEBF0FBECDBFDF91CF911F910F91FF9029
:1052E000EF90DF90CF90BF90AF909F908F907F9086
:1052F0006F905F904F903F902F90089569E080E00D
:1053000090E00E94615C4DE450E061EB74E181E06B
:1053100098E00C94835CCF92DF92EF92FF920F9310
:105320001F939091E214092F10E020E030E080916B
:10533000E314482F50E060E070E0917081706801E4
:105340007901F694E794D794C794C0FC92606A01FF
:105350007B01F694E794D794C794C0FC8260E2E0A6
:105360003695279517950795EA95D1F700FD946036
:1053700022E076956795579547952A95D1F740FD98
:10538000846090939710809396101F910F91FF90D7
:10539000EF90DF90CF9008951F920F920FB60F926B
:1053A00011240BB60F922F933F938F939F93EF93FC
:1053B000FF9321B330919710832F817090E036E0F6
:1053C000880F991F3A95E1F7922F9F7B892B81BB1C
:1053D000EBE0F1E09081809197108270880F880F48
:1053E000977F892B808381B39091971092FB9927A7
:1053F00090F98E7F892B81BB15BCFF91EF919F9116
:105400008F913F912F910F900BBE0F900FBE0F9079
:105410001F90189580916F008D7F80936F00809111
:105420008100887F81608093810010929810809124
:10543000E4148F3F21F49091FF14992349F0909147
:105440000115943029F090E00E944F3981E001C0AD
:1054500080E09091EE1492FF02C091E089278823AA
:1054600041F08A9A809108018160809308015F9AD7
:1054700008958A98809108018E7F809308015F9833
:1054800008951F920F920FB60F9211240BB60F9230
:105490002F933F934F935F936F937F938F939F933C
:1054A000AF93BF93EF93FF9380919810811139C20E
:1054B0008091A81080FD8F9A80FF8F9890910B01AA
:1054C000482F42709D7F942B90930B0141B38470C1
:1054D00090E095958795942F9D7F892B81BB91B303
:1054E0008091A710282F217030E066E0220F331F33
:1054F0006A95E1F79F7B292B21BB90910B01282F07
:105500002270220F220F977F922B90930B0121B3D1
:1055100082FB992790F9822F8E7F892B81BB809106
:10552000A61086BD82E085BD81E0809398107894B6
:105530008091BA109091BB10892B09F0ACC080917A
:10554000A1139091C613981709F49BC0E091A11381
:105550002E2F30E086E0E89FF0011124EE55FC4E3E
:10556000F093BB10E093BA108381948190938900EB
:1055700080938800808191819093B6108093B510BC
:10558000E2818091B7108E1761F1E093B71081E14D
:10559000E89FF0011124E953FC4EF093B910E09319
:1055A000B81085859685A785B089B695A7959795F6
:1055B00087958093A1109093A210A093A310B0930D
:1055C000A41080939D1090939E10A0939F10B09371
:1055D000A0108093991090939A10A0939B10B09371
:1055E0009C10E091B810F091B910908180919610C4
:1055F00089278093A81086E0829FD001839FB00DF9
:105600001124AE55BC4E15962C9181819281A381B7
:10561000B481022E04C0B695A795979587950A94F4
:10562000D2F78093A9109093AA10A093AB10B093D7
:10563000AC1085819681A781B085022E04C0B695F5
:10564000A795979587950A94D2F78093AD1090937C
:10565000AE10A093AF10B093B01081859285A38552
:10566000B48504C0B695A795979587952A95D2F7E6
:105670008093B1109093B210A093B310B093B41074
:105680000AC0C8DE9FB7F8948091AF1484608093FD
:10569000AF149FBF46C18091B0148130B1F489B17D
:1056A00080719091FE14891781F01092B0148CE0F3
:1056B000E4E0F5E1A0E1B5E101900D928A95E1F712
:1056C0008091AF1480648093AF141092A710409122
:1056D000991050919A1060919B1070919C1080913C
:1056E000A9109091AA10A091AB10B091AC10840FAA
:1056F000951FA61FB71F8093991090939A10A0939F
:105700009B10B0939C10E091B810F091B9104585B2
:10571000568567857089481759076A077B0768F5BA
:1057200021E02093A7104585568567857089841BE5
:10573000950BA60BB70B8093991090939A10A0939A
:105740009B10B0939C1020818091041590910515B9
:10575000A0910615B091071520FF04C00197A1097B
:10576000B10903C00196A11DB11D8093041590934A
:105770000515A0930615B093071540919D10509103
:105780009E1060919F107091A0108091AD1090912B
:10579000AE10A091AF10B091B010840F951FA61F4E
:1057A000B71F80939D1090939E10A0939F10B0936D
:1057B000A0104585568567857089481759076A077F
:1057C0007B0778F52091A71022602093A7104585CC
:1057D000568567857089841B950BA60BB70B809344
:1057E0009D1090939E10A0939F10B093A0102081C5
:1057F0008091081590910915A0910A15B0910B158B
:1058000021FF04C00197A109B10903C00196A11DA0
:10581000B11D8093081590930915A0930A15B093B4
:105820000B154091A1105091A2106091A31070919E
:10583000A4108091B1109091B210A091B310B091CA
:10584000B410840F951FA61FB71F8093A1109093CB
:10585000A210A093A310B093A41045855685678528
:105860007089481759076A077B0778F52091A710B8
:1058700024602093A7104585568567857089841B11
:10588000950BA60BB70B8093A1109093A210A09339
:10589000A310B093A410208180910C1590910D1548
:1058A000A0910E15B0910F1522FF04C00197A10918
:1058B000B10903C00196A11DB11D80930C159093F1
:1058C0000D15A0930E15B0930F158091011584301E
:1058D00039F49091A71080911D1589238093A7100A
:1058E0008091B5109091B61001979093B610809367
:1058F000B510892B69F41092BB101092BA108091E8
:10590000A1138F5F8093A113863011F41092A1131D
:105910009091A7108091971089278093A7101092DB
:105920009810FF91EF91BF91AF919F918F917F91CF
:105930006F915F914F913F912F910F900BBE0F9000
:105940000FBE0F901F9018958091EE1482FF08C033
:105950008A9A809108018160809308015F9A07C04C
:105960008A98809108018E7F809308015F988091CA
:1059700001158C70A1F0809196108093A8108091F1
:1059800097108093A7108091E114880F845081951F
:105990008093A61080916F00826080936F000895BD
:1059A000E0EAF0E080818F7D80835C980895CF925B
:1059B000DF92EF92FF926A017B01811105C0FF9097
:1059C000EF90DF90CF90ECCF813011F45C9801C064
:1059D0005C9A83E28093A0008091A100807E8A611E
:1059E0008093A1008FEF9FEF9093A9008093A80070
:1059F00020E030E0A901C701B6010E94756F1816BA
:105A0000F4F620E030E0A901C701B6010E94756FED
:105A100087FD11C020E030E04AE754E4C701B60139
:105A20000E949371181654F4C12CD12C8AE7E82EE9
:105A300084E4F82E03C0C12CD12C76012CEE31E188
:105A400043E852E4C701B6010E94CE7120E030E085
:105A500040E05FE30E949C6E0E9452700E94E96FDA
:105A60007093AB006093AA005C9AFF90EF90DF9078
:105A7000CF900895CF92DF92EF92FF92CF93DF9372
:105A8000C82F6A017B0120E030E0A901C701B601FF
:105A90000E94756F87FDE2C0C43608F441C08CE9EE
:105AA0008C0F20E0833098F590E0880F991F880FC5
:105AB000991F223079F0FC01233011F1213019F0C7
:105AC000EF54FB4E02C0E354FB4EC082D182E2820F
:105AD000F382C1C0EC01C753DB4E20E030E040E769
