:10000000D2C40000F1C40000EFC40000EDC4000041
:10001000EBC40000E9C40000E7C40000E5C4000030
:10002000E3C400000C948550DFC400000C94862FBC
:10003000DBC40000D9C40000D7C400000C94244BDA
:10004000D3C400000C943C42CFC40000CDC40000D7
:10005000CBC40000C9C40000C7C400000C94C74151
:10006000C3C400000C9468470C94C947BDC4000089
:10007000BBC40000B9C40000B7C40000B5C4000090
:10008000B3C40000B1C40000AFC400000C940E4B18
:10009000ABC40000A9C40000A7C40000A5C40000B0
:1000A000A3C40000A1C400009FC400009DC40000C0
:1000B0009BC400000C94D34A97C4000095C4000070
:1000C00093C4000091C400000C949E4A8DC40000AB
:1000D0008BC4000089C4000087C4000085C40000F0
:1000E00083C40000E60BFD0B160C2F0C480C610CB2
:1000F000840C4B13021D021D571368137C139013BD
:10010000021D9413021DA513021DAF13B91302148F
:10011000021D021D021DC613DA13EE13D61BEB1BC4
:10012000181CEB1B1C1C331C221C2C1C551C5C1C9F
:10013000671C721C8B1C8D1C901C921C9E45A44538
:10014000A745AA45AE45B645BE452B462B462B4690
:10015000C645C945D245DB452B462B462B462B468B
:100160002B462B46E345ED45F945034606460F462B
:1001700018461E46084AD73B3BCE016E84BCBFFDE5
:10018000C12F3D6C74319ABD56833DDA3D00C77F67
:1001900011BED9E4BB4C3E916BAAAABE0000008000
:1001A0003F072C7AA5BA6CC590DA3B9365FC8BBCF3
:1001B00053F810FD3C5692834DBD879D3AB63DCB1A
:1001C000C9BF5BBE73DA0FC93F05A84CCDB2D44E90
:1001D000B93836A9020C50B9918688083CA6AAAA5B
:1001E0002ABE000000803F0000407A10F35A00A0B1
:1001F000724E18090010A5D4E80000E876481700F0
:1002000000E40B54020000CA9A3B000000E1F5052F
:10021000000080969800000040420F000000A08679
:1002200001000000102700000000E80300000000AB
:100230006400000000000A0000000000010000004F
:1002400000002C76D888DC674F0823DFC1DFAE5969
:10025000E1B1B796E5E3E453C63AE651997696E8FC
:10026000E6C28426EB898C9B62ED407C6FFCEFBC80
:100270009C9F40F2BAA56FA5F490055A2AF75C93AB
:100280006B6CF9676DC11BFCE0E40D47FEF520E6E1
:10029000B500D0ED902E0300943577050080841EC4
:1002A000080000204E0A000000C80C333333330F1F
:1002B000986E12831141EF8D2114893BE65516CFBC
:1002C000FEE6DB18D1844B381BF77C1D901DA4BBC8
:1002D000E424203284725E228100C9F124ECA1E57D
:1002E0003D276364696E6F70737578585B000D0A03
:1002F0004772626C20302E396A205B2724272066E3
:100300006F722068656C705D0D0A000D0A003D007B
:10031000244E005D0D0A005B302E396A2E323031DA
:1003200036303732363A005D0D0A005B544C4F3A96
:10033000005D0D0A002C005B4739323A005D0D0A62
:10034000002C003A003330003238005B47005D0D6E
:100350000A00205300204600205400204D38002081
:100360004D3900204D3500204D3400204D33002004
:100370004D3200204D3100204D30002047393400EF
:1003800020473933002047393100204739300020D9
:1003900047323000204732310020473139002047B2
:1003A00031380020473137002047004733382E00CE
:1003B00047383000473300473200473100473000AC
:1003C0005B00290D0A00206D6178207472617665EA
:1003D0006C2C206D6D0020616363656C2C206D6D4D
:1003E0002F7365635E3200206D61782072617465E1
:1003F0002C206D6D2F6D696E002C20737465702F2D
:100400006D6D007A00790078002028003D002400FE
:100410002028686F6D696E672070756C6C2D6F6633
:10042000662C206D6D290D0A002028686F6D696E9D
:1004300067206465626F756E63652C206D736563FC
:10044000290D0A2432373D002028686F6D696E67D8
:10045000207365656B2C206D6D2F6D696E290D0AFB
:100460002432363D002028686F6D696E672066650E
:1004700065642C206D6D2F6D696E290D0A2432354F
:100480003D00290D0A2432343D002028686F6D6933
:100490006E672064697220696E76657274206D6182
:1004A000736B3A002028686F6D696E67206379630B
:1004B0006C652C20626F6F6C290D0A2432333D006D
:1004C000202868617264206C696D6974732C2062E5
:1004D0006F6F6C290D0A2432323D002028736F663D
:1004E00074206C696D6974732C20626F6F6C290DB8
:1004F0000A2432313D0020287265706F72742069C1
:100500006E636865732C20626F6F6C290D0A24324C
:10051000303D00202861726320746F6C6572616EDB
:1005200063652C206D6D290D0A2431333D00202890
:100530006A756E6374696F6E20646576696174694B
:100540006F6E2C206D6D290D0A2431323D00290D6E
:100550000A2431313D002028737461747573207250
:1005600065706F7274206D61736B3A002028707231
:100570006F62652070696E20696E766572742C20DA
:10058000626F6F6C290D0A2431303D0020286C69A0
:100590006D69742070696E7320696E766572742C53
:1005A00020626F6F6C290D0A24363D002028737479
:1005B000657020656E61626C6520696E7665727427
:1005C0002C20626F6F6C290D0A24353D00290D0A1D
:1005D00024343D00202864697220706F7274206991
:1005E0006E76657274206D61736B3A00290D0A2472
:1005F000333D0020287374657020706F7274206919
:100600006E76657274206D61736B3A002028737486
:1006100065702069646C652064656C61792C206D5F
:10062000736563290D0A24323D00202873746570B8
:100630002070756C73652C2075736563290D0A2411
:10064000313D0024303D0024242028766965772040
:100650004772626C2073657474696E6773290D0A42
:100660002423202876696577202320706172616DCC
:100670006574657273290D0A2447202876696577A9
:1006800020706172736572207374617465290D0A3C
:100690002449202876696577206275696C64206931
:1006A0006E666F290D0A244E2028766965772073BF
:1006B00074617274757020626C6F636B73290D0ABC
:1006C00024783D76616C75652028736176652047D6
:1006D00072626C2073657474696E67290D0A244E0A
:1006E000783D6C696E65202873617665207374614E
:1006F0007274757020626C6F636B290D0A2443203D
:1007000028636865636B2067636F6465206D6F6441
:1007100065290D0A245820286B696C6C20616C6176
:10072000726D206C6F636B290D0A24482028727546
:100730006E20686F6D696E67206379636C65290D43
:100740000A7E20286379636C652073746172742952
:100750000D0A2120286665656420686F6C64290D88
:100760000A3F202863757272656E74207374617419
:100770007573290D0A6374726C2D78202872657365
:100780006574204772626C290D0A000D0A00486FDB
:100790006D696E67206661696C0050726F626520DA
:1007A0006661696C0041626F727420647572696E73
:1007B00067206379636C6500536F6674206C696DA4
:1007C00069740048617264206C696D697400414C01
:1007D00041524D3A20003E0D0A002C4C696D3A0002
:1007E0002C52583A002C4275663A002C002C575077
:1007F0006F733A002C002C4D506F733A003C446FDD
:100800006F72003C436865636B003C416C61726DC4
:10081000003C486F6D65003C486F6C64003C52754D
:100820006E003C49646C65005D0D0A00526573748E
:100830006F72696E672064656661756C74730050D1
:10084000676D20456E6400436865636B20446F6F7D
:10085000720044697361626C656400456E61626C2C
:1008600065640043617574696F6E3A20556E6C6FF4
:10087000636B656400272448277C2724582720744D
:100880006F20756E6C6F636B0052657365742074B6
:100890006F20636F6E74696E7565005B005D0D0A95
:1008A000003A002C005B5052423A000D0A00496E9B
:1008B00076616C69642067636F64652049443A001F
:1008C000556E646566696E65642066656564207250
:1008D000617465004D6F64616C2067726F75702084
:1008E00076696F6C6174696F6E00486F6D696E67D1
:1008F000206E6F7420656E61626C656400416C618E
:10090000726D206C6F636B004E6F742069646C6550
:1009100000454550524F4D20726561642066616903
:100920006C2E205573696E672064656661756C7402
:10093000730056616C7565203C20332075736563C8
:100940000053657474696E672064697361626C65D5
:10095000640056616C7565203C203000496E7661FC
:100960006C69642073746174656D656E74004261B6
:1009700064206E756D62657220666F726D617400C1
:10098000457870656374656420636F6D6D616E6436
:10099000206C6574746572006572726F723A200023
:1009A0006F6B0D0A000011241FBECFEFD1E2DEBF36
:1009B000CDBF00E00CBF14E0A0E0B2E0EAE5FFED3F
:1009C00000E00BBF02C007900D92A232B107D9F729
:1009D00023E1A2E2B4E001C01D92AF34B207E1F717
:1009E0000E9481530C94AB6F0BCB2F923F924F928E
:1009F0005F926F927F928F929F92AF92BF92CF92AF
:100A0000DF92EF92FF920F931F93CF93DF93CDB7B7
:100A1000DEB7C158D1090FB6F894DEBF0FBECDBF07
:100A2000E1969FAF8EAFE19789E3E7EFF2E1DF0157
:100A30001D928A95E9F78AE0E8E6F2E1A8EFB2E1D3
:100A400001900D928A95E1F7FE01E55AFF4F108261
:100A5000A9961FAE1EAEA997AF961FAE1EAEAF975A
:100A6000E2961FAEE297A3961FAEA397A7961FAE7E
:100A7000A7976C968FAD6C97E196EEADFFADE197C1
:100A8000E80FF11D1081112311F40C943D149FEB1C
:100A9000910F9A3110F00C94F41C8F5F6C968FAF0D
:100AA0006C97AE014B5A5F4FBE01655A7F4FE1967E
:100AB0008EAD9FADE1970E94AC4B882311F40C944E
:100AC000F61C6996CCACDDACEEACFFAC6997C70107
:100AD000B6010E94CC680E9419664B015C011B01A3
:100AE00080E090E00E9445669B01AC01C701B60121
:100AF0000E94CB6420E030E048EC52E40E94FE67A4
:100B00000E9461680E9419663B011D3409F43DC2D0
:100B1000103511F40C94290F173411F00C9438137C
:100B20006C968FAD6C97E1966EAD7FADE197680FD7
:100B3000711DAE01455A5F4FC4010E94A7209C0160
:100B4000215031092230310510F00C94511DB8E2CA
:100B50008B16910409F4E1C180F5F4E18F1691043C
:100B600098F421E18216910408F046C134E083161E
:100B7000910409F46EC008F4D2C09AE08916910479
:100B800009F45AC00C94021DACE18A16910409F4D0
:100B900053C038F4E6E18E16910408F47DC10C943C
:100BA000021DFEE18F16910409F446C026E282166A
:100BB000910409F4B4C00C94021D3DE38316910422
:100BC00009F4A2C1F0F495E38916910409F441C037
:100BD00060F4BBE28B16910409F46EC1E1E38E165A
:100BE000910409F469C10C94021DFCE38F16910471
:100BF00010F00C94021D8AEC880D8093FE1289E09F
:100C00007FC12CE58216910460F43AE583169104C5
:100C100008F008C180E58816910409F48AC00C9494
:100C2000021D9CE58916910439F0AFE58A169104FE
:100C300008F41FC10C94021D6114710411F00C948E
:100C4000141DA796BFADA797BB2309F440C00C9411
:100C5000F81CECE12E16310469F148F424E0221668
:100C6000310479F03AE023163104C9F05BC18EE11A
:100C700028163104A1F195E32916310409F44BC07B
:100C800051C181E049C0BFE12B163104D0F5EAE043
:100C90002E16310431F4A1E0A796AFAFA79782E0FA
:100CA0003BC0FCE12F16310409F048C1B1E0A79622
:100CB000BFAFA7976114710441F0EAE06E167104AA
:100CC00011F00C94021D84E00EC083E00CC0AEE174
:100CD0002A163104C1F6F1E0A796FFAFA797611479
:100CE000710439F485E08093F712A1961FAEA197A5
:100CF0002CC12AE06216710411F00C94021D86E0EA
:100D0000F2CF25E32216310411F00C94421D31E09C
:100D1000A7963FAFA79787E08093F71203C1A796E6
:100D2000AFADA797A1110C94F81CB2E0A796BFAF86
:100D3000A797E2E02E16310419F158F4211431047A
:100D4000D9F02A94232809F0F1C081E08093F812A9
:100D5000EDC036E223163104C1F080E528163104D7
:100D600009F445C093E02916310409F0DFC083E09F
:100D70008093F812F1E08CC01092F812A1E0CEC07E
:100D800082E08093F812E1E07CC02EE162167104EB
:100D9000F1F070F484E16816710411F00C94021DF6
:100DA00084E08093F812B1E0A196BFAFA197CDC0C7
:100DB00098E26916710499F0A2E36A16710411F0C1
:100DC0000C94021D87E08093F81221E035C085E085
:100DD0008093F812E1E0A196EFAFA197B6C086E04C
:100DE0008093F812F1E0A196FFAFA197AEC088E022
:100DF0008093F81231E058C082E18816910441F0E6
:100E000093E18916910449F01092FC12A2E086C089
:100E100081E08093FC12B2E08AC082E08093FC12F1
:100E2000E2E02FC06114710499F4FAE58F16910481
:100E300039F41092FB1223E0A1962FAFA19785C041
:100E400081E08093FB1233E0A1963FAFA1977DC074
:100E50008AE06816710411F00C94021D9AE5891657
:100E6000910411F40C94021DA4E0A196AFAFA197D8
:100E70006CC0BDE58B16910441F481E08093F912BA
:100E8000E5E0A196EFAFA19755C01092F912F5E0F9
:100E9000A196FFAFA1974EC024E18216910441F4C0
:100EA00081E08093FA1236E0A1963FAFA19742C04D
:100EB0001092FA1286E024C0A7969FADA7979111D1
:100EC0000C94F81CA1E32A16310441F41092FD128F
:100ED000B8E0A196BFAFA197E3E034C0FAE06F1687
:100EE000710411F00C94021D81E08093FD1228E042
:100EF000A1962FAFA19733E0A7963FAFA79725C044
:100F0000A1968FAFA19716C0672811F00C94021D0F
:100F10009AE0A1969FAFA19718C0A7E0A196AFAFA6
:100F2000A19708C0A1961FAEA19704C0B1E0A196F9
:100F3000BFAFA197672849F00C94271DA1961FAE5B
:100F4000A197E1E0A796EFAFA79781E090E0A19687
:100F50000FACA19702C0880F991F0A94E2F7AF96D1
:100F60002EAD3FADAF9728233923232B19F085E110
:100F70000C94511DAF962EAD3FADAF97282B392B5A
:100F8000AF963FAF2EAFAF9774CD672B11F00C9497
:100F9000271D6C968FAD6C97E196EEADFFADE19796
:100FA000E80FF11D3EEA831638E0930608F05AC0B8
:100FB0008CEA881688E0980608F042C19BE48916FE
:100FC00098E0990609F4F4C130F5B3EE8B16B7E05A
:100FD0009B0609F433C180F432E18316910409F4CD
:100FE0002DC18CEC8816910409F42DC191E189166C
:100FF000910409F08EC090C0A9E48A16A8E09A0670
:1010000009F4BCC108F0C1C128E4821628E09206A8
:1010100009F457C17EC032EA831638E0930609F41A
:1010200049C298F49AE9891698E0990609F4F7C13B
:10103000ABE98A16A8E09A0609F419C2B9E98B1639
:10104000B8E09B0609F065C0C4C1E6EA8E16E8E088
:101050009E0608F4F5C0F7EA8F16F8E09F0609F43B
:1010600065C257C022EC821628E0920638F530ECB3
:10107000831638E0930608F0E3C088EB881688E012
:10108000980609F45AC368F4AEEA8A16A8E09A06EC
:1010900009F452C2B7EB8B16B8E09B0609F43AC3C9
:1010A00038C029EB821628E0920609F457C33AEBC0
:1010B000831638E0930609F4C3C02BC08BE688166C
:1010C00089E0980609F4B7C490F4A1E68A16A9E06D
:1010D0009A0609F43AC4BAE68B16B9E09B0609F4FD
:1010E0004DC420E6821629E0920699F45AC334E7EB
:1010F000831639E0930609F416C585E7881689E05A
:10110000980609F468C59CE6891699E0990609F4E1
:10111000C1C481E090E031C68A9A80910801816063
:10112000809308015F9A0E9439268FE08093FB111B
:101130008EE1E1E3F3E1DF011D928A95E9F70E9478
:10114000DA3C0E94CE5280E090E00E94552E6093DF
:10115000D7117093D8118093D9119093DA1181E04F
:1011600090E00E94552E6093DB117093DC11809308
:10117000DD119093DE1182E090E00E94552E609385
:10118000DF117093E0118093E1119093E2110091CF
:101190003513109136132091371330913813009383
:1011A000E3111093E4112093E5113093E6110091BF
:1011B000391310913A1320913B1330913C13009353
:1011C000E7111093E8112093E9113093EA1100918F
:1011D0003D1310913E1320913F1330914013009323
:1011E000EB111093EC112093ED113093EE1120E0F0
:1011F00030E044EB52E40E94CB647B018C012091EF
:10120000DB113091DC114091DD115091DE116091C4
:10121000D7117091D8118091D9119091DA11A7EF5F
:101220008A2EA1E19A2EB3EFAB2EB1E1BB2EEFEEE9
:10123000CE2EE1E1DE2E0E94872B02C00E94574B8A
:1012400080E090E09AC58E010F5F1F4F1F930F93B0
:101250008DE092E09F938F93FF93EF930E949369A9
:101260000F900F900F900F900F900F901816190677
:101270000CF02FC41D8A1E8A1F8A188EAE014B5E89
:101280005F4F60E070E0C8010E94AC4B882309F416
:1012900072C54D895E896F89788D88E70E943545D2
:1012A0004D895E896F89788D89E70E9435454D8922
:1012B0005E896F89788D8AE70E9435450E94734860
:1012C000BFCF8E010F5F1F4F1F930F9384E292E0F9
:1012D0009F938F93FF93EF930E9493690F900F90CA
:1012E0000F900F900F900F90181619060CF0F1C385
:1012F000AE014B5E5F4F60E070E0C8010E94AC4BF6
:10130000882309F438C520E030E04AE754E46D89C9
:101310007E898F89988D0E94FE670E94146616163A
:10132000170664F57093A60C6093A50C91E090935A
:10133000A40C8091E10C811183CF2BE63DE1309329
:101340000B1220930A121092200185E08093210154
:1013500021EF3FEF30930D1220930C1220910C12CD
:1013600030910D1230932501209324018091730058
:101370008160809373009093E10C62CF1092A40C73
:101380001092A60C1092A50C5BCF8081863509F0D7
:10139000F2C481818053823008F0EDC41092FF11B5
:1013A000813019F01092FE114BCF8093FE1148CF7F
:1013B0008081863509F0DFC481818053823008F056
:1013C000DAC4813019F0109202123ACF80930212DF
:1013D00037CF80818E3409F0CEC491819053943000
:1013E00008F0C9C4923061F0933099F08091FB11FC
:1013F000913019F05F9A846031C08A9A81602EC062
:10140000809108018160809308018091FB118260C6
:1014100025C00E9439268091FB1188601FC0808101
:101420008E3409F0A8C491819053943008F0A3C47D
:10143000923061F09330A9F08091FB11913019F056
:101440005F988B7F0BC08A988E7F08C080910801BF
:101450008E7F809308018091FB118D7F8093FB111B
:10146000EFCE0E94F51F8091FB11877FF7CF80811F
:101470008E3409F080C481818053843008F07BC4AD
:101480009091FB11823081F0833089F0813019F026
:1014900090FF03C03CC191FD3AC161E773E08FEA60
:1014A0009CE00E945D69CCCE92FD31C1F6CF93FFE6
:1014B000F4CF2DC11AA619A61D8A1E8A1F8A188E5E
:1014C0008E010F5F1F4F8AE0D8011D928A95E9F7C0
:1014D000CE0189969F938F931F930F938DE292E095
:1014E0009F938F93FF93EF930E9493690FB6F894A5
:1014F000DEBF0FBECDBF02970CF4EBC2AE014B5E58
:101500005F4F60E070E0C8010E94AC4B882309F493
:1015100032C42D893E894F89588D69A57AA5072E39
:10152000000C880B990B0E94621F8ACE8FEF0E94DD
:1015300060460E94001F84CE65961CAE1DAE1EAE96
:101540001FAE659761961CAE1DAE1EAE1FAE6197B5
:101550002D961CAE1DAE1EAE1FAE2D9784E15E0112
:1015600029E2A20EB11CD501282F1D922A95E9F778
:101570007E0135E1E30EF11CD701282F1D922A953B
:10158000E9F7DE0111966D011D928A95E9F78E014A
:10159000075A1F4F8FEF90E0D8018D939C931F93B4
:1015A0000F93DF92CF92FF92EF92BF92AF9289E3B7
:1015B00092E09F938F93FF93EF930E9493690FB6EE
:1015C000F894DEBF0FBECDBF03970CF482C2AE010C
:1015D0004F5A5F4F60E070E0C5010E94AC4B88231A
:1015E00009F4C9C3AE01435B5F4F60E070E0C7011F
:1015F0000E94AC4B882309F4BEC3AE01475B5F4F2A
:1016000060E070E0C6010E94AC4B882309F4B3C3CC
:10161000D8018D919C910097D9F1019709F0ABC346
:101620006596CCACDDACEEACFFAC659720E030E06D
:1016300044EB52E461966CAD7DAD8EAD9FAD61978C
:101640000E94CB6421EE3EE245E652E40E94AC6586
:101650004B015C010E94A9659B01AC01C701B60169
:101660000E94FE6765966CAF7DAF8EAF9FAF6597AA
:10167000C501B4010E9481689B01AC01C701B6019C
:101680000E94FE6761966CAF7DAF8EAF9FAF619792
:10169000AE01475B5F4FBE01635B7F4FCE018F5A48
:1016A0009F4F0E947B282D96ECACFDAC0EAD1FAD7C
:1016B0002D9761962CAD3DAD4EAD5FAD61976596B2
:1016C0006CAD7DAD8EAD9FAD6597FE01FD964F0172
:1016D000DE01AF5BBF4F5D0138966F010E94D129DB
:1016E0002196ECACFDAC0EAD1FAD219725962CAD2F
:1016F0003DAD4EAD5FAD259729966CAD7DAD8EAD00
:101700009FAD29970E94372D882309F4C6CE68E241
:1017100072E0C5CE8081863509F02DC3818180536A
:10172000823008F028C3813019F00E94DC1E88CD79
:101730009C9A9D9AA49AA59883CD8081863509F0BC
:101740001AC381818053823008F015C3813019F0AB
:101750000E94D91E75CD3F9A479872CD80818635FB
:1017600009F009C381818053823008F004C38130BD
:1017700019F00E94C81E64CD80910101806280939F
:101780000101809101018064809301018091020137
:101790008062809302018091020180648093020143
:1017A0004FCD8081833509F0E6C281818053883036
:1017B00008F0E1C290E08730910508F039C1FC01E2
:1017C0008827EE58FF4F8F4F0C9431690E94F51F08
:1017D0001092CA111092C9118AE999E1A5E9B2E4FF
:1017E0008093CF119093D011A093D111B093D211C7
:1017F0008AE999E9A2E6B2E49FC00E94F51F81E060
:1018000090E09093CA118093C91186EF98E2ACE4FE
:10181000B2E48093CF119093D011A093D111B093E3
:10182000D2118DEC9CECA0E8B2E486C00E94F51FBA
:1018300082E090E09093CA118093C91189E29CEDF7
:10184000A4E9B2E48093CF119093D011A093D11169
:10185000B093D21180E090E0A2E6B2E46DC00E94A5
:10186000F51F83E090E09093CA118093C91180E046
:1018700090E0ACE2B2E48093CF119093D011A093AA
:10188000D111B093D21180E090E0ABE8B2E454C043
:101890000E94F51F84E090E09093CA118093C911D3
:1018A00080E090E0ACE1B2E48093CF119093D0114E
:1018B000A093D111B093D21180E090E0A9E9B2E4F5
:1018C00018C00E94F51F85E090E09093CA118093A4
:1018D000C9118DEC9CECA2E9B2E48093CF119093F6
:1018E000D011A093D111B093D21180E090E0A8E97B
:1018F000B2E48093CB119093CC11A093CD11B0930F
:10190000CE110E94CE1F94C00E94F51F86E090E089
:101910009093CA118093C91186E696E6AAE9B2E4CB
:101920008093CF119093D011A093D111B093D21185
:1019300080E090E0AAE5B2E48093CB119093CC11C3
:10194000A093CD11B093CE1173C080E090E00E94BF
:10195000082E909375108093741081E090E00E949F
:10196000082E909377108093761082E090E00E948A
:10197000082E9093731080937210FAC160913D13FA
:1019800070913E1380913F13909140130E944766DF
:101990002B013C016091391370913A1380913B13F4
:1019A00090913C130E9447669B01AC0160913513F6
:1019B000709136138091371390913813EE962FAFB4
:1019C000EE97EF963FAFEF97C058DF4F4883C05870
:1019D000D040CF57DF4F5883C158D0400E94476650
:1019E000DE0111964D01FE0175965F0198966D011D
:1019F00083017201EE962FADEE97EF963FADEF9714
:101A0000C058DF4F4881C058D040CF57DF4F588172
:101A1000C158D0400E94E92C89819A81AB81BC8158
:101A20008093CF119093D011A093D111B093D21184
:101A30000E94271F05CC1D8A1E8A1F8A188E8E01C0
:101A40000F5F1F4F84E1D8011D928A95E9F71F931C
:101A50000F938BE592E09F938F93FF93EF930E94F8
:101A600093690F900F900F900F900F900F90181692
:101A700019067CF5AE014B5E5F4F60E070E0C80177
:101A80000E94AC4B882309F476C18D899E89AF8969
:101A9000B88D52CF1D8A1E8A1F8A188E8E010F5F45
:101AA0001F4F84E1D8011D928A95E9F71F930F9388
:101AB00086E692E09F938F93FF93EF930E94936942
:101AC0000F900F900F900F900F900F90181619060F
:101AD00074F01F9281E08F9388E192E09F938F933F
:101AE0000E94093A0F900F900F900F9044C1AE01E1
:101AF0004B5E5F4F60E070E0C8010E94AC4B8823F2
:101B000009F439C18D899E89AF89B88D8093D3112D
:101B10009093D411A093D511B093D6110E94271F92
:101B20000E94CE1F8DCB8081803509F024C1818138
:101B30008053833008F01FC18130D9F0823091F199
:101B400080E090E00E94082E90932F0480932E0452
:101B500081E090E00E94082E90933104809330043D
:101B600082E090E00E94082E909333048093320428
:101B700067CB80E090E00E94082E90932904809328
:101B8000280481E090E00E94082E90932B0480931B
:101B90002A0482E090E00E94082E90932D04809306
:101BA0002C044ECB80E090E00E94082E90932304FA
:101BB0008093220481E090E00E94082E90932504F7
:101BC0008093240482E090E00E94082E90932704E2
:101BD0008093260435CB60912E0470912F04E09001
:101BE0003004F09031049701262B372B809132047A
:101BF00090913304822B932B892B19F481E792E087
:101C00002FC0C0902804D090290480902A0490907E
:101C10002B04E0912C04F0912D04A296FFAFEEAFBF
:101C2000A297C4018C299D298E2B9F2B892B19F4F7
:101C300087E792E015C0A0902204B09023040091A1
:101C400024041091250498012A293B298091260417
:101C500090912704822B932B892B49F48DE792E0F6
:101C60009F938F930E94093A0F900F9084C080E059
:101C700090E00E94456624EE35E24EE652E40E9472
:101C8000CC642B013C01B50180E090E00E944566E8
:101C900020E33CE44AEB52E40E94CC649B01AC019B
:101CA000C301B2010E94CC642B013C01B60180E06B
:101CB00090E00E9445669B01AC01C301B2010E9405
:101CC000CC6420E030E040E450E40E94AC6520E0C9
:101CD00030E040E05FE30E94CC640E94196670939C
:101CE000751060937410B70180E090E00E94456623
:101CF0002CE93DE241E853E40E94CB646B017C0196
:101D0000B80180E090E00E94456624E53AE146E9AA
:101D100053E40E94CC649B01AC01C701B6010E9450
:101D2000CC646B017C01B40180E090E00E944566C8
:101D30009B01AC01C701B6010E94CC6420E030E0F9
:101D400040E450E40E94AC6520E030E040E05FE316
:101D50000E94CC640E94196670937710609376108D
:101D6000A2962EAD3FADA2973093731020937210C0
:101D70000E94052F65CA82E390E09C012150310941
:101D80002230310510F00C94511D36E02316310439
:101D900028F483E02816310488F024C098E029163E
:101DA000310410F40C94021DAAE02A163104C8F183
:101DB000BEE12B16310411F00C94021DE2E02E1648
:101DC000310459F0FEE12F16310439F02328E1F5F2
:101DD00081E08093FF122BE02CC082E08093FF1201
:101DE0003BE02EC084E02816310461F095E029160E
:101DF000310481F081E080930113ACE0A196AFAF94
:101E0000A19716C482E080930113BCE0A196BFAFF6
:101E1000A1970EC410920113ECE0A196EFAFA19729
:101E200007C4F9E02F16310441F082E080930013DB
:101E30002DE0A1962FAFA197FBC3109200133DE0B8
:101E4000A1963FAFA197F4C38BE0A1968FAFA19766
:101E5000EFC3672B11F00C94271D6C968FAD6C9718
:101E6000B7EB8B16B8E09B0609F40EC3B8F5FCE996
:101E70008F16F8E09F0609F4C2C0D8F439E983163A
:101E800038E0930609F4AEC038F498E9891698E072
:101E9000990609F454C050C0AAE98A16A8E09A0627
:101EA00009F4A3C0BBE98B16B8E09B0609F4A0C0F7
:101EB00043C0EEE98E16E8E09E0609F4A6C008F4D9
:101EC000A1C02CEA821628E0920609F483C13DEAFB
:101ED000831638E0930609F417C22EC082EC8816E8
:101EE00088E09806D8F490EC891698E0990608F0F6
:101EF00092C3A9EB8A16A8E09A0609F424C308F451
:101F000017C3EAEB8E16E8E09E0609F424C3FBEB48
:101F10008F16F8E09F0609F429C30EC023EC821641
:101F200028E0920609F43BC308F427C380E688162C
:101F300089E0980609F459C381E090E071C384E117
:101F40007E0199E2E90EF11CD701E82F1D92EA9576
:101F5000E9F76E01F5E1CF0ED11CD601E82F1D92F5
:101F6000EA95E9F79E012F5F3F4F1901D9011D92B4
:101F70008A95E9F780E090E00E94552EAD966CAF0F
:101F80007DAF8EAF9FAFAD9781E090E00E94552E60
:101F90002B013C0182E090E00E94552E4B015C0138
:101FA000870124E045E0AD966CAD7DAD8EAD9FAD73
:101FB000AD970E943962860124E045E0C301B20179
:101FC0000E943962810124E045E0C501B4010E940C
:101FD0003962DF92CF92FF92EF923F922F9283E885
:101FE00092E0F5C281E992E005C087EA9CE002C078
:101FF0008AE992E09F938F9389E093E0FEC281EAA1
:1020000092E0F8CF88EA92E0F5CFE196EEADFFAD31
:10201000E197E80FF11D80818E3409F0FFC28181C4
:102020008053AA968FAFAA97833008F0F7C22996FB
:102030001CAE1DAE1EAE1FAE299725961CAE1DAE62
:102040001EAE1FAE259721961CAE1DAE1EAE1FAE56
:10205000219784E19E01275D3F4F6E963FAF2EAFE3
:102060006E97D901E82F1D92EA95E9F71E01F5E177
:102070002F0E311CD101E82F1D92EA95E9F7285265
:102080003109A0963FAF2EAFA097D9011D928A9536
:10209000E9F760913D1370913E1380913F13909149
:1020A00040130E9447662B013C01609139137091E7
:1020B0003A1380913B1390913C130E9447669B0119
:1020C000AC01609135137091361380913713909164
:1020D0003813EE962FAFEE97EF963FAFEF97C058BD
:1020E000DF4F4883C058D040CF57DF4F5883C15887
:1020F000D0400E944766FE01FD964F01DE01AF5BB6
:10210000BF4F5D0138966F0183017201EE962FADCE
:10211000EE97EF963FADEF97C058DF4F4881C0581C
:10212000D040CF57DF4F5881C158D0400E946C2C0F
:1021300020E030E044EB52E421966CAD7DAD8EADF5
:102140009FAD21970E94CC6421966CAF7DAF8EAF7E
:102150009FAF219729966CAD7DAD8EAD9FAD299730
:102160008E01075D1F4F24E045E00E9439622596ED
:102170006CAD7DAD8EAD9FAD2597810124E045E02E
:102180000E94396221966CAD7DAD8EAD9FAD2197D9
:102190000451110924E045E00E943962AA96FFAD7E
:1021A000AA97F13059F0F23061F06E962FAD6E972C
:1021B0002F936D963FAD6D973F9309C03F922F923D
:1021C00006C081E090E08C0F9D1F9F938F9381EB61
:1021D00092E013C229961CAE1DAE1EAE1FAE29970B
:1021E00025961CAE1DAE1EAE1FAE259721961CAEC9
:1021F0001DAE1EAE1FAE219784E1DE0199966E964C
:10220000BFAFAEAF6E97E82F1D92EA95E9F71E01BA
:10221000F5E12F0E311CD101E82F1D92EA95E9F767
:102220009E012F5F3F4FA0963FAF2EAFA097D901E1
:102230001D928A95E9F780E090E00E94552E2B01CF
:102240003C0181E090E00E94552EAD966CAF7DAFD1
:102250008EAF9FAFAD9782E090E00E94552E20E0B8
:1022600030E044EB52E40E94CB64FE01FD964F0146
:102270009E012F5B3F4F5901DE01AB5BBF4F6D01EC
:102280007B018C01AD962CAD3DAD4EAD5FADAD97F4
:10229000C301B2010E94872BA401B501C6010E94AF
:1022A000262929966CAD7DAD8EAD9FAD29978E0107
:1022B000075D1F4F24E045E00E94396225966CAD12
:1022C0007DAD8EAD9FAD2597810124E045E00E9454
:1022D000396221966CAD7DAD8EAD9FAD21970451D5
:1022E000110924E045E00E9439621F930F933F9249
:1022F0002F926E96FFAD6E97FF936D962FAD6D97F3
:102300002F9385EB92E063C129961CAE1DAE1EAEE5
:102310001FAE299725961CAE1DAE1EAE1FAE25978B
:1023200021961CAE1DAE1EAE1FAE219784E1DE01CC
:1023300099966E96BFAFAEAF6E97E82F1D92EA9555
:10234000E9F71E01F5E12F0E311CD101E82F1D9296
:10235000EA95E9F79E012F5F3F4FA0963FAF2EAF62
:10236000A097D9011D928A95E9F780E090E00E943C
:10237000552EAD966CAF7DAF8EAF9FAFAD9781E020
:1023800090E00E94552EE9966CAF7DAF8EAF9FAF67
:10239000E99782E090E00E94552E20E030E044EB87
:1023A00052E40E94CB642B013C01FE01FD964F01DB
:1023B0009E012F5B3F4F5901CE018B5B9F4F6C01FC
:1023C00083017201E9962CAD3DAD4EAD5FADE9974D
:1023D000AD966CAD7DAD8EAD9FADAD970E94872B58
:1023E000A401B501C6010E94262929966CAD7DADD8
:1023F0008EAD9FAD29972596CCACDDACEEACFFAC95
:1024000025979B01AC010E94FE674B015C01A7016F
:102410009601C701B6010E94FE679B01AC01C50190
:10242000B4010E94CC640E948B688E01075D1F4F2F
:1024300024E045E00E94396220E030E044EB52E4C1
:10244000C301B2010E94CC64810124E045E00E94F6
:10245000396221966CAD7DAD8EAD9FAD2197045153
:10246000110924E045E00E9439621F930F933F92C7
:102470002F926E96BFAD6E97BF936D96EFAD6D9731
:10248000EF9383EC92E0A3C0A49B59C0CE010196C8
:102490007C016E0191E1C90ED11C87018FE30E947E
:1024A000E11ED7018D939D937D01AC15BD05B1F75C
:1024B00020E030E040E0842F90E0B901680F791F00
:1024C00067307105BCF4880F991FD801A80FB91F98
:1024D0006D917C9111970296F801E80FF91F8081A8
:1024E00091818617970720F48D939C937183608365
:1024F0004F5FE1CF2F5F3F4F28303105D9F62F8155
:1025000038858D819E81820F931F29853A85820FA0
:10251000931F2B853C85820F931F969587959695E3
:1025200087958A30910558F08734910530F009C0BD
:10253000479905C00898009904C082E01CC080E05B
:102540001AC081E018C082B386958695869591E081
:102550008927817010C08BE30E94E11E21E085363F
:10256000910508F420E01F922F9345C0809102014D
:1025700085FB882780F91F923DC0809177108F934B
:10258000809176108F93809175108F938091741045
:102590008F93809173108F938091721015C080E09B
:1025A00090E00E94082E182F092F81E090E00E94F1
:1025B000082EF82EE92E82E090E00E94082EEF927D
:1025C000FF920F931F939F938F9381ED92E09F93C0
:1025D0008F938FEA9CE09F938F930E9464690FB65C
:1025E000F894DEBF0FBECDBF16C08091CA118F9385
:1025F0008091C9118F9381E693E09F938F938FEA27
:102600009CE09F938F930E9464690F900F900F90AE
:102610000F900F900F9080E090E002C082E390E076
:102620009C01215031092230310510F00C94511DCC
:1026300081E090E0A1960FACA19702C0880F991F8E
:102640000A94E2F7AF962EAD3FADAF97282339231A
:10265000232B11F00C94B707AF96AEADBFADAF977B
:10266000A82BB92BAF96BFAFAEAFAF970C9439057F
:10267000812F110F990BAA0BBB0BFC01E654F1093A
:10268000E531F10510F00C94021D8827E758FF4F43
:102690008F4F0C943169C0920213D0920313E092D1
:1026A0000413F0920513A1961FAEA197AFC0C0927C
:1026B0000613D0920713E0920813F0920913E296E2
:1026C000BFADE297B160E296BFAFE297E1E09BC099
:1026D000C0920A13D0920B13E0920C13F0920D13D8
:1026E000E296FFADE297F260E296FFAFE29722E05A
:1026F000A1962FAFA1978AC0C0920E13D0920F134C
:10270000E0921013F0921113E2963FADE29734601D
:10271000E2963FAFE29783E0A1968FAFA19776C094
:102720008092121394E056C0C701B6010E9414664D
:1027300060931313709314138093151390931613CF
:10274000A5E0A196AFAFA19761C0C0921713D09238
:102750001813E0921913F0921A13B6E04FC0C0920A
:102760001B13D0921C13E0921D13F0921E13E7E08E
:102770004AC0C0921F13D0922013E0922113F0920E
:102780002213F8E0A196FFAFA19740C0C092241396
:10279000D0922513E0922613F0922713A3962FAD23
:1027A000A3972160A3962FAFA3973AE0A1963FAFDE
:1027B000A1972CC0C0922813D0922913E0922A131B
:1027C000F0922B13A3968FADA3978260A3968FAF41
:1027D000A3979BE0A1969FAFA19718C0C0922C131E
:1027E000D0922D13E0922E13F0922F13A396AFAD3B
:1027F000A397A460A396AFAFA397BCE0A196BFAF89
:10280000A19704C0E9E0A196EFAFA19701E010E025
:10281000A1960FACA19702C0000F111F0A94E2F716
:10282000A9968EAD9FADA99780239123892B11F096
:102830000C94FA1C81E693E0A1960FACA19702C01C
:10284000959587950A94E2F780FF0BC020E030E071
:10285000A901C701B6010E94A56587FF02C00C94BB
:10286000FC1CA9962EAD3FADA997202B312BA99624
:102870003FAF2EAFA9970C943905A3963FADA39710
:10288000332349F0A7968FADA797811104C092E03A
:10289000A7969FAFA797A896AFADA897A5FF0FC023
:1028A0008091131390911413A0911513B0911613E6
:1028B00080389649A849B10514F00C94FE1C80910B
:1028C000F912813069F4A796FFADA797F230E1F5D0
:1028D000A8962FADA89720FD02C00C94081D34C007
:1028E00080916912811130C0A8963FADA89730FF42
:1028F0001BC08091FA12813039F523E333E34BECAE
:1029000051E460910213709103138091041390912C
:1029100005130E94FE676093021370930313809364
:1029200004139093051310C0809176129091771242
:10293000A0917812B09179128093021390930313AF
:10294000A0930413B0930513A9968EAD9FADA997DC
:1029500090FD10C08091721290917312A091741228
:10296000B091751280931F1390932013A09321139D
:10297000B09322138091F712813089F4A8969FAD0D
:10298000A89796FD03C08CE10C94511DA996AEAD9D
:10299000BFADA997AF7BA996BFAFAEAFA997809106
:1029A000FC128823D1F0813061F4B1E0E696BFAF2C
:1029B000E697AA961FAEAA97E2E0E096EFAFE097FF
:1029C00017C0E6961FAEE697F2E0AA96FFAFAA9769
:1029D00021E0E0962FAFE0970BC032E0E6963FAFE4
:1029E000E69781E0AA968FAFAA97E0961FAEE09790
:1029F0008091FA12813031F0A7969FADA79793305E
:102A0000C9F52EC074E2E72E73E1F72E00E010E066
:102A1000A396AFADA397CA2ED12CC601002E02C03B
:102A2000959587950A94E2F780FF11C023E333E37D
:102A30004BEC51E4F70160817181828193810E94A6
:102A4000FE67D7016D937D938D939C9313970F5FD2
:102A50001F4FB4E0EB0EF11C03301105F1F6CCCFA3
:102A60008091FD12813031F4A396EFADA397E4304D
:102A700009F0C6C78CE0EBE8F2E1DE015596019063
:102A80000D928A95E1F7AF962EAD3FADAF9731FD30
:102A90000AC09090F71232E09316C1F088E09816C1
:102AA00009F4C6C029C18091FE12873010F08DE173
:102AB000F8C790916E12981761F3BE016B5E7F4F5D
:102AC0000E944046882309F4ADC7E3CFA3969FAD8B
:102AD000A397911102C08AE1E4C7A9968EAD9FAD7C
:102AE000A99780759927892B09F44DCF6091171309
:102AF000709118138091191390911A130E94CC6849
:102B00000E941966673098F680911213843141F063
:102B1000823009F077C7A896AFADA897A7FD72C716
:102B2000A996EEADFFADA997EF7AA996FFAFEEAFEC
:102B3000A997662329F06150A1966FAFA19705C0B0
:102B4000F091FE12A196FFAFA197BE016F5F7F4F7C
:102B5000A1968FADA1970E944046882309F462C7D1
:102B6000309012134090A3125090A4126090A512BE
:102B70007090A6128E010F5F1F4FC12CD12CE12C3B
:102B8000F12CA3962FADA397822E912CC4010E2C6D
:102B900002C0959587950A94E2F780FF3BC0C60175
:102BA00089509D4E5C0194E139122AC0F601E85922
:102BB000FD4E27A530A941A952A96789708D818D45
:102BC000928D0E94CB64D5019D962D913D914D91A2
:102BD0005C91D0970E94CB64F801608371838283FB
:102BE0009383F2E0EF16F104A9F4A30192010E948D
:102BF000CB64D8016D937D938D939C9313970AC0FA
:102C0000F50185A596A5A7A5B0A9F80180839183B4
:102C1000A283B383FFEFEF1AFF0A24E0C20ED11C98
:102C20000C5F1F4F33E0E316F10409F0AFCF24C16E
:102C3000A3968FADA397882309F44DCF4090A3129C
:102C40005090A4126090A5127090A61204E213E1B5
:102C5000C12CD12CE12CF12CA82EB12CF601E85975
:102C6000FD4EC5010E2C02C0959587950A94E2F79A
:102C700080FF2BC0A5E1B0E0AC0FBD1FAC0DBD1DAA
:102C80002D913D914D915C916789708D818D928DD3
:102C90000E94CB64D8012D913D914D915C910E9491
:102CA000CB64F8016083718382839383F2E0EF1633
:102CB000F104A1F4A30192010E94CB64D8016D93A9
:102CC0007D938D939C93139709C087A590A9A1A983
:102CD000B2A9F80180839183A283B383FFEFEF1A37
:102CE000FF0A24E0C20ED11C0C5F1F4F33E0E31635
:102CF000F10409F0B3CFBDC0A7968FADA79783307D
:102D000061F495E0991609F497C0A7E09A1609F4C2
:102D1000ABC0B3E09B12ADC082C0A396EFADA3974A
:102D2000EE2309F49BC08090FB124090A3125090B8
:102D3000A4126090A5127090A6126FE7C62E62E1F1
:102D4000D62E04E213E15E01F5E1AF0EB11CE12CD9
:102D5000F12C2E2E312CC1010E2C02C09595879599
:102D60000A94E2F780FD0BC0F60180819181A28177
:102D7000B381F80180839183A283B3833FC0F7E0DE
:102D80009F16E1F1811029C0D60158962D913D91F1
:102D90004D915C915B97F501608171818281938196
:102DA0000E94CC64D8012D913D914D915C910E947F
:102DB000CC64F8016083718382839383F2E0EF1621
:102DC000F104E1F4A30192010E94CC64D8016D9357
:102DD0007D938D939C93139711C0F60120813181CF
:102DE00042815381D8016D917D918D919C910E947A
:102DF000CC64F8016083718382839383FFEFEF1AC1
:102E0000FF0A24E0C20ED11C0C5F1F4F34E0A30E5A
:102E1000B11C83E0E816F10409F09DCF72CFA396B0
:102E20009FADA397911103C0A7961FAEA797BE01B0
:102E30006F5F7F4F86E00CC0A396AFADA397A11143
:102E400003C0A7961FAEA797BE016F5F7F4F87E0B5
:102E50000E944046882309F4E5C50BC085E098161A
:102E600081F397E0991219C68091F812823008F028
:102E7000CBC5A1961FAEA1971091F812183069F436
:102E8000A396BFADA397BB2309F41AC2A796EFADD3
:102E9000A797E13009F0BAC515C3A796FFADA7976C
:102EA000F23009F00DC2111107C0A3962FADA39700
:102EB000222309F40AC206C320E030E0A901609190
:102EC00002137091031380910413909105130E94D3
:102ED000A565882309F49CC5143028F4123070F4D9
:102EE000113029F0EFC2183008F4A6C1EBC2A39646
:102EF0003FADA397332309F4E8C1E4C2A3968FAD95
:102F0000A397882309F4E7CDE0969FADE097692E5B
:102F1000712CAA96BFADAA97AB2FB0E0AF96BFAF0A
:102F2000AEAFAF9781E090E07C01AA960FACAA9774
:102F300002C0EE0CFF1C0A94E2F7E0960FACE0979B
:102F400002C0880F991F0A94E2F7E82AF92AA3968B
:102F5000EFADA3978E2F90E08E219F21892B09F44E
:102F600059C5C301880F991F880F991FFC01E950AB
:102F7000FD4EDC01A859BD4E57962D913D914D91C6
:102F80005C915A9765A576A587A590A90E94CB6408
:102F90001B012C01AF968EAD9FADAF97880F991F87
:102FA000880F991FFC01E950FD4EDC01A859BD4E68
:102FB00057962D913D914D915C915A9765A576A5B7
:102FC00087A590A90E94CB644B015C01A996CEAC69
:102FD000DFACA997F0E8CF22DD24A8962FADA89703
:102FE00027FF47C0A9968EAD9FADA9978F77A99669
:102FF0009FAF8EAFA9972091241330912513409154
:1030000026135091271360917F1270918012809146
:103010008112909182120E94A565811160C1209158
:1030200028133091291340912A1350912B1360914A
:1030300083127091841280918512909186120E9461
:10304000A56581114CC120912C1330912D13409115
:103050002E1350912F1360918712709188128091D6
:10306000891290918A120E94A565811138C181E26E
:1030700018C5E2963FADE297232F30E0A4963FAF0C
:103080002EAFA497E222F322EF2809F4C5C4A99633
:103090008EAD9FADA997817FA9969FAF8EAFA9975F
:1030A0008091FA12813009F480C0F301EE0FFF1F06
:1030B000EE0FFF1FE550FD4EC384D484E584F684F3
:1030C000A7019601C201B1010E94CB642B013C0112
:1030D000AF96EEADFFADAF97EE0FFF1FEE0FFF1FE8
:1030E000E550FD4E83859485A585B685A6968CAF63
:1030F0009DAFAEAFBFAFA6979C01AD01C501B401B6
:103100000E94CB644B015C01A3019201C301B20197
:103110000E94FE672B013C01A5019401C501B40189
:103120000E94FE679B01AC01C301B2010E94CC6406
:103130000E948B684B015C01A7019601C701B60193
:103140000E94FE676B017C01A6962CAD3DAD4EAD95
:103150005FADA697CA01B9010E94FE679B01AC0151
:10316000C701B6010E94CC640E948B686B017C0190
:1031700060931B1370931C1380931D1390931E1365
:103180009B01AC01C501B4010E94CB644B015C0101
:10319000E894B7F82AE037ED43EA5BE3C501B401F0
:1031A0000E94C36718165CF18DC107EF12E1A49667
:1031B0008EAD9FADA4970C2C02C0959587950A946F
:1031C000E2F780FF12C023E333E34BEC51E4D80174
:1031D0001F966D917D918D919C9152970E94FE67F3
:1031E000F8016787708B818B928BFFEFCF1ADF0A14
:1031F0000C5F1F4F23E0C216D104C9F656CF20E062
:1032000030E040E05FE3C501B4010E94C3671816D7
:103210000CF42DCF2FE632E143E85AE3C701B601A3
:103220000E94FE679B01AC01C501B4010E94C36707
:1032300018160CF41CCF46C1A3963FADA3973323B9
:1032400009F449CC20912413309125134091261381
:103250005091271360917F1270918012809181129A
:10326000909182120E94A56581112CC12091281392
:103270003091291340912A1350912B13609183129E
:103280007091841280918512909186120E94A5659A
:10329000811118C120912C1330912D1340912E13C0
:1032A00050912F136091871270918812809189122A
:1032B00090918A120E94A565882309F4D8CE02C194
:1032C000A7968FADA7978111FDC0A9968EAD9FAD32
:1032D000A9978E7D9C7FA7961FAEA797F9C0809176
:1032E000FA128130B1F423E333E34BEC51E4609103
:1032F0001B1370911C1380911D1390911E130E943B
:10330000FE6760931B1370931C1380931D1390939F
:103310001E1380911B1390911C13A0911D13B0914B
:103320001E13A6968CAF9DAFAEAFBFAFA697A201FE
:103330009101C201B1010E94FE67E5966CAF7DAFBD
:103340008EAF9FAFE597A5019401C501B4010E941E
:10335000FE67ED966CAF7DAF8EAF9FAFED9720E02F
:1033600030E040E850E4A6966CAD7DAD8EAD9FADEB
:10337000A6970E94FE67A6962CAD3DAD4EAD5FAD03
:10338000A6970E94FE67E5962CAD3DAD4EAD5FADB4
:10339000E5970E94CB64ED962CAD3DAD4EAD5FAD93
:1033A000ED970E94CB646B017C0120E030E0A90125
:1033B0000E94A56587FD4DC3C701B6010E948B68B9
:1033C0006B017C01ED962CAD3DAD4EAD5FADED9743
:1033D000E5966CAD7DAD8EAD9FADE5970E94CC645A
:1033E0000E948B689B01AC01C701B60190580E94F6
:1033F000AC656B017C01133021F4F7FAF094F7F817
:10340000F09420E030E0A901A6966CAD7DAD8EADC4
:103410009FADA6970E94A56587FF13C0F7FAF094A9
:10342000F7F8F094A6968CAD9DADAEADBFADA69766
:10343000B05880931B1390931C13A0931D13B0934B
:103440001E138301000F111F000F111F05501D4E89
:10345000A7019601C501B4010E94FE679B01AC0162
:10346000C201B1010E94CB6420E030E040E05FE3A4
:103470000E94FE67D8011B966D937D938D939C935C
:103480001E97AF960EAD1FADAF97000F111F000F27
:10349000111F05501D4EA7019601C201B1010E94E6
:1034A000FE679B01AC01C501B4010E94CC6420E021
:1034B00030E040E05FE30E94FE67F80163877487B5
:1034C00085879687A9968EAD9FADA9978E7D907EB4
:1034D000892B09F0A3C28091131390911413A0912A
:1034E0001513B091161380937B1290937C12A093C6
:1034F0007D12B0937E128091F912809369128091AF
:10350000021390910313A0910413B09105138093BB
:10351000761290937712A0937812B0937912C0909C
:103520001F13D0902013E0902113F0902213A701D5
:103530009601609172127091731280917412909141
:1035400075120E94A565882341F18091711288232C
:10355000A1F090913213923081F0C158DF4F8883EF
:10356000CF57D0400E94DD5EB701A601C158DF4FA2
:103570008881CF57D0400E94D24480911F139091F0
:103580002013A0912113B091221380937212909373
:103590007312A0937412B0937512809123138093C9
:1035A0007A1280910113909171129817F1F1409164
:1035B0007212509173126091741270917512909101
:1035C0003213923071F1C058DF4F4883C058D04059
:1035D000CF57DF4F5883C158D040EE966FAFEE976C
:1035E000EF967FAFEF97C158DF4F8883CF57D0401A
:1035F0000E94DD5EC058DF4F4881C058D040CF5791
:10360000DF4F5881C158D040EE966FADEE97EF96E0
:103610007FADEF97C158DF4F8881CF57D0400E94D0
:10362000D244809101138093711210910013809104
:103630007012811781F080913213823041F00E9424
:10364000DD5E123011F45C9A02C00E947F538091BB
:103650000013809370128091F712813079F080917D
:10366000FC1280936C128091FA1280936A12A796D2
:103670009FADA797933009F074C054C08090171382
:1036800090901813A0901913B0901A1380913213D0
:10369000823029F320E030E040EA51E4C501B40172
:1036A0000E94FE670E9482660E9419666B017C017F
:1036B0000E94DD5E20E030E04AE754E4C501B40139
:1036C0000E94FE674B015C0182E38C9DB0018D9DE1
:1036D000700D112480E090E00E9445669B01AC01D2
:1036E000C501B4010E94CB640E9482660E941966E3
:1036F000CB010E94A14BC114D10409F4B0CF0E94A8
:10370000743AA1E0CA1AD108809131138111A7CF70
:10371000BFEFE0E7F2E0B150E040F040E1F700C079
:103720000000E9CF8091FD1280936D12813089F401
:1037300080912C1390912D13A0912E13B0912F13E3
:103740008093A3129093A412A093A512B093A612F3
:1037500008C01092A3121092A4121092A5121092F7
:10376000A6128091FE1290916E12981759F08093D4
:103770006E128CE0FE017596ABE8B2E101900D92FD
:103780008A95E1F78091FB1280936B12E091F7121A
:103790008E2F90E0FC013297E830F10508F063C00D
:1037A0008827E257FF4F8F4F0C943169BE016F5F3E
:1037B0007F4FA1968FADA1970E94374680916E12E0
:1037C000A1962FADA19782134EC08CE0FE013196D9
:1037D000ABE8B2E13CC0A7963FADA797332371F0A9
:1037E000209176123091771240917812509179128F
:1037F00000E064E273E181E00E94994C209176122E
:1038000030917712409178125091791200E0BE0108
:103810006F5F7F4F81E00E94994C182F8CE0FE0172
:103820003196AFE7B2E101900D928A95E1F71CC0A5
:103830006FE772E186E003C06FE772E187E00E9404
:10384000374611C08CE0E4E2F3E1A7E9B2E1019070
:103850000D928A95E1F707C08CE0E7E9F2E1DF011C
:103860001D928A95E9F710E08091F8128093681212
:10387000883009F468C0A796BFADA797B23009F0A9
:1038800062C090E08830910508F054C0FC0140907F
:103890007612509077126090781270907912882783
:1038A000EA56FF4F8F4F0C94316900E0A30192015B
:1038B00064E273E180E007C000916912A301920104
:1038C00064E273E181E00E94994C182F33C060914B
:1038D0001B1370911C1380911D1390911E1388244B
:1038E000839409C060911B1370911C1380911D1368
:1038F00090911E13812CE696AFACE697AA96CFACBA
:10390000AA97E096EFACE09700916912A3019201AB
:103910000E94A55F0FC000E001C001E020E004C0EC
:1039200000E001C001E021E040916912C301B20151
:103930000E94FA5E8CE0E4E2F3E1AFE7B2E10190CD
:103940000D928A95E1F78091FF1280936F12882380
:1039500009F466C00E94DD5E90916F12809132136F
:10396000913069F48230E9F19FB7F8948091A71201
:1039700088608093A7129FBF0E94743A32C091E082
:103980009093681210926C1210926B12109269123E
:1039900010926E1210927112109270128230A9F071
:1039A000BE016B5E7F4F80E00E9440468823D1F1CC
:1039B0008CE0FE017596ABE8B2E101900D928A951C
:1039C000E1F70E94CB440E947F538BE998E00E946C
:1039D000653A8FE398E00E94653A88E298E00E9499
:1039E000653A10926F121CC081E05BC082E059C042
:1039F00088E157C089E155C084E053C08BE151C0D4
:103A000085E24FC084E14DC08EE14BC08FE149C0DB
:103A100086E147C080E245C083E243C084E241C002
:103A2000812F3FC087E03DC0EEE12E16310411F436
:103A30000C946F0680F42AE02216310411F40C94E1
:103A40004F063CE12316310411F40C945A0687E129
:103A500028C082E226C085E32816310411F40C94B4
:103A60008B069CE52916310491F76114710439F035
:103A70009AE06916710431F689E00C94730688E0C7
:103A80000C9473063CE52316310411F00C949E0748
:103A900081E0A7968FAFA797E8CFA3E09A12E9C974
:103AA000C3C9CF57DF4F0FB6F894DEBF0FBECDBFEF
:103AB000DF91CF911F910F91FF90EF90DF90CF900A
:103AC000BF90AF909F908F907F906F905F904F903E
:103AD0003F902F9008952091EA0C3091EB0C211526
:103AE0003105B9F08091E80C9091E90C82179307A9
:103AF00034F401969093E90C8093E80C0AC010927C
:103B0000E90C1092E80C1092EB0C1092EA0C109257
:103B1000FC112091A50C3091A60C21153105A1F0C6
:103B20008091E60C9091E70C8217930734F401968C
:103B30009093E70C8093E60C07C01092E70C10926C
:103B4000E60C81E08093FD118091FC1181111BC076
:103B50008091A40C811117C0809173008E7F809397
:103B600073001092E10C1092EB0C1092EA0C109280
:103B7000A60C1092A50C1092E90C1092E80C109271
:103B8000E70C1092E60C08958091E50C811107C0B6
:103B900081E08093E50C80910B01806205C010925A
:103BA000E50C80910B018F7D80930B018091E30CDC
:103BB0009091E40C9C012F5F3F4F3093E40C2093D5
:103BC000E30C20910402309105022817390748F4CC
:103BD0001092E40C1092E30C809170008E7F809321
:103BE000700008952091C9113091CA112430310517
:103BF00029F426E636E646E65FE307C025303105C0
:103C000039F526E636E646EE5FE30E94AC6520E035
:103C100030E040E852E40E94FE670E941466609320
:103C20009C0C70939D0C80939E0C90939F0C86E34C
:103C30009EE190936212809361121092A00085E041
:103C40008093A1008DEF9FEF909364128093631295
:103C500080916312909164129093A5008093A400C8
:103C600080917200816080937200089580919C0C15
:103C700090919D0CA0919E0CB0919F0C1816190666
:103C80001A061B06F4F42091E20C222389F010920C
:103C9000E20C0197A109B10980939C0C90939D0CB3
:103CA000A0939E0CB0939F0C80910201806406C08B
:103CB00081E08093E20C809102018F7B809302016E
:103CC00008950E94084B10929C0C10929D0C10922B
:103CD0009E0C10929F0C0895CF93DF93EB018431DB
:103CE000D1F028F4882361F08C30A8F437C08233F7
:103CF000E9F018F4873190F10EC0833311F10BC055
:103D00008881882329F066E773E0CE010E9452691A
:103D100068E773E020C08881882329F066E773E0B4
:103D2000CE010E9452696BE773E015C08881882339
:103D300029F066E773E0CE010E9452696FE773E0F5
:103D40000AC08881882329F066E773E0CE010E94CB
:103D5000526963E873E0CE010E9452698091AF0C12
:103D6000882379F06FEA7CE0CE010E94526982E3F9
:103D7000EFEAFCE0DF011D928A95E9F7DF91CF9130
:103D8000089568E273E0CE01DF91CF910C945269FF
:103D9000E1E0F1E0808180628083808180648083C3
:103DA000E2E0F1E080818F7D808380818F7B808362
:103DB00008953F9A479A08959C9A9D9AA498A59A27
:103DC0000895863308F0865390917B00282F287041
:103DD000977F922B90937B008770806480937C0008
:103DE00080917A00806480937A0080917A0086FFC7
:103DF000FCCF809178002091790090E0922B08957B
:103E00008091040187788093040180910301887771
:103E1000803451F467E873E087EA9CE00E945D69B2
:103E200040E050E0BA010EC080910301887769F448
:103E30006EE873E087EA9CE00E945D6940E050E034
:103E400060EE70E483E00E9435450C947348CF9394
:103E5000DF936091C91184E893E00E94D45260918D
:103E6000CA1185E893E00E94D45288E993E0EC01FE
:103E70002196FC01ED5CF14F60810E94D452CE018D
:103E8000CC39D340A1F78EE893E0EC012196FC01F8
:103E9000EF5BF14F60810E94D452CE01C239D34012
:103EA000A1F782E89CE0EC012196FC01EF5AFA4F61
:103EB00060810E94D452CE01C638DC40A1F7DF9168
:103EC000CF910895CF92DF92EF92FF920F931F93BD
:103ED000CF93DF9369017A01EAE0F1E0208120626B
:103EE0002083EBE0F1E020812F7D2083660F771F98
:103EF000709305026093040203E012E184EC9DE1FB
:103F0000F80191838083C0E7D0E088818E7F888329
:103F1000E0EBF0E080818C7F8083E1EBF0E080815A
:103F2000877F8083A6EBB0E08C918F7D8C93888116
:103F30008D7F888380818460808380818C7F808373
:103F400020E034E244EF59E4C701B6010E94AC65B9
:103F500020E034E244E75BE40E94FE6720E030E0CA
:103F600040E85CE30E94FE670E94146620E031E0B6
:103F7000C901861B970BF801938382838281938109
:103F80008093B200888181608883DF91CF911F91F7
:103F90000F91FF90EF90DF90CF9008958091C9111D
:103FA0009091CA1104970297F8F41092A00C109205
:103FB000A10C1092A20C1092A30C809107018F7D8E
:103FC00080930701809108018062809308018091AD
:103FD000020180628093020160E070E084EB93E470
:103FE00001DE81E080930012089510929C0C1092E3
:103FF0009D0C10929E0C10929F0C0E94084B1092E8
:1040000000120C94084B8F929F92AF92BF92CF9266
:10401000DF92EF92FF926B017C0120E030E044EBF5
:1040200053E40E94C36718160CF488C020E030E007
:10403000A901C701B6010E94A56587FD7FC08091D7
:10404000C9119091CA110497029790F52091A00C84
:104050003091A10C4091A20C5091A30CC701B60164
:104060000E94CB644B015C01C092A00CD092A10CC9
:10407000E092A20CF092A30C20E030E0A9010E9493
:10408000C367181624F4809102018F7D03C08091CC
:104090000201806280930201C501B4019F77FF9005
:1040A000EF90DF90CF90BF90AF909F908F909ACD80
:1040B00020E030E044E353E4C701B6010E94C36747
:1040C00018161CF4C12CD12C7601A701960160E0D2
:1040D00070E084E393E40E94CB6420E030E044E3AA
:1040E00053E40E94AC659B01AC010E94CC6423E3C5
:1040F00033E343E35FE30E94CC6460930002709378
:104100000102809302029093030220E030E048EA2B
:1041100051E40E94AC6520E030EC4FE754E40E948B
:10412000FE670E941966CB01FF90EF90DF90CF9061
:10413000BF90AF909F908F900C945B4AFF90EF9050
:10414000DF90CF90BF90AF909F908F9008952F9267
:104150003F924F925F926F927F928F929F92AF9217
:10416000BF92CF92DF92EF92FF920F931F93CF9364
:10417000DF93CDB7DEB7CA5AD1090FB6F894DEBFC8
:104180000FBECDBF8A3928E0920709F41AC148F45E
:10419000843DE7E09E0779F08939984009F451C0E1
:1041A00049C58C3928E0920709F42FC28D3998400F
:1041B00009F428C33FC51A821982CE0101969F9344
:1041C0008F9387E592E09F938F937F936F930E94E5
:1041D00093690F900F900F900F900F900F901816FB
:1041E00019060CF035C389819A819093EB0C80936A
:1041F000EA0C91E09093FC118091E10C81111DC5B6
:104200002BE63DE130930B1220930A12109220010D
:1042100085E08093210121EF3FEF30930D12209331
:104220000C1220910C1230910D1230932501209325
:104230002401809173008160809373009093E10C5E
:10424000FCC48E010B5E1F4F1F930F933E0189E24A
:10425000680E711C7F926F922E019DE3490E511CD6
:104260005F924F921E01E1E52E0E311C3F922F927C
:1042700085E993E09F938F937F936F930E94936957
:104280000FB6F894DEBF0FBECDBF04970CF4E0C2AA
:10429000EF961CAE1DAE1EAE1FAEEF97E5961CAEA0
:1042A0001DAE1EAE1FAEE597AB961CAE1DAE1EAE8C
:1042B0001FAEAB97A1961CAE1DAE1EAE1FAEA19752
:1042C000CE0101967C018CE0F70111928A95E9F705
:1042D000AE0145585F4F60E070E0C1010E94AC4BF9
:1042E000882309F4AAC4AE014F585F4F60E070E024
:1042F000C2010E94AC4B882309F49FC4AE01495906
:104300005F4F60E070E0C3010E94AC4B882309F46A
:1043100094C4AE01435A5F4F60E070E0C8010E9450
:10432000AC4B882309F489C420E030E044EB52E42C
:10433000E5966CAD7DAD8EAD9FADE5970E94CB64EB
:1043400021EE3EE245E652E40E94AC652B013C01C1
:10435000E5966CAF7DAF8EAF9FAFE597EF968CACD7
:104360009DACAEACBFACEF970E94A9659B01AC01C0
:10437000C501B4010E94FE6769837A838B839C83A5
:10438000C301B2010E9481689B01AC01C501B40167
:104390000E94FE676D837E838F839887AB968CAD7A
:1043A0009DADAEADBFADAB9789879A87AB87BC8714
:1043B000A1962CAD3DAD4EAD5FADA19700E0B7012C
:1043C00034C4E5961CAE1DAE1EAE1FAEE597AB968F
:1043D0001CAE1DAE1EAE1FAEAB979E012F5F3F4FB2
:1043E00079013F932F938E010B5E1F4F1F930F9305
:1043F000CE0185589F4FCF55DF4F99838883C15A8F
:10440000D0409F938F938EEB93E09F938F937F93F6
:104410006F930E9493690FB6F894DEBF0FBECDBFB5
:1044200003970CF415C2AE014F585F4F60E070E087
:10443000C8010E94AC4B882309F4FFC3AE0149595F
:104440005F4F60E070E0C7010E94AC4B882309F425
:10445000F4C3A1961CAE1DAE1EAE1FAEA19765960D
:104460001CAE1DAE1EAE1FAE659721961CAE1DAED6
:104470001EAE1FAE21971E01F9E22F0E311C8CE0FB
:10448000F10111928A95E9F76091EB117091EC11AD
:104490008091ED119091EE110E9447662B013C0135
:1044A0006091E7117091E8118091E9119091EA1102
:1044B0000E9447669B01AC016091E3117091E41189
:1044C0008091E5119091E611C955DF4F2883C75AB5
:1044D000D040C855DF4F3883C85AD040C755DF4F4A
:1044E0004883C95AD040C655DF4F5883CA5AD04076
:1044F0000E944766FE01FD964F0174965F013C964F
:104500006F0183017201C955DF4F2881C75AD0401E
:10451000C855DF4F3881C85AD040C755DF4F488152
:10452000C95AD040C655DF4F5881CA5AD0400E9460
:104530006C2CED968EAD9FADED978130910569F1B4
:10454000F4F4892B09F091C120E030E044EB52E40F
:10455000E5966CAD7DAD8EAD9FADE5970E94CB64C9
:104560007B018C01E5966CAF7DAF8EAF9FAFE59779
:1045700065962CAD3DAD4EAD5FAD65972DC08230DB
:104580009105F1F0039709F070C1E5966CAD7DAD32
:104590008EAD9FADE59737DD50C32196ECACFDACF9
:1045A0000EAD1FAD219765962CAD3DAD4EAD5FAD07
:1045B0006597E5966CAD7DAD8EAD9FADE59712C06C
:1045C0002196ECACFDAC0EAD1FAD2197E5962CAD60
:1045D0003DAD4EAD5FADE597A1966CAD7DAD8EADB9
:1045E0009FADA197FE01F1964F0134975F016101E4
:1045F0000E94872BA401B501C10128D6AB962CAD32
:104600003DAD4EAD5FADAB970EC38E010B5E1F4F40
:104610001F930F937E01F9E2EF0EF11CFF92EF92D0
:104620003E012DE3620E711C7F926F922E0131E5E7
:10463000430E511C5F924F9286ED93E09F938F93B0
:104640007F936F930E9493690FB6F894DEBF0FBEFD
:10465000CDBF04970CF4FCC0EF961CAE1DAE1EAE91
:104660001FAEEF97E5961CAE1DAE1EAE1FAEE597D2
:10467000AB961CAE1DAE1EAE1FAEAB97A1961CAE88
:104680001DAE1EAE1FAEA197AE0145585F4F60E054
:1046900070E0C2010E94AC4B882309F4CEC2AE0187
:1046A0004F585F4F60E070E0C3010E94AC4B88231D
:1046B00009F4C3C2AE0149595F4F60E070E0C70121
:1046C0000E94AC4B882309F4B8C2AE01435A5F4F35
:1046D00060E070E0C8010E94AC4B882309F4ADC2D1
:1046E0006091EB117091EC118091ED119091EE11B0
:1046F0000E9447662B013C016091E7117091E8111F
:104700008091E9119091EA110E9447669B01AC01EA
:104710006091E3117091E4118091E5119091E6119F
:10472000C955DF4F2883C75AD040C855DF4F38835B
:10473000C85AD040C755DF4F4883C95AD040C655E4
:10474000DF4F5883CA5AD0400E944766FE0139960F
:104750004F0134975F0134976F0183017201C9558E
:10476000DF4F2881C75AD040C855DF4F3881C85A1B
:10477000D040C755DF4F4881C95AD040C655DF4F9A
:104780005881CA5AD0400E94E92CA401B501C60143
:104790005DD5EF962CAD3DAD4EAD5FADEF97698128
:1047A0007A818B819C810E94CC6469837A838B831C
:1047B0009C83E5962CAD3DAD4EAD5FADE5976D812B
:1047C0007E818F8198850E94CC646D837E838F83E8
:1047D0009887AB962CAD3DAD4EAD5FADAB9769857F
:1047E0007A858B859C850E94CC6469877A878B87C4
:1047F0009C87A1962CAD3DAD4EAD5FADA19700E07D
:10480000B60113C23E01FDE56F0E711C7F926F92DF
:104810002E0127E6420E511C5F924F928E010F58D7
:104820001F4F1F930F937E013BE7E30EF11CFF9296
:10483000EF9285E993E09F938F937F936F930E940C
:1048400093690FB6F894DEBF0FBECDBF049784F412
:104850001F9281E08F9388E192E09F938F930E9453
:10486000093A0F900F900F900F9082E390E0E7C10C
:10487000C356DF4F188219821A821B82CD59D0404D
:10488000C756DF4F188219821A821B82C959D0403D
:10489000CB56DF4F188219821A821B82C559D0402D
:1048A000CF56DF4F188219821A821B82C159D0401D
:1048B0001E01F1E52F0E311C8CE0F10111928A9559
:1048C000E9F7AE0143565F4F60E070E0C7010E9418
:1048D000AC4B882309F4B1C1AE0147565F4F60E08D
:1048E00070E0C8010E94AC4B882309F4A6C1AE0158
:1048F0004B565F4F60E070E0C2010E94AC4B8823D2
:1049000009F49BC1AE014F565F4F60E070E0C301F8
:104910000E94AC4B882309F490C1C357DF4F188223
:1049200019821A821B82CD58D040C757DF4F188298
:1049300019821A821B82C958D040CB57DF4F188288
:1049400019821A821B82C558D0406091EB11709178
:10495000EC118091ED119091EE110E9447662B01B0
:104960003C016091E7117091E8118091E9119091FB
:10497000EA110E9447669B01AC016091E3117091BE
:10498000E4118091E5119091E611C955DF4F28831C
:10499000C75AD040C855DF4F3883C85AD040C75592
:1049A000DF4F4883C95AD040C655DF4F5883CA5A93
:1049B000D0400E944766FE01EB57FF4F4F013496EF
:1049C0005F0134966F0183017201C955DF4F288161
:1049D000C75AD040C855DF4F3881C85AD040C75554
:1049E000DF4F4881C95AD040C655DF4F5881CA5A57
:1049F000D04072D72101F8E04F0E511C310124E064
:104A0000620E711C6091EB117091EC118091ED11AF
:104A10009091EE110E944766CD55DF4F68837983F0
:104A20008A839B83C35AD0406091E7117091E8114B
:104A30008091E9119091EA110E9447669B01AC01B7
:104A40006091E3117091E4118091E5119091E6116C
:104A5000C955DF4F2883C75AD040C855DF4F388328
:104A6000C85AD040C755DF4F4883C95AD040C655B1
:104A7000DF4F5883CA5AD0400E9447664201530113
:104A80006101CD55DF4FE880F9800A811B81C35A4F
:104A9000D040C955DF4F2881C75AD040C855DF4F95
:104AA0003881C85AD040C755DF4F4881C95AD040D5
:104AB000C655DF4F5881CA5AD0408BD7A201B301E7
:104AC000C101C4D3F1016081718182819381C4806D
:104AD000D580E680F7809B01AC010E94FE674B0108
:104AE0005C01A7019601C701B6010E94FE679B0108
:104AF000AC01C501B4010E94CC640E948B68C3560E
:104B0000DF4F288139814A815B81CD59D0400E9495
:104B1000CC642B013C01C356DF4F688379838A83C1
:104B20009B83CD59D040C756DF4F288139814A81B8
:104B30005B81C959D040CB57DF4F688179818A8129
:104B40009B81C558D0400E94CC6421EE3EE245E6F0
:104B500052E40E94AC654B015C010E94A9659B0177
:104B6000AC01C301B2010E94FE676B017C01F1013F
:104B70006083718382839383C501B4010E9481683D
:104B80009B01AC01C301B2010E94FE67F101648385
:104B9000758386839783CB56DF4F288139814A817D
:104BA0005B81C559D04060857185828593850E945F
:104BB000CC64F10160877187828793878E01035CE3
:104BC0001F4F24E045E0C701B6010E943962F101A0
:104BD00064817581868197810451110924E045E043
:104BE0000E943962F1016085718582859385045147
:104BF000110924E045E00E943962C356DF4F688105
:104C000079818A819B81CD59D0400451110924E0DA
:104C100045E00E943962CF56DF4F288139814A81B1
:104C20005B81C159D04000E0B10180E00E94994C05
:104C300090E005C081E090E002C080E090E0C655C1
:104C4000DF4F0FB6F894DEBF0FBECDBFDF91CF911F
:104C50001F910F91FF90EF90DF90CF90BF90AF909A
:104C60009F908F907F906F905F904F903F902F908C
:104C700008958091C9119091CA110497029780F408
:104C80008091010180628093010180910101806423
:104C90008093010180910201806280930201089556
:104CA00080E18093A1001092A00082E080936712BF
:104CB00080E29EE490936612809365129093A70021
:104CC0008093A60082E18093A10020E030E048EAD2
:104CD00051E4609100027091010280910202909172
:104CE00003020E94AC6520E030EC4FE754E40E94E0
:104CF000FE670E941966CB010C945B4ACF93DF9349
:104D0000D82FC8E05E98559AD7FF02C05D9A01C0BF
:104D10005D9865E070E080E090E00E94634B5E9AF1
:104D200065E070E080E090E00E94634B5E98DD0FEC
:104D300065E070E080E090E00E94634BC15011F7A5
:104D400062E070E080E090E00E94634B559A5D9ACB
:104D500062E070E080E090E0DF91CF910C94634BD3
:104D60005E98559A5D9865E070E080E090E00E9462
:104D7000634B5E9A65E070E080E090E00E94634BD8
:104D8000559A5D9A65E070E080E090E00C94634B8A
:104D9000CF93559A5D9A62E070E080E090E00E94C7
:104DA000634B5E9A62E070E080E090E00E94634BAB
:104DB00055989BEF89B1C82FC07285FF05C09150EF
:104DC000C9F7CEDFC1E007C05E9862E070E080E026
:104DD00090E00E94634B8C2FCF910895559A5D9A75
:104DE0005E9A65E070E080E090E00E94634B559A27
:104DF0005D9865E070E080E090E00E94634B5E9813
:104E000062E070E080E090E00C94634BCF93DF931E
:104E1000D82FC8E0809102018F77809302018091A2
:104E2000010184608093010180910201D7FF02C0DB
:104E3000846001C08B7F8093020165E070E080E0B8
:104E400090E00E94634B8091020180688093020190
:104E500065E070E080E090E00E94634B8091020189
:104E60008F7780930201DD0F65E070E080E090E0D5
:104E70000E94634BC15071F662E070E080E090E008
:104E80000E94634B809101018460809301018091B5
:104E9000020184608093020162E070E080E090E0B3
:104EA000DF91CF910C94634B0F931F93CF93DF93BC
:104EB000C2E0D1E088818F77888301E011E0F801BA
:104EC00080818460808388818B7F888365E070E047
:104ED00080E090E00E94634B88818068888365E071
:104EE00070E080E090E00E94634BF8018081846074
:104EF000808388818460888365E070E080E090E052
:104F0000DF91CF911F910F910C94634BCF938091C0
:104F1000010184608093010180910201846080938B
:104F2000020162E070E080E090E00E94634B8091BB
:104F3000020180688093020162E070E080E090E00E
:104F40000E94634B809101018B7F809301019BEF55
:104F500080910001C82FC47082FF05C09150C1F735
:104F6000A3DFC1E00BC0909102019F7790930201F3
:104F700062E070E080E090E00E94634B8C2FCF9164
:104F800008950F931F93CF93DF9301E011E0F80191
:104F9000808184608083C2E0D1E0888184608883DE
:104FA00088818068888365E070E080E090E00E94FE
:104FB000634BF80180818460808388818B7F888344
:104FC00065E070E080E090E00E94634B88818F771D
:104FD000888362E070E080E090E0DF91CF911F91E4
:104FE0000F910C94634BCF93DF93D82FC8E0439875
:104FF000399AD7FF02C0419A01C0419865E070E03C
:1050000080E090E00E94634B439A65E070E080E0AE
:1050100090E00E94634B4398DD0F65E070E080E014
:1050200090E00E94634BC15011F762E070E080E0B5
:1050300090E00E94634B399A419A62E070E080E010
:1050400090E0DF91CF910C94634B4398399A41984B
:1050500065E070E080E090E00E94634B439A65E079
:1050600070E080E090E00E94634B399A419A65E0DD
:1050700070E080E090E00C94634BCF93399A419AB2
:1050800062E070E080E090E00E94634B439A62E04F
:1050900070E080E090E00E94634B39989BEF86B10E
:1050A000C82FC27081FF05C09150C9F7CEDFC1E0A3
:1050B00007C0439862E070E080E090E00E94634B9C
:1050C0008C2FCF910895399A419A439A65E070E008
:1050D00080E090E00E94634B399A419865E070E06F
:1050E00080E090E00E94634B439862E070E080E0D3
:1050F00090E00C94634B4F925F926F927F92AF92CD
:10510000BF92CF92DF92EF92FF920F931F93CF93B4
:10511000DF935C01EB018A01FC01408051806280D9
:10512000738020E030E0A901C301B2010E94A565AF
:1051300020E030E0A901811111C0688179818A8164
:105140009B810E94C3671816E4F02AEDC22E2FE05F
:10515000D22E29ECE22E2FEBF22E22C0C301B20197
:105160000E94A56587FD16C0A3019201688179811F
:105170008A819B810E94AC650E946A656B017C01FB
:105180000FC09AEDC92E9FE0D92E99ECE92E9FE32E
:10519000F92E06C0C12CD12C80ECE82E8FE7F82E1A
:1051A000C701B6010E94A9652091CB113091CC11A5
:1051B0004091CD115091CE110E94FE679B01AC0130
:1051C000C301B2010E94CB64F501608371838283C5
:1051D0009383C701B6010E9481682091CB11309161
:1051E000CC114091CD115091CE110E94FE679B01D0
:1051F000AC01688179818A819B810E94CB6468833C
:1052000079838A839B832091CF113091D011409173
:10521000D1115091D211F801608171818281938105
:105220000E94CC64F8016083718382839383DF9151
:10523000CF911F910F91FF90EF90DF90CF90BF9093
:10524000AF907F906F905F904F9008954F925F92D4
:105250006F927F92AF92BF92CF92DF92EF92FF92C6
:105260000F931F93CF93DF935C01EB018A01FC0145
:10527000408051806280738020E030E0A901C3014A
:10528000B2010E94A56520E030E0A901811111C0A2
:10529000688179818A819B810E94C3671816E4F036
:1052A0002AEDC22E2FE0D22E29ECE22E2FEBF22E89
:1052B00022C0C301B2010E94A56587FD16C0A301EB
:1052C0009201688179818A819B810E94AC650E94EC
:1052D0006A656B017C010FC09AEDC92E9FE0D92E43
:1052E00099ECE92E9FE3F92E06C0C12CD12C80EC5D
:1052F000E82E8FE7F82EC701B6010E94A96520911C
:10530000CB113091CC114091CD115091CE110E9412
:10531000FE679B01AC01C301B2010E94CC64F501A0
:105320006083718382839383C701B6010E94816881
:105330002091CB113091CC114091CD115091CE11D3
:105340000E94FE679B01AC01688179818A819B8103
:105350000E94CC64688379838A839B832091CF11D8
:105360003091D0114091D1115091D211F80160814A
:105370007181828193810E94CB64F8016083718383
:1053800082839383DF91CF911F910F91FF90EF90D4
:10539000DF90CF90BF90AF907F906F905F904F90D5
:1053A00008952F923F924F925F926F927F928F92C9
:1053B0009F92AF92BF92CF92DF92EF92FF920F93A4
:1053C0001F93CF93DF93CDB7DEB766970FB6F894F0
:1053D000DEBF0FBECDBF69837A838B839C832D8311
:1053E0003E834F835887270138011601BA8AA98A5C
:1053F00084019B01AC010E94FE676B017C012D8141
:105400003E814F815885CA01B9010E94FE679B0108
:10541000AC01C701B6010E94CC640E948B6823E3F3
:1054200033E343E551E40E94CB6469877A878B8735
:105430009C872DEC3CEC46ED52E4C301B2010E9486
:10544000CB642B013C0129853A854B855C85CA01DB
:10545000B9010E94FE676B017C01A3019201C301A7
:10546000B2010E94FE679B01AC01C701B6010E9418
:10547000CC646B017C0124ED35E64DE955E40E94D6
:10548000CB644B015C0126EC3FEA4DE957E4C701D0
:10549000B6010E94FE676D877E878F87988BA50176
:1054A0009401C501B4010E94FE679B01AC016D85AA
:1054B0007E858F8598890E94CB640E948B686B8B58
:1054C0007C8B8D8B9E8BA7019601C701B6010E9434
:1054D000CC646D877E878F87988BA5019401698541
:1054E0007A858B859C850E94FE674B015C012B8928
:1054F0003C894D895E89C301B2010E94FE679B0110
:10550000AC01C501B4010E94CB644B015C012CEEDF
:1055100031E14EE053E46D857E858F8598890E9448
:10552000FE679B01AC01C501B4010E94AC650E94FD
:10553000BD6421EE3EE245E652E40E94FE67F101C1
:10554000608371838283938324ED35E64DE955E4CE
:10555000C701B6010E94CC644B015C012BE339E02A
:1055600045EC57E4C701B6010E94FE676B017C0160
:10557000A5019401C501B4010E94FE679B01AC0125
:10558000C701B6010E94CB640E948B686B017C014D
:10559000A501940169857A858B859C850E94FE67AB
:1055A0004B015C01A7019601C301B2010E94FE6795
:1055B0009B01AC01C501B4010E94CC646B017C016C
:1055C0002CE53FEC4EE153E46D857E858F8598890F
:1055D0000E94FE679B01AC01C701B6010E94AC6549
:1055E0000E94BD6421EE3EE245E652E40E94FE6761
:1055F0006B017C01E989FA896083718382839383DB
:1056000021EE3EE245E652E4F10160817181828142
:1056100093810E94AC650E9481682CEE31E14EE0DE
:1056200053E40E94FE679B01AC01C301B2010E94DA
:10563000C367181654F4F7FAF094F7F8F094E98970
:10564000FA89C082D182E282F38220E030E0A901AF
:1056500069817A818B819C810E94A56520E030E080
:10566000A901811112C06D817E818F8198850E9470
:10567000C36718162CF480E090E0A4EBB2E411C0EC
:1056800080E090E0A4EBB2EC0CC069817A818B8160
:105690009C810E94A56587FF0AC080E090E0A0EC95
:1056A000BFE7F80180839183A283B38317C0298168
:1056B0003A814B815C816D817E818F8198850E94CA
:1056C000AC650E946A6521EE3EE245E652E40E9426
:1056D000FE67F801608371838283938366960FB6B9
:1056E000F894DEBF0FBECDBFDF91CF911F910F9118
:1056F000FF90EF90DF90CF90BF90AF909F908F90F2
:105700007F906F905F904F903F902F9008952F92D1
:105710003F924F925F926F927F928F929F92AF9241
:10572000BF92CF92DF92EF92FF920F931F93CF938E
:10573000DF93CDB7DEB72E970FB6F894DEBF0FBE5E
:10574000CDBF29833A834B835C83ED82FE820F8336
:105750001887860115019E868D8621EE3EE245E67C
:1057600052E40E94AC652B013C0121EE3EE245E68D
:1057700052E469817A818B819C810E94AC654B01E6
:105780005C0121EE3EE245E652E46D817E818F812F
:1057900098850E94AC656B017C01C301B2010E9437
:1057A000A96569837A838B839C83C501B4010E94B8
:1057B000A9656D837E838F839887C301B2010E94A0
:1057C00081682B013C01C501B4010E948168698791
:1057D0007A878B879C872CEE31E14EE053E4698118
:1057E0007A818B819C810E94FE674B015C012CE5D4
:1057F0003FEC4EE153E46D817E818F8198850E945C
:10580000FE679B01AC01C501B4010E94CC6423E397
:1058100033E343E551E40E94CC644B015C01C701D2
:10582000B6010E94A9659B01AC01C501B4010E94AB
:10583000FE67F8016083718382839383C701B60199
:105840000E9481689B01AC01C501B4010E94FE6702
:10585000F10160837183828393832CEE31E14EE00A
:1058600053E4C301B2010E94FE676B017C012CE589
:105870003FEC4EE153E469857A858B859C850E94D7
:10588000FE679B01AC01C701B6010E94CB642DEC01
:105890003CEC46ED52E40E94CC64ED85FE856083CD
:1058A0007183828393832E960FB6F894DEBF0FBE6A
:1058B000CDBFDF91CF911F910F91FF90EF90DF90BF
:1058C000CF90BF90AF909F908F907F906F905F90A0
:1058D0004F903F902F9008954F925F926F927F92DA
:1058E0008F929F92AF92BF92CF92DF92EF92FF92F0
:1058F0000F931F93CF93DF9300D01F92CDB7DEB7E6
:1059000029013A01E982FA820B831C8309EC11E137
:1059100020E030E040E253E40E94AC659B01AC0122
:10592000F80166857785808991890E94CC64F601AB
:10593000608371838283938320E030E040E253E40C
:10594000C301B2010E94AC659B01AC01F801628900
:105950007389848995890E94CC64F5016083718381
:105960008283938320E030E044EB52E4F8016689BF
:105970007789808D918D0E94CB642B013C0120E0C2
:1059800030E040E253E469817A818B819C810E94FE
:10599000AC659B01AC01C301B2010E94CC64F4016F
:1059A00060837183828393830F900F900F900F9089
:1059B000DF91CF911F910F91FF90EF90DF90CF90EB
:1059C000BF90AF909F908F907F906F905F904F901F
:1059D00008952F923F924F925F926F927F928F9293
:1059E0009F92AF92BF92CF92DF92EF92FF920F936E
:1059F0001F93CF93DF93CDB7DEB72C970FB6F894F4
:105A0000DEBF0FBECDBF160135012401FE01319668
:105A10004F0134965F0134966F015EDFE980FA80B2
:105A20000B811C812D813E814F81588569857A8546
:105A30008B859C8542015301610169DE2C960FB66E
:105A4000F894DEBF0FBECDBFDF91CF911F910F91B4
:105A5000FF90EF90DF90CF90BF90AF909F908F908E
:105A60007F906F905F904F903F902F9008954F924E
:105A70005F926F927F928F929F92AF92BF92CF92DE
:105A8000DF92EF92FF920F931F932B013C0149018C
:105A90005A01670178019B01AC010E94D368811112
:105AA00070C0A5019401C501B4010E94D3688111A1
:105AB00068C0A7019601C701B6010E94D368811191
:105AC00060C02AE939E947E053E4C301B2010E940A
:105AD000C36718160CF455C020E030E0A901C301DB
