:1000000065C5000084C5000082C5000080C50000F1
:100010007EC500007CC500007AC5000078C50000E0
:1000200076C500000C94785972C500000C94B64750
:100030006EC500006CC500006AC500000C944354F6
:1000400066C500000C94223062C5000060C5000047
:100050005EC500005CC500005AC500000C94AD2FC1
:1000600056C500000C9486360C94763750C50000B7
:100070004EC500004CC500004AC5000048C5000040
:1000800046C5000044C5000042C500000C942D5434
:100090000C941E360C9448373AC5000038C5000051
:1000A00036C5000034C5000032C5000030C5000070
:1000B0002EC500000C94F2532AC5000028C500008C
:1000C00026C5000024C500000C94BD530C94B63521
:1000D0000C941A371CC500000C944E350C94EC3669
:1000E00016C500002A13821D821D38134D1362139A
:1000F0007713821D8013821D9313821DA213AC13EC
:100100000414821D821D821DBB13D513EF13511CD5
:10011000611C901C611C941CAB1C9A1CA41CCF1C61
:10012000D61CE11CEC1C0B1D0D1D101D121D832483
:100130009B24B324CB24E32404251C2584338A3355
:100140008D33903394339C33A433113411341134F0
:10015000AC33AF33B833C1331134113411341134EB
:1001600011341134C933D333DF33E933EC33F5338E
:10017000FE3304343553385327532B5331536F53C5
:100180003C53405346534A534E53545358535C5375
:100190006F53625366536A53084AD73B3BCE016E96
:1001A00084BCBFFDC12F3D6C74319ABD56833DDACE
:1001B0003D00C77F11BED9E4BB4C3E916BAAAABEDD
:1001C000000000803F072C7AA5BA6CC590DA3B93FB
:1001D00065FC8BBC53F810FD3C5692834DBD879D4A
:1001E0003AB63DCBC9BF5BBE73DA0FC93F05A84C19
:1001F000CDB2D44EB93836A9020C50B991868808D0
:100200003CA6AAAA2ABE000000803F0000407A1047
:10021000F35A00A0724E18090010A5D4E80000E8B7
:100220007648170000E40B54020000CA9A3B000015
:1002300000E1F505000080969800000040420F00A4
:100240000000A08601000000102700000000E80365
:10025000000000006400000000000A000000000030
:100260000100000000002C76D888DC674F0823DFEF
:10027000C1DFAE59E1B1B796E5E3E453C63AE651C2
:10028000997696E8E6C28426EB898C9B62ED407CE9
:100290006FFCEFBC9C9F40F2BAA56FA5F490055A85
:1002A0002AF75C936B6CF9676DC11BFCE0E40D47AA
:1002B000FEF520E6B500D0ED902E030094357705CD
:1002C0000080841E080000204E0A000000C80C3385
:1002D0003333330F986E12831141EF8D2114893B14
:1002E000E65516CFFEE6DB18D1844B381BF77C1D94
:1002F000901DA4BBE424203284725E228100C9F1E7
:1003000024ECA1E53D276364696E6F7073757858BE
:100310005B00000020002300260029002C002F0095
:100320003200000100000301060109010D0A003D31
:1003300000244E005D0D0A005B302E396A2E3230EB
:100340003136303732363A005D0D0A005B544C4F7F
:100350003A005D0D0A002C005B4739323A005D0D12
:100360000A002C003A003330003238005B47005D51
:100370000D0A00205300204600205400204D380074
:10038000204D3900204D3500204D3400204D3300E4
:10039000204D3200204D3100204D300020473934AF
:1003A00000204739330020473931002047393000D9
:1003B00020473230002047323100204731390020B9
:1003C0004731380020473137002047004733382E67
:1003D000004738300047330047320047310047308C
:1003E000005B00290D0A00206D617820747261762F
:1003F000656C2C206D6D0020616363656C2C206D35
:100400006D2F7365635E3200206D617820726174B8
:10041000652C206D6D2F6D696E002C2073746570D6
:100420002F6D6D007A00790078002028003D0024AF
:10043000002028686F6D696E672070756C6C2D6F79
:1004400066662C206D6D290D0A002028686F6D6985
:100450006E67206465626F756E63652C206D7365D1
:1004600063290D0A2432373D002028686F6D696EBC
:1004700067207365656B2C206D6D2F6D696E290D7E
:100480000A2432363D002028686F6D696E67206649
:100490006565642C206D6D2F6D696E290D0A2432FF
:1004A000353D00290D0A2432343D002028686F6D47
:1004B000696E672064697220696E76657274206D5A
:1004C00061736B3A002028686F6D696E67206379ED
:1004D000636C652C20626F6F6C290D0A2432333DEA
:1004E00000202868617264206C696D6974732C2027
:1004F000626F6F6C290D0A2432323D002028736F21
:100500006674206C696D6974732C20626F6F6C293E
:100510000D0A2432313D0020287265706F727420FC
:10052000696E636865732C20626F6F6C290D0A24F5
:1005300032303D00202861726320746F6C657261F7
:100540006E63652C206D6D290D0A2431333D00202A
:10055000286A756E6374696F6E206465766961746C
:10056000696F6E2C206D6D290D0A2431323D0029F2
:100570000D0A2431313D0020287374617475732095
:100580007265706F7274206D61736B3A0020287011
:10059000726F62652070696E20696E766572742C68
:1005A00020626F6F6C290D0A2431303D0020286CC9
:1005B000696D69742070696E7320696E76657274F6
:1005C0002C20626F6F6C290D0A24363D00202873A1
:1005D00074657020656E61626C6520696E76657207
:1005E000742C20626F6F6C290D0A24353D00290D93
:1005F0000A24343D00202864697220706F727420D0
:10060000696E76657274206D61736B3A00290D0A0C
:1006100024333D0020287374657020706F7274203D
:10062000696E76657274206D61736B3A0020287371
:100630007465702069646C652064656C61792C2038
:100640006D736563290D0A24323D0020287374659B
:10065000702070756C73652C2075736563290D0AA5
:1006600024313D0024303D0024242028766965771C
:10067000204772626C2073657474696E6773290D0C
:100680000A2423202876696577202320706172610F
:100690006D6574657273290D0A2447202876696593
:1006A0007720706172736572207374617465290DAF
:1006B0000A2449202876696577206275696C642070
:1006C000696E666F290D0A244E20287669657720A9
:1006D0007374617274757020626C6F636B73290D33
:1006E0000A24783D76616C756520287361766520F3
:1006F0004772626C2073657474696E67290D0A24F1
:100700004E783D6C696E6520287361766520737440
:10071000617274757020626C6F636B290D0A2443DB
:100720002028636865636B2067636F6465206D6F65
:100730006465290D0A245820286B696C6C20616C53
:1007400061726D206C6F636B290D0A24482028723A
:10075000756E20686F6D696E67206379636C6529BB
:100760000D0A7E20286379636C652073746172744E
:10077000290D0A2120286665656420686F6C64294C
:100780000D0A3F202863757272656E742073746160
:10079000747573290D0A6374726C2D782028726544
:1007A000736574204772626C290D0A0000002100F5
:1007B000240027002A002D00300033000101000032
:1007C000040107010A010D0A00496E76616C696433
:1007D0002067636F64652049443A00556E6465661E
:1007E000696E656420666565642072617465004D9C
:1007F0006F64616C2067726F75702076696F6C61D1
:1008000074696F6E00486F6D696E67206E6F74203B
:10081000656E61626C656400416C61726D206C6F25
:10082000636B004E6F742069646C650045455052DF
:100830004F4D2072656164206661696C2E2055738E
:10084000696E672064656661756C74730056616CCF
:100850007565203C2033207573656300536574749F
:10086000696E672064697361626C65640056616CCF
:100870007565203C203000496E76616C6964207398
:10088000746174656D656E7400426164206E756D8F
:1008900062657220666F726D617400457870656381
:1008A00074656420636F6D6D616E64206C65747433
:1008B0006572006572726F723A20006F6B0D0A00EC
:1008C0000D0A00486F6D696E67206661696C0050A3
:1008D000726F6265206661696C0041626F7274209C
:1008E000647572696E67206379636C6500536F6627
:1008F00074206C696D69740048617264206C696D64
:10090000697400414C41524D3A20003E0D0A002CC2
:100910004C696D3A002C52583A002C4275663A00E8
:100920002C002C57506F733A002C002C4D506F73D5
:100930003A003C446F6F72003C436865636B003C57
:10094000416C61726D003C486F6D65003C486F6C96
:1009500064003C52756E003C49646C65005D0D0A94
:1009600000526573746F72696E67206465666175A5
:100970006C74730050676D20456E64004368656356
:100980006B20446F6F720044697361626C65640030
:10099000456E61626C65640043617574696F6E3A9F
:1009A00020556E6C6F636B656400272448277C2795
:1009B00024582720746F20756E6C6F636B0052652E
:1009C00073657420746F20636F6E74696E75650053
:1009D0005B005D0D0A003A002C005B5052423A0069
:1009E00000002200250028002B002E0031003400DA
:1009F00002010000050108010B01050505050705B9
:100A000008080808020202020A0A0808040404048A
:100A100001010101010101010303030303030303B6
:100A2000040707070C0C0C0C0C0C0C0C0202020245
:100A300006060606060606060B0B0B0B0B0B0B0B2E
:100A400001021020200808102040102040800201E0
:100A500002010804020101020408102040808040C5
:100A600020100804020180040201804020100804C4
:100A70000201080402010102040810204080010262
:100A800004081020408000000A0B02090C0D0E081B
:100A90000703040100000000000000000000000047
:100AA0000000000000000000000000000000000046
:100AB0000000121110000000000000000000000003
:100AC00000000000000000000000000011241FBE14
:100AD000CFEFD1E2DEBFCDBF00E00CBF14E0A0E05D
:100AE000B2E0E8E8F1EF00E00BBF02C007900D9222
:100AF000A039B107D9F725E1A0E9B4E001C01D9202
:100B0000AF37B207E1F70E94675C0C94C27878CAED
:100B10002F923F924F925F926F927F928F929F920D
:100B2000AF92BF92CF92DF92EF92FF920F931F93FB
:100B3000CF93DF93CDB7DEB7CA5CD1090FB6F89477
:100B4000DEBF0FBECDBFC754DF4F99838883C95B1B
:100B5000D04089E3E7E0F5E1DF011D928A95E9F7EE
:100B60008AE0E0E4F5E1A8E0B5E101900D928A9514
:100B7000E1F7FE01E756FF4F1082C155DF4F1982A2
:100B80001882CF5AD040C555DF4F19821882CB5AF0
:100B9000D040C554DF4F1882CB5BD040CA55DF4FE1
:100BA0001882C65AD040C655DF4F1882CA5AD04064
:100BB000E859F109C256DF4FF983E883CE59D04096
:100BC0009E01235A3F4FC056DF4F39832883C05AB6
:100BD000D0401E0131E5230E311CC1010896C154DD
:100BE000DF4F99838883CF5BD040C756DF4F888122
:100BF000C959D040C754DF4FE881F981C95BD04063
:100C0000E80FF11D1081112311F40C9461149FEB76
:100C1000910F9A3110F00C94741D8F5FC756DF4FFF
:100C20008883C959D040AE014B565F4FBE0167560D
:100C30007F4FC754DF4F88819981C95BD0400E94A4
:100C40007654882311F40C94761DCB56DF4FC88060
:100C5000D980EA80FB80C559D040C701B6010E9407
:100C6000D0710E943D6FCF54DF4F688379838A83B0
:100C70009B83C15BD040CF54DF4F68807980C15BDC
:100C8000D040B30180E090E00E94696F9B01AC010D
:100C9000C701B6010E94EF6D20E030E048EC52E45D
:100CA0000E9422714B015C0120E030E0A9010E940A
:100CB000E77020E030E040E05FE387FD05C0C5015C
:100CC000B4010E94F06D04C0C501B4010E94EF6D33
:100CD0000E94386F2B011D3409F4ADC7103511F493
:100CE0000C94E10E173411F00C941713C756DF4F14
:100CF0008881C959D040C754DF4FA881B981C95BE9
:100D0000D040A80FB11DCD01BAE96B16B8E07B0643
:100D100009F403C158F4F4ED6F16F7E07F0699F07B
:100D200029E9621628E07206D1F10CC53CE9631688
:100D300038E0730609F430C2ADE96A16A8E07A0615
:100D400009F419C3FFC41A821982E1E0F0E0EC0F44
:100D5000FD1FFF93EF9320E234E03F932F939F9387
:100D60008F930E9496720F900F900F900F900F909C
:100D70000F90181619060CF02AC389819A81909356
:100D80004B0F80934A0F11E01093760D8091070D61
:100D90008111DBC40E94562A1093070DD6C48E0120
:100DA0000B5E1F4F1F930F939E01275D3F4F3F9395
:100DB0002F937E01FDE3EF0EF11CFF92EF923F9225
:100DC0002F9229E132E03F932F939F938F930E94BC
:100DD00096720FB6F894DEBF0FBECDBF04970CF429
:100DE000F6C2EF961CAE1DAE1EAE1FAEEF97E59697
:100DF0001CAE1DAE1EAE1FAEE597AB961CAE1DAE73
:100E00001EAE1FAEAB97A1961CAE1DAE1EAE1FAEA2
:100E1000A1978CE0C256DF4FA881B981CE59D0404E
:100E20001D928A95E9F7AE0145585F4F60E070E08A
:100E3000C1010E947654882309F487C4AE014F583B
:100E40005F4F60E070E0C7010E947654882309F488
:100E50007CC4AE0149595F4F60E070E0CE018996D5
:100E60000E947654882309F470C4AE01435A5F4F40
:100E700060E070E0C8010E947654882309F465C4DC
:100E800020E030E044EB52E4E5966CAD7DAD8EADF4
:100E90009FADE5970E94EF6D21EE3EE245E652E4FC
:100EA0000E94D06E6B017C01E5966CAF7DAF8EAF7A
:100EB0009FAFE5970E94CD6EEF968CAC9DACAEAC2B
:100EC000BFACEF97A50194010E94227169837A83D8
:100ED0008B839C83C701B6010E9485719B01AC0185
:100EE000C501B4010E9422716D837E838F83988730
:100EF000AB968CAD9DADAEADBFADAB9789879A87F4
:100F0000AB87BC87A1962CAD3DAD4EAD5FADA19733
:100F100000E0BE016F5F7F4F10C4F10110821182AB
:100F20001282138221961CAE1DAE1EAE1FAE2197FB
:100F300021E030E02C0F3D1F3F932F938E010B5E7D
:100F40001F4F1F930F93CF55DF4F3881C15AD040A9
:100F50003F93C056DF4FA881C05AD040AF9322E4E0
:100F600032E03F932F939F938F930E9496720FB618
:100F7000F894DEBF0FBECDBF03970CF428C2A101C9
:100F800060E070E0C8010E947654882309F4DDC354
:100F9000AE01435C5F4F60E070E0CE0101960E94BD
:100FA0007654882309F4D1C39E01275D3F4FC6566E
:100FB000DF4F39832883CA59D0408CE0D9011D9274
:100FC0008A95E9F760915D0D70915E0D80915F0DDE
:100FD0009091600D0E946B6F24EE38E34EE553E470
:100FE0000E94D06E2091510D3091520D4091530DC1
:100FF0005091540D0E94F06DCE55DF4F6883798378
:101000008A839B83C25AD0406091610D7091620DBA
:101010008091630D9091640D0E946B6F24EE38E314
:101020004EE553E40E94D06E2091550D3091560D3F
:101030004091570D5091580D0E94F06DCB54DF4FE9
:10104000688379838A839B83C55BD0406091650DFB
:101050007091660D8091670D9091680D0E946B6F85
:1010600024EE38E34EE553E40E94D06E6B017C0120
:1010700020E030E044EB52E46091590D70915A0D3C
:1010800080915B0D90915C0D0E94EF6D9B01AC0116
:10109000C701B6010E94F06D7B018C016F968EAD89
:1010A0009FAD6F9781309105C1F14CF5892B09F007
:1010B0009BC120E030E044EB52E4F101608171819A
:1010C000828193810E94EF6DD1016D937D938D9309
:1010D0009C931397FE01F1964F019E01235D3F4FB4
:1010E0005901DE0199966D017B018C01CB54DF4FD4
:1010F000288139814A815B81C55BD04034C0823010
:10110000910519F1039709F06FC1F10160817181B7
:10111000828193810E942F2B18C3F101608171811C
:10112000828193819E012F5C3F4F4901DE019D9694
:101130005D01FE01B9966F01CB54DF4F28813981E3
:101140004A815B81C55BD04016C0D1012D913D9194
:101150004D915C91FE01F1964F01CE018D965C019F
:10116000DE0199966D01CE55DF4F688179818A81C4
:101170009B81C25AD0400E94EB42A401B501C60136
:101180000E94B62E21962CAD3DAD4EAD5FAD2197A0
:1011900000E0B60180E0D2C29E012B5E3F4F3F933C
:1011A0002F938E01075D1F4F1F930F937E01FDE369
:1011B000EF0EF11CFF92EF923F922F922AE532E060
:1011C0003F932F939F938F930E9496720FB6F8943C
:1011D000DEBF0FBECDBF04970CF4F9C0EF961CAE76
:1011E0001DAE1EAE1FAEEF97E5961CAE1DAE1EAE39
:1011F0001FAEE597AB961CAE1DAE1EAE1FAEAB97F5
:10120000A1961CAE1DAE1EAE1FAEA197AE014558F5
:101210005F4F60E070E0C1010E947654882309F4BA
:1012200094C2AE014F585F4F60E070E0C7010E946A
:101230007654882309F489C2AE0149595F4F60E0B2
:1012400070E0C8010E947654882309F47EC2AE0182
:10125000435A5F4F60E070E0CE0145960E9476549D
:10126000882309F472C26091650D7091660D8091BA
:10127000670D9091680D0E946B6FCE55DF4F6883AC
:1012800079838A839B83C25AD0406091610D7091AB
:10129000620D8091630D9091640D0E946B6FCB5431
:1012A000DF4F688379838A839B83C55BD0406091DD
:1012B0005D0D70915E0D80915F0D9091600D0E94AB
:1012C0006B6FDE0119964D01FE0135965F019E019F
:1012D0002F5F3F4F6901CE55DF4FE880F9800A81CB
:1012E0001B81C25AD040CB54DF4F288139814A81BB
:1012F0005B81C55BD0400E94CF43A401B501C6010C
:101300000E94B62EEF962CAD3DAD4EAD5FADEF9782
:1013100069817A818B819C810E94F06D69837A83D7
:101320008B839C83E5962CAD3DAD4EAD5FADE597CF
:101330006D817E818F8198850E94F06D6D837E83A3
:101340008F839887AB962CAD3DAD4EAD5FADAB971F
:1013500069857A858B859C850E94F06D69877A877F
:101360008B879C87A1962CAD3DAD4EAD5FADA1970F
:1013700000E0B601E2C1CF55DF4F3881C15AD040FD
:101380003F93C056DF4FA881C05AD040AF938E0123
:1013900009591F4F1F930F937E01B1E7EB0EF11C0C
:1013A000FF92EF926E01EBE7CE0ED11CDF92CF924F
:1013B00029E132E03F932F939F938F930E9496727F
:1013C0000FB6F894DEBF0FBECDBF049784F41F9212
:1013D00081E08F938DE092E09F938F930E948C39F0
:1013E0000F900F900F900F9082E390E0B0C1CF5616
:1013F000DF4F188219821A821B82C159D040C3570D
:10140000DF4F188219821A821B82CD58D040C757ED
:10141000DF4F188219821A821B82C958D040CB57DD
:10142000DF4F188219821A821B82C558D0408CE087
:10143000D1011D928A95E9F7AE014F565F4F60E0EA
:1014400070E0C6010E947654882309F47EC1AE0183
:1014500043575F4F60E070E0C7010E9476548823D5
:1014600009F473C1AE0147575F4F60E070E0C801F7
:101470000E947654882309F468C1AE014B575F4F30
:1014800060E070E0CE01835A9F4F0E94765488231B
:1014900009F45BC16091650D7091660D8091670DD7
:1014A0009091680D0E946B6FCB54DF4F68837983F6
:1014B0008A839B83C55BD04020E030E044EB52E45C
:1014C0006091590D70915A0D80915B0D90915C0D5A
:1014D0000E94EF6D6B017C0124EE38E34EE553E48E
:1014E000CB54DF4F688179818A819B81C55BD04075
:1014F0000E94D06E9B01AC01C701B6010E94F06D45
:10150000CD53DF4F688379838A839B83C35CD0404C
:101510006091610D7091620D8091630D9091640DE9
:101520000E946B6FC953DF4F688379838A839B83E3
:10153000C75CD04060915D0D70915E0D80915F0D34
:101540009091600D0E946B6FC154DF4F888099802D
:10155000CF5BD040F1013496CE55DF4FF983E8835D
:10156000C25AD0405F016101CB54DF4FE880F9805F
:101570000A811B81C55BD040C953DF4F2881398167
:101580004A815B81C75CD0400E94CF43C154DF4F8A
:1015900048815981CF5BD040CE55DF4F688179813A
:1015A000C25AD040C1010E94B62ED1016D917D91E9
:1015B0008D919C9113971496CD90DD90ED90FC90B9
:1015C00017979B01AC010E9422714B015C01A7019E
:1015D0009601C701B6010E9422719B01AC01C501B1
:1015E000B4010E94F06D0E948F71CF56DF4F2881A9
:1015F00039814A815B81C159D0400E94F06D6B01F5
:101600007C01CF56DF4F688379838A839B83C159DE
:10161000D040C357DF4F288139814A815B81CD5843
:10162000D040CD53DF4F688179818A819B81C35C33
:10163000D0400E94F06D21EE3EE245E652E40E9469
:10164000D06ECE55DF4F688379838A839B83C25ADD
:10165000D0400E94CD6E9B01AC01C701B6010E9433
:1016600022714B015C01F10160837183828393835A
:10167000CE55DF4F688179818A819B81C25AD040E3
:101680000E9485719B01AC01C701B6010E942271C5
:10169000D10114966D937D938D939C931797C757A3
:1016A000DF4F288139814A815B81C958D040189623
:1016B0006D917D918D919C911B970E94F06DF10130
:1016C00060877187828793878E01035C1F4F24E0B8
:1016D00045E0C501B4010E94746BD10114966D916F
:1016E0007D918D919C9117970451110924E045E05B
:1016F0000E94746BF1016085718582859385045128
:10170000110924E045E00E94746BCF56DF4F6881D9
:1017100079818A819B81C159D0400451110924E00B
:1017200045E00E94746BCB57DF4F288139814A8195
:101730005B81C558D04000E0B10181E00E94605556
:1017400090E005C081E090E002C080E090E09C0164
:10175000215031092230310510F00C94DD1DF8E2E2
:101760006F16710409F414C280F534E16316710434
:1017700098F481E16816710408F061C194E069167B
:10178000710409F474C008F4E3C0BAE06B16710484
:1017900009F45EC00C94821DECE16E16710409F42C
:1017A00057C038F426E16216710408F4A2C10C9403
:1017B000821D3EE16316710409F44AC086E2681690
:1017C000710409F4C5C00C94821D9DE3691671046F
:1017D00009F4D3C110F5B5E36B16710409F447C0E1
:1017E00060F4FBE26F16710409F495C121E36216FF
:1017F000710409F490C10C94821D3CE363167104DA
:1018000010F00C94821DCF54DF4F8881C15BD04013
:10181000865380930E15A9E0AAC18CE56816710461
:1018200060F49AE56916710408F01FC1A0E56A1614
:10183000710409F49BC00C94821DBCE56B16710405
:1018400039F0EFE56E16710408F43CC10C94821D6A
:101850004114510411F00C94961DC655DF4FF881C8
:10186000CA5AD040FF2309F445C00C94781D2CE1DE
:101870006216710491F148F484E06816710479F0FD
:101880009AE069167104E1F08AC1AEE16A1671044A
:10189000D9F1B5E36B16710409F456C080C181E03B
:1018A00054C0FFE16F16710408F042C02AE06216CE
:1018B000710441F4E1E0C655DF4FE883CA5AD040D5
:1018C00082E043C03CE16316710409F078C1F1E0A5
:1018D000C655DF4FF883CA5AD0404114510441F035
:1018E0002AE04216510411F00C94821D84E010C0CD
:1018F00083E00EC0EEE16E16710499F631E0C65534
:10190000DF4F3883CA5AD0404114510449F485E06E
:1019100080930715CE55DF4F1882C25AD0405AC166
:101920008AE04816510411F00C94821D86E0F0CF35
:1019300085E36816710411F00C94AB1D91E0C65557
:10194000DF4F9883CA5AD04087E08093071527C19C
:10195000C655DF4FE881CA5AD040E1110C94781D7A
:10196000F2E0C655DF4FF883CA5AD04022E0621633
:10197000710419F158F461147104D9F06A9467285C
:1019800009F013C181E0809308150FC196E2691632
:101990007104C1F0A0E56A16710409F44BC0B3E00C
:1019A0006B16710409F001C183E08093081531E0E2
:1019B0009AC010920815E1E0ECC082E0809308150F
:1019C00021E088C08EE14816510401F180F4A4E1C1
:1019D0004A16510411F00C94821D84E0809308157E
:1019E000F1E0CE55DF4FF883C25AD040F3C0B8E2E1
:1019F0004B165104A9F0E2E34E16510411F00C9479
:101A0000821D87E08093081581E039C085E08093CE
:101A1000081521E0CE55DF4F2883C25AD040DAC0E6
:101A200086E08093081531E0CE55DF4F3883C25AE7
:101A3000D040D0C088E08093081591E062C0A2E158
:101A40006A16710441F0B3E16B16710449F010920B
:101A50000C15E2E09EC081E080930C15F2E0A6C078
:101A600082E080930C1522E035C041145104B9F492
:101A70003AE56316710449F410920B1583E0CE55D4
:101A8000DF4F8883C25AD040A5C081E080930B15F8
:101A900093E0CE55DF4F9883C25AD0409BC0AAE056
:101AA0004A16510411F00C94821DBAE56B167104AC
:101AB00011F40C94821DE4E0CE55DF4FE883C25A46
:101AC000D04088C0FDE56F16710451F481E0809329
:101AD000091525E0CE55DF4F2883C25AD0406BC090
:101AE0001092091535E0CE55DF4F3883C25AD040E9
:101AF00062C084E16816710451F481E080930A1594
:101B000096E0CE55DF4F9883C25AD04054C0109211
:101B10000A15A6E02CC0C655DF4FB881CA5AD0407E
:101B2000B1110C94781DE1E36E16710451F410921A
:101B30000D15F8E0CE55DF4FF883C25AD04023E0B0
:101B400044C03AE04316510411F00C94821D81E028
:101B500080930D1588E0CE55DF4F8883C25AD04060
:101B600093E0C655DF4F9883CA5AD04033C0CE5554
:101B7000DF4FA883C25AD0401EC0452811F00C94F4
:101B8000821DBAE0CE55DF4FB883C25AD04022C082
:101B9000E7E0CE55DF4FE883C25AD0400CC0CE55A7
:101BA000DF4F1882C25AD04006C0F1E0CE55DF4F59
:101BB000F883C25AD040452869F00C94A91DCE552F
:101BC000DF4F1882C25AD04021E0C655DF4F28832C
:101BD000CA5AD040C555DF4FE881F981CB5AD04071
:101BE000CF01A0E0B0E0CE55DF4F0880C25AD04010
:101BF00004C0B695A795979587950A94D2F780FF6C
:101C000003C085E10C94DD1D81E090E0A0E0B0E030
:101C1000CE55DF4F0880C25AD04004C0880F991FAC
:101C2000AA1FBB1F0A94D2F7C555DF4F28813981FF
:101C3000CB5AD040F2C4672B11F00C94A91DC756A3
:101C4000DF4F8881C959D040C754DF4F68817981FF
:101C5000C95BD040680F711DAE0147565F4FCF542E
:101C6000DF4F88819981C15BD0400E94F71D9C01A4
:101C7000215031092230310510F00C94DD1D36E081
:101C80006316710428F483E06816710490F026C08E
:101C900098E06916710410F40C94821DAAE06A168B
:101CA000710408F440C0BEE16B16710411F00C948D
:101CB000821DE2E06E16710461F0FEE16F167104A0
:101CC00041F0672809F046C081E080930F152BE0B2
:101CD00032C082E080930F153BE036C084E0681686
:101CE000710471F095E069167104A1F081E08093B0
:101CF0001115ACE0CE55DF4FA883C25AD04030C09A
:101D000082E080931115BCE0CE55DF4FB883C25AF4
:101D1000D04026C010921115ECE0CE55DF4FE8837D
:101D2000C25AD0401DC0F9E06F16710451F082E034
:101D3000809310152DE0CE55DF4F2883C25AD04036
:101D40000FC0109210153DE0CE55DF4F3883C25AB8
:101D5000D04006C08BE0CE55DF4F8883C25AD040BA
:101D6000C555DF4FE881F981CB5AD040CF01A0E0C3
:101D7000B0E0CE55DF4F0880C25AD04004C0B695BF
:101D8000A795979587950A94D2F780FD3ACF81E081
:101D900090E0A0E0B0E0CE55DF4F0880C25AD040BE
:101DA00004C0880F991FAA1FBB1F0A94D2F7E82B03
:101DB000F92BC555DF4FF983E883CB5AD0400C94FB
:101DC000F505672B11F00C94A91DC756DF4F8881CC
:101DD000C959D040C754DF4FE881F981C95BD04071
:101DE000E80FF11D27EB621628E0720609F4FBC22A
:101DF00008F06AC18CE9681688E0780609F4A5C184
:101E000008F076C0A9E96A16A8E07A0609F497C135
:101E100008F05FC0E8E96E16E8E07E0609F0CCC382
:101E200084E16E0199E2C90ED11CD601E82F1D9202
:101E3000EA95E9F77E01F5E1EF0EF11CD701E82FF5
:101E40001D92EA95E9F7C256DF4FA881B981CE59B4
:101E5000D0401D928A95E9F780E090E00E94764597
:101E6000CF54DF4F688379838A839B83C15BD040E3
:101E700081E090E00E9476452B013C0182E090E0F9
:101E80000E9476454B015C01860124E045E0CF5479
:101E9000DF4F688179818A819B81C15BD0400E943C
:101EA000746B870124E045E0C301B2010E94746BAA
:101EB0000451110924E045E0C501B4010E94746B8E
:101EC000FF92EF92DF92CF921F930F9383E892E0FD
:101ED00051C3FAE96F16F8E07F0609F433C12BE924
:101EE000621628E0720609F067C384EA92E02FC107
:101EF0003EE9631638E0730609F433C108F42CC1D7
:101F00009CEA691698E0790609F4C1C1ADEA6A163F
:101F1000A8E07A0609F050C3A1961CAE1DAE1EAE15
:101F20001FAEA197F10110821182128213822196B5
:101F30001CAE1DAE1EAE1FAE219784E19E01275D33
:101F40003F4FC656DF4F39832883CA59D040D90145
:101F5000E82F1D92EA95E9F724513109C456DF4F65
:101F600039832883CC59D040D901E82F1D92EA95B6
:101F7000E9F7C256DF4FA881B981CE59D0401D92F2
:101F80008A95E9F780E090E00E947645CF54DF4FD4
:101F9000688379838A839B83C15BD04081E090E032
:101FA0000E947645CB54DF4F688379838A839B8375
:101FB000C55BD04082E090E00E94764520E030E0B2
:101FC00044EB52E40E94EF6D2B013C01FE01FD96B3
:101FD0004F0151019E01235A3F4F69017B018C0142
:101FE000CB54DF4F288139814A815B81C55BD0406A
:101FF000CF54DF4F688179818A819B81C15BD0405A
:102000000E94EB42A401B101C6010E94B62EA19626
:102010006CAD7DAD8EAD9FADA197D101CD90DD9022
:10202000ED90FC909B01AC010E9422714B015C0180
:10203000A7019601C701B6010E9422719B01AC0164
:10204000C501B4010E94F06D0E948F718E01075D81
:102050001F4F24E045E00E94746B20E030E044EB29
:1020600052E4C301B2010E94F06D0451110924E051
:1020700045E00E94746B21966CAD7DAD8EAD9FAD39
:1020800021970451110924E045E00E94746B1F93CD
:102090000F93C356DF4FF881CD59D040FF93C456FC
:1020A000DF4F2881CC59D0402F93C556DF4F388160
:1020B000CB59D0403F93C656DF4F8881CA59D04094
:1020C0008F9387EC92E056C2B0EC6B16B8E07B06BB
:1020D00009F4B5C1D0F439EB631638E0730609F49E
:1020E00099C108F48CC19AEB691698E0790609F455
:1020F00099C1ABEB6A16A8E07A0609F05DC280913F
:10210000020185FB882780F998C1B2EC6B16B8E014
:102110007B0609F405C208F4D4C133EC631638E039
:10212000730609F40FC280E6681689E0780609F0A4
:1021300043C28091440D8F938091430D29C281E960
:1021400092E005C08CE49FE002C08CEA92E09F938D
:102150008F938FE992E01FC280E994E09F938F9361
:1021600093C080818E3409F0D0C181818053843046
:1021700008F0CBC194E16E013DE3C30ED11CD60142
:10218000E92F1D92EA95E9F77E01F9E2EF0EF11CC5
:10219000D701E92F1D92EA95E9F75E01F5E1AF0E4F
:1021A000B11CD501E92F1D92EA95E9F7C256DF4F20
:1021B000A881B981CE59D0401D929A95E9F7823015
:1021C000E1F0833031F1813061F082E090E00E94F3
:1021D0007645850124E045E00E94746BBF92AF9282
:1021E00053C080E090E00E947645860124E045E0FF
:1021F0000E94746BDF92CF9247C081E090E00E9412
:102200007645870124E045E00E94746BFF92EF92CF
:102210003BC08091430D9091440D0497029748F480
:102220006091460F7091470F8091480F9091490F30
:1022300022C020E030E040E05FE360910002709156
:10224000010280910202909103020E94EF6D20E052
:1022500030E040E05FE30E94227120E030E044E3A0
:1022600053E40E9422719B01AC0160E070E084E3C2
:1022700093E40E94EF6D8E010F5F1F4F24E045E055
:102280000E94746B1F930F9383EB92E084C1A1961D
:102290001CAE1DAE1EAE1FAEA197D1011D921D92A8
:1022A0001D921C92139721961CAE1DAE1EAE1FAE42
:1022B000219784E1FE01B996C656DF4FF983E88382
:1022C000CA59D040282F11922A95E9F7DE01559678
:1022D000C456DF4FB983A883CC59D040E82F1D9254
:1022E000EA95E9F7C256DF4FA881B981CE59D040AF
:1022F0001D928A95E9F780E090E00E9476452B01D7
:102300003C0181E090E00E947645CF54DF4F688326
:1023100079838A839B83C15BD04082E090E00E94F6
:10232000764520E030E044EB52E40E94EF6DFE0180
:10233000FD964F0151019E01235A3F4F69017B01D8
:102340008C01CF54DF4F288139814A815B81C15B89
:10235000D040C301B2010E94EB42A401B101C60109
:102360000E94B62EA1966CAD7DAD8EAD9FADA197AE
:102370008E01075D1F4F24E045E00E94746BD10180
:102380006D917D918D919C910451110924E045E05E
:102390000E94746B21966CAD7DAD8EAD9FAD219783
:1023A0000451110924E045E00E94746B1F930F93C0
:1023B000C356DF4FF881CD59D040FF93C456DF4F4D
:1023C0002881CC59D0402F93C556DF4F3881CB5947
:1023D000D0403F93C656DF4F8881CA59D0408F9373
:1023E00089EB92E0C7C0A49B11C08FE30E949E536B
:1023F0008A30910558F08734910530F009C047992B
:1024000005C00898009904C082E017C080E015C09C
:1024100081E013C082B386958695869591E08927E1
:1024200081700BC08BE30E949E5321E0853691059D
:1024300008F420E01F922F93ACC01F92A9C021E0A6
:1024400030E02C0F3D1F3F932F9385ED92E09F933B
:102450008F93FF93EF930E9496720F900F900F90BF
:102460000F900F900F90181619060CF041C029819B
:102470003A812634310508F048C0F901EA57F54F92
:102480008491F901E05CF54F1491F901E650F64FA3
:102490000491002391F081110E941A53E02FF0E083
:1024A000EE0FFF1FEE5EFC4FA591B491EC911E2341
:1024B00081E090E021F480E002C080E090E09F9312
:1024C00067C081E090E08C0F9D1F9F938F9385EDF7
:1024D00092E09F938F93FF93EF930E9496720F90D9
:1024E0000F900F900F900F900F901816190684F010
:1024F0001F9281E08F938DE092E09F938F930E94D3
:102500008C390F900F900F900F9082E390E056C09F
:1025100089819A8180319105C0F70E949E53CFCF67
:102520008091420D8F938091410D8F938091400D4A
:102530008F9380913F0D8F9380913E0D8F9380916B
:102540003D0D15C080E090E00E942445182F092F12
:1025500081E090E00E942445F82EE92E82E090E090
:102560000E942445EF92FF920F931F939F938F93A6
:1025700089ED92E09F938F938BE09DE09F938F93E3
:102580000E9468720FB6F894DEBF0FBECDBF11C0B7
:102590008F938FE893E09F938F938BE09DE09F93C1
:1025A0008F930E9468720F900F900F900F900F9072
:1025B0000F9080E090E002C081E090E09C0121500B
:1025C00031092230310510F00C94DD1DC555DF4F67
:1025D00028813981CB5AD040C901A0E0B0E0CE5566
:1025E000DF4F0880C25AD04004C0B695A795979592
:1025F00087950A94D2F780FD04CB81E090E0A0E0BB
:10260000B0E0CE55DF4F0880C25AD04004C0880FDA
:10261000991FAA1FBB1F0A94D2F7282B392BC55527
:10262000DF4F39832883CB5AD0400C94F505812F96
:10263000110F990BAA0BBB0BFC01E654F109E53114
:10264000F10510F00C94821D8827EE58FF4F8F4F34
:102650000C943572C0921215D0921315E092141595
:10266000F0921515CE55DF4F1882C25AD040D2C015
:10267000C0921615D0921715E0921815F092191500
:10268000C554DF4F3881CB5BD0403160C554DF4F3C
:102690003883CB5BD04081E04FC0C0921A15D092F6
:1026A0001B15E0921C15F0921D15C554DF4F988143
:1026B000CB5BD0409260C554DF4F9883CB5BD0405A
:1026C000A2E053C0C0921E15D0921F15E0922015B3
:1026D000F0922115C554DF4FB881CB5BD040B46078
:1026E000C554DF4FB883CB5BD040E3E058C0CF5434
:1026F000DF4FF881C15BD040F093221524E069C020
:10270000C701B6010E94386F60932315709324159A
:10271000809325159093261535E0CE55DF4F3883ED
:10272000C25AD04077C0C0922715D0922815E092A7
:102730002915F0922A1586E0CE55DF4F8883C25ABC
:10274000D04068C0C0922B15D0922C15E0922D1568
:10275000F0922E1597E059C0C0922F15D0923015E7
:10276000E0923115F0923215A8E0CE55DF4FA883E4
:10277000C25AD0404FC0C0923415D0923515E09265
:102780003615F0923715CA55DF4FB881C65AD0407A
:10279000B160CA55DF4FB883C65AD040EAE0CE5583
:1027A000DF4FE883C25AD04035C0C0923815D0926E
:1027B0003915E0923A15F0923B15CA55DF4FF88172
:1027C000C65AD040F260CA55DF4FF883C65AD0408F
:1027D0002BE0CE55DF4F2883C25AD0401BC0C09299
:1027E0003C15D0923D15E0923E15F0923F15CA552A
:1027F000DF4F3881C65AD0403460CA55DF4F388326
:10280000C65AD0408CE098CF99E0CE55DF4F9883E0
:10281000C25AD040CE55DF4FA881C25AD0400A2FAD
:10282000C155DF4FE881F981CF5AD040CF01A0E0F8
:10283000B0E0CE55DF4F0880C25AD04004C0B695F4
:10284000A795979587950A94D2F780FF02C00C94BC
:102850007A1D81E693E0A0E0B0E0CE55DF4F08801E
:10286000C25AD04004C0B695A795979587950A940B
:10287000D2F780FF0BC020E030E0A901C701B6010C
:102880000E94C96E87FF02C00C947C1D81E090E01D
:10289000A0E0B0E004C0880F991FAA1FBB1F0A95D3
:1028A000D2F7C155DF4F28813981CF5AD040282B2C
:1028B000392BC155DF4F39832883CF5AD0400C9430
:1028C000F505CA55DF4F3881C65AD040332369F029
:1028D000C655DF4F8881CA5AD040811106C092E0A8
:1028E000C655DF4F9883CA5AD040C155DF4FA881E3
:1028F000CF5AD040A5FF0FC0809123159091241589
:10290000A0912515B091261580389649A849B105A2
:1029100014F00C947E1D80910915813091F4C655F8
:10292000DF4FF881CA5AD040F23009F040C0C1559B
:10293000DF4F2881CF5AD04020FD02C00C94881D63
:1029400036C080914115811132C0C155DF4F3881A9
:10295000CF5AD04030FF1BC080910A15813039F525
:1029600023E333E34BEC51E460911215709113159E
:1029700080911415909115150E9422716093121583
:1029800070931315809314159093151510C08091B2
:102990004E1590914F15A0915015B09151158093FF
:1029A000121590931315A0931415B0931515C155D6
:1029B000DF4F88819981CF5AD04090FD10C080911F
:1029C0004A1590914B15A0914C15B0914D158093DF
:1029D0002F1590933015A0933115B0933215809137
:1029E00007158130B9F4C155DF4F9881CF5AD040D7
:1029F00096FD03C08CE10C94DD1DC155DF4FA8810D
:102A0000B981CF5AD040AF7BC155DF4FB983A8837E
:102A1000CF5AD04080910C15882331F1813091F448
:102A2000B1E0CF54DF4FB883C15BD040C754DF4F14
:102A30001882C95BD040E2E0CE55DF4FE883C25A2E
:102A4000D04023C0CF54DF4F1882C15BD040F2E0AA
:102A5000C754DF4FF883C95BD04021E0CE55DF4F2C
:102A60002883C25AD04011C032E0CF54DF4F3883A0
:102A7000C15BD04081E0C754DF4F8883C95BD04041
:102A8000CE55DF4F1882C25AD04080910A1581304E
:102A900049F0C655DF4F9881CA5AD040933009F0AB
:102AA00043C036C0B7E0EB2EB5E1FB2E00E010E0EE
:102AB000CA55DF4FA881C65AD0408A2E912CA12C2E
:102AC000B12CD501C401002E04C0B695A7959795E9
:102AD00087950A94D2F780FF12C023E333E34BECCF
:102AE00051E4F70165A576A587A590A90E942271FA
:102AF000D7019D966D937D938D939C93D0970F5F97
:102B00001F4FB4E0EB0EF11C03301105D1F6C1CF1D
:102B100080910D15813041F4CA55DF4FE881C65AC6
:102B2000D040E43009F0ECC78CE0E3E6F5E1DE01EB
:102B3000119601900D928A95E1F7C555DF4F2881D6
:102B40003981CB5AD04031FD08C0109107151230A1
:102B5000C1F0183009F4EAC058C180910E158730D1
:102B600018F08DE10C94DD1D90914615891769F3DD
:102B7000BE016F5F7F4F0E942634882309F4D4C7BB
:102B8000E4CFCA55DF4F3881C65AD040311103C057
:102B90008AE10C94DD1DC155DF4F88819981CF5AA0
:102BA000D04080759927892B09F424CF609127158F
:102BB000709128158091291590912A150E94D07145
:102BC0000E943D6F673068F680912215843151F084
:102BD000823009F097C7C155DF4F8881CF5AD04066
:102BE00087FD90C7C155DF4FA881B981CF5AD0402A
:102BF000AF7AC155DF4FB983A883CF5AD04066233F
:102C000021F022242A94260E02C020900E15BE0127
:102C10006B5E7F4F822D0E942634882309F484C77F
:102C20003090221580907B1590907C15A0907D159A
:102C3000B0907E15A7E0CA2EA5E1DA2E8E010B5EBC
:102C40001F4FE0E4F5E1C555DF4FF983E883CB5A28
:102C5000D040E12CF12CCA55DF4FF881C65AD04044
:102C60004F2E512C612C712CD301C2010E2C04C0AB
:102C7000B695A795979587950A94D2F780FF3BC0A4
:102C800024E132122EC0C555DF4FA881B981CB5A3D
:102C9000D0409F962D913D914D915C91D297579642
:102CA0006D917D918D919C915A970E94EF6DF601E7
:102CB00025A536A547A550A90E94EF6DD8016D93B3
:102CC0007D938D939C931397B2E0EB1214C0A501F2
:102CD00094010E94EF6DF801608371838283938376
:102CE0000AC0F60185A596A5A7A5B0A9F80180831D
:102CF0009183A283B383FFEFEF1AFF0A24E0C20E91
:102D0000D11C0C5F1F4FC555DF4F88819981CB5A6D
:102D1000D0400496C555DF4F99838883CB5AD04065
:102D200093E0E916F10409F09FCF4CC1CA55DF4F7B
:102D3000A881C65AD040AA2309F42ACF80907B15D7
:102D400090907C15A0907D15B0907E15F0E4CF2E6C
:102D5000F5E1DF2EFE0131961F0107E015E1E12CC0
:102D6000F12C4A2E512C612C712CD301C2010E2C56
:102D700004C0B695A795979587950A94D2F780FFDA
:102D800029C0D1012D913D914D915C91F60167894A
:102D9000708D818D928D0E94EF6DD8019D962D9141
:102DA0003D914D915C91D0970E94EF6DF80165A720
:102DB00076A787A790ABF2E0EF1216C0A5019401A9
:102DC0000E94EF6DD8019D966D937D938D939C939A
:102DD000D0970AC0F60187A590A9A1A9B2A9F801C8
:102DE00085A796A7A7A7B0ABFFEFEF1AFF0A24E0CD
:102DF000C20ED11C34E0230E311C0C5F1F4F83E048
:102E0000E816F10409F0B1CFDCC0C655DF4F988158
:102E1000CA5AD040933009F49DC0CA55DF4FA881EB
:102E2000C65AD040AA2309F4BEC600910B154090A3
:102E30007B1550907C1560907D1570907E1570E428
:102E4000A72E75E1B72EE7E0EE2EE5E1FE2EFE019E
:102E500031964F01C12CD12C8A2F90E0A0E0B0E038
:102E6000C555DF4F88839983AA83BB83CB5AD04053
:102E7000C555DF4F88819981AA81BB81CB5AD0404B
:102E80000C2C04C0B695A795979587950A94D2F710
:102E900080FD0BC0F5018789908DA18DB28DF70162
:102EA00085A796A7A7A7B0AB43C0173009F440C0C9
:102EB00001112BC0D5019F962D913D914D915C91B3
:102EC000D297F40160817181828193810E94F06DBB
:102ED000D7019D962D913D914D915C91D0970E9487
:102EE000F06DF70165A776A787A790ABF2E0CF1248
:102EF0001FC0A30192010E94F06DD7019D966D93B2
:102F00007D938D939C93D09713C0F5012789308DC5
:102F1000418D528DD7019D966D917D918D919C91A2
:102F2000D0970E94F06DF70165A776A787A790ABB1
:102F3000FFEFCF1ADF0A24E0A20EB11C34E0E30E4B
:102F4000F11C84E0880E911C93E0C916D10409F0AD
:102F50008FCF2DC01530A9F0173071F1133089F5DE
:102F6000CA55DF4FA881C65AD040A11105C0C65529
:102F7000DF4F1882CA5AD040BE016B5E7F4F86E099
:102F800010C0CA55DF4FB881C65AD040B11105C034
:102F9000C655DF4F1882CA5AD040BE016B5E7F4FC4
:102FA00087E00E942634882309F4BEC50AC0153084
:102FB000A1F3173009F0F3C580910815823008F0AD
:102FC000A3C5212C30900815E8E03E1211C0CA5567
:102FD000DF4FF881C65AD040FF2309F405C3C65518
:102FE000DF4F2881CA5AD040213009F08FC511C364
:102FF000C655DF4F3881CA5AD040323009F0F4C28A
:10300000311009C0CA55DF4F8881C65AD040882385
:1030100009F4F1C2FEC220E030E0A901609112156E
:103020007091131580911415909115150E94C96E19
:10303000882309F46DC593E0931538F0A2E03A16A1
:1030400090F4B1E03B1631F0E4C2E7E0E31508F09C
:10305000BEC2DFC2CA55DF4FF881C65AD040FF2337
:1030600009F4C9C2D6C2CA55DF4F2881C65AD0401A
:10307000222309F48DCDCE55DF4F9881C25AD0401E
:10308000892F90E0C555DF4F99838883CB5AD04074
:10309000C754DF4FB881C95BD040AB2FB0E0CB54F1
:1030A000DF4FB983A883C55BD04081E090E0A0E00A
:1030B000B0E06C017D01CE55DF4F0880C25AD04090
:1030C00004C0CC0CDD1CEE1CFF1C0A94D2F7C754C4
:1030D000DF4F0880C95BD04004C0880F991FAA1F2A
:1030E000BB1F0A94D2F7C82AD92AEA2AFB2A822FC0
:1030F00090E0A0E0B0E08C219D21AE21BF21892B82
:103100008A2B8B2B09F406C5C555DF4F8881998121
:10311000CB5AD040880F991F880F991FFC01E95F97
:10312000FA4EDC01A05CBA4E57962D913D914D911F
:103130005C915A9765A576A587A590A90E94EF6D29
:103140004B015C01CB54DF4F88819981C55BD04036
:10315000880F991F880F991FFC01E95FFA4EDC0167
:10316000A05CBA4E57962D913D914D915C915A9726
:1031700065A576A587A590A90E94EF6DCA55DF4F7A
:10318000688379838A839B83C65AD040C155DF4FB9
:1031900008811981CF5AD04000781127C155DF4FDF
:1031A000E881CF5AD040E7FF15C1C155DF4F2881D4
:1031B0003981CF5AD0402F77C155DF4F39832883CB
:1031C000CF5AD0400E940E68882311F081E2F5C4E6
:1031D00080910A158130B1F423E333E34BEC51E4E1
:1031E00060912B1570912C1580912D1590912E15B5
:1031F0000E94227160932B1570932C1580932D15CE
:1032000090932E1540902B1550902C1560902D15F5
:1032100070902E15A5019401C501B4010E94227180
:10322000C554DF4F688379838A839B83CB5BD0400F
:10323000CA55DF4F288139814A815B81C65AD04007
:10324000CA01B9010E942271C154DF4F688379839A
:103250008A839B83CF5BD04020E030E040E850E49D
:10326000C301B2010E942271A30192010E94227146
:10327000C554DF4F288139814A815B81CB5BD040C7
:103280000E94EF6DC154DF4F288139814A815B81F3
:10329000CF5BD0400E94EF6D6B017C0120E030E0FD
:1032A000A9010E94C96E87FD37C4C701B6010E94FB
:1032B0008F716B017C01C154DF4F288139814A81B4
:1032C0005B81CF5BD040C554DF4F688179818A81B3
:1032D0009B81CB5BD0400E94F06D0E948F719B015F
:1032E000AC01C701B60190580E94D06E6B017C0101
:1032F00033E0331204C0F7FAF094F7F8F09420E0CA
:1033000030E0A901C301B2010E94C96E87FF0FC05E
:10331000F7FAF094F7F8F094D301C201B058809313
:103320002B1590932C15A0932D15B0932E15C555E4
:10333000DF4F08811981CB5AD040000F111F000FB9
:10334000111F055F1A4ECA55DF4F288139814A8106
:103350005B81C65AD040C701B6010E9422719B0111
:10336000AC01C501B4010E94EF6D20E030E040E007
:103370005FE30E942271D8011B966D937D938D931C
:103380009C931E97CB54DF4F08811981C55BD040B9
:10339000000F111F000F111F055F1A4EA5019401A8
:1033A000C701B6010E942271CA55DF4F28813981B9
:1033B0004A815B81C65AD0400E94F06D20E030E027
:1033C00040E05FE30E942271F8016387748785877C
:1033D00096871FC1C554DF4FF881CB5BD0404F2E7D
:1033E000512C612C712CC420D520E620F720CD284B
:1033F000CE28CF2809F492C3C155DF4F28813981E7
:10340000CF5AD040217FC155DF4F39832883CF5A0F
:10341000D04080910A15813009F491C0C555DF4F25
:10342000E881F981CB5AD040EE0FFF1FEE0FFF1F4E
:10343000E55FFA4EC384D484E584F684A70196013F
:10344000C501B4010E94EF6D2B013C01CB54DF4F4D
:10345000E881F981C55BD040EE0FFF1FEE0FFF1F23
:10346000E55FFA4E83859485A585B685C555DF4F02
:1034700088839983AA83BB83CB5AD0409C01AD013A
:10348000CA55DF4F688179818A819B81C65AD040B5
:103490000E94EF6D4B015C01A3019201C301B201D7
:1034A0000E9422712B013C01A5019401C501B401C8
:1034B0000E9422719B01AC01C301B2010E94F06D18
:1034C0000E948F714B015C01A7019601C701B601F3
:1034D0000E9422716B017C01C555DF4F2881398123
:1034E0004A815B81CB5AD040CA01B9010E94227146
:1034F0009B01AC01C701B6010E94F06D0E948F7163
:103500006B017C0160932B1570932C1580932D1506
:1035100090932E159B01AC01C501B4010E94EF6D83
:103520004B015C01E894B7F82AE037ED43EA5BE32E
:10353000C501B4010E94E770181664F16AC087E003
:10354000E82E85E1F82ED301C201002E04C0B69505
:10355000A795979587950A94D2F780FF12C023E329
:1035600033E34BEC51E4D7011F966D917D918D9122
:103570009C9152970E942271F7016787708B818B13
:10358000928B0F5F1F4FF4E0EF0EF11C033011051B
:10359000D1F644CF20E030E040E05FE3C501B40164
:1035A0000E94E77018160CF411CE2FE632E143E8C2
:1035B0005AE3C701B6010E9422719B01AC01C5010B
:1035C000B4010E94E77018160CF400CE22C0CA5550
:1035D000DF4F2881C65AD040222309F4D9CA0E945D
:1035E0000E688111F3CD15C0C655DF4F3881CA5A18
:1035F000D04031110EC0C155DF4F88819981CF5A1B
:10360000D0408E7D9C7FC655DF4F1882CA5AD0406D
:1036100008C0C155DF4F88819981CF5AD0408E7D37
:10362000907E892B09F07CC28091231590912415FE
:10363000A0912515B091261580935315909354159C
:10364000A0935515B0935615809109158093411597
:103650008091121590911315A0911415B091151524
:1036600080934E1590934F15A0935015B09351151C
:10367000C0902F15D0903015E0903115F090321594
:10368000A701960160914A1570914B1580914C15D8
:1036900090914D150E94C96E8823F9F0109149153B
:1036A000112359F08091EA14823039F00E94F167B9
:1036B000B701A601812F0E94B83280912F159091F9
:1036C0003015A0913115B091321580934A15909321
:1036D0004B15A0934C15B0934D15809133158093E5
:1036E000521510911115809149158117B9F08091EB
:1036F000EA14823079F0C0904A15D0904B15E090D2
:103700004C15F0904D150E94F167B701A601812F6D
:103710000E94B832809111158093491510911015AF
:1037200080914815811781F08091EA14823041F030
:103730000E94F167123011F45C9A02C00E94655C2D
:10374000809110158093481580910715813089F07C
:1037500080910C158093441580910A158093421531
:10376000C655DF4F8881CA5AD040833009F074C0F3
:1037700054C08091EA14823059F3809027159090BC
:103780002815A0902915B0902A1520E030E040EAD5
:1037900051E4C501B4010E9422710E94A66F0E94EB
:1037A0003D6F6B017C010E94F16720E030E04AE749
:1037B00054E4C501B4010E9422714B015C0182E313
:1037C0008C9DB0018D9D700D112480E090E00E94D1
:1037D000696F9B01AC01C501B4010E94EF6D0E94AD
:1037E000A66F0E943D6FCB010E942C3F8601011500
:1037F000110509F4ADCF0E94373F015011098091A6
:10380000E9148111A5CF9FEFA0E7B2E09150A0404D
:10381000B040E1F700C00000EACF80910D15809321
:103820004515813089F480913C1590913D15A0910A
:103830003E15B0913F1580937B1590937C15A09316
:103840007D15B0937E1508C010927B1510927C15E3
:1038500010927D1510927E1580910E15909146154F
:10386000981759F0809346158CE0FE013196A3E637
:10387000B5E101900D928A95E1F780910B15809347
:103880004315E09107158E2F90E0FC013297E83048
:10389000F10508F060C08827E957FF4F8F4F0C945F
:1038A0003572BE016B5E7F4F822D0E941D34809168
:1038B0004615281250C08CE0FE017596A3E6B5E1CE
:1038C0003EC0C655DF4FE881CA5AD040EE2371F0A2
:1038D00020914E1530914F15409150155091511532
:1038E00000E064E375E181E00E94605520914E158F
:1038F00030914F15409150155091511500E0BE0187
:103900006B5E7F4F81E00E946055182F8CE0FE01B6
:103910007596A7E5B5E101900D928A95E1F71CC077
:1039200067E575E186E003C067E575E187E00E9421
:103930001D3411C08CE0E4E3F5E1AFE6B5E10190A0
:103940000D928A95E1F707C08CE0EFE6F5E1DF0123
:103950001D928A95E9F710E0809108158093401533
:10396000883009F470C0C655DF4FB881CA5AD040BC
:10397000B23009F068C090E08830910508F05AC074
:10398000FC0140904E1550904F156090501570906E
:1039900051158827E157FF4F8F4F0C94357200E087
:1039A000A301920164E375E180E007C00091411535
:1039B000A301920164E375E181E00E946055182F34
:1039C00039C060912B1570912C1580912D15909117
:1039D0002E158824839409C060912B1570912C15A5
:1039E00080912D1590912E15812CCF54DF4FA880FA
:1039F000C15BD040C754DF4FC880C95BD040CE55B3
:103A0000DF4FE880C25AD04000914115A3019201D6
:103A10000E94E2680FC000E001C001E020E004C0A5
:103A200000E001C001E021E040914115C301B20175
:103A30000E944C688CE0E4E3F5E1A7E5B5E1019074
:103A40000D928A95E1F780910F1580934715882391
:103A500009F468C00E94F167909147158091EA14BB
:103A6000913069F48230E9F19FB7F894809198140D
:103A70008860809398149FBF0E94373F32C091E0C6
:103A800090934015109244151092431510924115D1
:103A90001092461510924915109248158230A9F0DF
:103AA000BE016F5F7F4F80E00E9426348823E1F1E2
:103AB0008CE0FE013196A3E6B5E101900D928A9566
:103AC000E1F70E94B1320E94655C80ED99E00E94AE
:103AD000E73984E799E00E94E7398DE599E00E9493
:103AE000E739109247151EC081E067C082E065C0CB
:103AF00088E163C089E161C084E05FC08BE15DC0A3
:103B000085E25BC084E159C08EE157C08FE155C0AA
:103B100086E153C080E251C082E24FC083E24DC0D3
:103B200084E24BC0812F49C087E047C0AEE16A16EE
:103B3000710411F40C94840C38F5EAE06E167104EB
:103B400011F40C94600CFCE16F16710411F40C94E8
:103B50006D0C87E132C09CE56916710411F00C947C
:103B6000DF0DA1E0C655DF4FA883CA5AD0404114EB
:103B7000510439F0BAE04B16510421F689E00C9457
:103B8000880C88E00C94880C25E36216710411F40B
:103B90000C94A40C3CE56316710449F3DACF13309E
:103BA00009F00FCAE9C9153009F4F2C9173009F450
:103BB00003CA133009F005CADAC9C653DF4F0FB67E
:103BC000F894DEBF0FBECDBFDF91CF911F910F9153
:103BD000FF90EF90DF90CF90BF90AF909F908F902D
:103BE0007F906F905F904F903F902F9008952F920D
:103BF0003F924F925F926F927F928F929F92AF927D
:103C0000BF92CF92DF92EF92FF920F931F93CF93C9
:103C1000DF93CDB7DEB7C459D1090FB6F894DEBF34
:103C20000FBECDBFFB01873A28E0920709F445C2D9
:103C3000F0F58A34A8E09A0709F42AC1C8F48C3C4C
:103C4000910509F495C040F48131910509F479C0DA
:103C5000429709F4F0C071C0883428E0920709F453
:103C6000C5C008F00DC1833E974009F4E4C065C0AB
:103C70008B39B8E09B0709F4C7C160F4893938E093
:103C8000930709F42BC108F085C18B34984009F4DF
:103C900012C153C0823A28E0920709F4D2C108F455
:103CA0004CC0863A984010F40C94CC2746C0803C17
:103CB000B8E09B0709F46BC508F5873B38E093072C
:103CC00009F421C570F48D3AB8E09B0709F408C3E4
:103CD0008E3A28E0920709F411C48C3A984069F5AD
:103CE000F2C1893BA8E09A0709F42FC508F41DC565
:103CF0008A3B984011F40C94CC271FC08A3629E0E7
:103D0000920709F410C770F48036A9E09A0709F405
:103D1000CDC58136B9E09B0709F4AEC6813C984019
:103D200061F460C58C3639E0930709F477C708F46D
:103D300046C7843C994009F4B8C781E090E00C94F0
:103D4000CE278091D71482FF08C08A9A80910801FB
:103D50008160809308015F9A07C08A98809108016A
:103D60008E7F809308015F980E94C92B8FE00CC161
:103D70008E010F5F1F4F1F930F9384EA93E09F9371
:103D80008F93FF936F930E9496720F900F900F90F6
:103D90000F900F900F90181619060CF05EC71D8A31
:103DA0001E8A1F8A188EAE014B5E5F4F60E070E086
:103DB000C8010E9476548823D1F14D895E896F89AC
:103DC000788D88E70E941B334D895E896F89788DD5
:103DD00089E70E941B334D895E896F89788D8AE758
:103DE0000E941B330E943A380C94CC278E010F5F3F
:103DF0001F4F1F930F938FEA93E09F938F93FF932F
:103E00006F930E9496720F900F900F900F900F90EB
:103E10000F90181619060CF020C7AE014B5E5F4FCD
:103E200060E070E0C8010E947654811108C082E30E
:103E300090E00C94CE270E94182B0C94CC2720E005
:103E400030E04AE754E46D897E898F89988D0E941D
:103E500022710E94386F1616170694F47093090D9C
:103E60006093080D11E010930A0D8091070D8111E8
:103E70000C94CC270E94562A1093070D0C94CC2743
:103E800010920A0D1092090D1092080D0C94CC2777
:103E90008081863561F681818053823040F61092B0
:103EA000790D813021F01092780D0C94CC278093FD
:103EB000780D0C94CC278081863509F0B8CF8181AC
:103EC0008053823008F0B3CF813021F010927D0D05
:103ED0000C94CC2780937D0D0C94CC2780818E345C
:103EE00009F0A5CF91819053943008F0A0CF923083
:103EF00079F1933009F443C02091D7148091750D66
:103F0000913099F022FF08C08A9A9091080191603F
:103F1000909308015F9A07C08A98909108019E7F4C
:103F2000909308015F9884602FC022FF08C08A9A8E
:103F3000909108019160909308015F9A07C08A9858
:103F4000909108019E7F909308015F9881601CC04A
:103F50008091D71482FF08C08A9A809108018160FD
:103F6000809308015F9A07C08A98809108018E7F2C
:103F7000809308015F988091750D826005C00E9452
:103F8000C92B8091750D88608093750D0E944E2914
:103F90000C94CC2780818E3409F049CF91819053C5
:103FA000943008F044CF9230B1F0933039F1209141
:103FB000D7148091750D913039F022FF02C05F98BF
:103FC00001C05F9A8B7F17C022FF02C08A9801C090
:103FD0008A9A8E7F10C08091D71482FF04C080918E
:103FE00008018E7F03C080910801816080930801E1
:103FF0008091750D8D7F8093750DCEC70E940A2B21
:104000008091750D877FF7CF80818E3409F00FCFB7
:1040100081818053843008F00ACF9091750D8230F1
:1040200051F0833059F0813019F090FF65C361C3BE
:1040300091FD5FC361C392FD5CC35EC393FF5CC32C
:1040400058C31AA619A61D8A1E8A1F8A188E8E01A9
:104050000F5F1F4F8AE0D8011D928A95E9F7CE01C4
:1040600089969F938F931F930F9388EB93E09F9371
:104070008F93FF936F930E9496720FB6F894DEBFF2
:104080000FBECDBF02970CF4E8C5AE014B5E5F4F8B
:1040900060E070E0C8010E947654882309F4C7CE1E
:1040A0002D893E894F89588D69A57AA5072E000C68
:1040B000880B990B0E94712A6FC78FEF0E944634BC
:1040C0000E94DC2969C72E0125E6420E511C84E1BD
:1040D000D201282F1D922A95E9F73E0131E5630EA2
:1040E000711CD301282F1D922A95E9F78E01035CDC
:1040F0001F4FD8011D928A95E9F7C357DF4F1882E9
:1041000019821A821B82CD58D040C757DF4F1882C0
:1041100019821A821B82C958D040CB57DF4F1882B0
:1041200019821A821B82C558D0401F930F937F9229
:104130006F925F924F9284EC93E09F938F93FF93E3
:104140006F930E9496720FB6F894DEBF0FBECDBF7C
:1041500003970CF482C5AE0143575F4F60E070E0F7
:10416000C2010E947654882309F461CEAE014757FC
:104170005F4F60E070E0C3010E947654882309F429
:1041800056CEAE014B575F4F60E070E0C8010E9411
:104190007654882309F44BCECF57DF4F188219820B
:1041A0001A821B82C158D040C358DF4F188219822F
:1041B0001A821B82CD57D040ED961CAE1DAE1EAEAE
:1041C0001FAEED9784E13E01F9E26F0E711CD30141
:1041D000E82F1D92EA95E9F72E01F5E14F0E511CEB
:1041E000D201E82F1D92EA95E9F79E012F5F3F4F1C
:1041F0001901D9011D928A95E9F7AE014B575F4F1E
:10420000BE0167577F4FCE0183579F4F0E940B2EF1
:10421000CB57DF4FE880F9800A811B81C558D04019
:10422000C757DF4F288139814A815B81C958D04007
:10423000C357DF4F688179818A819B81CD58D040F7
:10424000FE01EF57FF4F4F01DE01A758BF4F5D0141
:1042500034976F010E94864120E030E044EB52E445
:10426000CF57DF4F688179818A819B81C158D040C7
:104270000E94F06DCF57DF4F688379838A839B83D9
:10428000C158D040C358DF4F688179818A819B81B2
:10429000CD57D040820124E045E00E94746BED963A
:1042A0006CAD7DAD8EAD9FADED97810124E045E015
:1042B0000E94746BCF57DF4F688179818A819B811F
:1042C000C158D040830124E045E00E94746B3F92C6
:1042D0002F925F924F927F926F9283E892E000C19B
:1042E0002E0135E6430E511C84E1D201282F1D9288
:1042F0002A95E9F73E0131E5630E711CD301282FA1
:104300001D922A95E9F78E01035C1F4FD8011D927B
:104310008A95E9F7C357DF4F188219821A821B82E8
:10432000CD58D040C757DF4F188219821A821B829E
:10433000C958D040CB57DF4F188219821A821B828E
:10434000C558D0401F930F937F926F925F924F9208
:1043500083EE93E09F938F93FF936F930E949672E7
:104360000FB6F894DEBF0FBECDBF03970CF475C433
:10437000AE0143575F4F60E070E0C2010E94765487
:10438000882309F454CDAE0147575F4F60E070E0D9
:10439000C3010E947654882309F449CDAE014B57DE
:1043A0005F4F60E070E0C8010E947654882309F4F2
:1043B0003ECDCF57DF4F188219821A821B82C15817
:1043C000D040C358DF4F188219821A821B82CD5702
:1043D000D040ED961CAE1DAE1EAE1FAEED9784E133
:1043E0003E01F9E26F0E711CD301E82F1D92EA9590
:1043F000E9F72E01F5E14F0E511CD201E82F1D9275
:10440000EA95E9F79E012F5F3F4F1901D9011D92EF
:104410008A95E9F720E030E044EB52E4C357DF4FE0
:10442000688179818A819B81CD58D0400E94EF6D4F
:104430007B018C01C357DF4F688379838A839B8319
:10444000CD58D040CB57DF4F288139814A815B81DD
:10445000C558D040C757DF4F688179818A819B81D9
:10446000C958D040FE01E758FF4F4F01DE01A35865
:10447000BF4F5D0138966F010E94EB42A401B50168
:10448000C6010E94B62ECF57DF4F688179818A819D
:104490009B81C158D040830124E045E00E94746BA9
:1044A000C358DF4F688179818A819B81CD57D04085
:1044B000820124E045E00E94746BED966CAD7DAD09
:1044C0008EAD9FADED97810124E045E00E94746BB5
:1044D0003F922F925F924F927F926F9289EB92E080
:1044E0009F938F938BE09DE09F938F930E946872C0
:1044F0000FB6F894DEBF0FBECDBF4EC5CF57DF4F0E
:10450000188219821A821B82C158D040C358DF4FCB
:10451000188219821A821B82CD57D040ED961CAEAC
:104520001DAE1EAE1FAEED9784E12E0139E2430EA3
:10453000511CD201282F1D922A95E9F73E0135E141
:10454000630E711CD301282F1D922A95E9F7DE0115
:1045500011967D011D928A95E9F78E010B571F4F29
:104560008FEF90E0D8018D939C931F930F93FF9250
:10457000EF927F926F925F924F9282E094E09F93CE
:104580008F93FF936F930E9496720FB6F894DEBFDD
:104590000FBECDBF04970CF460C3AE014F575F4F01
:1045A00060E070E0C2010E947654882309F43FCC99
:1045B000AE0143585F4F60E070E0C3010E94765443
:1045C000882309F434CCAE0147585F4F60E070E0B7
:1045D000C7010E947654882309F429CCD8018D9113
:1045E0009C91009709F443C0019709F020CCCF5764
:1045F000DF4F488059806A807B80C158D04020E0DE
:1046000030E044EB52E4C358DF4F688179818A81FE
:104610009B81CD57D0400E94EF6D21EE3EE245E6F2
:1046200052E40E94D06E6B017C010E94CD6E9B0112
:10463000AC01C301B2010E942271CF57DF4F6883E2
:1046400079838A839B83C158D040C701B6010E94F9
:1046500085719B01AC01C301B2010E942271C35854
:10466000DF4F688379838A839B83CD57D040AE0127
:1046700047585F4FBE0163587F4FCE018F579F4F02
:104680000E940B2EED96ECACFDAC0EAD1FADED9780
:10469000C358DF4F288139814A815B81CD57D04093
:1046A000CF57DF4F688179818A819B81C158D04083
:1046B000FE01FD964F01DE01AF5ABF4F5D01B89676
:1046C0006F010E9486412196ECACFDAC0EAD1FAD92
:1046D000219765962CAD3DAD4EAD5FAD6597A99622
:1046E0006CAD7DAD8EAD9FADA9970E9460448823CF
:1046F00019F063EB73E002C06FE973E08BE09DE0BB
:104700000E94617249C48081863509F090CB818115
:104710008053823008F08BCB813011F048D63CC4F6
:104720009C9A9D9AA49AA59837C48081863509F0F1
:104730007ECB81818053823008F079CB813011F0BB
:1047400033D62AC43F9A479827C48081863509F01A
:104750006ECB81818053823008F069CB813011F0BB
:1047600012D61AC480910101806280930101809168
:104770000101806480930101809102018062809335
:1047800002018091020180648093020105C4CE0180
:1047900001969F938F9344969F938F9384E294E026
:1047A0009F938F93FF936F930E9496720FB6F89426
:1047B000DEBF0FBECDBF02970CF44FC28D899E891C
:1047C0008634910508F033CB29813A8122303105B6
:1047D00008F02DCB232B11F061E001C060E00E94B6
:1047E0007053DAC3CE0101969F938F9344969F93A3
:1047F0008F9384E294E09F938F93FF936F930E9433
:1048000096720FB6F894DEBF0FBECDBF02970CF4C0
:1048100024C28D899E898634910508F008CB2981B0
:104820003A812230310508F002CBFC01E05CF54F03
:104830008650964F232BD1F02491FC01849188233C
:1048400009F4AAC390E0880F991FFC01E455F84FC2
:10485000A591B491FC01E052F64F859194918FB7E8
:10486000F894EC91E22BEC938FBF96C32491FC015A
:104870008491882309F490C390E0880F991FFC016C
:10488000E455F84F45915491FC01E052F64FA59143
:10489000B4919FB7F894FA01808120958223808398
:1048A0008C91E22FE823EC939FBF76C38081833500
:1048B00009F0BDCA8181E0EDE80FE83008F0B7CA21
:1048C0008E2F90E0FC013197E730F10530F4882716
:1048D000E956FF4F8F4F0C9435729CD61092440DC1
:1048E0001092430D8AE999E1A5E9B2E48093490D5C
:1048F00090934A0DA0934B0DB0934C0D8AE999E922
:10490000A2E6B2E4B0C086D681E090E09093440D78
:104910008093430D86EF98E2ACE4B2E48093490DB6
:1049200090934A0DA0934B0DB0934C0D8DEC9CECE5
:10493000A0E8B2E498C06ED682E090E09093440D77
:104940008093430D89E29CEDA4E9B2E48093490D84
:1049500090934A0DA0934B0DB0934C0D80E090E0E6
:10496000A2E6B2E480C056D683E090E09093440D76
:104970008093430D80E090E0ACE2B2E48093490D77
:1049800090934A0DA0934B0DB0934C0D80E090E0B6
:10499000ABE8B2E468C03ED684E090E09093440D6A
:1049A0008093430D80E090E0ACE1B2E48093490D48
:1049B00090934A0DA0934B0DB0934C0D80E090E086
:1049C000A9E9B2E417C026D685E090E09093440DA3
:1049D0008093430D80E090E0ACEDB1E48093490D0D
:1049E00090934A0DA0934B0DB0934C0D80E090E056
:1049F000A7E9B2E48093450D9093460DA093470D2F
:104A0000B093480DDAD5D9C005D686E090E09093F2
:104A1000440D8093430D86E696E6AAE9B2E48093BE
:104A2000490D90934A0DA0934B0DB0934C0D80E02F
:104A300090E0AAE5B2E417C0EDD587E090E090934E
:104A4000440D8093430D85E89BEEABECB1E480937D
:104A5000490D90934A0DA0934B0DB0934C0D80E0FF
:104A600090E0A2E3B2E48093450D9093460DA093AD
:104A7000470DB093480DA1C080E090E00E9424450E
:104A80009093400D80933F0D81E090E00E9424457B
:104A90009093420D8093410D82E090E00E94244566
:104AA00090933E0D80933D0D0DE31DE084E393E074
:104AB000D8016D918D017C01BFEFEB1AFB0A0E94BA
:104AC000BE5BC701EAE3EE16E3E0FE0689F76BEB97
:104AD00082E393E00E94BE5B0E94FA4480E090E093
:104AE0000E9476456093510D7093520D8093530D43
:104AF0009093540D81E090E00E9476456093550DAF
:104B00007093560D8093570D9093580D82E090E06E
:104B10000E9476456093590D70935A0D80935B0DFA
:104B200090935C0D39C26091F5147091F6148091E8
:104B3000F7149091F8140E946B6F2B013C01609167
:104B4000F1147091F2148091F3149091F4140E9476
:104B50006B6FCF56DF4F688379838A839B83C159FC
:104B6000D0406091ED147091EE148091EF1490910B
:104B7000F0140E946B6F9E012F5F3F4F4901DE01D1
:104B800055965D01FE01B9966F0183017201CF5602
:104B9000DF4F288139814A815B81C159D0400E9411
:104BA000CF4389819A81AB81BC818093490D9093D9
:104BB0004A0DA0934B0DB0934C0D39D4EDC11D8A15
:104BC0001E8A1F8A188E8E010F5F1F4F84E1D80145
:104BD0001D928A95E9F71F930F938BE294E09F93C0
:104BE0008F93FF936F930E9496720F900F900F9088
:104BF0000F900F900F90181619067CF5AE014B5EC2
:104C00005F4F60E070E0C8010E947654882309F489
:104C10000EC98D899E89AF89B88D25CF1D8A1E8AC0
:104C20001F8A188E8E010F5F1F4F84E1D8011D92DD
:104C30008A95E9F71F930F9386E394E09F938F93F0
:104C4000FF936F930E9496720F900F900F900F90AA
:104C50000F900F901816190674F01F9281E08F9331
:104C60008DE092E09F938F930E948C390F900F906C
:104C70000F900F90DCC8AE014B5E5F4F60E070E0BC
:104C8000C8010E947654882309F4D1C88D899E8971
:104C9000AF89B88D80934D0D90934E0DA0934F0D1D
:104CA000B093500DC4D389D477C1899868E7662E34
:104CB0006EE0762E830182E090E00E942445F801A8
:104CC000819391938F0150E9E52EFF24F394889A04
:104CD0006AE070E080E090E00E94EE3E88986CE22E
:104CE00071E080E090E00E94EE3EF1E0EF1AF10802
:104CF00071F788EE93E00E942C3F2FE000341207FA
:104D0000D1F682E090E00E9424459093410F809379
:104D1000400F899A00E21EE4889A6AE070E080E021
:104D200090E00E94EE3E88986CE271E080E090E0B6
:104D30000E94EE3E0150110979F78F984EE0E42E63
:104D4000F12C00E911E08E9A6AE070E080E090E0DA
:104D50000E94EE3E8E986CE271E080E090E00E944E
:104D6000EE3E0150110979F731E0E31AF10849F7F5
:104D700088EE93E00E942C3F8F9A38EF232E3DE07F
:104D8000332E210100E010E080E090E00E942445F5
:104D9000D2018D939D932D0120E9E22EFF24F394FF
:104DA0008E9A6AE070E080E090E00E94EE3E8E987D
:104DB00064EF71E080E090E00E94EE3EB1E0EB1A1B
:104DC000F10871F70E301105A9F088EE93E00E940A
:104DD0002C3F0F5F1F4F0F331105B1F680E090E0BD
:104DE0000E9424459093770E8093760E8F9800E56D
:104DF0001DE223C080910B018D7F80930B01E12C7C
:104E000092E3F92E80910B01886080930B016AE098
:104E100070E080E090E00E94EE3E80910B01877F81
:104E200080930B016CE271E080E090E00E94EE3E26
:104E3000E1E0EE1AF10831F7C8CF8E9A6AE070E02F
:104E400080E090E00E94EE3E8E986CE271E080E09F
:104E500090E00E94EE3E0150110979F788EE93E050
:104E60000E942C3F80910B01826080930B0100E92E
:104E700013E380910B01886080930B016AE070E07E
:104E800080E090E00E94EE3E80910B01877F80934E
:104E90000B016CE271E080E090E00E94EE3E015078
:104EA000110939F788EE93E00E942C3F80910B01A5
:104EB0008D7F80930B010EE71DE0280181E090E0DB
:104EC0000E942445D2018D939D932D0180E9E82E07
:104ED000FF24F39480910B01886080930B016AE0BA
:104EE00070E080E090E00E94EE3E80910B01877FB1
:104EF00080930B016CE271E080E090E00E94EE3E56
:104F0000B1E0EB1AF10831F788EE93E00E942C3FF4
:104F1000E6EF4E16EDE05E0689F681E090E00E9435
:104F200024459093F70D8093F60D81E090E0D30136
:104F30006D913D012C01BFEF4B1A5B0A0E94BE5BD5
:104F4000C2018B3C910599F7F10161911F0132017A
:104F5000FFEF6F1A7F0AC2010E94BE5B23012BE4A0
:104F6000621621E0720681F7D8016D918D017301FF
:104F7000BFEFEB1AFB0AC3010E94BE5B3701E5ECF1
:104F8000EE16E1E0FE0681F781E494E09F938F93B3
:104F90000E948C390F900F9080E090E0CC56DF4F4C
:104FA0000FB6F894DEBF0FBECDBFDF91CF911F913A
:104FB0000F91FF90EF90DF90CF90BF90AF909F90B8
:104FC0008F907F906F905F904F903F902F900895BB
:104FD00020914A0F30914B0F21153105B9F0809186
:104FE0005A0F90915B0F8217930734F401969093B8
:104FF0005B0F80935A0F0AC010925B0F10925A0FEA
:1050000010924B0F10924A0F1092760D2091080DBE
:105010003091090D21153105A1F08091580F909123
:10502000590F8217930734F401969093590F809388
:10503000580F07C01092590F1092580F81E08093BB
:10504000770D8091760D81111BC080910A0D811121
:1050500017C0809173008E7F809373001092070DAC
:1050600010924B0F10924A0F1092090D1092080DDA
:1050700010925B0F10925A0F1092590F1092580F06
:1050800008958091570F811107C081E08093570FD9
:1050900080910B01806205C01092570F80910B0127
:1050A0008F7D80930B018091550F9091560F9C013D
:1050B0002F5F3F4F3093560F2093550F20910402DE
:1050C000309105022817390748F41092560F1092B4
:1050D000550F809170008E7F80937000089520910D
:1050E000430D3091440D2430310559F426E636E65F
:1050F00046E65FE30E94D06E20E030E040E852E4F4
:105100000DC02530310539F52CEE31E548E35EE37D
:105110000E94D06E20E030E040E851E40E9422710D
:105120000E94386F6093420F7093430F8093440F37
:105130009093450F89EB98E2909392148093911489
:105140001092A00085E08093A1008DEF9FEF9093D7
:105150009414809393148091931490919414909349
:10516000A5008093A40080917200816080937200FA
:1051700008958091420F9091430FA091440FB091F8
:10518000450F181619061A061B06F4F42091540F41
:10519000222389F01092540F0197A109B10980933D
:1051A000420F9093430FA093440FB093450F80910B
:1051B0000201806406C081E08093540F8091020157
:1051C0008F7B8093020108950E9427541092420F12
:1051D0001092430F1092440F1092450F81E080937C
:1051E0007B0D0895CF93DF93EB018431D1F028F448
:1051F000882361F08C30A8F437C08233E9F018F4CA
:10520000873190F10EC0833311F10BC08881882360
:1052100029F06BE574E0CE010E9456726DE574E0F2
:1052200020C08881882329F06BE574E0CE010E94BC
:10523000567260E674E015C08881882329F06BE51A
:1052400074E0CE010E94567264E674E00AC0888160
:10525000882329F06BE574E0CE010E94567268E65F
:1052600074E0CE010E94567280910B0D882379F074
:105270006BE07DE0CE010E94567282E3EBE0FDE040
:10528000DF011D928A95E9F7DF91CF91089566E5D8
:1052900073E0CE01DF91CF910C9456728F929F9262
:1052A000AF92BF92CF92DF92EF92FF920F931F9334
:1052B000CF93DF9309EE14E18EE1F80111928A9504
:1052C000E9F70E94403A0E94B85B80E090E00E94BB
:1052D0007645C3E4DDE06E877F87888B998B81E01C
:1052E00090E00E9476456A8B7B8B8C8B9D8B82E055
:1052F00090E00E9476456E8B7F8B888F998FF801A6
:10530000C480D580E680F780CA8EDB8EEC8EFD8E61
:10531000C084D184E284F384CE8EDF8EE8A2F9A229
:1053200004851585268537850AA31BA32CA33DA3D9
:1053300020E030E044EB52E40E94EF6D7B018C01F1
:105340002A893B894C895D896E857F858889998901
:10535000E1E78E2EEDE09E2EFDE6AF2EFDE0BF2EA6
:10536000A9E6CA2EADE0DA2E0E94EB42DF91CF9182
:105370001F910F91FF90EF90DF90CF90BF90AF9073
:105380009F908F900895E1E0F1E0808180628083BA
:10539000808180648083E2E0F1E080818F7D808382
:1053A00080818F7B808308953F9A479A08959C9AC5
:1053B0009D9AA498A59A0895809104018778809376
:1053C0000401809103018877803451F440E050E07B
:1053D00060E87FE384E00E941B336CE674E01BC04E
:1053E00080910301887740E050E060E87FE371F44A
:1053F00084E00E941B3363E774E08CE49FE00E942A
:10540000617240E050E060EE70E40CC084E00E9405
:105410001B336AE774E08CE49FE00E94617240E015
:1054200050E0BA0183E00E941B330C943A380F938A
:105430001F93CF93DF936091430D84E893E00E9424
:10544000BE5B6091440D85E893E00E94BE5BC5E4BD
:10545000DDE088E993E069918C010F5F1F4F0E94A6
:10546000BE5BC8010C391340B1F7C9E4DDE08EE83A
:1054700093E069918C010F5F1F4F0E94BE5BC801D2
:1054800002391340B1F7CDE4DDE082E89CE0699198
:105490008C010F5F1F4F0E94BE5BC80106381C4085
:1054A000B1F7DF91CF911F910F910895EAE3F4E1F5
:1054B00088EE97E2918380831092200185E08093AB
:1054C000210181EF9FEF9383828382819381909367
:1054D000250180932401E3E7F0E0808181608083EF
:1054E0000895CF92DF92EF92FF920F931F93CF9385
:1054F000DF9369017A01EAE0F1E0208120622083F4
:10550000EBE0F1E020812F7D2083660F771F709301
:1055100005026093040203E314E181E498E2F801D8
:1055200091838083C0E7D0E088818E7F8883E0EB21
:10553000F0E080818C7F8083E1EBF0E08081877FE9
:105540008083A6EBB0E08C918F7D8C9388818D7FDA
:10555000888380818460808380818C7F808320E049
:1055600034E244EF59E4C701B6010E94D06E20E056
:1055700034E244E75BE40E94227120E030E040E83E
:105580005CE30E9422710E94386F20E031E0C90183
:10559000861B970BF801938382838281938180938A
:1055A000B200888181608883DF91CF911F910F9134
:1055B000FF90EF90DF90CF900895CF93C1E0C0931C
:1055C0007B0D8091430D9091440D0497029700F557
:1055D00010927B0D1092460F1092470F1092480FB9
:1055E0001092490F809107018F7D80930701809170
:1055F000080180628093080180910201806280939B
:10560000020160E070E084EB93E469DDC0937A0D01
:10561000CF9108951092420F1092430F1092440FB1
:105620001092450F0E94275410927A0D0C94275423
:105630008091D71482FF08C08A98809108018E7FDC
:10564000809308015F9807C08A9A80910801816061
:10565000809308015F9ADEDF1092750D08958F9296
:105660009F92AF92BF92CF92DF92EF92FF926B0127
:105670007C0120E030E044EB53E40E94E770181610
:105680000CF47EC020E030E0A901C701B6010E9401
:10569000C96E87FD75C08091430D9091440D0497AC
:1056A000029768F52091460F3091470F4091480FBF
:1056B0005091490FC701B6010E94EF6D4B015C018B
:1056C000C092460FD092470FE092480FF092490FD8
:1056D00020E030E0A9010E94E770181624F48091C0
:1056E00002018F7D03C080910201806280930201DC
:1056F000C501B4019F77F3DC10927B0D41C020E01F
:1057000030E044E353E4C701B6010E94E770181685
:105710001CF4C12CD12C7601A701960160E070E049
:1057200084E393E40E94EF6D20E030E044E353E42F
:105730000E94D06E9B01AC010E94F06D20E030E031
:1057400040E05FE30E94F06D6093000270930102FD
:10575000809302029093030220E030E040EA51E49B
:105760000E94D06E20E030EC4FE754E40E9422719A
:105770000E943D6FCB010E94D75281E080937B0D48
:10578000FF90EF90DF90CF90BF90AF909F908F9061
:1057900008958091430D9091440D0497029780F4F1
:1057A00080910101806280930101809101018064F8
:1057B000809301018091020180628093020108952B
:1057C00080E18093A1001092A00082E08093971462
:1057D00080E29EE490939614809395149093A70092
:1057E0008093A60082E18093A10020E030E040EAAF
:1057F00051E4609100027091010280910202909147
:1058000003020E94D06E20E030EC4FE754E40E9487
:1058100022710E943D6FCB010C94D752CF93DF933E
:10582000D82FC8E05E98559AD7FF02C05D9A01C094
:105830005D9865E070E080E090E00E94EE3E5E9A48
:1058400065E070E080E090E00E94EE3E5E98DD0F43
:1058500065E070E080E090E00E94EE3EC15011F7FC
:1058600062E070E080E090E00E94EE3E559A5D9A22
:1058700062E070E080E090E0DF91CF910C94EE3E2A
:105880005E98559A5D9865E070E080E090E00E9437
:10589000EE3E5E9A65E070E080E090E00E94EE3EB1
:1058A000559A5D9A65E070E080E090E00C94EE3EE1
:1058B000CF93559A5D9A62E070E080E090E00E949C
:1058C000EE3E5E9A62E070E080E090E00E94EE3E84
:1058D00055988BEF99B1C92FC07295FF05C08150C3
:1058E000C9F7CEDFC1E007C05E9862E070E080E0FB
:1058F00090E00E94EE3E8C2FCF910895559A5D9ACC
:105900005E9A65E070E080E090E00E94EE3E559A7D
:105910005D9865E070E080E090E00E94EE3E5E9869
:1059200062E070E080E090E00C94EE3ECF93DF9375
:10593000D82FC8E0809102018F7780930201809177
:10594000010184608093010180910201D7FF02C0B0
:10595000846001C08B7F8093020165E070E080E08D
:1059600090E00E94EE3E80910201806880930201E7
:1059700065E070E080E090E00E94EE3E80910201E0
:105980008F7780930201DD0F65E070E080E090E0AA
:105990000E94EE3EC15071F662E070E080E090E05F
:1059A0000E94EE3E8091010184608093010180910C
:1059B000020184608093020162E070E080E090E088
:1059C000DF91CF910C94EE3E0F931F93CF93DF9313
:1059D000C2E0D1E088818F77888301E011E0F8018F
:1059E00080818460808388818B7F888365E070E01C
:1059F00080E090E00E94EE3E88818068888365E0C8
:105A000070E080E090E00E94EE3EF80180818460CA
:105A1000808388818460888365E070E080E090E026
:105A2000DF91CF911F910F910C94EE3ECF93809117
:105A30000101846080930101809102018460809360
:105A4000020162E070E080E090E00E94EE3E809112
:105A5000020180688093020162E070E080E090E0E3
:105A60000E94EE3E809101018B7F809301018BEFBC
:105A700090910001C92FC47092FF05C08150C1F7F9
:105A8000A3DFC1E00BC0809102018F7780930201F8
:105A900062E070E080E090E00E94EE3E8C2FCF91BB
:105AA00008950F931F93CF93DF9301E011E0F80166
:105AB000808184608083C2E0D1E0888184608883B3
:105AC00088818068888365E070E080E090E00E94D3
:105AD000EE3EF80180818460808388818B7F88839B
