:1000000065C5000084C5000082C5000080C50000F1
:100010007EC500007CC500007AC5000078C50000E0
:1000200076C500000C94735872C500000C94B1465C
:100030006EC500006CC500006AC500000C943E53FC
:1000400066C500000C941C3062C5000060C500004D
:100050005EC500005CC500005AC500000C94A72FC7
:1000600056C500000C9480360C94703750C50000C3
:100070004EC500004CC500004AC5000048C5000040
:1000800046C5000044C5000042C500000C9428533A
:100090000C9418360C9442373AC5000038C500005D
:1000A00036C5000034C5000032C5000030C5000070
:1000B0002EC500000C94ED522AC5000028C5000092
:1000C00026C5000024C500000C94B8520C94B0352D
:1000D0000C9414371CC500000C9448350C94E6367B
:1000E00016C500002A13821D821D38134D1362139A
:1000F0007713821D8013821D9313821DA213AC13EC
:100100000414821D821D821DBB13D513EF13511CD5
:10011000611C901C611C941CAB1C9A1CA41CCF1C61
:10012000D61CE11CEC1C0B1D0D1D101D121D832483
:100130009B24B324CB24E32404251C257E33843361
:1001400087338A338E3396339E330B340B340B3420
:10015000A633A933B233BB330B340B340B340B341B
:100160000B340B34C333CD33D933E333E633EF33BE
:10017000F833FE3330523352225226522C526A52F6
:1001800037523B524152455249524F5253525752A5
:100190006A525D5261526552084AD73B3BCE016EAE
:1001A00084BCBFFDC12F3D6C74319ABD56833DDACE
:1001B0003D00C77F11BED9E4BB4C3E916BAAAABEDD
:1001C000000000803F072C7AA5BA6CC590DA3B93FB
:1001D00065FC8BBC53F810FD3C5692834DBD879D4A
:1001E0003AB63DCBC9BF5BBE73DA0FC93F05A84C19
:1001F000CDB2D44EB93836A9020C50B991868808D0
:100200003CA6AAAA2ABE000000803F0000407A1047
:10021000F35A00A0724E18090010A5D4E80000E8B7
:100220007648170000E40B54020000CA9A3B000015
:1002300000E1F505000080969800000040420F00A4
:100240000000A08601000000102700000000E80365
:10025000000000006400000000000A000000000030
:100260000100000000002C76D888DC674F0823DFEF
:10027000C1DFAE59E1B1B796E5E3E453C63AE651C2
:10028000997696E8E6C28426EB898C9B62ED407CE9
:100290006FFCEFBC9C9F40F2BAA56FA5F490055A85
:1002A0002AF75C936B6CF9676DC11BFCE0E40D47AA
:1002B000FEF520E6B500D0ED902E030094357705CD
:1002C0000080841E080000204E0A000000C80C3385
:1002D0003333330F986E12831141EF8D2114893B14
:1002E000E65516CFFEE6DB18D1844B381BF77C1D94
:1002F000901DA4BBE424203284725E228100C9F1E7
:1003000024ECA1E53D276364696E6F7073757858BE
:100310005B00000020002300260029002C002F0095
:100320003200000100000301060109010D0A003D31
:1003300000244E005D0D0A005B302E396A2E3230EB
:100340003136303732363A005D0D0A005B544C4F7F
:100350003A005D0D0A002C005B4739323A005D0D12
:100360000A002C003A003330003238005B47005D51
:100370000D0A00205300204600205400204D380074
:10038000204D3900204D3500204D3400204D3300E4
:10039000204D3200204D3100204D300020473934AF
:1003A00000204739330020473931002047393000D9
:1003B00020473230002047323100204731390020B9
:1003C0004731380020473137002047004733382E67
:1003D000004738300047330047320047310047308C
:1003E000005B00290D0A00206D617820747261762F
:1003F000656C2C206D6D0020616363656C2C206D35
:100400006D2F7365635E3200206D617820726174B8
:10041000652C206D6D2F6D696E002C2073746570D6
:100420002F6D6D007A00790078002028003D0024AF
:10043000002028686F6D696E672070756C6C2D6F79
:1004400066662C206D6D290D0A002028686F6D6985
:100450006E67206465626F756E63652C206D7365D1
:1004600063290D0A2432373D002028686F6D696EBC
:1004700067207365656B2C206D6D2F6D696E290D7E
:100480000A2432363D002028686F6D696E67206649
:100490006565642C206D6D2F6D696E290D0A2432FF
:1004A000353D00290D0A2432343D002028686F6D47
:1004B000696E672064697220696E76657274206D5A
:1004C00061736B3A002028686F6D696E67206379ED
:1004D000636C652C20626F6F6C290D0A2432333DEA
:1004E00000202868617264206C696D6974732C2027
:1004F000626F6F6C290D0A2432323D002028736F21
:100500006674206C696D6974732C20626F6F6C293E
:100510000D0A2432313D0020287265706F727420FC
:10052000696E636865732C20626F6F6C290D0A24F5
:1005300032303D00202861726320746F6C657261F7
:100540006E63652C206D6D290D0A2431333D00202A
:10055000286A756E6374696F6E206465766961746C
:10056000696F6E2C206D6D290D0A2431323D0029F2
:100570000D0A2431313D0020287374617475732095
:100580007265706F7274206D61736B3A0020287011
:10059000726F62652070696E20696E766572742C68
:1005A00020626F6F6C290D0A2431303D0020286CC9
:1005B000696D69742070696E7320696E76657274F6
:1005C0002C20626F6F6C290D0A24363D00202873A1
:1005D00074657020656E61626C6520696E76657207
:1005E000742C20626F6F6C290D0A24353D00290D93
:1005F0000A24343D00202864697220706F727420D0
:10060000696E76657274206D61736B3A00290D0A0C
:1006100024333D0020287374657020706F7274203D
:10062000696E76657274206D61736B3A0020287371
:100630007465702069646C652064656C61792C2038
:100640006D736563290D0A24323D0020287374659B
:10065000702070756C73652C2075736563290D0AA5
:1006600024313D0024303D0024242028766965771C
:10067000204772626C2073657474696E6773290D0C
:100680000A2423202876696577202320706172610F
:100690006D6574657273290D0A2447202876696593
:1006A0007720706172736572207374617465290DAF
:1006B0000A2449202876696577206275696C642070
:1006C000696E666F290D0A244E20287669657720A9
:1006D0007374617274757020626C6F636B73290D33
:1006E0000A24783D76616C756520287361766520F3
:1006F0004772626C2073657474696E67290D0A24F1
:100700004E783D6C696E6520287361766520737440
:10071000617274757020626C6F636B290D0A2443DB
:100720002028636865636B2067636F6465206D6F65
:100730006465290D0A245820286B696C6C20616C53
:1007400061726D206C6F636B290D0A24482028723A
:10075000756E20686F6D696E67206379636C6529BB
:100760000D0A7E20286379636C652073746172744E
:10077000290D0A2120286665656420686F6C64294C
:100780000D0A3F202863757272656E742073746160
:10079000747573290D0A6374726C2D782028726544
:1007A000736574204772626C290D0A0000002100F5
:1007B000240027002A002D00300033000101000032
:1007C000040107010A010D0A00496E76616C696433
:1007D0002067636F64652049443A00556E6465661E
:1007E000696E656420666565642072617465004D9C
:1007F0006F64616C2067726F75702076696F6C61D1
:1008000074696F6E00486F6D696E67206E6F74203B
:10081000656E61626C656400416C61726D206C6F25
:10082000636B004E6F742069646C650045455052DF
:100830004F4D2072656164206661696C2E2055738E
:10084000696E672064656661756C74730056616CCF
:100850007565203C2033207573656300536574749F
:10086000696E672064697361626C65640056616CCF
:100870007565203C203000496E76616C6964207398
:10088000746174656D656E7400426164206E756D8F
:1008900062657220666F726D617400457870656381
:1008A00074656420636F6D6D616E64206C65747433
:1008B0006572006572726F723A20006F6B0D0A00EC
:1008C0000D0A00486F6D696E67206661696C0050A3
:1008D000726F6265206661696C0041626F7274209C
:1008E000647572696E67206379636C6500536F6627
:1008F00074206C696D69740048617264206C696D64
:10090000697400414C41524D3A20003E0D0A002CC2
:100910004C696D3A002C52583A002C4275663A00E8
:100920002C002C57506F733A002C002C4D506F73D5
:100930003A003C446F6F72003C436865636B003C57
:10094000416C61726D003C486F6D65003C486F6C96
:1009500064003C52756E003C49646C65005D0D0A94
:1009600000526573746F72696E67206465666175A5
:100970006C74730050676D20456E64004368656356
:100980006B20446F6F720044697361626C65640030
:10099000456E61626C65640043617574696F6E3A9F
:1009A00020556E6C6F636B656400272448277C2795
:1009B00024582720746F20756E6C6F636B0052652E
:1009C00073657420746F20636F6E74696E75650053
:1009D0005B005D0D0A003A002C005B5052423A0069
:1009E00000002200250028002B002E0031003400DA
:1009F00002010000050108010B01050505050705B9
:100A000008080808020202020A0A0808040404048A
:100A100001010101010101010303030303030303B6
:100A2000040707070C0C0C0C0C0C0C0C0202020245
:100A300006060606060606060B0B0B0B0B0B0B0B2E
:100A400001021020200808102040102040800201E0
:100A500002010804020101020408102040808040C5
:100A600020100804020180040201804020100804C4
:100A70000201080402010102040810204080010262
:100A800004081020408000000A0B02090C0D0E081B
:100A90000703040100000000000000000000000047
:100AA0000000000000000000000000000000000046
:100AB0000000121110000000000000000000000003
:100AC00000000000000000000000000011241FBE14
:100AD000CFEFD1E2DEBFCDBF00E00CBF14E0A0E05D
:100AE000B2E0EEE7FFEE00E00BBF02C007900D9210
:100AF000AC38B107D9F725E1ACE8B4E001C01D92EC
:100B0000AB37B207E1F70E94625B0C94BD7778CAFD
:100B10002F923F924F925F926F927F928F929F920D
:100B2000AF92BF92CF92DF92EF92FF920F931F93FB
:100B3000CF93DF93CDB7DEB7CA5CD1090FB6F89477
:100B4000DEBF0FBECDBFC754DF4F99838883C95B1B
:100B5000D04089E3E3E0F5E1DF011D928A95E9F7F2
:100B60008AE0ECE3F5E1A4E0B5E101900D928A950D
:100B7000E1F7FE01E756FF4F1082C155DF4F1982A2
:100B80001882CF5AD040C555DF4F19821882CB5AF0
:100B9000D040C554DF4F1882CB5BD040CA55DF4FE1
:100BA0001882C65AD040C655DF4F1882CA5AD04064
:100BB000E859F109C256DF4FF983E883CE59D04096
:100BC0009E01235A3F4FC056DF4F39832883C05AB6
:100BD000D0401E0131E5230E311CC1010896C154DD
:100BE000DF4F99838883CF5BD040C756DF4F888122
:100BF000C959D040C754DF4FE881F981C95BD04063
:100C0000E80FF11D1081112311F40C9461149FEB76
:100C1000910F9A3110F00C94741D8F5FC756DF4FFF
:100C20008883C959D040AE014B565F4FBE0167560D
:100C30007F4FC754DF4F88819981C95BD0400E94A4
:100C40007153882311F40C94761DCB56DF4FC88066
:100C5000D980EA80FB80C559D040C701B6010E9407
:100C6000CB700E94386ECF54DF4F688379838A83BC
:100C70009B83C15BD040CF54DF4F68807980C15BDC
:100C8000D040B30180E090E00E94646E9B01AC0113
:100C9000C701B6010E94EA6C20E030E048EC52E463
:100CA0000E941D704B015C0120E030E0A9010E9410
:100CB000E26F20E030E040E05FE387FD05C0C50162
:100CC000B4010E94EB6C04C0C501B4010E94EA6C3F
:100CD0000E94336E2B011D3409F4ADC7103511F499
:100CE0000C94E10E173411F00C941713C756DF4F14
:100CF0008881C959D040C754DF4FA881B981C95BE9
:100D0000D040A80FB11DCD01BAE96B16B8E07B0643
:100D100009F403C158F4F4ED6F16F7E07F0699F07B
:100D200029E9621628E07206D1F10CC53CE9631688
:100D300038E0730609F430C2ADE96A16A8E07A0615
:100D400009F419C3FFC41A821982E1E0F0E0EC0F44
:100D5000FD1FFF93EF932BE134E03F932F939F937D
:100D60008F930E9491710F900F900F900F900F90A2
:100D70000F90181619060CF02AC389819A81909356
:100D8000470F8093460F11E01093720D8091030D71
:100D90008111DBC40E94502A1093030DD6C48E012A
:100DA0000B5E1F4F1F930F939E01275D3F4F3F9395
:100DB0002F937E01FDE3EF0EF11CFF92EF923F9225
:100DC0002F9229E132E03F932F939F938F930E94BC
:100DD00091710FB6F894DEBF0FBECDBF04970CF42F
:100DE000F6C2EF961CAE1DAE1EAE1FAEEF97E59697
:100DF0001CAE1DAE1EAE1FAEE597AB961CAE1DAE73
:100E00001EAE1FAEAB97A1961CAE1DAE1EAE1FAEA2
:100E1000A1978CE0C256DF4FA881B981CE59D0404E
:100E20001D928A95E9F7AE0145585F4F60E070E08A
:100E3000C1010E947153882309F487C4AE014F5841
:100E40005F4F60E070E0C7010E947153882309F48E
:100E50007CC4AE0149595F4F60E070E0CE018996D5
:100E60000E947153882309F470C4AE01435A5F4F46
:100E700060E070E0C8010E947153882309F465C4E2
:100E800020E030E044EB52E4E5966CAD7DAD8EADF4
:100E90009FADE5970E94EA6C21EE3EE245E652E402
:100EA0000E94CB6D6B017C01E5966CAF7DAF8EAF80
:100EB0009FAFE5970E94C86DEF968CAC9DACAEAC31
:100EC000BFACEF97A50194010E941D7069837A83DE
:100ED0008B839C83C701B6010E9480709B01AC018B
:100EE000C501B4010E941D706D837E838F83988736
:100EF000AB968CAD9DADAEADBFADAB9789879A87F4
:100F0000AB87BC87A1962CAD3DAD4EAD5FADA19733
:100F100000E0BE016F5F7F4F10C4F10110821182AB
:100F20001282138221961CAE1DAE1EAE1FAE2197FB
:100F300021E030E02C0F3D1F3F932F938E010B5E7D
:100F40001F4F1F930F93CF55DF4F3881C15AD040A9
:100F50003F93C056DF4FA881C05AD040AF9322E4E0
:100F600032E03F932F939F938F930E9491710FB61E
:100F7000F894DEBF0FBECDBF03970CF428C2A101C9
:100F800060E070E0C8010E947153882309F4DDC35A
:100F9000AE01435C5F4F60E070E0CE0101960E94BD
:100FA0007153882309F4D1C39E01275D3F4FC65674
:100FB000DF4F39832883CA59D0408CE0D9011D9274
:100FC0008A95E9F76091590D70915A0D80915B0DEA
:100FD00090915C0D0E94666E20E030E040EA52E4A1
:100FE0000E94CB6D20914D0D30914E0D40914F0DD3
:100FF0005091500D0E94EB6CCE55DF4F6883798382
:101000008A839B83C25AD04060915D0D70915E0DC2
:1010100080915F0D9091600D0E94666E20E030E03F
:1010200040EA52E40E94CB6D2091510D3091520D57
:101030004091530D5091540D0E94EB6CCB54DF4FF7
:10104000688379838A839B83C55BD0406091610DFF
:101050007091620D8091630D9091640D0E94666E97
:1010600020E030E040EA52E40E94CB6D6B017C014D
:1010700020E030E044EB52E46091550D7091560D44
:101080008091570D9091580D0E94EA6C9B01AC0124
:10109000C701B6010E94EB6C7B018C016F968EAD8F
:1010A0009FAD6F9781309105C1F14CF5892B09F007
:1010B0009BC120E030E044EB52E4F101608171819A
:1010C000828193810E94EA6CD1016D937D938D930F
:1010D0009C931397FE01F1964F019E01235D3F4FB4
:1010E0005901DE0199966D017B018C01CB54DF4FD4
:1010F000288139814A815B81C55BD04034C0823010
:10110000910519F1039709F06FC1F10160817181B7
:10111000828193810E94292B18C3F1016081718122
:10112000828193819E012F5C3F4F4901DE019D9694
:101130005D01FE01B9966F01CB54DF4F28813981E3
:101140004A815B81C55BD04016C0D1012D913D9194
:101150004D915C91FE01F1964F01CE018D965C019F
:10116000DE0199966D01CE55DF4F688179818A81C4
:101170009B81C25AD0400E943643A401B501C601EA
:101180000E94B02E21962CAD3DAD4EAD5FAD2197A6
:1011900000E0B60180E0D2C29E012B5E3F4F3F933C
:1011A0002F938E01075D1F4F1F930F937E01FDE369
:1011B000EF0EF11CFF92EF923F922F922AE532E060
:1011C0003F932F939F938F930E9491710FB6F89442
:1011D000DEBF0FBECDBF04970CF4F9C0EF961CAE76
:1011E0001DAE1EAE1FAEEF97E5961CAE1DAE1EAE39
:1011F0001FAEE597AB961CAE1DAE1EAE1FAEAB97F5
:10120000A1961CAE1DAE1EAE1FAEA197AE014558F5
:101210005F4F60E070E0C1010E947153882309F4C0
:1012200094C2AE014F585F4F60E070E0C7010E946A
:101230007153882309F489C2AE0149595F4F60E0B8
:1012400070E0C8010E947153882309F47EC2AE0188
:10125000435A5F4F60E070E0CE0145960E947153A3
:10126000882309F472C26091610D7091620D8091C2
:10127000630D9091640D0E94666ECE55DF4F6883BA
:1012800079838A839B83C25AD04060915D0D7091AF
:101290005E0D80915F0D9091600D0E94666ECB5443
:1012A000DF4F688379838A839B83C55BD0406091DD
:1012B000590D70915A0D80915B0D90915C0D0E94BB
:1012C000666EDE0119964D01FE0135965F019E01A5
:1012D0002F5F3F4F6901CE55DF4FE880F9800A81CB
:1012E0001B81C25AD040CB54DF4F288139814A81BB
:1012F0005B81C55BD0400E941B44A401B501C601BF
:101300000E94B02EEF962CAD3DAD4EAD5FADEF9788
:1013100069817A818B819C810E94EB6C69837A83DD
:101320008B839C83E5962CAD3DAD4EAD5FADE597CF
:101330006D817E818F8198850E94EB6C6D837E83A9
:101340008F839887AB962CAD3DAD4EAD5FADAB971F
:1013500069857A858B859C850E94EB6C69877A8785
:101360008B879C87A1962CAD3DAD4EAD5FADA1970F
:1013700000E0B601E2C1CF55DF4F3881C15AD040FD
:101380003F93C056DF4FA881C05AD040AF938E0123
:1013900009591F4F1F930F937E01B1E7EB0EF11C0C
:1013A000FF92EF926E01EBE7CE0ED11CDF92CF924F
:1013B00029E132E03F932F939F938F930E94917185
:1013C0000FB6F894DEBF0FBECDBF049784F41F9212
:1013D00081E08F938DE092E09F938F930E948639F6
:1013E0000F900F900F900F9082E390E0B0C1CF5616
:1013F000DF4F188219821A821B82C159D040C3570D
:10140000DF4F188219821A821B82CD58D040C757ED
:10141000DF4F188219821A821B82C958D040CB57DD
:10142000DF4F188219821A821B82C558D0408CE087
:10143000D1011D928A95E9F7AE014F565F4F60E0EA
:1014400070E0C6010E947153882309F47EC1AE0189
:1014500043575F4F60E070E0C7010E9471538823DB
:1014600009F473C1AE0147575F4F60E070E0C801F7
:101470000E947153882309F468C1AE014B575F4F36
:1014800060E070E0CE01835A9F4F0E947153882321
:1014900009F45BC16091610D7091620D8091630DE3
:1014A0009091640D0E94666ECB54DF4F6883798300
:1014B0008A839B83C55BD04020E030E044EB52E45C
:1014C0006091550D7091560D8091570D9091580D6A
:1014D0000E94EA6C6B017C0120E030E040EA52E4BB
:1014E000CB54DF4F688179818A819B81C55BD04075
:1014F0000E94CB6D9B01AC01C701B6010E94EB6C51
:10150000CD53DF4F688379838A839B83C35CD0404C
:1015100060915D0D70915E0D80915F0D9091600DF9
:101520000E94666EC953DF4F688379838A839B83E9
:10153000C75CD0406091590D70915A0D80915B0D40
:1015400090915C0D0E94666EC154DF4F8880998037
:10155000CF5BD040F1013496CE55DF4FF983E8835D
:10156000C25AD0405F016101CB54DF4FE880F9805F
:101570000A811B81C55BD040C953DF4F2881398167
:101580004A815B81C75CD0400E941B44C154DF4F3D
:1015900048815981CF5BD040CE55DF4F688179813A
:1015A000C25AD040C1010E94B02ED1016D917D91EF
:1015B0008D919C9113971496CD90DD90ED90FC90B9
:1015C00017979B01AC010E941D704B015C01A701A4
:1015D0009601C701B6010E941D709B01AC01C501B7
:1015E000B4010E94EB6C0E948A70CF56DF4F2881B5
:1015F00039814A815B81C159D0400E94EB6C6B01FB
:101600007C01CF56DF4F688379838A839B83C159DE
:10161000D040C357DF4F288139814A815B81CD5843
:10162000D040CD53DF4F688179818A819B81C35C33
:10163000D0400E94EB6C21EE3EE245E652E40E946F
:10164000CB6DCE55DF4F688379838A839B83C25AE3
:10165000D0400E94C86D9B01AC01C701B6010E9439
:101660001D704B015C01F101608371838283938360
:10167000CE55DF4F688179818A819B81C25AD040E3
:101680000E9480709B01AC01C701B6010E941D70D1
:10169000D10114966D937D938D939C931797C757A3
:1016A000DF4F288139814A815B81C958D040189623
:1016B0006D917D918D919C911B970E94EB6CF10136
:1016C00060877187828793878E01035C1F4F24E0B8
:1016D00045E0C501B4010E946F6AD10114966D9175
:1016E0007D918D919C9117970451110924E045E05B
:1016F0000E946F6AF101608571858285938504512E
:10170000110924E045E00E946F6ACF56DF4F6881DF
:1017100079818A819B81C159D0400451110924E00B
:1017200045E00E946F6ACB57DF4F288139814A819B
:101730005B81C558D04000E0B10181E00E945B545C
:1017400090E005C081E090E002C080E090E09C0164
:10175000215031092230310510F00C94DD1DF8E2E2
:101760006F16710409F414C280F534E16316710434
:1017700098F481E16816710408F061C194E069167B
:10178000710409F474C008F4E3C0BAE06B16710484
:1017900009F45EC00C94821DECE16E16710409F42C
:1017A00057C038F426E16216710408F4A2C10C9403
:1017B000821D3EE16316710409F44AC086E2681690
:1017C000710409F4C5C00C94821D9DE3691671046F
:1017D00009F4D3C110F5B5E36B16710409F447C0E1
:1017E00060F4FBE26F16710409F495C121E36216FF
:1017F000710409F490C10C94821D3CE363167104DA
:1018000010F00C94821DCF54DF4F8881C15BD04013
:10181000865380930A15A9E0AAC18CE56816710465
:1018200060F49AE56916710408F01FC1A0E56A1614
:10183000710409F49BC00C94821DBCE56B16710405
:1018400039F0EFE56E16710408F43CC10C94821D6A
:101850004114510411F00C94961DC655DF4FF881C8
:10186000CA5AD040FF2309F445C00C94781D2CE1DE
:101870006216710491F148F484E06816710479F0FD
:101880009AE069167104E1F08AC1AEE16A1671044A
:10189000D9F1B5E36B16710409F456C080C181E03B
:1018A00054C0FFE16F16710408F042C02AE06216CE
:1018B000710441F4E1E0C655DF4FE883CA5AD040D5
:1018C00082E043C03CE16316710409F078C1F1E0A5
:1018D000C655DF4FF883CA5AD0404114510441F035
:1018E0002AE04216510411F00C94821D84E010C0CD
:1018F00083E00EC0EEE16E16710499F631E0C65534
:10190000DF4F3883CA5AD0404114510449F485E06E
:1019100080930315CE55DF4F1882C25AD0405AC16A
:101920008AE04816510411F00C94821D86E0F0CF35
:1019300085E36816710411F00C94AB1D91E0C65557
:10194000DF4F9883CA5AD04087E08093031527C1A0
:10195000C655DF4FE881CA5AD040E1110C94781D7A
:10196000F2E0C655DF4FF883CA5AD04022E0621633
:10197000710419F158F461147104D9F06A9467285C
:1019800009F013C181E0809304150FC196E2691636
:101990007104C1F0A0E56A16710409F44BC0B3E00C
:1019A0006B16710409F001C183E08093041531E0E6
:1019B0009AC010920415E1E0ECC082E08093041517
:1019C00021E088C08EE14816510401F180F4A4E1C1
:1019D0004A16510411F00C94821D84E08093041582
:1019E000F1E0CE55DF4FF883C25AD040F3C0B8E2E1
:1019F0004B165104A9F0E2E34E16510411F00C9479
:101A0000821D87E08093041581E039C085E08093D2
:101A1000041521E0CE55DF4F2883C25AD040DAC0EA
:101A200086E08093041531E0CE55DF4F3883C25AEB
:101A3000D040D0C088E08093041591E062C0A2E15C
:101A40006A16710441F0B3E16B16710449F010920B
:101A50000815E2E09EC081E080930815F2E0A6C080
:101A600082E08093081522E035C041145104B9F496
:101A70003AE56316710449F41092071583E0CE55D8
:101A8000DF4F8883C25AD040A5C081E080930715FC
:101A900093E0CE55DF4F9883C25AD0409BC0AAE056
:101AA0004A16510411F00C94821DBAE56B167104AC
:101AB00011F40C94821DE4E0CE55DF4FE883C25A46
:101AC000D04088C0FDE56F16710451F481E0809329
:101AD000051525E0CE55DF4F2883C25AD0406BC094
:101AE0001092051535E0CE55DF4F3883C25AD040ED
:101AF00062C084E16816710451F481E08093061598
:101B000096E0CE55DF4F9883C25AD04054C0109211
:101B10000615A6E02CC0C655DF4FB881CA5AD04082
:101B2000B1110C94781DE1E36E16710451F410921A
:101B30000915F8E0CE55DF4FF883C25AD04023E0B4
:101B400044C03AE04316510411F00C94821D81E028
:101B50008093091588E0CE55DF4F8883C25AD04064
:101B600093E0C655DF4F9883CA5AD04033C0CE5554
:101B7000DF4FA883C25AD0401EC0452811F00C94F4
:101B8000821DBAE0CE55DF4FB883C25AD04022C082
:101B9000E7E0CE55DF4FE883C25AD0400CC0CE55A7
:101BA000DF4F1882C25AD04006C0F1E0CE55DF4F59
:101BB000F883C25AD040452869F00C94A91DCE552F
:101BC000DF4F1882C25AD04021E0C655DF4F28832C
:101BD000CA5AD040C555DF4FE881F981CB5AD04071
:101BE000CF01A0E0B0E0CE55DF4F0880C25AD04010
:101BF00004C0B695A795979587950A94D2F780FF6C
:101C000003C085E10C94DD1D81E090E0A0E0B0E030
:101C1000CE55DF4F0880C25AD04004C0880F991FAC
:101C2000AA1FBB1F0A94D2F7C555DF4F28813981FF
:101C3000CB5AD040F2C4672B11F00C94A91DC756A3
:101C4000DF4F8881C959D040C754DF4F68817981FF
:101C5000C95BD040680F711DAE0147565F4FCF542E
:101C6000DF4F88819981C15BD0400E94F71D9C01A4
:101C7000215031092230310510F00C94DD1D36E081
:101C80006316710428F483E06816710490F026C08E
:101C900098E06916710410F40C94821DAAE06A168B
:101CA000710408F440C0BEE16B16710411F00C948D
:101CB000821DE2E06E16710461F0FEE16F167104A0
:101CC00041F0672809F046C081E080930B152BE0B6
:101CD00032C082E080930B153BE036C084E068168A
:101CE000710471F095E069167104A1F081E08093B0
:101CF0000D15ACE0CE55DF4FA883C25AD04030C09E
:101D000082E080930D15BCE0CE55DF4FB883C25AF8
:101D1000D04026C010920D15ECE0CE55DF4FE88381
:101D2000C25AD0401DC0F9E06F16710451F082E034
:101D300080930C152DE0CE55DF4F2883C25AD0403A
:101D40000FC010920C153DE0CE55DF4F3883C25ABC
:101D5000D04006C08BE0CE55DF4F8883C25AD040BA
:101D6000C555DF4FE881F981CB5AD040CF01A0E0C3
:101D7000B0E0CE55DF4F0880C25AD04004C0B695BF
:101D8000A795979587950A94D2F780FD3ACF81E081
:101D900090E0A0E0B0E0CE55DF4F0880C25AD040BE
:101DA00004C0880F991FAA1FBB1F0A94D2F7E82B03
:101DB000F92BC555DF4FF983E883CB5AD0400C94FB
:101DC000F505672B11F00C94A91DC756DF4F8881CC
:101DD000C959D040C754DF4FE881F981C95BD04071
:101DE000E80FF11D27EB621628E0720609F4FBC22A
:101DF00008F06AC18CE9681688E0780609F4A5C184
:101E000008F076C0A9E96A16A8E07A0609F497C135
:101E100008F05FC0E8E96E16E8E07E0609F0CCC382
:101E200084E16E0199E2C90ED11CD601E82F1D9202
:101E3000EA95E9F77E01F5E1EF0EF11CD701E82FF5
:101E40001D92EA95E9F7C256DF4FA881B981CE59B4
:101E5000D0401D928A95E9F780E090E00E94C2454B
:101E6000CF54DF4F688379838A839B83C15BD040E3
:101E700081E090E00E94C2452B013C0182E090E0AD
:101E80000E94C2454B015C01860124E045E0CF542D
:101E9000DF4F688179818A819B81C15BD0400E943C
:101EA0006F6A870124E045E0C301B2010E946F6AB6
:101EB0000451110924E045E0C501B4010E946F6A94
:101EC000FF92EF92DF92CF921F930F9383E892E0FD
:101ED00051C3FAE96F16F8E07F0609F433C12BE924
:101EE000621628E0720609F067C38FE992E02FC1FD
:101EF0003EE9631638E0730609F433C108F42CC1D7
:101F00009CEA691698E0790609F4C1C1ADEA6A163F
:101F1000A8E07A0609F050C3A1961CAE1DAE1EAE15
:101F20001FAEA197F10110821182128213822196B5
:101F30001CAE1DAE1EAE1FAE219784E19E01275D33
:101F40003F4FC656DF4F39832883CA59D040D90145
:101F5000E82F1D92EA95E9F724513109C456DF4F65
:101F600039832883CC59D040D901E82F1D92EA95B6
:101F7000E9F7C256DF4FA881B981CE59D0401D92F2
:101F80008A95E9F780E090E00E94C245CF54DF4F88
:101F9000688379838A839B83C15BD04081E090E032
:101FA0000E94C245CB54DF4F688379838A839B8329
:101FB000C55BD04082E090E00E94C24520E030E066
:101FC00044EB52E40E94EA6C2B013C01FE01FD96B9
:101FD0004F0151019E01235A3F4F69017B018C0142
:101FE000CB54DF4F288139814A815B81C55BD0406A
:101FF000CF54DF4F688179818A819B81C15BD0405A
:102000000E943643A401B101C6010E94B02EA196E0
:102010006CAD7DAD8EAD9FADA197D101CD90DD9022
:10202000ED90FC909B01AC010E941D704B015C0186
:10203000A7019601C701B6010E941D709B01AC016A
:10204000C501B4010E94EB6C0E948A708E01075D8D
:102050001F4F24E045E00E946F6A20E030E044EB2F
:1020600052E4C301B2010E94EB6C0451110924E057
:1020700045E00E946F6A21966CAD7DAD8EAD9FAD3F
:1020800021970451110924E045E00E946F6A1F93D3
:102090000F93C356DF4FF881CD59D040FF93C456FC
:1020A000DF4F2881CC59D0402F93C556DF4F388160
:1020B000CB59D0403F93C656DF4F8881CA59D04094
:1020C0008F9382EC92E056C2B0EC6B16B8E07B06C0
:1020D00009F4B5C1D0F439EB631638E0730609F49E
:1020E00099C108F48CC19AEB691698E0790609F455
:1020F00099C1ABEB6A16A8E07A0609F05DC280913F
:10210000020185FB882780F998C1B2EC6B16B8E014
:102110007B0609F405C208F4D4C133EC631638E039
:10212000730609F40FC280E6681689E0780609F0A4
:1021300043C28091400D8F9380913F0D29C281E968
:1021400092E005C088E49FE002C087EA92E09F9396
:102150008F938AE992E01FC28CE894E09F938F935B
:1021600093C080818E3409F0D0C181818053843046
:1021700008F0CBC194E16E013DE3C30ED11CD60142
:10218000E92F1D92EA95E9F77E01F9E2EF0EF11CC5
:10219000D701E92F1D92EA95E9F75E01F5E1AF0E4F
:1021A000B11CD501E92F1D92EA95E9F7C256DF4F20
:1021B000A881B981CE59D0401D929A95E9F7823015
:1021C000E1F0833031F1813061F082E090E00E94F3
:1021D000C245850124E045E00E946F6ABF92AF923C
:1021E00053C080E090E00E94C245860124E045E0B3
:1021F0000E946F6ADF92CF9247C081E090E00E9418
:10220000C245870124E045E00E946F6AFF92EF9289
:102210003BC080913F0D9091400D0497029748F488
:102220006091420F7091430F8091440F9091450F40
:1022300022C020E030E040E05FE360910002709156
:10224000010280910202909103020E94EA6C20E058
:1022500030E040E05FE30E941D7020E030E044E3A6
:1022600053E40E941D709B01AC0160E070E084E3C8
:1022700093E40E94EA6C8E010F5F1F4F24E045E05B
:102280000E946F6A1F930F938EEA92E084C1A19619
:102290001CAE1DAE1EAE1FAEA197D1011D921D92A8
:1022A0001D921C92139721961CAE1DAE1EAE1FAE42
:1022B000219784E1FE01B996C656DF4FF983E88382
:1022C000CA59D040282F11922A95E9F7DE01559678
:1022D000C456DF4FB983A883CC59D040E82F1D9254
:1022E000EA95E9F7C256DF4FA881B981CE59D040AF
:1022F0001D928A95E9F780E090E00E94C2452B018B
:102300003C0181E090E00E94C245CF54DF4F6883DA
:1023100079838A839B83C15BD04082E090E00E94F6
:10232000C24520E030E044EB52E40E94EA6CFE013A
:10233000FD964F0151019E01235A3F4F69017B01D8
:102340008C01CF54DF4F288139814A815B81C15B89
:10235000D040C301B2010E943643A401B101C601BD
:102360000E94B02EA1966CAD7DAD8EAD9FADA197B4
:102370008E01075D1F4F24E045E00E946F6AD10186
:102380006D917D918D919C910451110924E045E05E
:102390000E946F6A21966CAD7DAD8EAD9FAD219789
:1023A0000451110924E045E00E946F6A1F930F93C6
:1023B000C356DF4FF881CD59D040FF93C456DF4F4D
:1023C0002881CC59D0402F93C556DF4F3881CB5947
:1023D000D0403F93C656DF4F8881CA59D0408F9373
:1023E00084EB92E0C7C0A49B11C08FE30E94995276
:1023F0008A30910558F08734910530F009C047992B
:1024000005C00898009904C082E017C080E015C09C
:1024100081E013C082B386958695869591E08927E1
:1024200081700BC08BE30E94995221E085369105A3
:1024300008F420E01F922F93ACC01F92A9C021E0A6
:1024400030E02C0F3D1F3F932F9380ED92E09F9340
:102450008F93FF93EF930E9491710F900F900F90C5
:102460000F900F900F90181619060CF041C029819B
:102470003A812634310508F048C0F901EA57F54F92
:102480008491F901E05CF54F1491F901E650F64FA3
:102490000491002391F081110E941552E02FF0E089
:1024A000EE0FFF1FEE5EFC4FA591B491EC911E2341
:1024B00081E090E021F480E002C080E090E09F9312
:1024C00067C081E090E08C0F9D1F9F938F9380EDFC
:1024D00092E09F938F93FF93EF930E9491710F90DF
:1024E0000F900F900F900F900F901816190684F010
:1024F0001F9281E08F938DE092E09F938F930E94D3
:1025000086390F900F900F900F9082E390E056C0A5
:1025100089819A8180319105C0F70E949952CFCF6D
:1025200080913E0D8F9380913D0D8F9380913C0D56
:102530008F9380913B0D8F9380913A0D8F93809173
:10254000390D15C080E090E00E947045182F092FCA
:1025500081E090E00E947045F82EE92E82E090E044
:102560000E947045EF92FF920F931F939F938F935A
:1025700084ED92E09F938F9387E09DE09F938F93EC
:102580000E9463710FB6F894DEBF0FBECDBF11C0BD
:102590008F938AE893E09F938F9387E09DE09F93CA
:1025A0008F930E9463710F900F900F900F900F9078
:1025B0000F9080E090E002C081E090E09C0121500B
:1025C00031092230310510F00C94DD1DC555DF4F67
:1025D00028813981CB5AD040C901A0E0B0E0CE5566
:1025E000DF4F0880C25AD04004C0B695A795979592
:1025F00087950A94D2F780FD04CB81E090E0A0E0BB
:10260000B0E0CE55DF4F0880C25AD04004C0880FDA
:10261000991FAA1FBB1F0A94D2F7282B392BC55527
:10262000DF4F39832883CB5AD0400C94F505812F96
:10263000110F990BAA0BBB0BFC01E654F109E53114
:10264000F10510F00C94821D8827EE58FF4F8F4F34
:102650000C943071C0920E15D0920F15E0921015A7
:10266000F0921115CE55DF4F1882C25AD040D2C019
:10267000C0921215D0921315E0921415F092151510
:10268000C554DF4F3881CB5BD0403160C554DF4F3C
:102690003883CB5BD04081E04FC0C0921615D092FA
:1026A0001715E0921815F0921915C554DF4F98814F
:1026B000CB5BD0409260C554DF4F9883CB5BD0405A
:1026C000A2E053C0C0921A15D0921B15E0921C15BF
:1026D000F0921D15C554DF4FB881CB5BD040B4607C
:1026E000C554DF4FB883CB5BD040E3E058C0CF5434
:1026F000DF4FF881C15BD040F0931E1524E069C024
:10270000C701B6010E94336E60931F1570932015A8
:10271000809321159093221535E0CE55DF4F3883F5
:10272000C25AD04077C0C0922315D0922415E092AF
:102730002515F092261586E0CE55DF4F8883C25AC4
:10274000D04068C0C0922715D0922815E092291574
:10275000F0922A1597E059C0C0922B15D0922C15F3
:10276000E0922D15F0922E15A8E0CE55DF4FA883EC
:10277000C25AD0404FC0C0923015D0923115E0926D
:102780003215F0923315CA55DF4FB881C65AD04082
:10279000B160CA55DF4FB883C65AD040EAE0CE5583
:1027A000DF4FE883C25AD04035C0C0923415D09272
:1027B0003515E0923615F0923715CA55DF4FF8817E
:1027C000C65AD040F260CA55DF4FF883C65AD0408F
:1027D0002BE0CE55DF4F2883C25AD0401BC0C09299
:1027E0003815D0923915E0923A15F0923B15CA553A
:1027F000DF4F3881C65AD0403460CA55DF4F388326
:10280000C65AD0408CE098CF99E0CE55DF4F9883E0
:10281000C25AD040CE55DF4FA881C25AD0400A2FAD
:10282000C155DF4FE881F981CF5AD040CF01A0E0F8
:10283000B0E0CE55DF4F0880C25AD04004C0B695F4
:10284000A795979587950A94D2F780FF02C00C94BC
:102850007A1D81E693E0A0E0B0E0CE55DF4F08801E
:10286000C25AD04004C0B695A795979587950A940B
:10287000D2F780FF0BC020E030E0A901C701B6010C
:102880000E94C46D87FF02C00C947C1D81E090E023
:10289000A0E0B0E004C0880F991FAA1FBB1F0A95D3
:1028A000D2F7C155DF4F28813981CF5AD040282B2C
:1028B000392BC155DF4F39832883CF5AD0400C9430
:1028C000F505CA55DF4F3881C65AD040332369F029
:1028D000C655DF4F8881CA5AD040811106C092E0A8
:1028E000C655DF4F9883CA5AD040C155DF4FA881E3
:1028F000CF5AD040A5FF0FC080911F159091201591
:10290000A0912115B091221580389649A849B105AA
:1029100014F00C947E1D80910515813091F4C655FC
:10292000DF4FF881CA5AD040F23009F040C0C1559B
:10293000DF4F2881CF5AD04020FD02C00C94881D63
:1029400036C080913D15811132C0C155DF4F3881AD
:10295000CF5AD04030FF1BC080910615813039F529
:1029600023E333E34BEC51E460910E1570910F15A6
:1029700080911015909111150E941D7060930E1595
:1029800070930F15809310159093111510C08091BE
:102990004A1590914B15A0914C15B0914D1580930F
:1029A0000E1590930F15A0931015B0931115C155E6
:1029B000DF4F88819981CF5AD04090FD10C080911F
:1029C000461590914715A0914815B09149158093EF
:1029D0002B1590932C15A0932D15B0932E15809147
:1029E00003158130B9F4C155DF4F9881CF5AD040DB
:1029F00096FD03C08CE10C94DD1DC155DF4FA8810D
:102A0000B981CF5AD040AF7BC155DF4FB983A8837E
:102A1000CF5AD04080910815882331F1813091F44C
:102A2000B1E0CF54DF4FB883C15BD040C754DF4F14
:102A30001882C95BD040E2E0CE55DF4FE883C25A2E
:102A4000D04023C0CF54DF4F1882C15BD040F2E0AA
:102A5000C754DF4FF883C95BD04021E0CE55DF4F2C
:102A60002883C25AD04011C032E0CF54DF4F3883A0
:102A7000C15BD04081E0C754DF4F8883C95BD04041
:102A8000CE55DF4F1882C25AD04080910615813052
:102A900049F0C655DF4F9881CA5AD040933009F0AB
:102AA00043C036C0B3E0EB2EB5E1FB2E00E010E0F2
:102AB000CA55DF4FA881C65AD0408A2E912CA12C2E
:102AC000B12CD501C401002E04C0B695A7959795E9
:102AD00087950A94D2F780FF12C023E333E34BECCF
:102AE00051E4F70165A576A587A590A90E941D7000
:102AF000D7019D966D937D938D939C93D0970F5F97
:102B00001F4FB4E0EB0EF11C03301105D1F6C1CF1D
:102B100080910915813041F4CA55DF4FE881C65ACA
:102B2000D040E43009F0ECC78CE0EFE5F5E1DE01E0
:102B3000119601900D928A95E1F7C555DF4F2881D6
:102B40003981CB5AD04031FD08C0109103151230A5
:102B5000C1F0183009F4EAC058C180910A158730D5
:102B600018F08DE10C94DD1D90914215891769F3E1
:102B7000BE016F5F7F4F0E942034882309F4D4C7C1
:102B8000E4CFCA55DF4F3881C65AD040311103C057
:102B90008AE10C94DD1DC155DF4F88819981CF5AA0
:102BA000D04080759927892B09F424CF6091231593
:102BB0007091241580912515909126150E94CB7057
:102BC0000E94386E673068F680911E15843151F08E
:102BD000823009F097C7C155DF4F8881CF5AD04066
:102BE00087FD90C7C155DF4FA881B981CF5AD0402A
:102BF000AF7AC155DF4FB983A883CF5AD04066233F
:102C000021F022242A94260E02C020900A15BE012B
:102C10006B5E7F4F822D0E942034882309F484C785
:102C200030901E158090771590907815A0907915AA
:102C3000B0907A15A3E0CA2EA5E1DA2E8E010B5EC4
:102C40001F4FECE3F5E1C555DF4FF983E883CB5A1D
:102C5000D040E12CF12CCA55DF4FF881C65AD04044
:102C60004F2E512C612C712CD301C2010E2C04C0AB
:102C7000B695A795979587950A94D2F780FF3BC0A4
:102C800024E132122EC0C555DF4FA881B981CB5A3D
:102C9000D0409F962D913D914D915C91D297579642
:102CA0006D917D918D919C915A970E94EA6CF601ED
:102CB00025A536A547A550A90E94EA6CD8016D93B9
:102CC0007D938D939C931397B2E0EB1214C0A501F2
:102CD00094010E94EA6CF80160837183828393837C
:102CE0000AC0F60185A596A5A7A5B0A9F80180831D
:102CF0009183A283B383FFEFEF1AFF0A24E0C20E91
:102D0000D11C0C5F1F4FC555DF4F88819981CB5A6D
:102D1000D0400496C555DF4F99838883CB5AD04065
:102D200093E0E916F10409F09FCF4CC1CA55DF4F7B
:102D3000A881C65AD040AA2309F42ACF80907715DB
:102D400090907815A0907915B0907A15FCE3CF2E6D
:102D5000F5E1DF2EFE0131961F0103E015E1E12CC4
:102D6000F12C4A2E512C612C712CD301C2010E2C56
:102D700004C0B695A795979587950A94D2F780FFDA
:102D800029C0D1012D913D914D915C91F60167894A
:102D9000708D818D928D0E94EA6CD8019D962D9147
:102DA0003D914D915C91D0970E94EA6CF80165A726
:102DB00076A787A790ABF2E0EF1216C0A5019401A9
:102DC0000E94EA6CD8019D966D937D938D939C93A0
:102DD000D0970AC0F60187A590A9A1A9B2A9F801C8
:102DE00085A796A7A7A7B0ABFFEFEF1AFF0A24E0CD
:102DF000C20ED11C34E0230E311C0C5F1F4F83E048
:102E0000E816F10409F0B1CFDCC0C655DF4F988158
:102E1000CA5AD040933009F49DC0CA55DF4FA881EB
:102E2000C65AD040AA2309F4BEC6009107154090A7
:102E30007715509078156090791570907A157CE32D
:102E4000A72E75E1B72EE3E0EE2EE5E1FE2EFE01A2
:102E500031964F01C12CD12C8A2F90E0A0E0B0E038
:102E6000C555DF4F88839983AA83BB83CB5AD04053
:102E7000C555DF4F88819981AA81BB81CB5AD0404B
:102E80000C2C04C0B695A795979587950A94D2F710
:102E900080FD0BC0F5018789908DA18DB28DF70162
:102EA00085A796A7A7A7B0AB43C0173009F440C0C9
:102EB00001112BC0D5019F962D913D914D915C91B3
:102EC000D297F40160817181828193810E94EB6CC1
:102ED000D7019D962D913D914D915C91D0970E9487
:102EE000EB6CF70165A776A787A790ABF2E0CF124E
:102EF0001FC0A30192010E94EB6CD7019D966D93B8
:102F00007D938D939C93D09713C0F5012789308DC5
:102F1000418D528DD7019D966D917D918D919C91A2
:102F2000D0970E94EB6CF70165A776A787A790ABB7
:102F3000FFEFCF1ADF0A24E0A20EB11C34E0E30E4B
:102F4000F11C84E0880E911C93E0C916D10409F0AD
:102F50008FCF2DC01530A9F0173071F1133089F5DE
:102F6000CA55DF4FA881C65AD040A11105C0C65529
:102F7000DF4F1882CA5AD040BE016B5E7F4F86E099
:102F800010C0CA55DF4FB881C65AD040B11105C034
:102F9000C655DF4F1882CA5AD040BE016B5E7F4FC4
:102FA00087E00E942034882309F4BEC50AC015308A
:102FB000A1F3173009F0F3C580910415823008F0B1
:102FC000A3C5212C30900415E8E03E1211C0CA556B
:102FD000DF4FF881C65AD040FF2309F405C3C65518
:102FE000DF4F2881CA5AD040213009F08FC511C364
:102FF000C655DF4F3881CA5AD040323009F0F4C28A
:10300000311009C0CA55DF4F8881C65AD040882385
:1030100009F4F1C2FEC220E030E0A90160910E1572
:1030200070910F1580911015909111150E94C46D2B
:10303000882309F46DC593E0931538F0A2E03A16A1
:1030400090F4B1E03B1631F0E4C2E7E0E31508F09C
:10305000BEC2DFC2CA55DF4FF881C65AD040FF2337
:1030600009F4C9C2D6C2CA55DF4F2881C65AD0401A
:10307000222309F48DCDCE55DF4F9881C25AD0401E
:10308000892F90E0C555DF4F99838883CB5AD04074
:10309000C754DF4FB881C95BD040AB2FB0E0CB54F1
:1030A000DF4FB983A883C55BD04081E090E0A0E00A
:1030B000B0E06C017D01CE55DF4F0880C25AD04090
:1030C00004C0CC0CDD1CEE1CFF1C0A94D2F7C754C4
:1030D000DF4F0880C95BD04004C0880F991FAA1F2A
:1030E000BB1F0A94D2F7C82AD92AEA2AFB2A822FC0
:1030F00090E0A0E0B0E08C219D21AE21BF21892B82
:103100008A2B8B2B09F406C5C555DF4F8881998121
:10311000CB5AD040880F991F880F991FFC01ED5F93
:10312000FA4EDC01A45CBA4E57962D913D914D911B
:103130005C915A9765A576A587A590A90E94EA6C2F
:103140004B015C01CB54DF4F88819981C55BD04036
:10315000880F991F880F991FFC01ED5FFA4EDC0163
:10316000A45CBA4E57962D913D914D915C915A9722
:1031700065A576A587A590A90E94EA6CCA55DF4F80
:10318000688379838A839B83C65AD040C155DF4FB9
:1031900008811981CF5AD04000781127C155DF4FDF
:1031A000E881CF5AD040E7FF15C1C155DF4F2881D4
:1031B0003981CF5AD0402F77C155DF4F39832883CB
:1031C000CF5AD0400E940967882311F081E2F5C4EC
:1031D000809106158130B1F423E333E34BEC51E4E5
:1031E00060912715709128158091291590912A15C5
:1031F0000E941D70609327157093281580932915E0
:1032000090932A1540902715509028156090291505
:1032100070902A15A5019401C501B4010E941D708A
:10322000C554DF4F688379838A839B83CB5BD0400F
:10323000CA55DF4F288139814A815B81C65AD04007
:10324000CA01B9010E941D70C154DF4F68837983A0
:103250008A839B83CF5BD04020E030E040E850E49D
:10326000C301B2010E941D70A30192010E941D7052
:10327000C554DF4F288139814A815B81CB5BD040C7
:103280000E94EA6CC154DF4F288139814A815B81F9
:10329000CF5BD0400E94EA6C6B017C0120E030E003
:1032A000A9010E94C46D87FD37C4C701B6010E9401
:1032B0008A706B017C01C154DF4F288139814A81BA
:1032C0005B81CF5BD040C554DF4F688179818A81B3
:1032D0009B81CB5BD0400E94EB6C0E948A709B016B
:1032E000AC01C701B60190580E94CB6D6B017C0107
:1032F00033E0331204C0F7FAF094F7F8F09420E0CA
:1033000030E0A901C301B2010E94C46D87FF0FC064
:10331000F7FAF094F7F8F094D301C201B058809313
:10332000271590932815A0932915B0932A15C555F4
:10333000DF4F08811981CB5AD040000F111F000FB9
:10334000111F095F1A4ECA55DF4F288139814A8102
:103350005B81C65AD040C701B6010E941D709B0117
:10336000AC01C501B4010E94EA6C20E030E040E00D
:103370005FE30E941D70D8011B966D937D938D9322
:103380009C931E97CB54DF4F08811981C55BD040B9
:10339000000F111F000F111F095F1A4EA5019401A4
:1033A000C701B6010E941D70CA55DF4F28813981BF
:1033B0004A815B81C65AD0400E94EB6C20E030E02D
:1033C00040E05FE30E941D70F80163877487858782
:1033D00096871FC1C554DF4FF881CB5BD0404F2E7D
:1033E000512C612C712CC420D520E620F720CD284B
:1033F000CE28CF2809F492C3C155DF4F28813981E7
:10340000CF5AD040217FC155DF4F39832883CF5A0F
:10341000D04080910615813009F491C0C555DF4F29
:10342000E881F981CB5AD040EE0FFF1FEE0FFF1F4E
:10343000E95FFA4EC384D484E584F684A70196013B
:10344000C501B4010E94EA6C2B013C01CB54DF4F53
:10345000E881F981C55BD040EE0FFF1FEE0FFF1F23
:10346000E95FFA4E83859485A585B685C555DF4FFE
:1034700088839983AA83BB83CB5AD0409C01AD013A
:10348000CA55DF4F688179818A819B81C65AD040B5
:103490000E94EA6C4B015C01A3019201C301B201DD
:1034A0000E941D702B013C01A5019401C501B401CE
:1034B0000E941D709B01AC01C301B2010E94EB6C24
:1034C0000E948A704B015C01A7019601C701B601F9
:1034D0000E941D706B017C01C555DF4F2881398129
:1034E0004A815B81CB5AD040CA01B9010E941D704C
:1034F0009B01AC01C701B6010E94EB6C0E948A706F
:103500006B017C0160932715709328158093291512
:1035100090932A159B01AC01C501B4010E94EA6C8D
:103520004B015C01E894B7F82AE037ED43EA5BE32E
:10353000C501B4010E94E26F181664F16AC083E00D
:10354000E82E85E1F82ED301C201002E04C0B69505
:10355000A795979587950A94D2F780FF12C023E329
:1035600033E34BEC51E4D7011F966D917D918D9122
:103570009C9152970E941D70F7016787708B818B19
:10358000928B0F5F1F4FF4E0EF0EF11C033011051B
:10359000D1F644CF20E030E040E05FE3C501B40164
:1035A0000E94E26F18160CF411CE2FE632E143E8C8
:1035B0005AE3C701B6010E941D709B01AC01C50111
:1035C000B4010E94E26F18160CF400CE22C0CA5556
:1035D000DF4F2881C65AD040222309F4D9CA0E945D
:1035E00009678111F3CD15C0C655DF4F3881CA5A1E
:1035F000D04031110EC0C155DF4F88819981CF5A1B
:10360000D0408E7D9C7FC655DF4F1882CA5AD0406D
:1036100008C0C155DF4F88819981CF5AD0408E7D37
:10362000907E892B09F07CC280911F159091201506
:10363000A0912115B091221580934F1590935015AC
:10364000A0935115B09352158091051580933D15A7
:1036500080910E1590910F15A0911015B091111534
:1036600080934A1590934B15A0934C15B0934D152C
:10367000C0902B15D0902C15E0902D15F0902E15A4
:10368000A7019601609146157091471580914815E4
:10369000909149150E94C46D8823F9F01091451549
:1036A000112359F08091E614823039F00E94EC66C3
:1036B000B701A601812F0E94B23280912B15909103
:1036C0002C15A0912D15B0912E1580934615909331
:1036D0004715A0934815B093491580912F158093F5
:1036E0004E1510910D15809145158117B9F08091F7
:1036F000E614823079F0C0904615D0904715E090DE
:103700004815F09049150E94EC66B701A601812F7B
:103710000E94B23280910D158093451510910C15C1
:1037200080914415811781F08091E614823041F038
:103730000E94EC66123011F45C9A02C00E94605B39
:1037400080910C158093441580910315813089F088
:1037500080910815809340158091061580933E1541
:10376000C655DF4F8881CA5AD040833009F074C0F3
:1037700054C08091E614823059F3809023159090C4
:103780002415A0902515B090261520E030E040EAE1
:1037900051E4C501B4010E941D700E94A16E0E94F7
:1037A000386E6B017C010E94EC6620E030E04AE755
:1037B00054E4C501B4010E941D704B015C0182E319
:1037C0008C9DB0018D9D700D112480E090E00E94D1
:1037D000646E9B01AC01C501B4010E94EA6C0E94B9
:1037E000A16E0E94386ECB010E94263F8601011512
:1037F000110509F4ADCF0E94313F015011098091AC
:10380000E5148111A5CF9FEFA0E7B2E09150A04051
:10381000B040E1F700C00000EACF80910915809325
:103820004115813089F48091381590913915A09116
:103830003A15B0913B158093771590937815A09326
:103840007915B0937A1508C01092771510927815F3
:103850001092791510927A1580910A15909142155F
:10386000981759F0809342158CE0FE013196AFE530
:10387000B5E101900D928A95E1F78091071580934B
:103880003F15E09103158E2F90E0FC013297E83050
:10389000F10508F060C08827E957FF4F8F4F0C945F
:1038A0003071BE016B5E7F4F822D0E941734809174
:1038B0004215281250C08CE0FE017596AFE5B5E1C7
:1038C0003EC0C655DF4FE881CA5AD040EE2371F0A2
:1038D00020914A1530914B1540914C1550914D1542
:1038E00000E060E375E181E00E945B5420914A159D
:1038F00030914B1540914C1550914D1500E0BE0193
:103900006B5E7F4F81E00E945B54182F8CE0FE01BC
:103910007596A3E5B5E101900D928A95E1F71CC07B
:1039200063E575E186E003C063E575E187E00E9429
:10393000173411C08CE0E0E3F5E1ABE6B5E10190AE
:103940000D928A95E1F707C08CE0EBE6F5E1DF0127
:103950001D928A95E9F710E08091041580933C153B
:10396000883009F470C0C655DF4FB881CA5AD040BC
:10397000B23009F068C090E08830910508F05AC074
:10398000FC0140904A1550904B1560904C1570907A
:103990004D158827E157FF4F8F4F0C94307100E091
:1039A000A301920160E375E180E007C000913D153D
:1039B000A301920160E375E181E00E945B54182F3E
:1039C00039C0609127157091281580912915909123
:1039D0002A158824839409C06091271570912815B1
:1039E0008091291590912A15812CCF54DF4FA88002
:1039F000C15BD040C754DF4FC880C95BD040CE55B3
:103A0000DF4FE880C25AD04000913D15A3019201DA
:103A10000E94DD670FC000E001C001E020E004C0AB
:103A200000E001C001E021E040913D15C301B20179
:103A30000E9447678CE0E0E3F5E1A3E5B5E1019082
:103A40000D928A95E1F780910B1580934315882399
:103A500009F468C00E94EC66909143158091E614C9
:103A6000913069F48230E9F19FB7F8948091941411
:103A70008860809394149FBF0E94313F32C091E0D0
:103A800090933C151092401510923F1510923D15E1
:103A90001092421510924515109244158230A9F0EB
:103AA000BE016F5F7F4F80E00E9420348823E1F1E8
:103AB0008CE0FE013196AFE5B5E101900D928A955B
:103AC000E1F70E94AB320E94605B80ED99E00E94BA
:103AD000E13984E799E00E94E1398DE599E00E949F
:103AE000E139109243151EC081E067C082E065C0D5
:103AF00088E163C089E161C084E05FC08BE15DC0A3
:103B000085E25BC084E159C08EE157C08FE155C0AA
:103B100086E153C080E251C082E24FC083E24DC0D3
:103B200084E24BC0812F49C087E047C0AEE16A16EE
:103B3000710411F40C94840C38F5EAE06E167104EB
:103B400011F40C94600CFCE16F16710411F40C94E8
:103B50006D0C87E132C09CE56916710411F00C947C
:103B6000DF0DA1E0C655DF4FA883CA5AD0404114EB
:103B7000510439F0BAE04B16510421F689E00C9457
:103B8000880C88E00C94880C25E36216710411F40B
:103B90000C94A40C3CE56316710449F3DACF13309E
:103BA00009F00FCAE9C9153009F4F2C9173009F450
:103BB00003CA133009F005CADAC9C653DF4F0FB67E
:103BC000F894DEBF0FBECDBFDF91CF911F910F9153
:103BD000FF90EF90DF90CF90BF90AF909F908F902D
:103BE0007F906F905F904F903F902F9008952F920D
:103BF0003F924F925F926F927F928F929F92AF927D
:103C0000BF92CF92DF92EF92FF920F931F93CF93C9
:103C1000DF93CDB7DEB7C459D1090FB6F894DEBF34
:103C20000FBECDBFFB01873A28E0920709F445C2D9
:103C3000F0F58A34A8E09A0709F42AC1C8F48C3C4C
:103C4000910509F495C040F48131910509F479C0DA
:103C5000429709F4F0C071C0883428E0920709F453
:103C6000C5C008F00DC1833E974009F4E4C065C0AB
:103C70008B39B8E09B0709F4C7C160F4893938E093
:103C8000930709F42BC108F085C18B34984009F4DF
:103C900012C153C0823A28E0920709F4D2C108F455
:103CA0004CC0863A984010F40C94CC2746C0803C17
:103CB000B8E09B0709F46BC508F5873B38E093072C
:103CC00009F421C570F48D3AB8E09B0709F408C3E4
:103CD0008E3A28E0920709F411C48C3A984069F5AD
:103CE000F2C1893BA8E09A0709F42FC508F41DC565
:103CF0008A3B984011F40C94CC271FC08A3629E0E7
:103D0000920709F410C770F48036A9E09A0709F405
:103D1000CDC58136B9E09B0709F4AEC6813C984019
:103D200061F460C58C3639E0930709F477C708F46D
:103D300046C7843C994009F4B8C781E090E00C94F0
:103D4000CE278091D31482FF08C08A9A80910801FF
:103D50008160809308015F9A07C08A98809108016A
:103D60008E7F809308015F980E94C32B8FE00CC167
:103D70008E010F5F1F4F1F930F938FE993E09F9367
:103D80008F93FF936F930E9491710F900F900F90FC
:103D90000F900F900F90181619060CF05EC71D8A31
:103DA0001E8A1F8A188EAE014B5E5F4F60E070E086
:103DB000C8010E9471538823D1F14D895E896F89B2
:103DC000788D88E70E9415334D895E896F89788DDB
:103DD00089E70E9415334D895E896F89788D8AE75E
:103DE0000E9415330E9434380C94CC278E010F5F4B
:103DF0001F4F1F930F938AEA93E09F938F93FF9334
:103E00006F930E9491710F900F900F900F900F90F1
:103E10000F90181619060CF020C7AE014B5E5F4FCD
:103E200060E070E0C8010E947153811108C082E314
:103E300090E00C94CE270E94122B0C94CC2720E00B
:103E400030E04AE754E46D897E898F89988D0E941D
:103E50001D700E94336E1616170694F47093050DAC
:103E60006093040D11E01093060D8091030D8111F4
:103E70000C94CC270E94502A1093030D0C94CC274D
:103E80001092060D1092050D1092040D0C94CC2783
:103E90008081863561F681818053823040F61092B0
:103EA000750D813021F01092740D0C94CC27809305
:103EB000740D0C94CC278081863509F0B8CF8181B0
:103EC0008053823008F0B3CF813021F01092790D09
:103ED0000C94CC278093790D0C94CC2780818E3460
:103EE00009F0A5CF91819053943008F0A0CF923083
:103EF00079F1933009F443C02091D3148091710D6E
:103F0000913099F022FF08C08A9A9091080191603F
:103F1000909308015F9A07C08A98909108019E7F4C
:103F2000909308015F9884602FC022FF08C08A9A8E
:103F3000909108019160909308015F9A07C08A9858
:103F4000909108019E7F909308015F9881601CC04A
:103F50008091D31482FF08C08A9A80910801816001
:103F6000809308015F9A07C08A98809108018E7F2C
:103F7000809308015F988091710D826005C00E9456
:103F8000C32B8091710D88608093710D0E94482928
:103F90000C94CC2780818E3409F049CF91819053C5
:103FA000943008F044CF9230B1F0933039F1209141
:103FB000D3148091710D913039F022FF02C05F98C7
:103FC00001C05F9A8B7F17C022FF02C08A9801C090
:103FD0008A9A8E7F10C08091D31482FF04C0809192
:103FE00008018E7F03C080910801816080930801E1
:103FF0008091710D8D7F8093710DCEC70E94042B2F
:104000008091710D877FF7CF80818E3409F00FCFBB
:1040100081818053843008F00ACF9091710D8230F5
:1040200051F0833059F0813019F090FF65C361C3BE
:1040300091FD5FC361C392FD5CC35EC393FF5CC32C
:1040400058C31AA619A61D8A1E8A1F8A188E8E01A9
:104050000F5F1F4F8AE0D8011D928A95E9F7CE01C4
:1040600089969F938F931F930F9383EB93E09F9376
:104070008F93FF936F930E9491710FB6F894DEBFF8
:104080000FBECDBF02970CF4E8C5AE014B5E5F4F8B
:1040900060E070E0C8010E947153882309F4C7CE24
:1040A0002D893E894F89588D69A57AA5072E000C68
:1040B000880B990B0E946B2A6FC78FEF0E944034C8
:1040C0000E94D62969C72E0125E6420E511C84E1C3
:1040D000D201282F1D922A95E9F73E0131E5630EA2
:1040E000711CD301282F1D922A95E9F78E01035CDC
:1040F0001F4FD8011D928A95E9F7C357DF4F1882E9
:1041000019821A821B82CD58D040C757DF4F1882C0
:1041100019821A821B82C958D040CB57DF4F1882B0
:1041200019821A821B82C558D0401F930F937F9229
:104130006F925F924F928FEB93E09F938F93FF93D9
:104140006F930E9491710FB6F894DEBF0FBECDBF82
:1041500003970CF482C5AE0143575F4F60E070E0F7
:10416000C2010E947153882309F461CEAE01475702
:104170005F4F60E070E0C3010E947153882309F42F
:1041800056CEAE014B575F4F60E070E0C8010E9411
:104190007153882309F44BCECF57DF4F1882198211
:1041A0001A821B82C158D040C358DF4F188219822F
:1041B0001A821B82CD57D040ED961CAE1DAE1EAEAE
:1041C0001FAEED9784E13E01F9E26F0E711CD30141
:1041D000E82F1D92EA95E9F72E01F5E14F0E511CEB
:1041E000D201E82F1D92EA95E9F79E012F5F3F4F1C
:1041F0001901D9011D928A95E9F7AE014B575F4F1E
:10420000BE0167577F4FCE0183579F4F0E94052EF7
:10421000CB57DF4FE880F9800A811B81C558D04019
:10422000C757DF4F288139814A815B81C958D04007
:10423000C357DF4F688179818A819B81CD58D040F7
:10424000FE01EF57FF4F4F01DE01A758BF4F5D0141
:1042500034976F010E94804120E030E044EB52E44B
:10426000CF57DF4F688179818A819B81C158D040C7
:104270000E94EB6CCF57DF4F688379838A839B83DF
:10428000C158D040C358DF4F688179818A819B81B2
:10429000CD57D040820124E045E00E946F6AED9640
:1042A0006CAD7DAD8EAD9FADED97810124E045E015
:1042B0000E946F6ACF57DF4F688179818A819B8125
:1042C000C158D040830124E045E00E946F6A3F92CC
:1042D0002F925F924F927F926F9283E892E000C19B
:1042E0002E0135E6430E511C84E1D201282F1D9288
:1042F0002A95E9F73E0131E5630E711CD301282FA1
:104300001D922A95E9F78E01035C1F4FD8011D927B
:104310008A95E9F7C357DF4F188219821A821B82E8
:10432000CD58D040C757DF4F188219821A821B829E
:10433000C958D040CB57DF4F188219821A821B828E
:10434000C558D0401F930F937F926F925F924F9208
:104350008EED93E09F938F93FF936F930E949171E3
:104360000FB6F894DEBF0FBECDBF03970CF475C433
:10437000AE0143575F4F60E070E0C2010E9471538D
:10438000882309F454CDAE0147575F4F60E070E0D9
:10439000C3010E947153882309F449CDAE014B57E4
:1043A0005F4F60E070E0C8010E947153882309F4F8
:1043B0003ECDCF57DF4F188219821A821B82C15817
:1043C000D040C358DF4F188219821A821B82CD5702
:1043D000D040ED961CAE1DAE1EAE1FAEED9784E133
:1043E0003E01F9E26F0E711CD301E82F1D92EA9590
:1043F000E9F72E01F5E14F0E511CD201E82F1D9275
:10440000EA95E9F79E012F5F3F4F1901D9011D92EF
:104410008A95E9F720E030E044EB52E4C357DF4FE0
:10442000688179818A819B81CD58D0400E94EA6C55
:104430007B018C01C357DF4F688379838A839B8319
:10444000CD58D040CB57DF4F288139814A815B81DD
:10445000C558D040C757DF4F688179818A819B81D9
:10446000C958D040FE01E758FF4F4F01DE01A35865
:10447000BF4F5D0138966F010E943643A401B5011C
:10448000C6010E94B02ECF57DF4F688179818A81A3
:104490009B81C158D040830124E045E00E946F6AAF
:1044A000C358DF4F688179818A819B81CD57D04085
:1044B000820124E045E00E946F6AED966CAD7DAD0F
:1044C0008EAD9FADED97810124E045E00E946F6ABB
:1044D0003F922F925F924F927F926F9284EB92E085
:1044E0009F938F9387E09DE09F938F930E946371CA
:1044F0000FB6F894DEBF0FBECDBF4EC5CF57DF4F0E
:10450000188219821A821B82C158D040C358DF4FCB
:10451000188219821A821B82CD57D040ED961CAEAC
:104520001DAE1EAE1FAEED9784E12E0139E2430EA3
:10453000511CD201282F1D922A95E9F73E0135E141
:10454000630E711CD301282F1D922A95E9F7DE0115
:1045500011967D011D928A95E9F78E010B571F4F29
:104560008FEF90E0D8018D939C931F930F93FF9250
:10457000EF927F926F925F924F928DEF93E09F93B5
:104580008F93FF936F930E9491710FB6F894DEBFE3
:104590000FBECDBF04970CF460C3AE014F575F4F01
:1045A00060E070E0C2010E947153882309F43FCC9F
:1045B000AE0143585F4F60E070E0C3010E94715349
:1045C000882309F434CCAE0147585F4F60E070E0B7
:1045D000C7010E947153882309F429CCD8018D9119
:1045E0009C91009709F443C0019709F020CCCF5764
:1045F000DF4F488059806A807B80C158D04020E0DE
:1046000030E044EB52E4C358DF4F688179818A81FE
:104610009B81CD57D0400E94EA6C21EE3EE245E6F8
:1046200052E40E94CB6D6B017C010E94C86D9B011E
:10463000AC01C301B2010E941D70CF57DF4F6883E8
:1046400079838A839B83C158D040C701B6010E94F9
:1046500080709B01AC01C301B2010E941D70C35860
:10466000DF4F688379838A839B83CD57D040AE0127
:1046700047585F4FBE0163587F4FCE018F579F4F02
:104680000E94052EED96ECACFDAC0EAD1FADED9786
:10469000C358DF4F288139814A815B81CD57D04093
:1046A000CF57DF4F688179818A819B81C158D04083
:1046B000FE01FD964F01DE01AF5ABF4F5D01B89676
:1046C0006F010E9480412196ECACFDAC0EAD1FAD98
:1046D000219765962CAD3DAD4EAD5FAD6597A99622
:1046E0006CAD7DAD8EAD9FADA9970E94AC44882383
:1046F00019F06EEA73E002C06AE973E087E09DE0BA
:104700000E945C7149C48081863509F090CB81811B
:104710008053823008F08BCB813011F042D63CC4FC
:104720009C9A9D9AA49AA59837C48081863509F0F1
:104730007ECB81818053823008F079CB813011F0BB
:104740002DD62AC43F9A479827C48081863509F020
:104750006ECB81818053823008F069CB813011F0BB
:104760000CD61AC48091010180628093010180916E
:104770000101806480930101809102018062809335
:1047800002018091020180648093020105C4CE0180
:1047900001969F938F9344969F938F938FE194E01C
:1047A0009F938F93FF936F930E9491710FB6F8942C
:1047B000DEBF0FBECDBF02970CF44FC28D899E891C
:1047C0008634910508F033CB29813A8122303105B6
:1047D00008F02DCB232B11F061E001C060E00E94B6
:1047E0006B52DAC3CE0101969F938F9344969F93A9
:1047F0008F938FE194E09F938F93FF936F930E9429
:1048000091710FB6F894DEBF0FBECDBF02970CF4C6
:1048100024C28D899E898634910508F008CB2981B0
:104820003A812230310508F002CBFC01E05CF54F03
:104830008650964F232BD1F02491FC01849188233C
:1048400009F4AAC390E0880F991FFC01E455F84FC2
:10485000A591B491FC01E052F64F859194918FB7E8
:10486000F894EC91E22BEC938FBF96C32491FC015A
:104870008491882309F490C390E0880F991FFC016C
:10488000E455F84F45915491FC01E052F64FA59143
:10489000B4919FB7F894FA01808120958223808398
:1048A0008C91E22FE823EC939FBF76C38081833500
:1048B00009F0BDCA8181E0EDE80FE83008F0B7CA21
:1048C0008E2F90E0FC013197E730F10530F4882716
:1048D000E956FF4F8F4F0C94307196D61092400DD1
:1048E00010923F0D8AE999E1A5E9B2E48093450D64
:1048F0009093460DA093470DB093480D8AE999E92E
:10490000A2E6B2E4B0C080D681E090E09093400D82
:1049100080933F0D86EF98E2ACE4B2E48093450DBE
:104920009093460DA093470DB093480D8DEC9CECF1
:10493000A0E8B2E498C068D682E090E09093400D81
:1049400080933F0D89E29CEDA4E9B2E48093450D8C
:104950009093460DA093470DB093480D80E090E0F2
:10496000A2E6B2E480C050D683E090E09093400D80
:1049700080933F0D80E090E0ACE2B2E48093450D7F
:104980009093460DA093470DB093480D80E090E0C2
:10499000ABE8B2E468C038D684E090E09093400D74
:1049A00080933F0D80E090E0ACE1B2E48093450D50
:1049B0009093460DA093470DB093480D80E090E092
:1049C000A9E9B2E417C020D685E090E09093400DAD
:1049D00080933F0D8DEC9CECA2E9B2E48093450DF1
:1049E0009093460DA093470DB093480D80E090E062
:1049F000A8E9B2E48093410D9093420DA093430D3A
:104A0000B093440DD4D5D9C0FFD586E090E0909303
:104A1000400D80933F0D86E696E6AAE9B2E48093C6
:104A2000450D9093460DA093470DB093480D80E03F
:104A300090E0AAE5B2E417C0E7D587E090E0909354
:104A4000400D80933F0D85E89BEEABECB1E4809385
:104A5000450D9093460DA093470DB093480D80E00F
:104A600090E0A2E3B2E48093410D9093420DA093B5
:104A7000430DB093440DA1C080E090E00E947045CA
:104A800090933C0D80933B0D81E090E00E94704537
:104A900090933E0D80933D0D82E090E00E94704522
:104AA00090933A0D8093390D09E31DE084E393E080
:104AB000D8016D918D017C01BFEFEB1AFB0A0E94BA
:104AC000B95AC701EAE3EE16E3E0FE0689F76BEB9D
:104AD00082E393E00E94B95A0E94464580E090E04C
:104AE0000E94C24560934D0D70934E0D80934F0D03
:104AF0009093500D81E090E00E94C2456093510D6B
:104B00007093520D8093530D9093540D82E090E07A
:104B10000E94C2456093550D7093560D8093570DBA
:104B20009093580D39C26091F1147091F2148091F4
:104B3000F3149091F4140E94666E2B013C01609175
:104B4000ED147091EE148091EF149091F0140E9486
:104B5000666ECF56DF4F688379838A839B83C15902
:104B6000D0406091E9147091EA148091EB14909117
:104B7000EC140E94666E9E012F5F3F4F4901DE01DB
:104B800055965D01FE01B9966F0183017201CF5602
:104B9000DF4F288139814A815B81C159D0400E9411
:104BA0001B4489819A81AB81BC818093450D909390
:104BB000460DA093470DB093480D33D4EDC11D8A27
:104BC0001E8A1F8A188E8E010F5F1F4F84E1D80145
:104BD0001D928A95E9F71F930F9386E294E09F93C5
:104BE0008F93FF936F930E9491710F900F900F908E
:104BF0000F900F900F90181619067CF5AE014B5EC2
:104C00005F4F60E070E0C8010E947153882309F48F
:104C10000EC98D899E89AF89B88D25CF1D8A1E8AC0
:104C20001F8A188E8E010F5F1F4F84E1D8011D92DD
:104C30008A95E9F71F930F9381E394E09F938F93F5
:104C4000FF936F930E9491710F900F900F900F90B0
:104C50000F900F901816190674F01F9281E08F9331
:104C60008DE092E09F938F930E9486390F900F9072
:104C70000F900F90DCC8AE014B5E5F4F60E070E0BC
:104C8000C8010E947153882309F4D1C88D899E8977
:104C9000AF89B88D8093490D90934A0DA0934B0D29
:104CA000B0934C0DBED383D477C1899864E7662E48
:104CB0006EE0762E830182E090E00E947045F8015C
:104CC000819391938F0150E9E52EFF24F394889A04
:104CD0006AE070E080E090E00E94E83E88986CE234
:104CE00071E080E090E00E94E83EF1E0EF1AF10808
:104CF00071F788EE93E00E94263F2FE00C331207F5
:104D0000D1F682E090E00E94704590933D0F809331
:104D10003C0F899A00E21EE4889A6AE070E080E025
:104D200090E00E94E83E88986CE271E080E090E0BC
:104D30000E94E83E0150110979F78F984EE0E42E69
:104D4000F12C00E911E08E9A6AE070E080E090E0DA
:104D50000E94E83E8E986CE271E080E090E00E9454
:104D6000E83E0150110979F731E0E31AF10849F7FB
:104D700088EE93E00E94263F8F9A34EF232E3DE089
:104D8000332E210100E010E080E090E00E947045A9
:104D9000D2018D939D932D0120E9E22EFF24F394FF
:104DA0008E9A6AE070E080E090E00E94E83E8E9883
:104DB00064EF71E080E090E00E94E83EB1E0EB1A21
:104DC000F10871F70E301105A9F088EE93E00E940A
:104DD000263F0F5F1F4F0F331105B1F680E090E0C3
:104DE0000E9470459093730E8093720E8F9800E529
:104DF0001DE223C080910B018D7F80930B01E12C7C
:104E000092E3F92E80910B01886080930B016AE098
:104E100070E080E090E00E94E83E80910B01877F87
:104E200080930B016CE271E080E090E00E94E83E2C
:104E3000E1E0EE1AF10831F7C8CF8E9A6AE070E02F
:104E400080E090E00E94E83E8E986CE271E080E0A5
:104E500090E00E94E83E0150110979F788EE93E056
:104E60000E94263F80910B01826080930B0100E934
:104E700013E380910B01886080930B016AE070E07E
:104E800080E090E00E94E83E80910B01877F809354
:104E90000B016CE271E080E090E00E94E83E01507E
:104EA000110939F788EE93E00E94263F80910B01AB
:104EB0008D7F80930B010AE71DE0280181E090E0DF
:104EC0000E947045D2018D939D932D0180E9E82EBB
:104ED000FF24F39480910B01886080930B016AE0BA
:104EE00070E080E090E00E94E83E80910B01877FB7
:104EF00080930B016CE271E080E090E00E94E83E5C
:104F0000B1E0EB1AF10831F788EE93E00E94263FFA
:104F1000E2EF4E16EDE05E0689F681E090E00E9439
:104F200070459093F30D8093F20D81E090E0D301F2
:104F30006D913D012C01BFEF4B1A5B0A0E94B95ADB
:104F4000C2018B3C910599F7F10161911F0132017A
:104F5000FFEF6F1A7F0AC2010E94B95A23012BE4A6
:104F6000621621E0720681F7D8016D918D017301FF
:104F7000BFEFEB1AFB0AC3010E94B95A3701E5ECF7
:104F8000EE16E1E0FE0681F78CE394E09F938F93A9
:104F90000E9486390F900F9080E090E0CC56DF4F52
:104FA0000FB6F894DEBF0FBECDBFDF91CF911F913A
:104FB0000F91FF90EF90DF90CF90BF90AF909F90B8
:104FC0008F907F906F905F904F903F902F900895BB
:104FD0002091460F3091470F21153105B9F080918E
:104FE000560F9091570F8217930734F401969093C0
:104FF000570F8093560F0AC01092570F1092560FFA
:105000001092470F1092460F1092720D2091040DCE
:105010003091050D21153105A1F08091540F90912B
:10502000550F8217930734F401969093550F809390
:10503000540F07C01092550F1092540F81E08093C7
:10504000730D8091720D81111BC08091060D81112D
:1050500017C0809173008E7F809373001092030DB0
:105060001092470F1092460F1092050D1092040DEA
:105070001092570F1092560F1092550F1092540F16
:1050800008958091530F811107C081E08093530FE1
:1050900080910B01806205C01092530F80910B012B
:1050A0008F7D80930B018091510F9091520F9C0145
:1050B0002F5F3F4F3093520F2093510F20910402E6
:1050C000309105022817390748F41092520F1092B8
:1050D000510F809170008E7F809370000895209111
:1050E0003F0D3091400D2430310529F426E636E697
:1050F00046E65FE307C02530310539F526E636E69A
:1051000046EE5FE30E94CB6D20E030E040E852E4E1
:105110000E941D700E94336E60933E0F70933F0F8C
:105120008093400F9093410F83EB98E290938E14FD
:1051300080938D141092A00085E08093A1008DEFE4
:105140009FEF9093901480938F1480918F1490917F
:1051500090149093A5008093A400809172008160C8
:1051600080937200089580913E0F90913F0FA0911F
:10517000400FB091410F181619061A061B06F4F4D9
:105180002091500F222389F01092500F0197A1090E
:10519000B10980933E0F90933F0FA093400FB093BF
:1051A000410F80910201806406C081E08093500F1E
:1051B000809102018F7B8093020108950E94225307
:1051C00010923E0F10923F0F1092400F1092410F1D
:1051D00081E08093770D0895CF93DF93EB018431C5
:1051E000D1F028F4882361F08C30A8F437C08233E2
:1051F000E9F018F4873190F10EC0833311F10BC040
:105200008881882329F066E574E0CE010E945171FF
:1052100068E574E020C08881882329F066E574E0A1
:10522000CE010E9451716BE574E015C0888188231E
:1052300029F066E574E0CE010E9451716FE574E0DB
:105240000AC08881882329F066E574E0CE010E94B7
:10525000517163E674E0CE010E9451718091070D97
:10526000882379F067E07DE0CE010E94517182E3EE
:10527000E7E0FDE0DF011D928A95E9F7DF91CF912C
:10528000089561E573E0CE01DF91CF910C945171E7
:105290008F929F92AF92BF92CF92DF92EF92FF9246
:1052A0000F931F93CF93DF9305EE14E18EE1F80186
:1052B00011928A95E9F70E943A3A0E94B35A80E027
:1052C00090E00E94C245CFE3DDE06E877F87888B48
:1052D000998B81E090E00E94C2456A8B7B8B8C8B1E
:1052E0009D8B82E090E00E94C2456E8B7F8B888F01
:1052F000998FF801C480D580E680F780CA8EDB8E56
:10530000EC8EFD8EC084D184E284F384CE8EDF8E59
:10531000E8A2F9A204851585268537850AA31BA373
:105320002CA33DA320E030E044EB52E40E94EA6C61
:105330007B018C012A893B894C895D896E857F853B
:1053400088899989EDE68E2EEDE09E2EF9E6AF2E46
:10535000FDE0BF2EA5E6CA2EADE0DA2E0E94364350
:10536000DF91CF911F910F91FF90EF90DF90CF9041
:10537000BF90AF909F908F900895E1E0F1E0808121
:1053800080628083808180648083E2E0F1E08081BC
:105390008F7D808380818F7B808308953F9A479A99
:1053A00008959C9A9D9AA498A59A089580910401C5
:1053B000877880930401809103018877803451F4C9
:1053C00040E050E060E87FE384E00E94153367E648
:1053D00074E01BC080910301887740E050E060E8F2
:1053E0007FE371F484E00E9415336EE674E088E494
:1053F0009FE00E945C7140E050E060EE70E40CC001
:1054000084E00E94153365E774E088E49FE00E9421
:105410005C7140E050E0BA0183E00E9415330C94C7
:1054200034380F931F93CF93DF9360913F0D84E83F
:1054300093E00E94B95A6091400D85E893E00E9484
:10544000B95AC1E4DDE088E993E069918C010F5F0E
:105450001F4F0E94B95AC8010C391340B1F7C5E477
:10546000DDE08EE893E069918C010F5F1F4F0E9491
:10547000B95AC80102391340B1F7C9E4DDE082E846
:105480009CE069918C010F5F1F4F0E94B95AC801BF
:1054900006381C40B1F7DF91CF911F910F9108950D
:1054A000E6E3F4E188EE97E2918380831092200195
:1054B00085E08093210181EF9FEF93838283828136
:1054C00093819093250180932401E3E7F0E08081AC
:1054D000816080830895CF92DF92EF92FF920F93C5
:1054E0001F93CF93DF9369017A01EAE0F1E0208115
:1054F00020622083EBE0F1E020812F7D2083660F86
:10550000771F70930502609304020FE214E181E4B7
:1055100098E2F80191838083C0E7D0E088818E7F94
:105520008883E0EBF0E080818C7F8083E1EBF0E02A
:105530008081877F8083A6EBB0E08C918F7D8C93F8
:1055400088818D7F888380818460808380818C7F47
:10555000808320E034E244EF59E4C701B6010E94A1
:10556000CB6D20E034E244E75BE40E941D7020E054
:1055700030E040E85CE30E941D700E94336E20E042
:1055800031E0C901861B970BF801938382838281E6
:1055900093818093B200888181608883DF91CF916D
:1055A0001F910F91FF90EF90DF90CF900895CF93D0
:1055B000C1E0C093770D80913F0D9091400D04970D
:1055C000029700F51092770D1092420F1092430F40
:1055D0001092440F1092450F809107018F7D8093A8
:1055E0000701809108018062809308018091020187
:1055F00080628093020160E070E084EB93E46FDDF1
:10560000C093760DCF91089510923E0F10923F0FE8
:105610001092400F1092410F0E9422531092760D6B
:105620000C9422538091D31482FF08C08A988091F1
:1056300008018E7F809308015F9807C08A9A809145
:1056400008018160809308015F9ADEDF1092710D7E
:1056500008958F929F92AF92BF92CF92DF92EF9276
:10566000FF926B017C0120E030E044EB53E40E94A8
:10567000E26F18160CF47EC020E030E0A901C701EB
:10568000B6010E94C46D87FD75C080913F0D909159
:10569000400D0497029768F52091420F3091430F17
:1056A0004091440F5091450FC701B6010E94EA6C2A
:1056B0004B015C01C092420FD092430FE092440F25
:1056C000F092450F20E030E0A9010E94E26F181629
:1056D00024F4809102018F7D03C0809102018062D9
:1056E00080930201C501B4019F77F9DC1092770D18
:1056F00041C020E030E044E353E4C701B6010E941A
:10570000E26F18161CF4C12CD12C7601A70196016A
:1057100060E070E084E393E40E94EA6C20E030E013
:1057200044E353E40E94CB6D9B01AC010E94EB6CFF
:1057300020E030E040E05FE30E94EB6C6093000209
:1057400070930102809302029093030220E030E004
:1057500040EA51E40E94CB6D20E030EC4FE754E486
:105760000E941D700E94386ECB010E94D25181E0D0
:105770008093770DFF90EF90DF90CF90BF90AF9028
:105780009F908F90089580913F0D9091400D0497C8
:10579000029780F4809101018062809301018091E1
:1057A00001018064809301018091020180628093F5
:1057B0000201089580E18093A1001092A00082E090
:1057C0008093931480E29EE49093921480939114BA
:1057D0009093A7008093A60082E18093A10020E02F
:1057E00030E040EA51E46091000270910102809142
:1057F0000202909103020E94CB6D20E030EC4FE753
:1058000054E40E941D700E94386ECB010C94D2515A
:10581000CF93DF93D82FC8E05E98559AD7FF02C088
:105820005D9A01C05D9865E070E080E090E00E94C4
:10583000E83E5E9A65E070E080E090E00E94E83E1D
:105840005E98DD0F65E070E080E090E00E94E83E49
:10585000C15011F762E070E080E090E00E94E83E05
:10586000559A5D9A62E070E080E090E0DF91CF9120
:105870000C94E83E5E98559A5D9865E070E080E093
:1058800090E00E94E83E5E9A65E070E080E090E083
:105890000E94E83E559A5D9A65E070E080E090E0F5
:1058A0000C94E83ECF93559A5D9A62E070E080E0F8
:1058B00090E00E94E83E5E9A62E070E080E090E056
:1058C0000E94E83E55988BEF99B1C92FC07295FFA1
:1058D00005C08150C9F7CEDFC1E007C05E9862E025
:1058E00070E080E090E00E94E83E8C2FCF91089518
:1058F000559A5D9A5E9A65E070E080E090E00E94C3
:10590000E83E559A5D9865E070E080E090E00E9486
:10591000E83E5E9862E070E080E090E00C94E83E43
:10592000CF93DF93D82FC8E0809102018F778093C7
:105930000201809101018460809301018091020144
:10594000D7FF02C0846001C08B7F8093020165E0B5
:1059500070E080E090E00E94E83E80910201806863
:105960008093020165E070E080E090E00E94E83EF4
:10597000809102018F7780930201DD0F65E070E076
:1059800080E090E00E94E83EC15071F662E070E075
:1059900080E090E00E94E83E809101018460809365
:1059A00001018091020184608093020162E070E055
:1059B00080E090E0DF91CF910C94E83E0F931F932D
:1059C000CF93DF93C2E0D1E088818F77888301E0B5
:1059D00011E0F80180818460808388818B7F8883D7
:1059E00065E070E080E090E00E94E83E8881806899
:1059F000888365E070E080E090E00E94E83EF80176
:105A000080818460808388818460888365E070E021
:105A100080E090E0DF91CF911F910F910C94E83ED0
:105A2000CF938091010184608093010180910201F4
:105A300084608093020162E070E080E090E00E9468
:105A4000E83E8091020180688093020162E070E08C
:105A500080E090E00E94E83E809101018B7F80937E
:105A600001018BEF90910001C92FC47092FF05C016
:105A70008150C1F7A3DFC1E00BC0809102018F7795
:105A80008093020162E070E080E090E00E94E83ED6
:105A90008C2FCF9108950F931F93CF93DF9301E045
:105AA00011E0F801808184608083C2E0D1E08881C8
:105AB0008460888388818068888365E070E080E006
:105AC00090E00E94E83EF8018081846080838881B4
:105AD0008B7F888365E070E080E090E00E94E83E84
