:1000000065C5000084C5000082C5000080C50000F1
:100010007EC500007CC500007AC5000078C50000E0
:1000200076C500000C94F25972C500000C946F4D17
:100030006EC500006CC500006AC500000C94BF5975
:1000400066C500000C94033062C5000060C5000066
:100050005EC500005CC500005AC500000C948E2FE0
:1000600056C500000C94D4380C94963950C5000045
:100070004EC500004CC500004AC5000048C5000040
:1000800046C5000044C5000042C500000C94A959B3
:100090000C946C380C9468393AC5000038C50000DF
:1000A00036C5000034C500000C94923230C5000003
:1000B0002EC500002CC500002AC5000028C5000080
:1000C00026C5000024C500000C9474590C94043813
:1000D0000C943A391CC500001AC5000018C5000070
:1000E00016C500006B13171E171E79138E13A3136A
:1000F000B813171EC113171ED413171EE313ED13E5
:100100004514171E171E171EFC1316143014E61C78
:10011000F61C251DF61C291D401D2F1D391D641DB3
:100120006B1D761D811DA01DA21DA51DA71DC5242B
:10013000DD24F5240D25252546255E25D235D83527
:10014000DB35DE35E235EA35F2355F365F365F3670
:10015000FA35FD3506360F365F365F365F365F3669
:100160005F365F36173621362D3637363A36433608
:100170004C365236EC58EF58DE58E258E8582659BB
:10018000F358F758FD58015905590B590F59135990
:10019000265919591D592159084AD73B3BCE016EA2
:1001A00084BCBFFDC12F3D6C74319ABD56833DDACE
:1001B0003D00C77F11BED9E4BB4C3E916BAAAABEDD
:1001C000000000803F072C7AA5BA6CC590DA3B93FB
:1001D00065FC8BBC53F810FD3C5692834DBD879D4A
:1001E0003AB63DCBC9BF5BBE73DA0FC93F05A84C19
:1001F000CDB2D44EB93836A9020C50B991868808D0
:100200003CA6AAAA2ABE000000803F0000407A1047
:10021000F35A00A0724E18090010A5D4E80000E8B7
:100220007648170000E40B54020000CA9A3B000015
:1002300000E1F505000080969800000040420F00A4
:100240000000A08601000000102700000000E80365
:10025000000000006400000000000A000000000030
:100260000100000000002C76D888DC674F0823DFEF
:10027000C1DFAE59E1B1B796E5E3E453C63AE651C2
:10028000997696E8E6C28426EB898C9B62ED407CE9
:100290006FFCEFBC9C9F40F2BAA56FA5F490055A85
:1002A0002AF75C936B6CF9676DC11BFCE0E40D47AA
:1002B000FEF520E6B500D0ED902E030094357705CD
:1002C0000080841E080000204E0A000000C80C3385
:1002D0003333330F986E12831141EF8D2114893B14
:1002E000E65516CFFEE6DB18D1844B381BF77C1D94
:1002F000901DA4BBE424203284725E228100C9F1E7
:1003000024ECA1E53D276364696E6F7073757858BE
:100310005B00000020002300260029002C002F0095
:100320003200000100000301060109010D0A003D31
:1003300000244E005D0D0A005B302E396A2E3230EB
:100340003136303732363A005D0D0A005B544C4F7F
:100350003A005D0D0A002C005B4739323A005D0D12
:100360000A002C003A003330003238005B47005D51
:100370000D0A00205300204600205400204D380074
:10038000204D3900204D3500204D3400204D3300E4
:10039000204D3200204D3100204D300020473934AF
:1003A00000204739330020473931002047393000D9
:1003B00020473230002047323100204731390020B9
:1003C0004731380020473137002047004733382E67
:1003D000004738300047330047320047310047308C
:1003E000005B00290D0A00206D617820747261762F
:1003F000656C2C206D6D0020616363656C2C206D35
:100400006D2F7365635E3200206D617820726174B8
:10041000652C206D6D2F6D696E002C2073746570D6
:100420002F6D6D007A00790078002028003D0024AF
:10043000002028686F6D696E672070756C6C2D6F79
:1004400066662C206D6D290D0A002028686F6D6985
:100450006E67206465626F756E63652C206D7365D1
:1004600063290D0A2432373D002028686F6D696EBC
:1004700067207365656B2C206D6D2F6D696E290D7E
:100480000A2432363D002028686F6D696E67206649
:100490006565642C206D6D2F6D696E290D0A2432FF
:1004A000353D00290D0A2432343D002028686F6D47
:1004B000696E672064697220696E76657274206D5A
:1004C00061736B3A002028686F6D696E67206379ED
:1004D000636C652C20626F6F6C290D0A2432333DEA
:1004E00000202868617264206C696D6974732C2027
:1004F000626F6F6C290D0A2432323D002028736F21
:100500006674206C696D6974732C20626F6F6C293E
:100510000D0A2432313D0020287265706F727420FC
:10052000696E636865732C20626F6F6C290D0A24F5
:1005300032303D00202861726320746F6C657261F7
:100540006E63652C206D6D290D0A2431333D00202A
:10055000286A756E6374696F6E206465766961746C
:10056000696F6E2C206D6D290D0A2431323D0029F2
:100570000D0A2431313D0020287374617475732095
:100580007265706F7274206D61736B3A0020287011
:10059000726F62652070696E20696E766572742C68
:1005A00020626F6F6C290D0A2431303D0020286CC9
:1005B000696D69742070696E7320696E76657274F6
:1005C0002C20626F6F6C290D0A24363D00202873A1
:1005D00074657020656E61626C6520696E76657207
:1005E000742C20626F6F6C290D0A24353D00290D93
:1005F0000A24343D00202864697220706F727420D0
:10060000696E76657274206D61736B3A00290D0A0C
:1006100024333D0020287374657020706F7274203D
:10062000696E76657274206D61736B3A0020287371
:100630007465702069646C652064656C61792C2038
:100640006D736563290D0A24323D0020287374659B
:10065000702070756C73652C2075736563290D0AA5
:1006600024313D0024303D0024242028766965771C
:10067000204772626C2073657474696E6773290D0C
:100680000A2423202876696577202320706172610F
:100690006D6574657273290D0A2447202876696593
:1006A0007720706172736572207374617465290DAF
:1006B0000A2449202876696577206275696C642070
:1006C000696E666F290D0A244E20287669657720A9
:1006D0007374617274757020626C6F636B73290D33
:1006E0000A24783D76616C756520287361766520F3
:1006F0004772626C2073657474696E67290D0A24F1
:100700004E783D6C696E6520287361766520737440
:10071000617274757020626C6F636B290D0A2443DB
:100720002028636865636B2067636F6465206D6F65
:100730006465290D0A245820286B696C6C20616C53
:1007400061726D206C6F636B290D0A24482028723A
:10075000756E20686F6D696E67206379636C6529BB
:100760000D0A7E20286379636C652073746172744E
:10077000290D0A2120286665656420686F6C64294C
:100780000D0A3F202863757272656E742073746160
:10079000747573290D0A6374726C2D782028726544
:1007A000736574204772626C290D0A0000002100F5
:1007B000240027002A002D00300033000101000032
:1007C000040107010A016F6B0D0A000D0A00486F52
:1007D0006D696E67206661696C0050726F6265209A
:1007E0006661696C0041626F727420647572696E33
:1007F00067206379636C6500536F6674206C696D64
:1008000069740048617264206C696D697400414CC0
:1008100041524D3A20003E0D0A002C4C696D3A00C1
:100820002C52583A002C4275663A002C002C575036
:100830006F733A002C002C4D506F733A003C446F9C
:100840006F72003C436865636B003C416C61726D84
:10085000003C486F6D65003C486F6C64003C52750D
:100860006E003C49646C65005D0D0A00526573744E
:100870006F72696E672064656661756C7473005091
:10088000676D20456E6400436865636B20446F6F3D
:10089000720044697361626C656400456E61626CEC
:1008A00065640043617574696F6E3A20556E6C6FB4
:1008B000636B656400272448277C2724582720740D
:1008C0006F20756E6C6F636B005265736574207476
:1008D0006F20636F6E74696E7565005B005D0D0A55
:1008E000003A002C005B5052423A000D0A00496E5B
:1008F00076616C69642067636F64652049443A00DF
:10090000556E646566696E6564206665656420720F
:10091000617465004D6F64616C2067726F75702043
:1009200076696F6C6174696F6E00486F6D696E6790
:10093000206E6F7420656E61626C656400416C614D
:10094000726D206C6F636B004E6F742069646C6510
:1009500000454550524F4D207265616420666169C3
:100960006C2E205573696E672064656661756C74C2
:10097000730056616C7565203C2033207573656388
:100980000053657474696E672064697361626C6595
:10099000640056616C7565203C203000496E7661BC
:1009A0006C69642073746174656D656E7400426176
:1009B00064206E756D62657220666F726D61740081
:1009C000457870656374656420636F6D6D616E64F6
:1009D000206C6574746572006572726F723A2000E3
:1009E00000002200250028002B002E0031003400DA
:1009F00002010000050108010B01050505050705B9
:100A000008080808020202020A0A0808040404048A
:100A100001010101010101010303030303030303B6
:100A2000040707070C0C0C0C0C0C0C0C0202020245
:100A300006060606060606060B0B0B0B0B0B0B0B2E
:100A400001021020200808102040102040800201E0
:100A500002010804020101020408102040808040C5
:100A600020100804020180040201804020100804C4
:100A70000201080402010102040810204080010262
:100A800004081020408000000A0B02090C0D0E081B
:100A90000703040100000000000000000000000047
:100AA0000000000000000000000000000000000046
:100AB0000000121110000000000000000000000003
:100AC00000000000000000000000000011241FBE14
:100AD000CFEFD1E2DEBFCDBF00E00CBF14E0A0E05D
:100AE000B2E0E2E7F4EF00E00BBF02C007900D9226
:100AF000A439B107D9F723E1A4E9B4E001C01D92FC
:100B0000AD3EB207E1F70E94E25C0C94377A78CAF6
:100B10002F923F924F925F926F927F928F929F920D
:100B2000AF92BF92CF92DF92EF92FF920F931F93FB
:100B3000CF93DF93CDB7DEB7CA5CD1090FB6F89477
:100B4000DEBF0FBECDBFC754DF4F99838883C95B1B
:100B5000D04089E3E5E7F3E1DF011D928A95E9F7EB
:100B60008AE0EEEAF3E1A6E7B3E101900D928A95FF
:100B7000E1F7FE01E756FF4F1082C155DF4F1982A2
:100B80001882CF5AD040C655DF4F19821882CA5AF0
:100B9000D040C554DF4F1882CB5BD040CA55DF4FE1
:100BA0001882C65AD040C255DF4F1882CE5AD04064
:100BB000E859F109C256DF4FF983E883CE59D04096
:100BC0009E01235A3F4FC056DF4F39832883C05AB6
:100BD000D0401E0131E5230E311CC1010896C154DD
:100BE000DF4F99838883CF5BD040C756DF4F888122
:100BF000C959D040C754DF4FE881F981C95BD04063
:100C0000E80FF11D1081112311F40C94A2149FEB35
:100C1000910F9A3110F00C94091E8F5FC756DF4F69
:100C20008883C959D040AE014B565F4FBE0167560D
:100C30007F4FC754DF4F88819981C95BD0400E94A4
:100C40003943882311F40C940B1ECB56DF4FC88018
:100C5000D980EA80FB80C559D040C701B6010E9407
:100C60001A730E948770CF54DF4F688379838A8319
:100C70009B83C15BD040CF54DF4F68807980C15BDC
:100C8000D040B30180E090E00E94B3709B01AC01C2
:100C9000C701B6010E94396F20E030E048EC52E411
:100CA0000E946C724B015C0120E030E0A9010E94BF
:100CB000317220E030E040E05FE387FD05C0C50110
:100CC000B4010E943A6F04C0C501B4010E94396F9B
:100CD0000E9482702B011D3409F4F5C7103511F400
:100CE0000C94290F173411F00C945813C756DF4F8A
:100CF0008881C959D040C754DF4FA881B981C95BE9
:100D0000D040A80FB11DCD01BAE96B16B8E07B0643
:100D100009F403C158F4F4ED6F16F7E07F0699F07B
:100D200029E9621628E07206D1F154C53CE9631640
:100D300038E0730609F478C2ADE96A16A8E07A06CD
:100D400009F461C347C51A821982E1E0F0E0EC0FB3
:100D5000FD1FFF93EF932BE034E03F932F939F937E
:100D60008F930E940B740F900F900F900F900F9025
:100D70000F90181619060CF072C389819A8190930E
:100D8000BA0D8093B90D11E01093740D80910B0D85
:100D9000811123C50E94832910930B0D1EC58E015E
:100DA0000B5E1F4F1F930F939E01275D3F4F3F9395
:100DB0002F937E01FDE3EF0EF11CFF92EF923F9225
:100DC0002F9229E132E03F932F939F938F930E94BC
:100DD0000B740FB6F894DEBF0FBECDBF04970CF4B2
:100DE0003EC3EF961CAE1DAE1EAE1FAEEF97E5964E
:100DF0001CAE1DAE1EAE1FAEE597AB961CAE1DAE73
:100E00001EAE1FAEAB97A1961CAE1DAE1EAE1FAEA2
:100E1000A1978CE0C256DF4FA881B981CE59D0404E
:100E20001D928A95E9F7AE0145585F4F60E070E08A
:100E3000C1010E943943882309F4CFC4AE014F5841
:100E40005F4F60E070E0C7010E943943882309F4D6
:100E5000C4C4AE0149595F4F60E070E0CE0189968D
:100E60000E943943882309F4B8C4AE01435A5F4F46
:100E700060E070E0C8010E943943882309F4ADC4E2
:100E800020E030E044EB52E4E5966CAD7DAD8EADF4
:100E90009FADE5970E94396F21EE3EE245E652E4B0
:100EA0000E941A706B017C01E5966CAF7DAF8EAF2E
:100EB0009FAFE5970E941770EF968CAC9DACAEACDF
:100EC000BFACEF97A50194010E946C7269837A838D
:100ED0008B839C83C701B6010E94CF729B01AC013A
:100EE000C501B4010E946C726D837E838F839887E5
:100EF000AB968CAD9DADAEADBFADAB9789879A87F4
:100F0000AB87BC87A1962CAD3DAD4EAD5FADA19733
:100F100000E0BE016F5F7F4F58C4F1011082118263
:100F20001282138221961CAE1DAE1EAE1FAE2197FB
:100F300021E030E02C0F3D1F3F932F938E010B5E7D
:100F40001F4F1F930F93CF55DF4F3881C15AD040A9
:100F50003F93C056DF4FA881C05AD040AF9322E4E0
:100F600032E03F932F939F938F930E940B740FB6A1
:100F7000F894DEBF0FBECDBF03970CF470C2A10181
:100F800060E070E0C8010E943943882309F425C459
:100F9000AE01435C5F4F60E070E0CE0101960E94BD
:100FA0003943882309F419C49E01275D3F4FC65673
:100FB000DF4F39832883CA59D0408CE0D9011D9274
:100FC0008A95E9F760915B0D70915C0D80915D0DE4
:100FD00090915E0D0E94B57024EE38E34EE553E427
:100FE0000E941A7020914F0D3091500D4091510D7B
:100FF0005091520D0E943A6FCE55DF4F688379832E
:101000008A839B83C25AD04060915F0D7091600DBE
:101010008091610D9091620D0E94B57024EE38E3CD
:101020004EE553E40E941A702091530D3091540DF7
:101030004091550D5091560D0E943A6FCB54DF4FA1
:10104000688379838A839B83C55BD0406091630DFD
:101050007091640D8091650D9091660D0E94B57040
:1010600024EE38E34EE553E40E941A706B017C01D4
:1010700020E030E044EB52E46091570D7091580D40
:101080008091590D90915A0D0E94396F9B01AC01CE
:10109000C701B6010E943A6F7B018C016F968EAD3D
:1010A0009FAD6F978130910589F14CF5892B09F03F
:1010B000E3C120E030E044EB52E4F1016081718152
:1010C000828193810E94396FD1016D937D938D93BD
:1010D0009C931397FE01F1964F019E01235D3F4FB4
:1010E0005901DE0199966D017B018C01CB54DF4FD4
:1010F000288139814A815B81C55BD0402DC0823017
:101100009105E1F0039709F440C0B6C1F101608197
:101110007181828193819E012F5C3F4F4901DE01E5
:101120009D965D01FE01B9966F01CB54DF4F28817A
:1011300039814A815B81C55BD04016C0D1012D91B8
:101140003D914D915C91FE01F1964F01CE018D963E
:101150005C01DE0199966D01CE55DF4F6881798182
:101160008A819B81C25AD0400E949B49A401B5014B
:10117000C6010E94972E21962CAD3DAD4EAD5FADC0
:10118000219700E0B60180E021C3F101C080D18049
:10119000E280F38020E030E044EB53E4C701B60185
:1011A0000E94317218160CF418C320E030E0A90137
:1011B000C701B6010E94137087FD0FC38091410DD6
:1011C0009091420D0497029708F521968CAC9DAC46
:1011D000AEACBFAC21972091B50D3091B60D4091CA
:1011E000B70D5091B80DC701B6010E94396FC0927A
:1011F000B50DD092B60DE092B70DF092B80D1092E9
:10120000790DA50194010E94972AE7C2A7019601D2
:1012100060E070E084E393E40E94396F0E94992BB0
:1012200081E08093790DD9C29E012B5E3F4F3F93A1
:101230002F938E01075D1F4F1F930F937E01FDE3D8
:10124000EF0EF11CFF92EF923F922F922AE532E0CF
:101250003F932F939F938F930E940B740FB6F89434
:10126000DEBF0FBECDBF04970CF4F9C0EF961CAEE5
:101270001DAE1EAE1FAEEF97E5961CAE1DAE1EAEA8
:101280001FAEE597AB961CAE1DAE1EAE1FAEAB9764
:10129000A1961CAE1DAE1EAE1FAEA197AE01455865
:1012A0005F4F60E070E0C1010E943943882309F478
:1012B00094C2AE014F585F4F60E070E0C7010E94DA
:1012C0003943882309F489C2AE0149595F4F60E070
:1012D00070E0C8010E943943882309F47EC2AE0140
:1012E000435A5F4F60E070E0CE0145960E9439435B
:1012F000882309F472C26091630D7091640D80912E
:10130000650D9091660D0E94B570CE55DF4F6883D4
:1013100079838A839B83C25AD04060915F0D70911C
:10132000600D8091610D9091620D0E94B570CB545B
:10133000DF4F688379838A839B83C55BD04060914C
:101340005B0D70915C0D80915D0D90915E0D0E9422
:10135000B570DE0119964D01FE0135965F019E01C3
:101360002F5F3F4F6901CE55DF4FE880F9800A813A
:101370001B81C25AD040CB54DF4F288139814A812A
:101380005B81C55BD0400E947F4AA401B501C601C4
:101390000E94972EEF962CAD3DAD4EAD5FADEF9711
:1013A00069817A818B819C810E943A6F69837A83FB
:1013B0008B839C83E5962CAD3DAD4EAD5FADE5973F
:1013C0006D817E818F8198850E943A6F6D837E83C7
:1013D0008F839887AB962CAD3DAD4EAD5FADAB978F
:1013E00069857A858B859C850E943A6F69877A87A3
:1013F0008B879C87A1962CAD3DAD4EAD5FADA1977F
:1014000000E0B601E2C1CF55DF4F3881C15AD0406C
:101410003F93C056DF4FA881C05AD040AF938E0192
:1014200009591F4F1F930F937E01B1E7EB0EF11C7B
:10143000FF92EF926E01EBE7CE0ED11CDF92CF92BE
:1014400029E132E03F932F939F938F930E940B7477
:101450000FB6F894DEBF0FBECDBF049784F41F9281
:1014600081E08F938DE092E09F938F930E94923D55
:101470000F900F900F900F9082E390E0B0C1CF5685
:10148000DF4F188219821A821B82C159D040C3577C
:10149000DF4F188219821A821B82CD58D040C7575D
:1014A000DF4F188219821A821B82C958D040CB574D
:1014B000DF4F188219821A821B82C558D0408CE0F7
:1014C000D1011D928A95E9F7AE014F565F4F60E05A
:1014D00070E0C6010E943943882309F47EC1AE0141
:1014E00043575F4F60E070E0C7010E943943882393
:1014F00009F473C1AE0147575F4F60E070E0C80167
:101500000E943943882309F468C1AE014B575F4FED
:1015100060E070E0CE01835A9F4F0E9439438823D8
:1015200009F45BC16091630D7091640D8091650D4C
:101530009091660D0E94B570CB54DF4F688379831C
:101540008A839B83C55BD04020E030E044EB52E4CB
:101550006091570D7091580D8091590D90915A0DD1
:101560000E94396F6B017C0124EE38E34EE553E4B1
:10157000CB54DF4F688179818A819B81C55BD040E4
:101580000E941A709B01AC01C701B6010E943A6F1C
:10159000CD53DF4F688379838A839B83C35CD040BC
:1015A00060915F0D7091600D8091610D9091620D61
:1015B0000E94B570C953DF4F688379838A839B8308
:1015C000C75CD04060915B0D70915C0D80915D0DAA
:1015D00090915E0D0E94B570C154DF4F8880998054
:1015E000CF5BD040F1013496CE55DF4FF983E883CD
:1015F000C25AD0405F016101CB54DF4FE880F980CF
:101600000A811B81C55BD040C953DF4F28813981D6
:101610004A815B81C75CD0400E947F4AC154DF4F42
:1016200048815981CF5BD040CE55DF4F68817981A9
:10163000C25AD040C1010E94972ED1016D917D9177
:101640008D919C9113971496CD90DD90ED90FC9028
:1016500017979B01AC010E946C724B015C01A701C2
:101660009601C701B6010E946C729B01AC01C501D5
:10167000B4010E943A6F0E94D972CF56DF4F288181
:1016800039814A815B81C159D0400E943A6F6B0118
:101690007C01CF56DF4F688379838A839B83C1594E
:1016A000D040C357DF4F288139814A815B81CD58B3
:1016B000D040CD53DF4F688179818A819B81C35CA3
:1016C000D0400E943A6F21EE3EE245E652E40E948D
:1016D0001A70CE55DF4F688379838A839B83C25A01
:1016E000D0400E9417709B01AC01C701B6010E9457
:1016F0006C724B015C01F10160837183828393837F
:10170000CE55DF4F688179818A819B81C25AD04052
:101710000E94CF729B01AC01C701B6010E946C729E
:10172000D10114966D937D938D939C931797C75712
:10173000DF4F288139814A815B81C958D040189692
:101740006D917D918D919C911B970E943A6FF10153
:1017500060877187828793878E01035C1F4F24E027
:1017600045E0C501B4010E94BE6CD10114966D9193
:101770007D918D919C9117970451110924E045E0CA
:101780000E94BE6CF101608571858285938504514C
:10179000110924E045E00E94BE6CCF56DF4F6881FE
:1017A00079818A819B81C159D0400451110924E07B
:1017B00045E00E94BE6CCB57DF4F288139814A81BA
:1017C0005B81C558D04000E0B10181E00E94244413
:1017D00090E005C081E090E002C080E090E09C01D4
:1017E000215031092230310510F00C94641EF8E2CA
:1017F0006F16710409F414C280F534E163167104A4
:1018000098F481E16816710408F061C194E06916EA
:10181000710409F474C008F4E3C0BAE06B167104F3
:1018200009F45EC00C94171EECE16E16710409F405
:1018300057C038F426E16216710408F4A2C10C9472
:10184000171E3EE16316710409F44AC086E2681669
:10185000710409F4C5C00C94171E9DE36916710448
:1018600009F4D3C110F5B5E36B16710409F447C050
:1018700060F4FBE26F16710409F495C121E362166E
:10188000710409F490C10C94171E3CE363167104B3
:1018900010F00C94171ECF54DF4F8881C15BD040ED
:1018A000865380937C13A9E0AAC18CE56816710465
:1018B00060F49AE56916710408F01FC1A0E56A1684
:1018C000710409F49BC00C94171EBCE56B167104DF
:1018D00039F0EFE56E16710408F43CC10C94171E44
:1018E0004114510411F00C942B1EC255DF4FF881A6
:1018F000CE5AD040FF2309F445C00C940D1E2CE1B4
:101900006216710491F148F484E06816710479F06C
:101910009AE069167104E1F08AC1AEE16A167104B9
:10192000D9F1B5E36B16710409F456C080C181E0AA
:1019300054C0FFE16F16710408F042C02AE062163D
:10194000710441F4E1E0C255DF4FE883CE5AD04044
:1019500082E043C03CE16316710409F078C1F1E014
:10196000C255DF4FF883CE5AD0404114510441F0A4
:101970002AE04216510411F00C94171E84E010C0A6
:1019800083E00EC0EEE16E16710499F631E0C255A7
:10199000DF4F3883CE5AD0404114510449F485E0DA
:1019A00080937513CE55DF4F1882C25AD0405AC16A
:1019B0008AE04816510411F00C94171E86E0F0CF0F
:1019C00085E36816710411F00C94401E91E0C25535
:1019D000DF4F9883CE5AD04087E08093751327C19C
:1019E000C255DF4FE881CE5AD040E1110C940D1E54
:1019F000F2E0C255DF4FF883CE5AD04022E06216A3
:101A0000710419F158F461147104D9F06A946728CB
:101A100009F013C181E0809376130FC196E2691635
:101A20007104C1F0A0E56A16710409F44BC0B3E07B
:101A30006B16710409F001C183E08093761331E0E5
:101A40009AC010927613E1E0ECC082E080937613A6
:101A500021E088C08EE14816510401F180F4A4E130
:101A60004A16510411F00C94171E84E080937613EB
:101A7000F1E0CE55DF4FF883C25AD040F3C0B8E250
:101A80004B165104A9F0E2E34E16510411F00C94E8
:101A9000171E87E08093761381E039C085E080933C
:101AA000761321E0CE55DF4F2883C25AD040DAC0EA
:101AB00086E08093761331E0CE55DF4F3883C25AEB
:101AC000D040D0C088E08093761391E062C0A2E15C
:101AD0006A16710441F0B3E16B16710449F010927B
:101AE0007A13E2E09EC081E080937A13F2E0A6C010
:101AF00082E080937A1322E035C041145104B9F496
:101B00003AE56316710449F41092791383E0CE55D7
:101B1000DF4F8883C25AD040A5C081E080937913FB
:101B200093E0CE55DF4F9883C25AD0409BC0AAE0C5
:101B30004A16510411F00C94171EBAE56B16710485
:101B400011F40C94171EE4E0CE55DF4FE883C25A1F
:101B5000D04088C0FDE56F16710451F481E0809398
:101B6000771325E0CE55DF4F2883C25AD0406BC093
:101B70001092771335E0CE55DF4F3883C25AD040EC
:101B800062C084E16816710451F481E08093781397
:101B900096E0CE55DF4F9883C25AD04054C0109281
:101BA0007813A6E02CC0C255DF4FB881CE5AD04082
:101BB000B1110C940D1EE1E36E16710451F41092F4
:101BC0007B13F8E0CE55DF4FF883C25AD04023E0B4
:101BD00044C03AE04316510411F00C94171E81E002
:101BE00080937B1388E0CE55DF4F8883C25AD04064
:101BF00093E0C255DF4F9883CE5AD04033C0CE55C4
:101C0000DF4FA883C25AD0401EC0452811F00C9463
:101C1000171EBAE0CE55DF4FB883C25AD04022C05B
:101C2000E7E0CE55DF4FE883C25AD0400CC0CE5516
:101C3000DF4F1882C25AD04006C0F1E0CE55DF4FC8
:101C4000F883C25AD040452869F00C943E1ECE5508
:101C5000DF4F1882C25AD04021E0C255DF4F28839F
:101C6000CE5AD040C655DF4FE881F981CA5AD040DC
:101C7000CF01A0E0B0E0CE55DF4F0880C25AD0407F
:101C800004C0B695A795979587950A94D2F780FFDB
:101C900003C085E10C94641E81E090E0A0E0B0E018
:101CA000CE55DF4F0880C25AD04004C0880F991F1C
:101CB000AA1FBB1F0A94D2F7C655DF4F288139816E
:101CC000CA5AD040EBC4672B11F00C943E1EC75685
:101CD000DF4F8881C959D040C754DF4F688179816F
:101CE000C95BD040680F711DAE0147565F4FCF549E
:101CF000DF4F88819981C15BD0400E947E1E9C018C
:101D0000215031092230310510F00C94641E36E068
:101D10006316710428F483E06816710490F026C0FD
:101D200098E06916710410F40C94171EAAE06A1664
:101D3000710408F440C0BEE16B16710411F00C94FC
:101D4000171EE2E06E16710461F0FEE16F16710479
:101D500041F0672809F046C081E080937D132BE0B5
:101D600032C082E080937D133BE036C084E0681689
:101D7000710471F095E069167104A1F081E080931F
:101D80007F13ACE0CE55DF4FA883C25AD04030C09D
:101D900082E080937F13BCE0CE55DF4FB883C25AF8
:101DA000D04026C010927F13ECE0CE55DF4FE88381
:101DB000C25AD0401DC0F9E06F16710451F082E0A4
:101DC00080937E132DE0CE55DF4F2883C25AD0403A
:101DD0000FC010927E133DE0CE55DF4F3883C25ABC
:101DE000D04006C08BE0CE55DF4F8883C25AD0402A
:101DF000C655DF4FE881F981CA5AD040CF01A0E033
:101E0000B0E0CE55DF4F0880C25AD04004C0B6952E
:101E1000A795979587950A94D2F780FD3ACF81E0F0
:101E200090E0A0E0B0E0CE55DF4F0880C25AD0402D
:101E300004C0880F991FAA1FBB1F0A94D2F7E82B72
:101E4000F92BC655DF4FF983E883CA5AD0400C946A
:101E5000F505672B11F00C943E1EC756DF4F8881A5
:101E6000C959D040C754DF4FE881F981C95BD040E0
:101E7000E80FF11D27EB621628E0720609F4F4C2A0
:101E800008F06AC18CE9681688E0780609F4A5C1F3
:101E900008F076C0A9E96A16A8E07A0609F497C1A5
:101EA00008F05FC0E8E96E16E8E07E0609F0C5C3F9
:101EB00084E16E0199E2C90ED11CD601E82F1D9272
:101EC000EA95E9F77E01F5E1EF0EF11CD701E82F65
:101ED0001D92EA95E9F7C256DF4FA881B981CE5924
:101EE000D0401D928A95E9F780E090E00E94464C30
:101EF000CF54DF4F688379838A839B83C15BD04053
:101F000081E090E00E94464C2B013C0182E090E091
:101F10000E94464C4B015C01860124E045E0CF5411
:101F2000DF4F688179818A819B81C15BD0400E94AB
:101F3000BE6C870124E045E0C301B2010E94BE6C83
:101F40000451110924E045E0C501B4010E94BE6CB2
:101F5000FF92EF92DF92CF921F930F9383E892E06C
:101F60004AC3FAE96F16F8E07F0609F433C12BE99A
:101F7000621628E0720609F060C384EA92E02FC17D
:101F80003EE9631638E0730609F433C108F42CC146
:101F90009CEA691698E0790609F4BAC1ADEA6A16B6
:101FA000A8E07A0609F049C3A1961CAE1DAE1EAE8C
:101FB0001FAEA197F1011082118212821382219625
:101FC0001CAE1DAE1EAE1FAE219784E19E01275DA3
:101FD0003F4FC656DF4F39832883CA59D040D901B5
:101FE000E82F1D92EA95E9F724513109C456DF4FD5
:101FF00039832883CC59D040D901E82F1D92EA9526
:10200000E9F7C256DF4FA881B981CE59D0401D9261
:102010008A95E9F780E090E00E94464CCF54DF4F6C
:10202000688379838A839B83C15BD04081E090E0A1
:102030000E94464CCB54DF4F688379838A839B830D
:10204000C55BD04082E090E00E94464C20E030E04A
:1020500044EB52E40E94396F2B013C01FE01FD96D6
:102060004F0151019E01235A3F4F69017B018C01B1
:10207000CB54DF4F288139814A815B81C55BD040D9
:10208000CF54DF4F688179818A819B81C15BD040C9
:102090000E949B49A401B101C6010E94972EA196FE
:1020A0006CAD7DAD8EAD9FADA197D101CD90DD9092
:1020B000ED90FC909B01AC010E946C724B015C01A5
:1020C000A7019601C701B6010E946C729B01AC0189
:1020D000C501B4010E943A6F0E94D9728E01075D5A
:1020E0001F4F24E045E00E94BE6C20E030E044EB4E
:1020F00052E4C301B2010E943A6F0451110924E075
:1021000045E00E94BE6C21966CAD7DAD8EAD9FAD5D
:1021100021970451110924E045E00E94BE6C1F93F1
:102120000F93C356DF4FF881CD59D040FF93C4566B
:10213000DF4F2881CC59D0402F93C556DF4F3881CF
:10214000CB59D0403F93C656DF4F8881CA59D04003
:102150008F9386EC92E04FC2B0EC6B16B8E07B0632
:1021600009F4AEC1D0F439EB631638E0730609F414
:1021700092C108F485C19AEB691698E0790609F4D2
:1021800092C1ABEB6A16A8E07A0609F056C28091BC
:10219000020185FB882780F991C1B2EC6B16B8E08B
:1021A0007B0609F4FEC108F4CDC133EC631638E0B8
:1021B000730609F408C280E6681689E0780609F01B
:1021C0003CC28091420D8F938091410D22C281E9E2
:1021D00092E005C08BEB9DE002C08BEA92E09F93FA
:1021E0008F938FE992E018C284E994E09F938F93D4
:1021F0008CC080818E3409F0C9C1818180538430C4
:1022000008F0C4C194E16E013DE3C30ED11CD601B8
:10221000E92F1D92EA95E9F77E01F9E2EF0EF11C34
:10222000D701E92F1D92EA95E9F75E01F5E1AF0EBE
:10223000B11CD501E92F1D92EA95E9F7C256DF4F8F
:10224000A881B981CE59D0401D929A95E9F7823084
:10225000E1F0833031F1813061F082E090E00E9462
:10226000464C850124E045E00E94BE6CBF92AF92CF
:102270004CC080E090E00E94464C860124E045E09E
:102280000E94BE6CDF92CF9240C081E090E00E943D
:10229000464C870124E045E00E94BE6CFF92EF921D
:1022A00034C08091410D9091420D0497029748F4FB
:1022B0006091B50D7091B60D8091B70D9091B80DEC
:1022C0001BC089E30E945559BC01990F880B990BDB
:1022D0000E94B57020E030E044EC52E40E94396F77
:1022E00020E030E045EB53E40E941A7020E030E03B
:1022F00044E353E40E946C728E010F5F1F4F24E091
:1023000045E00E94BE6C1F930F9382EB92E084C164
:10231000A1961CAE1DAE1EAE1FAEA197D1011D929F
:102320001D921D921C92139721961CAE1DAE1EAEDF
:102330001FAE219784E1FE01B996C656DF4FF9839F
:10234000E883CA59D040282F11922A95E9F7DE0177
:102350005596C456DF4FB983A883CC59D040E82F97
:102360001D92EA95E9F7C256DF4FA881B981CE598F
:10237000D0401D928A95E9F780E090E00E94464C9B
:102380002B013C0181E090E00E94464CCF54DF4F8E
:10239000688379838A839B83C15BD04082E090E02D
:1023A0000E94464C20E030E044EB52E40E94396F3A
:1023B000FE01FD964F0151019E01235A3F4F6901D5
:1023C0007B018C01CF54DF4F288139814A815B81A9
:1023D000C15BD040C301B2010E949B49A401B1017D
:1023E000C6010E94972EA1966CAD7DAD8EAD9FADBE
:1023F000A1978E01075D1F4F24E045E00E94BE6C4F
:10240000D1016D917D918D919C910451110924E030
:1024100045E00E94BE6C21966CAD7DAD8EAD9FAD4A
:1024200021970451110924E045E00E94BE6C1F93DE
:102430000F93C356DF4FF881CD59D040FF93C45658
:10244000DF4F2881CC59D0402F93C556DF4F3881BC
:10245000CB59D0403F93C656DF4F8881CA59D040F0
:102460008F9388EB92E0C7C0A49B11C08FE30E94BA
:1024700055598A30910558F08734910530F009C0DC
:10248000479905C00898009904C082E017C080E011
:1024900015C081E013C082B386958695869591E03C
:1024A000892781700BC08BE30E94555921E0853646
:1024B000910508F420E01F922F93ACC01F92A9C091
:1024C00021E030E02C0F3D1F3F932F9384ED92E0ED
:1024D0009F938F93FF93EF930E940B740F900F9035
:1024E0000F900F900F900F90181619060CF041C026
:1024F00029813A812634310508F048C0F901EA57AC
:10250000F54F8491F901E05CF54F1491F901E65023
:10251000F64F0491002391F081110E94D158E02FD1
:10252000F0E0EE0FFF1FEE5EFC4FA591B491EC9131
:102530001E2381E090E021F480E002C080E090E082
:102540009F9367C081E090E08C0F9D1F9F938F93B6
:1025500084ED92E09F938F93FF93EF930E940B740F
:102560000F900F900F900F900F900F901816190664
:1025700084F01F9281E08F938DE092E09F938F9380
:102580000E94923D0F900F900F900F9082E390E089
:1025900056C089819A8180319105C0F70E945559B2
:1025A000CFCF8091810D8F938091800D8F938091FB
:1025B0007F0D8F9380917E0D8F9380917D0D8F93F2
:1025C00080917C0D15C080E090E00E94F44B182FA4
:1025D000092F81E090E00E94F44BF82EE92E82E072
:1025E00090E00E94F44BEF92FF920F931F939F9302
:1025F0008F9388ED92E09F938F938FE09DE09F9360
:102600008F930E94DD730FB6F894DEBF0FBECDBF6F
:1026100011C08F9386E793E09F938F938FE09DE0A7
:102620009F938F930E94DD730F900F900F900F90E8
:102630000F900F9080E090E002C081E090E09C015C
:10264000215031092230310510F00C94641EC6551A
:10265000DF4F28813981CA5AD040C901A0E0B0E0DB
:10266000CE55DF4F0880C25AD04004C0B695A7951A
:10267000979587950A94D2F780FD0BCB81E090E087
:10268000A0E0B0E0CE55DF4F0880C25AD04004C071
:10269000880F991FAA1FBB1F0A94D2F7282B392B2A
:1026A000C655DF4F39832883CA5AD0400C94F505AC
:1026B000812F110F990BAA0BBB0BFC01E654F109FA
:1026C000E531F10510F00C94171E8827EE58FF4FE6
:1026D0008F4F0C94AA73C0928013D0928113E09212
:1026E0008213F0928313CE55DF4F1882C25AD04026
:1026F000D2C0C0928413D0928513E0928613F092D8
:102700008713C554DF4F3881CB5BD0403160C5544F
:10271000DF4F3883CB5BD04081E04FC0C09288133D
:10272000D0928913E0928A13F0928B13C554DF4F35
:102730009881CB5BD0409260C554DF4F9883CB5BD0
:10274000D040A2E053C0C0928C13D0928D13E0927F
:102750008E13F0928F13C554DF4FB881CB5BD040FE
:10276000B460C554DF4FB883CB5BD040E3E058C0C2
:10277000CF54DF4FF881C15BD040F093901324E039
:1027800069C0C701B6010E94827060939113709373
:102790009213809393139093941335E0CE55DF4FAB
:1027A0003883C25AD04077C0C0929513D092961306
:1027B000E0929713F092981386E0CE55DF4F88830E
:1027C000C25AD04068C0C0929913D0929A13E09236
:1027D0009B13F0929C1397E059C0C0929D13D09226
:1027E0009E13E0929F13F092A013A8E0CE55DF4F06
:1027F000A883C25AD0404FC0C092A213D092A31354
:10280000E092A413F092A513CA55DF4FB881C65ABF
:10281000D040B160CA55DF4FB883C65AD040EAE015
:10282000CE55DF4FE883C25AD04035C0C092A613C0
:10283000D092A713E092A813F092A913CA55DF4FC4
:10284000F881C65AD040F260CA55DF4FF883C65AA5
:10285000D0402BE0CE55DF4F2883C25AD0401BC05A
:10286000C092AA13D092AB13E092AC13F092AD13C6
:10287000CA55DF4F3881C65AD0403460CA55DF4F41
:102880003883C65AD0408CE098CF99E0CE55DF4FC0
:102890009883C25AD040CE55DF4FA881C25AD0404B
:1028A0000A2FC155DF4FE881F981CF5AD040CF01BF
:1028B000A0E0B0E0CE55DF4F0880C25AD04004C03F
:1028C000B695A795979587950A94D2F780FF02C091
:1028D0000C940F1E81E693E0A0E0B0E0CE55DF4FF0
:1028E0000880C25AD04004C0B695A79597958795A1
:1028F0000A94D2F780FF0BC020E030E0A901C701A5
:10290000B6010E94137087FF02C00C94111E81E073
:1029100090E0A0E0B0E004C0880F991FAA1FBB1F81
:102920000A95D2F7C155DF4F28813981CF5AD0405F
:10293000282B392BC155DF4F39832883CF5AD040FC
:102940000C94F505CA55DF4F3881C65AD040332361
:1029500069F0C255DF4F8881CE5AD040811106C040
:1029600092E0C255DF4F9883CE5AD040C155DF4F19
:10297000A881CF5AD040A5FF0FC0809191139091AC
:102980009213A0919313B091941380389649A8495B
:10299000B10514F00C94131E80917713813091F4DB
:1029A000C255DF4FF881CE5AD040F23009F040C016
:1029B000C155DF4F2881CF5AD04020FD02C00C9472
:1029C0001D1E36C08091AF13811132C0C155DF4F3B
:1029D0003881CF5AD04030FF1BC0809178138130AE
:1029E00039F523E333E34BEC51E4609180137091AC
:1029F000811380918213909183130E946C72609373
:102A0000801370938113809382139093831310C06B
:102A10008091BC139091BD13A091BE13B091BF13D0
:102A20008093801390938113A0938213B0938313A8
:102A3000C155DF4F88819981CF5AD04090FD10C099
:102A40008091B8139091B913A091BA13B091BB13B0
:102A500080939D1390939E13A0939F13B093A01304
:102A6000809175138130B9F4C155DF4F9881CF5AE9
:102A7000D04096FD03C08CE10C94641EC155DF4F1D
:102A8000A881B981CF5AD040AF7BC155DF4FB98300
:102A9000A883CF5AD04080917A13882331F18130B6
:102AA00091F4B1E0CF54DF4FB883C15BD040C7543D
:102AB000DF4F1882C95BD040E2E0CE55DF4FE8839C
:102AC000C25AD04023C0CF54DF4F1882C15BD040E0
:102AD000F2E0C754DF4FF883C95BD04021E0CE5508
:102AE000DF4F2883C25AD04011C032E0CF54DF4FAD
:102AF0003883C15BD04081E0C754DF4F8883C95B16
:102B0000D040CE55DF4F1882C25AD0408091781302
:102B1000813049F0C255DF4F9881CE5AD040933072
:102B200009F044C036C0A5E7EA2EA3E1FA2E00E082
:102B300010E0CA55DF4FA881C65AD0408A2E912C8A
:102B4000A12CB12CD501C401002E04C0B695A795C7
:102B5000979587950A94D2F780FF12C023E333E359
:102B60004BEC51E4F70165A576A587A590A90E94D5
:102B70006C72D7019D966D937D938D939C93D097A6
:102B80000F5F1F4FB4E0EB0EF11C03301105D1F6BF
:102B9000C1CF80917B13813049F4CA55DF4FE88162
:102BA000C65AD040E43011F00C94151E8CE0E1EDD3
:102BB000F3E1DE01559601900D928A95E1F7C65535
:102BC000DF4F28813981CA5AD04031FD08C0809139
:102BD00075138230C9F0883009F4EBC05AC1809176
:102BE0007C13873018F08DE10C94641E9091B4131F
:102BF000891769F3BE016B5E7F4F0E946B36882395
:102C000011F40C94291EE3CFCA55DF4F3881C65A00
:102C1000D040311103C08AE10C94641EC155DF4FCE
:102C200088819981CF5AD04080759927892B09F4E2
:102C300022CF609195137091961380919713909184
:102C400098130E941A730E948770673060F6809113
:102C50009013843151F0823009F0E9C7C155DF4F3C
:102C60008881CF5AD04087FDE2C7C155DF4FA88188
:102C7000B981CF5AD040AF7AC155DF4FB983A8830D
:102C8000CF5AD040662321F022242A94260E02C077
:102C900020907C13BE016F5F7F4F822D0E946B36A8
:102CA000882309F4D6C7309090138090E913909050
:102CB000EA13A090EB13B090EC13F5E7CF2EF3E1FD
:102CC000DF2E8E010F5F1F4FEEEAF3E1C655DF4F97
:102CD000F983E883CA5AD040E12CF12CCA55DF4F62
:102CE000F881C65AD0404F2E512C612C712CD30143
:102CF000C2010E2C04C0B695A795979587950A94A6
:102D0000D2F780FF3BC024E132122EC0C655DF4F00
:102D1000A881B981CA5AD0409F962D913D914D917D
:102D20005C91D29757966D917D918D919C915A9718
:102D30000E94396FF60125A536A547A550A90E9426
:102D4000396FD8016D937D938D939C931397B2E067
:102D5000EB1214C0A50194010E94396FF801608341
:102D60007183828393830AC0F60185A596A5A7A5E2
:102D7000B0A9F80180839183A283B383FFEFEF1A98
:102D8000FF0A24E0C20ED11C0C5F1F4FC655DF4F57
:102D900088819981CA5AD0400496C655DF4F9983DD
:102DA0008883CA5AD04093E0E916F10409F09FCF16
:102DB0009EC1CA55DF4FA881C65AD040AA2309F444
:102DC0002ACF8090E9139090EA13A090EB13B09073
:102DD000EC13EEEACE2EE3E1DE2E1E01B5E12B0E62
:102DE000311C05E713E1E12CF12C4A2E512C612C0A
:102DF000712CD301C2010E2C04C0B695A7959795EE
:102E000087950A94D2F780FF29C0F1012081318192
:102E100042815381D60157966D917D918D919C9100
:102E20005A970E94396FF80125A536A547A550A9E4
:102E30000E94396FD8019D966D937D938D939C93DD
:102E4000D097B2E0EB1214C0A50194010E94396F33
:102E5000F80165A776A787A790AB0AC0F60187A5FA
:102E600090A9A1A9B2A9F80185A796A7A7A7B0AB79
:102E7000FFEFEF1AFF0A24E0C20ED11C34E0230E4C
:102E8000311C0C5F1F4F83E0E816F10409F0B1CF4D
:102E90002DC1C255DF4F9881CE5AD040933009F4EE
:102EA000F1C0CA55DF4FA881C65AD040AA2309F401
:102EB000E9C08091670D9091680DA091690DB09166
:102EC0006A0D89839A83AB83BC8380916B0D90914B
:102ED0006C0DA0916D0DB0916E0D8D839E83AF83AF
:102EE000B88780916F0D9091700DA091710DB09188
:102EF000720D89879A87AB87BC87AE01475F5F4FAA
:102F0000BE016B5F7F4FCE0101960E94972EB0915C
:102F10007513CB54DF4FB883C55BD040E091791374
:102F2000C154DF4FE883CF5BD0408090E91390908D
:102F3000EA13A090EB13B090EC139E012F5F3F4F6C
:102F4000C655DF4F39832883CA5AD04005E713E1BD
:102F50007EEAC72E73E1D72E1E0135E1230E311C08
:102F6000E12CF12CCA55DF4F8881C65AD040482E3B
:102F7000512C612C712CD301C2010E2C04C0B695CA
:102F8000A795979587950A94D2F780FD10C0C655EE
:102F9000DF4FE881F981CA5AD04080819181A281B6
:102FA000B381F80185A796A7A7A7B0AB4DC0CB54B6
:102FB000DF4FF881C55BD040F73009F445C0C154FC
:102FC000DF4F2881CF5BD04021112BC0D6019F96C7
:102FD0002D913D914D915C91D297F101608171816C
:102FE000828193810E943A6FD8019D962D913D91E7
:102FF0004D915C91D0970E943A6FF80165A776A732
:1030000087A790ABF2E0EF121FC0A50194010E94C8
:103010003A6FD8019D966D937D938D939C93D09735
:1030200013C0F6012789308D418D528DD8019D96B0
:103030006D917D918D919C91D0970E943A6FF8018E
:1030400065A776A787A790ABFFEFEF1AFF0AC655D3
:10305000DF4F28813981CA5AD0402C5F3F4FC65577
:10306000DF4F39832883CA5AD0400C5F1F4F34E0AA
:10307000C30ED11C84E0280E311C93E0E916F10444
:1030800009F079CF809175138530A9F0873049F127
:10309000833061F5CA55DF4FA881C65AD040A111CF
:1030A00005C0C255DF4F1882CE5AD040BE016F5FB7
:1030B0007F4F86E010C0CA55DF4FB881C65AD04056
:1030C000B11105C0C255DF4F1882CE5AD040BE01A3
:1030D0006F5F7F4F87E00E946B36882309F4B9C584
:1030E00005C080917613823008F0A3C5212C309062
:1030F0007613E8E03E1211C0CA55DF4FF881C65A78
:10310000D040FF2309F405C3C255DF4F2881CE5AB2
:10311000D040213009F08FC511C3C255DF4F38812F
:10312000CE5AD040323009F0F4C2311009C0CA552D
:10313000DF4F8881C65AD040882309F4F1C2FEC20D
:1031400020E030E0A901609180137091811380919B
:103150008213909183130E941370882309F46DC524
:1031600093E0931538F0A2E03A1690F4B1E03B16E4
:1031700031F0E4C2E7E0E31508F0BEC2DFC2CA5591
:10318000DF4FF881C65AD040FF2309F4C9C2D6C226
:10319000CA55DF4F2881C65AD040222309F43BCDBF
:1031A000CE55DF4F9881C25AD040892F90E0C65546
:1031B000DF4F99838883CA5AD040C754DF4FB88104
:1031C000C95BD040AB2FB0E0CB54DF4FB983A883AD
:1031D000C55BD04081E090E0A0E0B0E06C017D01F3
:1031E000CE55DF4F0880C25AD04004C0CC0CDD1C45
:1031F000EE1CFF1C0A94D2F7C754DF4F0880C95B4E
:10320000D04004C0880F991FAA1FBB1F0A94D2F791
:10321000C82AD92AEA2AFB2A822F90E0A0E0B0E04F
:103220008C219D21AE21BF21892B8A2B8B2B09F468
:1032300006C5C655DF4F88819981CA5AD040880F8C
:10324000991F880F991FFC01EB58FC4EDC01A25519
:10325000BC4E57962D913D914D915C915A9765A525
:1032600076A587A590A90E94396F4B015C01CB54CC
:10327000DF4F88819981C55BD040880F991F880FE7
:10328000991FFC01EB58FC4EDC01A255BC4E579631
:103290002D913D914D915C915A9765A576A587A595
:1032A00090A90E94396FCA55DF4F688379838A835A
:1032B0009B83C65AD040C155DF4F08811981CF5A30
:1032C000D04000781127C155DF4FE881CF5AD04058
:1032D000E7FF15C1C155DF4F28813981CF5AD04052
:1032E0002F77C155DF4F39832883CF5AD0400E94B2
:1032F0005869882311F081E2E7C480917813813006
:10330000B1F423E333E34BEC51E4609199137091F2
:103310009A1380919B1390919C130E946C726093FE
:10332000991370939A1380939B1390939C134090DE
:10333000991350909A1360909B1370909C13A50161
:103340009401C501B4010E946C72C554DF4F6883BB
:1033500079838A839B83CB5BD040CA55DF4F28811A
:1033600039814A815B81C65AD040CA01B9010E94A5
:103370006C72C154DF4F688379838A839B83CF5BF0
:10338000D04020E030E040E850E4C301B2010E94A8
:103390006C72A30192010E946C72C554DF4F2881A8
:1033A00039814A815B81CB5BD0400E94396FC15427
:1033B000DF4F288139814A815B81CF5BD0400E94F9
:1033C000396F6B017C0120E030E0A9010E9413708D
:1033D00087FD37C4C701B6010E94D9726B017C0119
:1033E000C154DF4F288139814A815B81CF5BD04056
:1033F000C554DF4F688179818A819B81CB5BD04046
:103400000E943A6F0E94D9729B01AC01C701B601BC
:1034100090580E941A706B017C0133E0331204C093
:10342000F7FAF094F7F8F09420E030E0A901C30136
:10343000B2010E94137087FF0FC0F7FAF094F7F8FB
:10344000F094D301C201B0588093991390939A13CA
:10345000A0939B13B0939C13C655DF4F088119812D
:10346000CA5AD040000F111F000F111F07581C4EE1
:10347000CA55DF4F288139814A815B81C65AD040C5
:10348000C701B6010E946C729B01AC01C501B40179
:103490000E94396F20E030E040E05FE30E946C72F0
:1034A000D8011B966D937D938D939C931E97CB545F
:1034B000DF4F08811981C55BD040000F111F000F3D
:1034C000111F07581C4EA5019401C701B6010E94A7
:1034D0006C72CA55DF4F288139814A815B81C65A97
:1034E000D0400E943A6F20E030E040E05FE30E946D
:1034F0006C72F80163877487858796871FC1C554EE
:10350000DF4FF881CB5BD0404F2E512C612C712CBA
:10351000C420D520E620F720CD28CE28CF2809F4D6
:1035200092C3C155DF4F28813981CF5AD040217FC6
:10353000C155DF4F39832883CF5AD040809178130B
:10354000813009F491C0C655DF4FE881F981CA5A2C
:10355000D040EE0FFF1FEE0FFF1FE758FC4EC38455
:10356000D484E584F684A7019601C501B4010E94C4
:10357000396F2B013C01CB54DF4FE881F981C55BEA
:10358000D040EE0FFF1FEE0FFF1FE758FC4E838564
:103590009485A585B685C655DF4F88839983AA8310
:1035A000BB83CA5AD0409C01AD01CA55DF4F688128
:1035B00079818A819B81C65AD0400E94396F4B0124
:1035C0005C01A3019201C301B2010E946C722B0144
:1035D0003C01A5019401C501B4010E946C729B01DC
:1035E000AC01C301B2010E943A6F0E94D9724B0133
:1035F0005C01A7019601C701B6010E946C726B01C4
:103600007C01C655DF4F288139814A815B81CA5AC6
:10361000D040CA01B9010E946C729B01AC01C70184
:10362000B6010E943A6F0E94D9726B017C016093CF
:10363000991370939A1380939B1390939C139B01FF
:10364000AC01C501B4010E94396F4B015C01E894E3
:10365000B7F82AE037ED43EA5BE3C501B4010E9405
:103660003172181664F16AC085E7E82E83E1F82EFE
:10367000D301C201002E04C0B695A79597958795F2
:103680000A94D2F780FF12C023E333E34BEC51E4FA
:10369000D7011F966D917D918D919C9152970E94BB
:1036A0006C72F7016787708B818B928B0F5F1F4F56
:1036B000F4E0EF0EF11C03301105D1F644CF20E009
:1036C00030E040E05FE3C501B4010E94317218169A
:1036D0000CF411CE2FE632E143E85AE3C701B601FC
:1036E0000E946C729B01AC01C501B4010E94317251
:1036F00018160CF400CE22C0CA55DF4F2881C65AD6
:10370000D040222309F487CA0E9458698111F3CD61
:1037100015C0C255DF4F3881CE5AD04031110EC08E
:10372000C155DF4F88819981CF5AD0408E7D9C7FD3
:10373000C255DF4F1882CE5AD04008C0C155DF4F66
:1037400088819981CF5AD0408E7D907E892B09F057
:103750007CC28091911390919213A0919313B09198
:1037600094138093C1139093C213A093C313B09387
:10377000C413809177138093AF138091801390913D
:103780008113A0918213B09183138093BC13909303
:10379000BD13A093BE13B093BF13C0909D13D090E0
:1037A0009E13E0909F13F090A013A70196016091E3
:1037B000B8137091B9138091BA139091BB130E9402
:1037C00013708823F9F01091B713112359F08091E9
:1037D0005813823039F00E943B69B701A601812F4E
:1037E0000E94063580919D1390919E13A0919F1386
:1037F000B091A0138093B8139093B913A093BA1308
:10380000B093BB138091A1138093C01310917F13C9
:103810008091B7138117B9F080915813823079F0F5
:10382000C090B813D090B913E090BA13F090BB13C6
:103830000E943B69B701A601812F0E940635809145
:103840007F138093B71310917E138091B613811765
:1038500081F080915813823041F00E943B69123010
:1038600011F45C9A02C00E94E05C80917E13809308
:10387000B61380917513813089F080917A1380930B
:10388000B213809178138093B013C255DF4F8881B3
:10389000CE5AD040833009F074C054C08091581380
:1038A000823059F38090951390909613A0909713BF
:1038B000B090981320E030E040EA51E4C501B40133
:1038C0000E946C720E94F0700E9487706B017C01F4
:1038D0000E943B6920E030E04AE754E4C501B401AE
:1038E0000E946C724B015C0182E38C9DB0018D9D46
:1038F000700D112480E090E00E94B3709B01AC0138
:10390000C501B4010E94396F0E94F0700E94877057
:10391000CB010E942E4386010115110509F4ADCF9C
:103920000E949A3A01501109809157138111A5CF35
:103930009FEFA0E7B2E09150A040B040E1F700C097
:103940000000EACF80917B138093B313813089F418
:103950008091AA139091AB13A091AC13B091AD13C9
:103960008093E9139093EA13A093EB13B093EC13B5
:1039700008C01092E9131092EA131092EB13109200
:10398000EC1380917C139091B413981759F08093A5
:10399000B4138CE0FE017596A1EDB3E101900D9298
:1039A0008A95E1F7809179138093B113E0917513B3
:1039B0008E2F90E0FC013297E830F10508F060C0EE
:1039C0008827E957FF4F8F4F0C94AA73BE016F5F92
:1039D0007F4F822D0E94FB378091B413281250C074
:1039E0008CE0FE013196A1EDB3E13EC0C255DF4F40
:1039F000E881CE5AD040EE2371F02091BC13309173
:103A0000BD134091BE135091BF1300E062EA73E111
:103A100081E00E9424442091BC133091BD13409159
:103A2000BE135091BF1300E0BE016F5F7F4F81E076
:103A30000E942444182F8CE0FE013196A5ECB3E1DE
:103A400001900D928A95E1F71CC065EC73E186E068
:103A500003C065EC73E187E00E94FB3711C08CE086
:103A6000E2EAF3E1ADEDB3E101900D928A95E1F761
:103A700007C08CE0EDEDF3E1DF011D928A95E9F7D7
:103A800010E0809176138093AE13883009F470C0F3
:103A9000C255DF4FB881CE5AD040B23009F068C06D
:103AA00090E08830910508F05AC0FC014090BC13AA
:103AB0005090BD136090BE137090BF138827E157DC
:103AC000FF4F8F4F0C94AA7300E0A301920162EAAA
:103AD00073E180E007C00091AF13A301920162EA95
:103AE00073E181E00E942444182F39C0609199133A
:103AF00070919A1380919B1390919C1388248394C6
:103B000009C06091991370919A1380919B139091C1
:103B10009C13812CCF54DF4FA880C15BD040C75489
:103B2000DF4FC880C95BD040CE55DF4FE880C25A16
:103B3000D0400091AF13A30192010E942C6A0FC0E4
:103B400000E001C001E020E004C000E001C001E0AD
:103B500021E04091AF13C301B2010E9496698CE04D
:103B6000E2EAF3E1A5ECB3E101900D928A95E1F769
:103B700080917D138093B513882309F468C00E9457
:103B80003B699091B51380915813913069F482305C
:103B9000E9F19FB7F894809106138860809306132B
:103BA0009FBF0E949A3A32C091E09093AE13109258
:103BB000B2131092B1131092AF131092B41310926B
:103BC000B7131092B6138230A9F0BE016B5E7F4F1F
:103BD00080E00E946B368823E1F18CE0FE0175964F
:103BE000A1EDB3E101900D928A95E1F70E94FF34B7
:103BF0000E94E05C8BED98E00E94293E8FE798E000
:103C00000E94293E88E698E00E94293E1092B51352
:103C10001EC081E059C082E057C088E155C089E1EB
:103C200053C084E051C08BE14FC085E24DC084E1B8
:103C30004BC08EE149C08FE147C086E145C080E2BC
:103C400043C082E241C083E23FC084E23DC0812F95
:103C50003BC087E039C0AEE16A16710411F40C94E0
:103C6000CC0C38F5EAE06E16710411F40C94A80C33
:103C7000FCE16F16710411F40C94B50C87E124C0BB
:103C80009CE56916710411F00C94270EA1E0C25551
:103C9000DF4FA883CE5AD0404114510439F0BAE026
:103CA0004B16510421F689E00C94D00C88E00C945A
:103CB000D00C25E36216710411F40C94EC0C3CE575
:103CC0006316710449F3DACFC653DF4F0FB6F89489
:103CD000DEBF0FBECDBFDF91CF911F910F91FF903F
:103CE000EF90DF90CF90BF90AF909F908F907F909C
:103CF0006F905F904F903F902F9008952F923F923A
:103D00004F925F926F927F928F929F92AF92BF92EB
:103D1000CF92DF92EF92FF920F931F93CF93DF9397
:103D2000CDB7DEB7C459D1090FB6F894DEBF0FBEC8
:103D3000CDBFFB018C3A28E0920709F405C208F0D8
:103D400044C08B34A8E09A0709F43CC1F0F4833EE8
:103D500027E0920709F4FCC060F48231910509F470
:103D6000F7C08C3C910509F492C0419709F074C0EA
:103D700077C08934A8E09A0709F40CC108F011C192
:103D80008834984009F4C0C067C0823A38E093078D
:103D900009F498C178F48A39B8E09B0709F44DC159
:103DA0008B3928E0920709F470C18939984009F0ED
:103DB00053C019C1863AA8E09A0710F40C947827EA
:103DC000873A984009F4BAC147C0813C28E092077D
:103DD00009F44AC5F8F4883BA8E09A0709F4E7C457
:103DE00060F48E3A28E0920709F4CAC308F4BAC214
:103DF000873B984009F4C9C42FC08A3BB8E09B07B1
:103E000011F40C94782708F4E2C4803C984009F43B
:103E100000C522C08B36A9E09A0709F4D4C670F415
:103E2000813629E0920709F469C68A3639E093079A
:103E300009F47DC68036994079F47AC58437B9E0B3
:103E40009B0709F436C7853729E0920709F489C72B
:103E50008C36994009F4E6C681E090E00C947A270C
:103E60008091451382FF08C08A9A80910801816081
:103E7000809308015F9A07C08A98809108018E7F1D
:103E8000809308015F980E942C2A8FE0D1C08E0198
:103E90000F5F1F4F1F930F938FE893E09F938F93B4
:103EA000FF936F930E940B740F900F900F900F90E1
:103EB0000F900F90181619060CF0D3C61D8A1E8A93
:103EC0001F8A188EAE014B5E5F4F60E070E0C80144
:103ED0000E9439438823C9F14D895E896F89788DA5
:103EE00088E70E9469354D895E896F89788D89E7F9
:103EF0000E9469354D895E896F89788D8AE70E94B5
:103F000069350E949437F4C78E010F5F1F4F1F93CE
:103F10000F938AE993E09F938F93FF936F930E948F
:103F20000B740F900F900F900F900F900F9018162A
:103F300019060CF096C6AE014B5E5F4F60E070E074
:103F4000C8010E943943811106C082E390E0D2C7C4
:103F50000E94152ACDC720E030E04AE754E46D897D
:103F60007E898F89988D0E946C720E9482701616CD
:103F7000170684F470930D0D60930C0D11E01093EF
:103F80000E0D80910B0D8111B3C70E9483291093F0
:103F90000B0DAEC710920E0D10920D0D10920C0D60
:103FA000A7C78081863589F681818053823068F683
:103FB0001092770D813019F01092760D99C7809389
:103FC000760D96C78081863509F0BFCF81818053F9
:103FD000823008F0BACF813019F010927B0D88C77B
:103FE00080937B0D85C780818E3409F0AECF91819F
:103FF0009053943008F0A9CF923061F0933099F04B
:104000008091730D913019F05F9A846011C08A9A83
:1040100081600EC0809108018160809308018091C9
:10402000730D826005C00E942C2A8091730D8860F8
:104030008093730D0E9485285BC780818E3409F0C0
:1040400084CF91819053943008F07FCF923061F00B
:10405000933099F08091730D913019F05F988B7FB8
:1040600011C08A988E7F0EC0809108018E7F809348
:1040700008018091730D8D7F05C00E940A2A8091EE
:10408000730D877F8093730D33C780818E3409F061
:104090005CCF81818053843008F057CF9091730DAD
:1040A000823051F0833059F0813019F090FF66C3AF
:1040B00062C391FD60C362C392FD5DC35FC393FFA2
:1040C0005DC359C31AA619A61D8A1E8A1F8A188E97
:1040D0008E010F5F1F4F8AE0D8011D928A95E9F784
:1040E000CE0189969F938F931F930F9383EA93E05A
:1040F0009F938F93FF936F930E940B740FB6F89466
:10410000DEBF0FBECDBF02970CF4ABC5AE014B5E58
:104110005F4F60E070E0C8010E943943882309F4D2
:1041200014CF2D893E894F89588D69A57AA5072E10
:10413000000C880B990B0E949E29DAC68FEF0E9413
:104140008B360E941329D4C65E0125E6A20EB11C4F
:1041500014E1D501212F1D922A95E9F76E0131E571
:10416000C30ED11CD601212F1D922A95E9F77E019D
:104170003DE3E30EF11CD701212F1D922A95E9F7AB
:10418000C357DF4F188219821A821B82CD58D04044
:10419000C757DF4F188219821A821B82C958D04034
:1041A000CB57DF4F188219821A821B82C558D04024
:1041B000FF92EF92DF92CF92BF92AF928FEA93E09D
:1041C0009F938F93FF936F930E940B740FB6F89495
:1041D000DEBF0FBECDBF03970CF443C5AE014357FE
:1041E0005F4F60E070E0C5010E943943882309F405
:1041F000ACCEAE0147575F4F60E070E0C6010E9451
:104200003943882309F4A1CEAE014B575F4F60E0DC
:1042100070E0C7010E943943882309F496CECF5736
:10422000DF4F188219821A821B82C158D040C358AE
:10423000DF4F188219821A821B82CD57D040ED962B
:104240001CAE1DAE1EAE1FAEED973E01B9E26B0E69
:10425000711CF301212F11922A95E9F72E0135E106
:10426000430E511CD201E12F1D92EA95E9F79E0100
:104270002F5F3F4F1901D9011D921A95E9F7AE0141
:104280004B575F4FBE0167577F4FCE0183579F4FFC
:104290000E94EC2DCB57DF4FE880F9800A811B810B
:1042A000C558D040C757DF4F288139814A815B818B
:1042B000C958D040C357DF4F688179818A819B817B
:1042C000CD58D040FE01EF57FF4F4F01DE01A758F8
:1042D000BF4F5D0134976F010E94364820E030E007
:1042E00044EB52E4CF57DF4F688179818A819B810B
:1042F000C158D0400E943A6FCF57DF4F688379830F
:104300008A839B83C158D040C358DF4F688179812D
:104310008A819B81CD57D040820124E045E00E94F4
:10432000BE6CED966CAD7DAD8EAD9FADED97810110
:1043300024E045E00E94BE6CCF57DF4F6881798151
:104340008A819B81C158D040830124E045E00E94CE
:10435000BE6C3F922F925F924F927F926F9283E852
:1043600092E000C16E0135E6C30ED11C84E1D60196
:10437000282F1D922A95E9F77E0131E5E30EF11C05
:10438000D701282F1D922A95E9F78E01035C1F4F54
:10439000D8011D928A95E9F7C357DF4F1882198219
:1043A0001A821B82CD58D040C757DF4F188219821E
:1043B0001A821B82C958D040CB57DF4F188219820E
:1043C0001A821B82C558D0401F930F93FF92EF9221
:1043D000DF92CF928EEC93E09F938F93FF936F9336
:1043E0000E940B740FB6F894DEBF0FBECDBF0397CB
:1043F0000CF437C4AE0143575F4F60E070E0C60174
:104400000E943943882309F4A0CDAE0147575F4F7E
:1044100060E070E0C7010E943943882309F495CD1C
:10442000AE014B575F4F60E070E0C8010E94394316
:10443000882309F48ACDCF57DF4F188219821A8258
:104440001B82C158D040C358DF4F188219821A828C
:104450001B82CD57D040ED961CAE1DAE1EAE1FAEDA
:10446000ED9784E13E01F9E26F0E711CD301E82F54
:104470001D92EA95E9F72E01F5E14F0E511CD2018C
:10448000E82F1D92EA95E9F79E012F5F3F4F190132
:10449000D9011D928A95E9F720E030E044EB52E41F
:1044A000C357DF4F688179818A819B81CD58D04085
:1044B0000E94396F7B018C01C357DF4F688379837A
:1044C0008A839B83CD58D040CB57DF4F28813981D9
:1044D0004A815B81C558D040C757DF4F68817981D9
:1044E0008A819B81C958D040FE01E758FF4F4F0198
:1044F000DE01A358BF4F5D0138966F010E949B49B2
:10450000A401B501C6010E94972ECF57DF4F6881E5
:1045100079818A819B81C158D040830124E045E0A4
:104520000E94BE6CC358DF4F688179818A819B816C
:10453000CD57D040820124E045E00E94BE6CED964C
:104540006CAD7DAD8EAD9FADED97810124E045E072
:104550000E94BE6C3F922F925F924F927F926F9219
:1045600088EB92E09F938F938FE09DE09F938F93D2
:104570000E94DD730FB6F894DEBF0FBECDBFB8C486
:10458000CF57DF4F188219821A821B82C158D04040
:10459000C358DF4F188219821A821B82CD57D04030
:1045A000ED961CAE1DAE1EAE1FAEED9784E16E0102
:1045B00039E2C30ED11CD601282F1D922A95E9F7A6
:1045C0007E0135E1E30EF11CD701282F1D922A95BB
:1045D000E9F7DE0111965D011D928A95E9F78E01DA
:1045E0000B571F4F8FEF90E0D8018D939C931F9333
:1045F0000F93BF92AF92FF92EF92DF92CF928DEE28
:1046000093E09F938F93FF936F930E940B740FB669
:10461000F894DEBF0FBECDBF04970CF422C3AE01E9
:104620004F575F4F60E070E0C6010E943943882316
:1046300009F48BCCAE0143585F4F60E070E0C701D6
:104640000E943943882309F480CCAE0147585F4F5C
:1046500060E070E0C5010E943943882309F475CCFD
:10466000D8018D919C91009709F443C0019709F0FE
:104670006CCCCF57DF4FC880D980EA80FB80C1580F
:10468000D04020E030E044EB52E4C358DF4F688173
:1046900079818A819B81CD57D0400E94396F21EE6C
:1046A0003EE245E652E40E941A704B015C010E9412
:1046B00017709B01AC01C701B6010E946C72CF5705
:1046C000DF4F688379838A839B83C158D040C501BB
:1046D000B4010E94CF729B01AC01C701B6010E94D8
:1046E0006C72C358DF4F688379838A839B83CD576D
:1046F000D040AE0147585F4FBE0163587F4FCE0197
:104700008F579F4F0E94EC2DED96ECACFDAC0EAD9B
:104710001FADED97C358DF4F288139814A815B81F6
:10472000CD57D040CF57DF4F688179818A819B81F7
:10473000C158D040FE01FD964F01DE01AF5ABF4F78
:104740005D01B8966F010E9436482196ECACFDAC35
:104750000EAD1FAD219765962CAD3DAD4EAD5FAD55
:104760006597A9966CAD7DAD8EAD9FADA9970E9462
:10477000104B882319F06EE973E002C066E873E01D
:104780008FE09DE00E94D673B3C38081863509F027
:10479000DCCB81818053823008F0D7CB813011F09F
:1047A0003DD5A6C39C9A9D9AA49AA598A1C3808141
:1047B000863509F0CACB81818053823008F0C5CBA1
:1047C000813011F028D594C33F9A479891C38081D6
:1047D000863509F0BACB81818053823008F0B5CBA1
:1047E000813011F007D584C38091010180628093EC
:1047F0000101809101018064809301018091020197
:1048000080628093020180910201806480930201A2
:104810006FC3CE0101969F938F9344969F938F937E
:104820008FE094E09F938F93FF936F930E940B749C
:104830000FB6F894DEBF0FBECDBF02970CF411C2C5
:104840008D899E898634910508F07FCB29813A8134
:104850002230310508F079CB232B11F061E001C043
:1048600060E00E94275944C3CE0101969F938F9325
:1048700044969F938F938FE094E09F938F93FF9341
:104880006F930E940B740FB6F894DEBF0FBECDBFBE
:1048900002970CF4E6C18D899E898634910508F053
:1048A00054CB29813A812230310508F04ECBFC01EE
:1048B000E05CF54F8650964F232BD1F02491FC01FC
:1048C0008491882309F414C390E0880F991FFC0198
:1048D000E455F84FA591B491FC01E052F64F859153
:1048E00094918FB7F894EC91E22BEC938FBF00C3B7
:1048F0002491FC018491882309F4FAC290E0880F86
:10490000991FFC01E455F84F45915491FC01E05288
:10491000F64FA591B4919FB7F894FA018081209544
:10492000822380838C91E22FE823EC939FBFE0C227
:104930008081833509F009CB8181E0EDE80FE83013
:1049400008F003CB8E2F90E0FC013197E730F105A2
:1049500030F48827E956FF4F8F4F0C94AA735AD52D
:104960001092420D1092410D80E090E0A0E5B1E47C
:104970008093470D9093480DA093490DB0934A0D35
:104980008EEA97E4A3E3B2E4B0C044D581E090E0BE
:104990009093420D8093410D86EF98E2ACE4B2E42F
:1049A0008093470D9093480DA093490DB0934A0D05
:1049B0008DEC9CECA0E8B2E498C02CD582E090E0AD
:1049C0009093420D8093410D89E29CEDA4E9B2E4FD
:1049D0008093470D9093480DA093490DB0934A0DD5
:1049E00080E090E0A2E6B2E480C014D583E090E0DD
:1049F0009093420D8093410D80E090E0ACE2B2E4F0
:104A00008093470D9093480DA093490DB0934A0DA4
:104A100080E090E0ABE8B2E468C0FCD484E090E0D1
:104A20009093420D8093410D80E090E0ACE1B2E4C0
:104A30008093470D9093480DA093490DB0934A0D74
:104A400080E090E0A9E9B2E417C0E4D485E090E00A
:104A50009093420D8093410D80E090E0ACEDB1E485
:104A60008093470D9093480DA093490DB0934A0D44
:104A700080E090E0A7E9B2E48093430D9093440D69
:104A8000A093450DB093460D28D69BC0C3D486E0B5
:104A900090E09093420D8093410D86E696E6AAE958
:104AA000B2E48093470D9093480DA093490DB093C5
:104AB0004A0D80E090E0AAE5B2E417C0ABD487E0ED
:104AC00090E09093420D8093410D85E89BEEABEC16
:104AD000B1E48093470D9093480DA093490DB09396
:104AE0004A0D80E090E0A2E3B2E48093430D9093FE
:104AF000440DA093450DB093460D63C080E090E057
:104B00000E94F44B90937F0D80937E0D81E090E0A6
:104B10000E94F44B9093810D8093800D82E090E091
:104B20000E94F44B90937D0D80937C0DDFC16091CA
:104B300063137091641380916513909166130E94C2
:104B4000B5702B013C0160915F13709160138091EF
:104B50006113909162130E94B570CF56DF4F688346
:104B600079838A839B83C159D04060915B13709194
:104B70005C1380915D1390915E130E94B5709E014D
:104B80002F5F3F4F4901DE0155965D01FE01B99649
:104B90006F0183017201CF56DF4F288139814A812D
:104BA0005B81C159D0400E947F4A89819A81AB8143
:104BB000BC818093470D9093480DA093490DB0930D
:104BC0004A0D62D395C11D8A1E8A1F8A188E8E01D6
:104BD0000F5F1F4F84E1D8011D928A95E9F71F935B
:104BE0000F9386E194E09F938F93FF936F930E94BE
:104BF0000B740F900F900F900F900F900F9018164E
:104C000019067CF5AE014B5E5F4F60E070E0C801B5
:104C10000E943943882309F498C98D899E89AF89F8
:104C2000B88D63CF1D8A1E8A1F8A188E8E010F5F72
:104C30001F4F84E1D8011D928A95E9F71F930F93C6
:104C400081E294E09F938F93FF936F930E940B7484
:104C50000F900F900F900F900F900F90181619064D
:104C600074F01F9281E08F938DE092E09F938F9379
:104C70000E94923D0F900F900F900F9066C9AE0169
:104C80004B5E5F4F60E070E0C8010E9439438823AB
:104C900009F45BC98D899E89AF89B88D80934B0DCE
:104CA00090934C0DA0934D0DB0934E0DEDD215D5B4
:104CB0001FC18081803509F048C9818180538330CC
:104CC00008F043C98130D9F0823091F180E090E062
:104CD0000E94F44B90938F0D80938E0D81E090E0B5
:104CE0000E94F44B9093910D8093900D82E090E0A0
:104CF0000E94F44B9093930D8093920DF9C080E045
:104D000090E00E94F44B9093890D8093880D81E090
:104D100090E00E94F44B90938B0D80938A0D82E07B
:104D200090E00E94F44B90938D0D80938C0DE0C029
:104D300080E090E00E94F44B9093830D8093820D6D
:104D400081E090E00E94F44B9093850D8093840D58
:104D500082E090E00E94F44B9093870D8093860D43
:104D6000C7C060918E0D70918F0D2090900D309086
:104D7000910D9B01222933298091920D9091930DE1
:104D8000822B932B892B19F48CE294E02BC0009199
:104D9000880D1091890D60908A0D70908B0DC090D8
:104DA0008C0DD0908D0DC801862997298C299D29BD
:104DB000892B19F482E394E015C0E090820DF09005
:104DC000830D4090840D5090850D9701242935293D
:104DD0008091860D9091870D822B932B892B49F41E
:104DE00088E394E09F938F930E94923D0F900F90E1
:104DF000ACC880E090E00E94B37024EE35E24EE64D
:104E000052E40E943A6F4B015C01B70180E090E0F0
:104E10000E94B37020E33CE44AEB52E40E943A6FF4
:104E20009B01AC01C501B4010E943A6F4B015C01CA
:104E3000B80180E090E00E94B3709B01AC01C50115
:104E4000B4010E943A6F20E030E040E450E40E9458
:104E50001A7020E030E040E05FE30E943A6F0E9469
:104E6000877070937F0D60937E0DB10180E090E0BC
:104E70000E94B3702CE93DE241E853E40E94396F8F
:104E80004B015C01B20180E090E00E94B37024E528
:104E90003AE146E953E40E943A6F9B01AC01C50137
:104EA000B4010E943A6F4B015C01B30180E090E0D5
:104EB0000E94B3709B01AC01C501B4010E943A6F1E
:104EC00020E030E040E450E40E941A7020E030E03E
:104ED00040E05FE30E943A6F0E9487707093810DFB
:104EE0006093800DD0927D0DC0927C0D0E94F54C98
:104EF00080E090E0CC56DF4F0FB6F894DEBF0FBED7
:104F0000CDBFDF91CF911F910F91FF90EF90DF9078
:104F1000CF90BF90AF909F908F907F906F905F9059
:104F20004F903F902F9008952091B90D3091BA0D78
:104F300021153105B9F08091C80D9091C90D8217E6
:104F4000930734F401969093C90D8093C80D0AC05D
:104F50001092C90D1092C80D1092BA0D1092B90D91
:104F60001092740D20910C0D30910D0D211531050D
:104F7000A1F08091C60D9091C70D8217930734F46C
:104F800001969093C70D8093C60D07C01092C70D70
:104F90001092C60D81E08093750D8091740D811182
:104FA0001BC080910E0D811117C0809173008E7F00
:104FB0008093730010920B0D1092BA0D1092B90DE0
:104FC00010920D0D10920C0D1092C90D1092C80D7B
:104FD0001092C70D1092C60D08958091C50D8111D4
:104FE00007C081E08093C50D80910B01806205C0F0
:104FF0001092C50D80910B018F7D80930B018091E4
:10500000C30D9091C40D9C012F5F3F4F3093C40D91
:105010002093C30D2091040230910502281739070F
:1050200048F41092C40D1092C30D809170008E7FD1
:10503000809370000895E1E4FDE081E080AF17AA5D
:105040008EE394E09F938F930E94923D0F900F9078
:105050000895CF93DF93EB018431D1F028F48823B6
:1050600061F08C30A8F437C08233E9F018F487314E
:1050700090F10EC0833311F10BC08881882329F091
:1050800061E574E0CE010E94CB7363E574E020C05B
:105090008881882329F061E574E0CE010E94CB73FA
:1050A00066E574E015C08881882329F061E574E025
:1050B000CE010E94CB736AE574E00AC08881882320
:1050C00029F061E574E0CE010E94CB736EE574E0D7
:1050D000CE010E94CB7380910F0D882379F06FE091
:1050E0007DE0CE010E94CB7382E3EFE0FDE0DF01C3
:1050F0001D928A95E9F7DF91CF91089560E374E0FE
:10510000CE01DF91CF910C94CB738F929F92AF928F
:10511000BF92CF92DF92EF92FF920F931F93CF93A4
:10512000DF9307E513E18EE1F80111928A95E9F723
:105130000E94423E0E94335C80E090E00E94464C18
:10514000C1E4DDE06E877F87888B998B81E090E0FA
:105150000E94464C6A8B7B8B8C8B9D8B82E090E00F
:105160000E94464C6E8B7F8B888F998FF801C4808C
:10517000D580E680F780CA8EDB8EEC8EFD8EC084F3
:10518000D184E284F384CE8EDF8EE8A2F9A2048576
:105190001585268537850AA31BA32CA33DA320E0F4
:1051A00030E044EB52E40E94396F7B018C012A8984
:1051B0003B894C895D896E857F8588899989EFE671
:1051C0008E2EEDE09E2EFBE6AF2EFDE0BF2EA7E675
:1051D000CA2EADE0DA2E0E949B49DF91CF911F913C
:1051E0000F91FF90EF90DF90CF90BF90AF909F9086
:1051F0008F900895E1E0F1E080818062808380817A
:1052000080648083E2E0F1E080818F7D8083808113
:105210008F7B808308953F9A479A08959C9A9D9A20
:10522000A498A59A08958091040187788093040139
:10523000809103018877803451F462E674E08BEB4F
:105240009DE00E94D67340E050E0BA010EC080910C
:105250000301887769F469E674E08BEB9DE00E94B6
:10526000D67340E050E060EE70E483E00E94693560
:105270008091010180618093010180910201806130
:10528000809302010C9494370F931F93CF93DF9375
:105290006091410D84E893E00E94395C6091420D79
:1052A00085E893E00E94395CC3E4DDE088E993E09F
:1052B00069918C010F5F1F4F0E94395CC8010C3946
:1052C0001340B1F7C7E4DDE08EE893E069918C010B
:1052D0000F5F1F4F0E94395CC80102391340B1F7BC
:1052E000CBE4DDE082E89CE069918C010F5F1F4F09
:1052F0000E94395CC80106381C40B1F7DF91CF919C
:105300001F910F910895E8EAF2E184E997E2918311
:1053100080831092200185E08093210181EF9FEF2F
:1053200093838283828193819093250180932401CA
:10533000E3E7F0E08081816080830895CF92DF927F
:10534000EF92FF920F931F93CF93DF9369017A013E
:10535000EAE0F1E0208120622083EBE0F1E02081AF
:105360002F7D2083660F771F7093050260930402E0
:1053700001EA12E18DEE97E2F80191838083C0E7A4
:10538000D0E088818E7F8883E0EBF0E080818C7FA5
:105390008083E1EBF0E08081877F8083A6EBB0E043
:1053A0008C918F7D8C9388818D7F888380818460B0
:1053B000808380818C7F808320E034E244EF59E455
:1053C000C701B6010E941A7020E034E244E75BE4B2
:1053D0000E946C7220E030E040E85CE30E946C7256
:1053E0000E94827020E031E0C901861B970BF80112
:1053F00093838283828193818093B20088818160CC
:105400008883DF91CF911F910F91FF90EF90DF90F4
:10541000CF900895E2E7F0E080818E7F8083109244
:10542000780D80818E7F808308958091451382FF5F
:1054300008C08A98809108018E7F809308015F9848
:1054400007C08A9A809108018160809308015F9A61
:10545000E1DF1092730D08958091410D9091420DFE
:1054600004970297B0F58091010180628093010159
:1054700080910101806480930101809102018F7D00
:1054800080930201809102018F7B8093020181E26F
:10549000E4E9FDE0DF011D928A95E9F7F8941092A6
:1054A000A0001092A1001092A5001092A40080E428
:1054B00096E09093A9008093A8008091A100886055
:1054C0008093A1008091A10083608093A1007894D3
:1054D000089580E18093A1001092A00082E0809363
:1054E000051380E29EE4909304138093031390933A
:1054F000A7008093A60082E18093A10020E030E025
:1055000040EA51E460910002709101028091020230
:10551000909103020E941A7020E030EC4FE754E4AF
:105520000E946C720E948770CB010C9490588F92ED
:105530009F92AF92BF92CF92DF92EF92FF926B0158
:105540007C0149015A0120E030E048E453E4C50100
:10555000B4010E94317218166CF020E030E0A9010D
:10556000C501B4010E94137087FF0AC0812C912CE1
:10557000540106C0812C912C88E4A82E83E4B82E17
:105580008091410D9091420D8430910569F426E699
:1055900036E646E65FE3C701B6010E941A7020E0D6
:1055A00030E040E852E40EC0059799F42CEE31E566
:1055B00048E35EE3C701B6010E941A7020E030E0C4
:1055C00040E851E40E946C720E9482706B017C0181
:1055D00003C0C12CD12C76018091AC0D9091AD0D02
:1055E000A091AE0DB091AF0D0297A105B1050CF0E1
:1055F0006BC081E2E4E9FDE0DF011D928A95E9F7E5
:10560000D701C601F7FE07C088279927DC018C194E
:105610009D09AE09BF098093980D9093990DA093B1
:105620009A0DB0939B0D80939C0D90939D0DA0932C
:105630009E0DB0939F0DA501940160E070E086E996
:1056400093E40E94396F0E9482706093A80D70935A
:10565000A90D8093AA0D9093AB0D80E496E0A0E095
:10566000B0E08093A40D9093A50DA093A60DB093E8
:10567000A70D8BE198E29093B20D8093B10D8091CC
:1056800002011C141D041E041F0414F48F7D01C0AC
:105690008062809302011092AC0D1092AD0D1092B9
:1056A000AE0D1092AF0D8091A40D9091A50DA0911B
:1056B000A60DB091A70D9093A9008093A8008091AA
:1056C0007200826080937200FF90EF90DF90CF9025
:1056D000BF90AF909F908F900895CF93C1E0C093FB
:1056E000790D8091410D9091420D04970297F8F445
:1056F000809107018F7D809307018091080180626E
:10570000809308011092790D1092B50D1092B60D8C
:105710001092B70D1092B80D20E030E048E452E44A
:1057200060E070E084EB93EC02DFC093780DCF91E2
:105730000895CF92DF92EF92FF926B017C0120E0FF
:1057400030E044E353E40E943172181684F020E004
:1057500030E0A901C701B6010E94137087FF0AC09B
:10576000C12CD12C84E3E82E83E4F82E03C0C12C95
:10577000D12C7601A701960160E070E084E393E408
:105780000E94396F20E030E044E353E40E941A7035
:105790009B01AC010E943A6F20E030E040E05FE303
:1057A0000E943A6F6093000270930102809302029C
:1057B0009093030220E030E040EA51E40E941A7026
:1057C00020E030EC4FE754E40E946C720E94877036
:1057D000CB01FF90EF90DF90CF900C949058CF9337
:1057E000DF93D82FC8E05E98559AD7FF02C05D9A24
:1057F00001C05D9865E070E080E090E00E94F042BA
:105800005E9A65E070E080E090E00E94F0425E9871
:10581000DD0F65E070E080E090E00E94F042C15052
:1058200011F762E070E080E090E00E94F042559A4B
:105830005D9A62E070E080E090E0DF91CF910C949F
:10584000F0425E98559A5D9865E070E080E090E0E7
:105850000E94F0425E9A65E070E080E090E00E9475
:10586000F042559A5D9A65E070E080E090E00C941B
:10587000F042CF93559A5D9A62E070E080E090E04C
:105880000E94F0425E9A62E070E080E090E00E9448
:10589000F04255988BEF99B1C92FC07295FF05C0A2
:1058A0008150C9F7CEDFC1E007C05E9862E070E0CA
:1058B00080E090E00E94F0428C2FCF910895559A9D
:1058C0005D9A5E9A65E070E080E090E00E94F042B0
:1058D000559A5D9865E070E080E090E00E94F042AB
:1058E0005E9862E070E080E090E00C94F042CF932C
:1058F000DF93D82FC8E0809102018F778093020157
:105900008091010184608093010180910201D7FFA1
:1059100002C0846001C08B7F8093020165E070E06B
:1059200080E090E00E94F0428091020180688093C4
:10593000020165E070E080E090E00E94F04280911A
:1059400002018F7780930201DD0F65E070E080E057
:1059500090E00E94F042C15071F662E070E080E099
:1059600090E00E94F04280910101846080930101E7
:105970008091020184608093020162E070E080E027
:1059800090E0DF91CF910C94F0420F931F93CF934F
:10599000DF93C2E0D1E088818F77888301E011E056
:1059A000F80180818460808388818B7F888365E0B3
:1059B00070E080E090E00E94F042888180688883F7
:1059C00065E070E080E090E00E94F042F8018081A4
:1059D0008460808388818460888365E070E080E0F3
:1059E00090E0DF91CF911F910F910C94F042CF93F3
:1059F00080910101846080930101809102018460A3
:105A00008093020162E070E080E090E00E94F0424A
:105A10008091020180688093020162E070E080E082
:105A200090E00E94F042809101018B7F8093010100
:105A30008BEF90910001C92FC47092FF05C0815077
:105A4000C1F7A3DFC1E00BC0809102018F77809383
:105A5000020162E070E080E090E00E94F0428C2F52
:105A6000CF9108950F931F93CF93DF9301E011E03F
:105A7000F801808184608083C2E0D1E08881846005
:105A8000888388818068888365E070E080E090E0AA
:105A90000E94F042F80180818460808388818B7F3E
:105AA000888365E070E080E090E00E94F0428881A9
:105AB0008F77888362E070E080E090E0DF91CF91A3
:105AC0001F910F910C94F042CF93DF93D82FC8E031
:105AD0004398399AD7FF02C0419A01C0419865E0C6
