:1000000065C5000084C5000082C5000080C50000F1
:100010007EC500007CC500007AC5000078C50000E0
:1000200076C500000C94405672C500000C943E4505
:100030006EC500006CC500006AC500000C94CB5171
:1000400066C500000C946A3062C5000060C50000FF
:100050005EC500005CC500005AC500000C94F62F78
:1000600056C500000C9466360C94283750C5000025
:100070004EC500004CC500004AC5000048C5000040
:1000800046C5000044C5000042C500000C94B551AF
:100090000C94FE350C94FA363AC5000038C50000C1
:1000A00036C5000034C5000032C5000030C5000070
:1000B0002EC500000C947A512AC5000028C5000006
:1000C00026C5000024C500000C9445510C949635BB
:1000D0000C94CC361CC500001AC5000018C50000E1
:1000E00016C50000EC13441E441EFA130F1424140A
:1000F0003914441E4214441E5514441E64146E14D4
:10010000C614441E441E441E7D149714B114131DBE
:10011000231D521D231D561D6D1D5C1D661D911D49
:10012000981DA31DAE1DCD1DCF1DD21DD41D712345
:100130008A23A323BC23D523F8231124CC33D23321
:10014000D533D833DC33E433EC33593459345934B0
:10015000F433F733003409345934593459345934A9
:100160005934593411341B342734313434343D3448
:1001700046344C34BD50C050AF50B350B950F75016
:10018000C450C850CE50D250D650DC50E050E4504D
:10019000F750EA50EE50F250084AD73B3BCE016E82
:1001A00084BCBFFDC12F3D6C74319ABD56833DDACE
:1001B0003D00C77F11BED9E4BB4C3E916BAAAABEDD
:1001C000000000803F072C7AA5BA6CC590DA3B93FB
:1001D00065FC8BBC53F810FD3C5692834DBD879D4A
:1001E0003AB63DCBC9BF5BBE73DA0FC93F05A84C19
:1001F000CDB2D44EB93836A9020C50B991868808D0
:100200003CA6AAAA2ABE000000803F0000407A1047
:10021000F35A00A0724E18090010A5D4E80000E8B7
:100220007648170000E40B54020000CA9A3B000015
:1002300000E1F505000080969800000040420F00A4
:100240000000A08601000000102700000000E80365
:10025000000000006400000000000A000000000030
:100260000100000000002C76D888DC674F0823DFEF
:10027000C1DFAE59E1B1B796E5E3E453C63AE651C2
:10028000997696E8E6C28426EB898C9B62ED407CE9
:100290006FFCEFBC9C9F40F2BAA56FA5F490055A85
:1002A0002AF75C936B6CF9676DC11BFCE0E40D47AA
:1002B000FEF520E6B500D0ED902E030094357705CD
:1002C0000080841E080000204E0A000000C80C3385
:1002D0003333330F986E12831141EF8D2114893B14
:1002E000E65516CFFEE6DB18D1844B381BF77C1D94
:1002F000901DA4BBE424203284725E228100C9F1E7
:1003000024ECA1E53D276364696E6F7073757858BE
:100310005B00000020002300260029002C002F0095
:100320003200000100000301060109010D0A003D31
:1003300000244E005D0D0A005B302E396A2E3230EB
:100340003136303732363A005D0D0A005B544C4F7F
:100350003A005D0D0A002C005B4739323A005D0D12
:100360000A002C003A003330003238005B47005D51
:100370000D0A00205300204600205400204D380074
:10038000204D3900204D3500204D3400204D3300E4
:10039000204D3200204D3100204D300020473934AF
:1003A00000204739330020473931002047393000D9
:1003B00020473230002047323100204731390020B9
:1003C0004731380020473137002047004733382E67
:1003D000004738300047330047320047310047308C
:1003E000005B00290D0A00206D617820747261762F
:1003F000656C2C206D6D0020616363656C2C206D35
:100400006D2F7365635E3200206D617820726174B8
:10041000652C206D6D2F6D696E002C2073746570D6
:100420002F6D6D007A00790078002028003D0024AF
:10043000002028686F6D696E672070756C6C2D6F79
:1004400066662C206D6D290D0A002028686F6D6985
:100450006E67206465626F756E63652C206D7365D1
:1004600063290D0A2432373D002028686F6D696EBC
:1004700067207365656B2C206D6D2F6D696E290D7E
:100480000A2432363D002028686F6D696E67206649
:100490006565642C206D6D2F6D696E290D0A2432FF
:1004A000353D00290D0A2432343D002028686F6D47
:1004B000696E672064697220696E76657274206D5A
:1004C00061736B3A002028686F6D696E67206379ED
:1004D000636C652C20626F6F6C290D0A2432333DEA
:1004E00000202868617264206C696D6974732C2027
:1004F000626F6F6C290D0A2432323D002028736F21
:100500006674206C696D6974732C20626F6F6C293E
:100510000D0A2432313D0020287265706F727420FC
:10052000696E636865732C20626F6F6C290D0A24F5
:1005300032303D00202861726320746F6C657261F7
:100540006E63652C206D6D290D0A2431333D00202A
:10055000286A756E6374696F6E206465766961746C
:10056000696F6E2C206D6D290D0A2431323D0029F2
:100570000D0A2431313D0020287374617475732095
:100580007265706F7274206D61736B3A0020287011
:10059000726F62652070696E20696E766572742C68
:1005A00020626F6F6C290D0A2431303D0020286CC9
:1005B000696D69742070696E7320696E76657274F6
:1005C0002C20626F6F6C290D0A24363D00202873A1
:1005D00074657020656E61626C6520696E76657207
:1005E000742C20626F6F6C290D0A24353D00290D93
:1005F0000A24343D00202864697220706F727420D0
:10060000696E76657274206D61736B3A00290D0A0C
:1006100024333D0020287374657020706F7274203D
:10062000696E76657274206D61736B3A0020287371
:100630007465702069646C652064656C61792C2038
:100640006D736563290D0A24323D0020287374659B
:10065000702070756C73652C2075736563290D0AA5
:1006600024313D0024303D0024242028766965771C
:10067000204772626C2073657474696E6773290D0C
:100680000A2423202876696577202320706172610F
:100690006D6574657273290D0A2447202876696593
:1006A0007720706172736572207374617465290DAF
:1006B0000A2449202876696577206275696C642070
:1006C000696E666F290D0A244E20287669657720A9
:1006D0007374617274757020626C6F636B73290D33
:1006E0000A24783D76616C756520287361766520F3
:1006F0004772626C2073657474696E67290D0A24F1
:100700004E783D6C696E6520287361766520737440
:10071000617274757020626C6F636B290D0A2443DB
:100720002028636865636B2067636F6465206D6F65
:100730006465290D0A245820286B696C6C20616C53
:1007400061726D206C6F636B290D0A24482028723A
:10075000756E20686F6D696E67206379636C6529BB
:100760000D0A7E20286379636C652073746172744E
:10077000290D0A2120286665656420686F6C64294C
:100780000D0A3F202863757272656E742073746160
:10079000747573290D0A6374726C2D782028726544
:1007A000736574204772626C290D0A0000002100F5
:1007B000240027002A002D00300033000101000032
:1007C000040107010A010D0A00486F6D696E672078
:1007D0006661696C0050726F6265206661696C00C9
:1007E00041626F727420647572696E672063796309
:1007F0006C6500536F6674206C696D6974004861A4
:100800007264206C696D697400414C41524D3A200C
:10081000003E0D0A002C4C696D3A002C52583A00EB
:100820002C4275663A002C002C57506F733A002CFE
:10083000002C4D506F733A003C446F6F72003C4384
:100840006865636B003C416C61726D003C486F6D84
:1008500065003C486F6C64003C52756E003C496416
:100860006C65005D0D0A00526573746F72696E6786
:100870002064656661756C74730050676D20456E09
:100880006400436865636B20446F6F720044697352
:1008900061626C656400456E61626C656400436111
:1008A0007574696F6E3A20556E6C6F636B6564008A
:1008B000272448277C2724582720746F20756E6CC6
:1008C0006F636B00526573657420746F20636F6E85
:1008D00074696E7565005B005D0D0A003A002C00BE
:1008E0005B5052423A000D0A00496E76616C6964B1
:1008F0002067636F64652049443A00556E646566FD
:10090000696E656420666565642072617465004D7A
:100910006F64616C2067726F75702076696F6C61AF
:1009200074696F6E00486F6D696E67206E6F74201A
:10093000656E61626C656400416C61726D206C6F04
:10094000636B004E6F742069646C650045455052BE
:100950004F4D2072656164206661696C2E2055736D
:10096000696E672064656661756C74730056616CAE
:100970007565203C2033207573656300536574747E
:10098000696E672064697361626C65640056616CAE
:100990007565203C203000496E76616C6964207377
:1009A000746174656D656E7400426164206E756D6E
:1009B00062657220666F726D617400457870656360
:1009C00074656420636F6D6D616E64206C65747412
:1009D0006572006572726F723A20006F6B0D0A00CB
:1009E00000002200250028002B002E0031003400DA
:1009F00002010000050108010B01050505050705B9
:100A000008080808020202020A0A0808040404048A
:100A100001010101010101010303030303030303B6
:100A2000040707070C0C0C0C0C0C0C0C0202020245
:100A300006060606060606060B0B0B0B0B0B0B0B2E
:100A400001021020200808102040102040800201E0
:100A500002010804020101020408102040808040C5
:100A600020100804020180040201804020100804C4
:100A70000201080402010102040810204080010262
:100A800004081020408000000A0B02090C0D0E081B
:100A90000703040100000000000000000000000047
:100AA0000000000000000000000000000000000046
:100AB0000000121110000000000000000000000003
:100AC00000000000000000000000000011241FBE14
:100AD000CFEFD1E2DEBFCDBF00E00CBF14E0A0E05D
:100AE000B2E0E6E6FBEE00E00BBF02C007900D921D
:100AF000A235B107D9F723E1A2E5B4E001C01D9208
:100B0000AE38B207E1F70E942F590C94B17578CA3C
:100B10002F923F924F925F926F927F928F929F920D
:100B2000AF92BF92CF92DF92EF92FF920F931F93FB
:100B3000CF93DF93CDB7DEB7C25DD1090FB6F8947E
:100B4000DEBF0FBECDBFC753DF4F99838883C95C1B
:100B5000D04089E3E6E1F3E1DF011D928A95E9F7F0
:100B60008AE0EFE4F3E1A7E1B3E101900D928A9509
:100B7000E1F7FE01EB55FF4F1082C154DF4F1982A0
:100B80001882CF5BD040C554DF4F19821882CB5BEF
:100B9000D040CB53DF4F1882C55CD040CA54DF4FE2
:100BA0001882C65BD040C654DF4F1882CA5BD04063
:100BB000E45AF109C855DF4FF983E883C85AD04099
:100BC0009E012F5A3F4FC655DF4F39832883CA5A9B
:100BD000D040CE01CD96C455DF4F99838883CC5A3F
:100BE000D040D9011896C553DF4FB983A883CB5C99
:100BF000D040CB55DF4F8881C55AD040C753DF4F17
:100C0000E881F981C95CD040E80FF11D1081112302
:100C100011F40C9423159FEB910F9A3110F00C9462
:100C2000361E8F5FCB55DF4F8883C55AD040AE014B
:100C30004F555F4FBE016B557F4FC753DF4F8881C4
:100C40009981C95CD0400E94E82E882311F40C944D
:100C5000381ECF55DF4FC880D980EA80FB80C15A4B
:100C6000D040C701B6010E94BF6E0E942C6CCF53CA
:100C7000DF4F688379838A839B83C15CD040CF53E5
:100C8000DF4F28803980C15CD040B10180E090E026
:100C90000E94586C9B01AC01C701B6010E94DE6A3C
:100CA00020E030E048EC52E40E94116E4B015C0100
:100CB00020E030E0A9010E94D66D20E030E040E065
:100CC0005FE387FD05C0C501B4010E94DF6A04C06F
:100CD000C501B4010E94DE6A0E94276CCE54DF4F2A
:100CE00079836883C25BD0401D3411F40C948E0E5E
:100CF000103511F40C942A0F173411F00C94D913F9
:100D0000CB55DF4F8881C55AD040C753DF4FE881AC
:100D1000F981C95CD040E80FF11DCF01FAE92F1627
:100D2000F8E03F0609F416C158F434ED231637E015
:100D3000330699F0A9E92A16A8E03A06D1F13BC595
:100D4000BCE92B16B8E03B0609F43DC2EDE92E16CE
:100D5000E8E03E0609F42DC32EC51A82198221E06F
:100D600030E02C0F3D1F3F932F932CED33E03F934A
:100D70002F939F938F930E94856F0F900F900F90EA
:100D80000F900F900F90181619060CF037C3898139
:100D90009A8190937D0E80937C0E11E01093320D1A
:100DA0008091C90C81110AC50E947F3A1093C90C29
:100DB00005C58E010B5E1F4F1F930F939E01275D8C
:100DC0003F4F3F932F93C355DF4F3881CD5AD040CB
:100DD0003F93C455DF4FA881CC5AD040AF93C5553F
:100DE000DF4FB881CB5AD040BF93C655DF4FE88163
:100DF000CA5AD040EF9329E132E03F932F939F935B
:100E00008F930E94856F0FB6F894DEBF0FBECDBFE3
:100E100004970CF4F3C2EF961CAE1DAE1EAE1FAECF
:100E2000EF97E5961CAE1DAE1EAE1FAEE597AB96D6
:100E30001CAE1DAE1EAE1FAEAB97A1961CAE1DAE76
:100E40001EAE1FAEA1978CE0C855DF4FA881B981B7
:100E5000C85AD0401D928A95E9F7AE0145585F4FB8
:100E600060E070E0CE018F5A9F4F0E94E82E8823E9
:100E700009F4A4C4AE014F585F4F60E070E0CE01AA
:100E8000CD960E94E82E882309F498C4AE014959F2
:100E90005F4F60E070E0CE0189960E94E82E8823C3
:100EA00009F48CC4AE01435A5F4F60E070E0C801A2
:100EB0000E94E82E882309F481C420E030E044EB4E
:100EC00052E4E5966CAD7DAD8EAD9FADE5970E9489
:100ED000DE6A21EE3EE245E652E40E94BF6B6B0102
:100EE0007C01E5966CAF7DAF8EAF9FAFE5970E941A
:100EF000BC6BEF968CAC9DACAEACBFACEF97A501D4
:100F000094010E94116E69837A838B839C83C7014D
:100F1000B6010E94746E9B01AC01C501B4010E9430
:100F2000116E6D837E838F839887AB968CAD9DAD5C
:100F3000AEADBFADAB9789879A87AB87BC87A196CB
:100F40002CAD3DAD4EAD5FADA19700E0BE016F5F32
:100F50007F4F2CC4E5961CAE1DAE1EAE1FAEE597AE
:100F6000AB961CAE1DAE1EAE1FAEAB97E1E0F0E03F
:100F7000EC0FFD1FFF93EF938E010B5E1F4F1F932E
:100F80000F932E01FBE74F0E511C5F924F9222E40C
:100F900032E03F932F939F938F930E94856F0FB6FC
:100FA000F894DEBF0FBECDBF03970CF427C2AE018D
:100FB0004F585F4F60E070E0C8010E94E82E882320
:100FC00009F4FCC3AE0149595F4F60E070E0CE0107
:100FD00001960E94E82E882309F4F0C3A1961CAE66
:100FE0001DAE1EAE1FAEA19765961CAE1DAE1EAE09
:100FF0001FAE659721961CAE1DAE1EAE1FAE21978B
:101000003E0139E2630E711C8CE0D3011D928A957A
:10101000E9F76091210D7091220D8091230D90913F
:10102000240D0E945A6CC255DF4F688379838A83EE
:101030009B83CE5AD04060911D0D70911E0D809102
:101040001F0D9091200D0E945A6CC153DF4F688391
:1010500079838A839B83CF5CD0406091190D709116
:101060001A0D80911B0D90911C0D0E945A6CFE016F
:10107000FD964F019E012F5A3F4F5901DE01A35AA1
:10108000BF4F6D01C255DF4FE880F9800A811B8197
:10109000CE5AD040C153DF4F288139814A815B81CC
:1010A000CF5CD0400E945E42F2018081918181300C
:1010B000910509F44BC0DCF5892B09F0ACC120E0A7
:1010C00030E044EB52E4E5966CAD7DAD8EAD9FAD66
:1010D000E5970E94DE6A7B018C01E5966CAF7DAFDF
:1010E0008EAF9FAFE59765962CAD3DAD4EAD5FAD34
:1010F0006597A1966CAD7DAD8EAD9FADA197DE01DC
:10110000D1964D01FE01BD965F0118976D010E94B9
:101110007941A401B501C6010E94CC3EAB962CAD2D
:101120003DAD4EAD5FADAB9700E0B6014AC0823039
:101130009105F9F0039709F06EC1E5966CAD7DADB0
:101140008EAD9FADE5970E943B3B38C32196ECAC3A
:10115000FDAC0EAD1FAD219765962CAD3DAD4EADEE
:101160005FAD6597E5966CAD7DAD8EAD9FADE597B6
:1011700012C02196ECACFDAC0EAD1FAD2197E596EB
:101180002CAD3DAD4EAD5FADE597A1966CAD7DAD9F
:101190008EAD9FADA197FE01F1964F01DE019D96A8
:1011A0005D0163010E947941A401B501C3010E9460
:1011B000CC3EAB962CAD3DAD4EAD5FADAB9700E0F8
:1011C000B30180E0F4C29E012B5E3F4F3F932F930B
:1011D0008E01075D1F4F1F930F93C355DF4FB881DB
:1011E000CD5AD040BF93C455DF4FE881CC5AD04090
:1011F000EF93C555DF4FF881CB5AD040FF93C655CA
:10120000DF4F2881CA5AD0402F932AE532E03F931E
:101210002F939F938F930E94856F0FB6F894DEBF34
:101220000FBECDBF04970CF4E9C0EF961CAE1DAE07
:101230001EAE1FAEEF97E5961CAE1DAE1EAE1FAEE6
:10124000E597AB961CAE1DAE1EAE1FAEAB97A1963A
:101250001CAE1DAE1EAE1FAEA197AE0145585F4F2E
:1012600060E070E0CE018F5A9F4F0E94E82E8823E5
:1012700009F4A4C2AE014F585F4F60E070E0CE01A8
:10128000CD960E94E82E882309F498C2AE014959F0
:101290005F4F60E070E0C8010E94E82E882309F4E7
:1012A0008DC2AE01435A5F4F60E070E0CE014596BB
:1012B0000E94E82E882309F481C26091210D70916B
:1012C000220D8091230D9091240D0E945A6CC255DD
:1012D000DF4F688379838A839B83CE5AD0406091A5
:1012E0001D0D70911E0D80911F0D9091200D0E947B
:1012F0005A6C2B013C016091190D70911A0D80916F
:101300001B0D90911C0D0E945A6CFE0139964F01E5
:101310009E012B5F3F4F5901DE0111966D01C255B1
:10132000DF4FE880F9800A811B81CE5AD040A301AB
:1013300092010E94753FA401B501C6010E94CC3EF6
:10134000EF962CAD3DAD4EAD5FADEF9769817A81E3
:101350008B819C810E94DF6A69837A838B839C8363
:10136000E5962CAD3DAD4EAD5FADE5976D817E81CF
:101370008F8198850E94DF6A6D837E838F83988733
:10138000AB962CAD3DAD4EAD5FADAB9769857A8523
:101390008B859C850E94DF6A69877A878B879C870B
:1013A000A1962CAD3DAD4EAD5FADA19700E0B6016D
:1013B000FDC19E01235A3F4F3F932F938E01095940
:1013C0001F4F1F930F937E01B1E7EB0EF11CFF92AD
:1013D000EF926E01EBE7CE0ED11CDF92CF9229E1A6
:1013E00032E03F932F939F938F930E94856F0FB6A8
:1013F000F894DEBF0FBECDBF049784F41F9281E046
:101400008F938DE092E09F938F930E942A270F90F5
:101410000F900F900F9082E390E0D2C1C356DF4F40
:10142000188219821A821B82CD59D040C756DF4FCD
:10143000188219821A821B82C959D040CB56DF4FBD
:10144000188219821A821B82C559D040CF56DF4FAD
:10145000188219821A821B82C159D0408CE0C6556D
:10146000DF4FA881B981CA5AD0401D928A95E9F709
:10147000AE0143565F4F60E070E0C6010E94E82E67
:10148000882309F49BC1AE0147565F4F60E070E0CE
:10149000C7010E94E82E882309F490C1AE014B5683
:1014A0005F4F60E070E0C8010E94E82E882309F4D5
:1014B00085C1AE014F565F4F60E070E0CE01835AA8
:1014C0009F4F0E94E82E882309F478C1C357DF4F4D
:1014D000188219821A821B82CD58D040C757DF4F1D
:1014E000188219821A821B82C958D040CB57DF4F0D
:1014F000188219821A821B82C558D0406091210D32
:101500007091220D8091230D9091240D0E945A6CB0
:10151000C255DF4F688379838A839B83CE5AD0403C
:1015200060911D0D70911E0D80911F0D9091200DE9
:101530000E945A6C2B013C016091190D70911A0D9B
:1015400080911B0D90911C0D0E945A6CFE01EB576F
:10155000FF4F4F019E0127573F4F5901DE01A3570F
:10156000BF4F6D01C255DF4FE880F9800A811B81B2
:10157000CE5AD040A30192010E945E426091210D9B
:101580007091220D8091230D9091240D0E945A6C30
:10159000C153DF4F688379838A839B83CF5CD040BC
:1015A00060911D0D70911E0D80911F0D9091200D69
:1015B0000E945A6C2B013C016091190D70911A0D1B
:1015C00080911B0D90911C0D0E945A6CC553DF4FEA
:1015D00088809980CB5CD040E1E5F0E0EC0FFD1F06
:1015E0003496C255DF4FF983E883CE5AD0405F016D
:1015F0009E012F5A3F4F6901C153DF4FE880F980A8
:101600000A811B81CF5CD040A30192010E94753FEB
:10161000C553DF4F48815981CB5CD040C255DF4F65
:1016200068817981CE5AD040C6010E94CC3E659631
:101630006CAD7DAD8EAD9FAD65976996CCACDDACE4
:10164000EEACFFAC69979B01AC010E94116E4B019F
:101650005C01A7019601C701B6010E94116E9B01B2
:10166000AC01C501B4010E94DF6A0E947E6EC356C0
:10167000DF4F288139814A815B81CD59D0400E945A
:10168000DF6A6B017C01C356DF4F688379838A83ED
:101690009B83CD59D040C756DF4F288139814A817D
:1016A0005B81C959D040CB57DF4F688179818A81EE
:1016B0009B81C558D0400E94DF6A21EE3EE245E69C
:1016C00052E40E94BF6B2B013C010E94BC6B9B014A
:1016D000AC01C701B6010E94116E4B015C01659619
:1016E0006CAF7DAF8EAF9FAF6597C301B2010E9413
:1016F000746E9B01AC01C701B6010E94116E699620
:101700006CAF7DAF8EAF9FAF6997CB56DF4F28810F
:1017100039814A815B81C559D0406D966CAD7DADF4
:101720008EAD9FAD6D970E94DF6A6D966CAF7DAFF9
:101730008EAF9FAF6D978E01035C1F4F24E045E095
:10174000C501B4010E94636869966CAD7DAD8EAD34
:101750009FAD69970451110924E045E00E94636838
:101760006D966CAD7DAD8EAD9FAD6D970451110939
:1017700024E045E00E946368C356DF4F68817981A9
:101780008A819B81CD59D0400451110924E045E064
:101790000E946368CF56DF4F288139814A815B817F
:1017A000C159D04000E0BE016F5A7F4F81E00E94D6
:1017B000285290E005C081E090E002C080E090E017
:1017C0009C01215031092230310510F00C94A21EE9
:1017D00038E22316310409F445C280F594E1291654
:1017E000310498F4A1E12A16310408F079C1B4E07B
:1017F0002B16310409F479C008F4F4C0FAE02F166E
:10180000310409F45EC00C94441E2CE1221631040C
:1018100009F457C038F486E12816310408F4BEC133
:101820000C94441E9EE12916310409F44AC0A6E234
:101830002A16310409F4D6C00C94441EBDE32B16BD
:10184000310409F4FEC110F5F5E32F16310409F453
:101850004CC060F43BE22316310409F4B6C181E3C5
:101860002816310409F4B1C10C94441E9CE32916D6
:10187000310410F00C94441ECF53DF4F8881C15CBB
:10188000D040865380931D1399E0D5C1ACE52A164C
:10189000310460F4BAE52B16310408F03CC1E0E5F0
:1018A0002E16310409F4ACC00C94441EFCE52F162E
:1018B000310439F02FE52216310408F462C10C948A
:1018C000441ECE54DF4F88819981C25BD040892B62
:1018D00011F00C94581EC654DF4F9881CA5BD0405B
:1018E000992309F450C00C943A1EACE12A16310435
:1018F000D1F148F4E4E02E16310481F0FAE02F161D
:101900003104E9F01FC02EE12216310409F445C06C
:1019100035E32316310409F463C014C081E010C01C
:10192000FFE12F16310408F04FC02AE022163104DF
:1019300079F481E0C654DF4F8883CA5BD04082E0EF
:1019400080931613C255DF4F1882CE5AD04097C1EC
:101950003CE12316310409F09CC191E0C654DF4FED
:101960009883CA5BD040CE54DF4FA881B981C25B57
:10197000D040109731F01A9711F00C94441E84E077
:1019800015C083E013C0EEE12E16310449F6B1E034
:10199000C654DF4FB883CA5BD040CE54DF4FE881D6
:1019A000F981C25BD040309749F485E080931613EB
:1019B000C255DF4F1882CE5AD04076C13A9711F007
:1019C0000C94441E86E0F2CF85E32816310411F012
:1019D0000C946D1EF1E0C654DF4FF883CA5BD04013
:1019E00087E0AECFC654DF4F9881CA5BD0409111DB
:1019F0000C943A1EA2E0C654DF4FA883CA5BD040C5
:101A0000B2E02B16310421F160F421143104E1F02D
:101A10002A94232809F02DC181E080931713A1E0B7
:101A200074C026E222163104E9F030E523163104B1
:101A300009F452C083E02816310409F01AC183E08A
:101A400080931713E1E00FC11092171391E0F3C0D8
:101A500082E080931713B1E0C255DF4FB883CE5AAE
:101A6000D0400DC1CE54DF4F28813981C25BD040B8
:101A70002E31310539F178F42431310511F00C940F
:101A8000441E84E08093171391E0C255DF4F988382
:101A9000CE5AD04009C1CE54DF4F88819981C25BB4
:101AA000D0408832910599F0C29711F00C94441EF1
:101AB00087E080931713E1E0C255DF4FE883CE5AE9
:101AC000D040F2C085E080931713A1E054C086E0B7
:101AD00080931713B1E0C0C088E080931713C9C08A
:101AE00022E12216310441F033E12316310449F09A
:101AF00010921B1382E063C081E080931B1392E07D
:101B00009AC082E080931B13A2E0C255DF4FA883E6
:101B1000CE5AD040B4C0CE54DF4FE881F981C25BC9
:101B2000D040EF2BB9F4FAE52F16310449F41092A6
:101B30001A1323E0C255DF4F2883CE5AD040B4C0D9
:101B400081E080931A1333E0C255DF4F3883CE5AB9
:101B5000D040AAC0CE54DF4F88819981C25BD0406B
:101B60000A9711F00C94441E9AE52916310411F4D9
:101B70000C94441EA4E0C255DF4FA883CE5AD04037
:101B800093C0BDE52B16310429F481E0809318132E
:101B9000E5E069C010921813F5E06CC024E122164C
:101BA000310451F481E08093191336E0C255DF4FC0
:101BB0003883CE5AD04063C01092191386E0C255C4
:101BC000DF4F8883CE5AD0405AC0C654DF4F988129
:101BD000CA5BD04091110C943A1EA1E32A1631043D
:101BE00079F410921C13B8E0C255DF4FB883CE5A77
:101BF000D040E3E0C654DF4FE883CA5BD04054C016
:101C0000CE54DF4F28813981C25BD0402A30310564
:101C100011F00C94441E81E080931C1338E0C255EF
:101C2000DF4F3883CE5AD04083E0C654DF4F8883DD
:101C3000CA5BD04039C0C255DF4F9883CE5AD040DE
:101C40001EC0CE54DF4FA881B981C25BD040AB2B00
:101C500011F00C94441EBAE0C255DF4FB883CE5A3F
:101C6000D04022C0E7E0C255DF4FE883CE5AD040D3
:101C700006C0F1E0C255DF4FF883CE5AD040CE54B3
:101C8000DF4F28813981C25BD040232B69F00C944F
:101C90006B1EC255DF4F1882CE5AD04031E0C65479
:101CA000DF4F3883CA5BD040C554DF4FE881F981EC
:101CB000CB5BD040CF01A0E0B0E0C255DF4F088041
:101CC000CE5AD04004C0B695A795979587950A94AB
:101CD000D2F780FF03C085E10C94A21E81E090E062
:101CE000A0E0B0E0C255DF4F0880CE5AD04004C01B
:101CF000880F991FAA1FBB1F0A94D2F7C554DF4F44
:101D000028813981CB5BD040282B392BC554DF4F3C
:101D100039832883CB5BD0400C94F905CE54DF4F38
:101D200088819981C25BD040892B11F00C946B1E85
:101D3000CB55DF4F8881C55AD040C753DF4F6881EC
:101D40007981C95CD040680F711DAE014B555F4F62
:101D5000CF53DF4F88819981C15CD0400E94D41E4F
:101D60009C01215031092230310510F00C94A21E43
:101D700096E02916310428F4A3E02A16310490F0E5
:101D800026C0B8E02B16310410F40C94441EEAE08F
:101D90002E16310408F440C0FEE12F16310411F074
:101DA0000C94441E22E02216310461F03EE1231619
:101DB000310441F0232809F046C081E080931E13CE
:101DC0008BE032C082E080931E139BE036C0A4E01B
:101DD0002A16310471F0B5E02B163104A1F081E030
:101DE00080932013ECE0C255DF4FE883CE5AD040F9
:101DF000AFC482E080932013FCE0C255DF4FF8832C
:101E0000CE5AD040A5C4109220132CE0C255DF4F0B
:101E10002883CE5AD0409CC439E02316310451F0B7
:101E200082E080931F138DE0C255DF4F8883CE5A26
:101E3000D0408EC410921F139DE0C255DF4F98838F
:101E4000CE5AD04085C4ABE0C255DF4FA883CE5AEE
:101E5000D0407EC4CE54DF4F28813981C25BD04050
:101E6000232B11F00C946B1ECB55DF4F8881C55A84
:101E7000D040C753DF4FE881F981C95CD040E80FFB
:101E8000F11D37EB231638E0330609F46EC308F072
:101E900061C19CE9291698E0390609F49CC108F053
:101EA00078C0B9E92B16B8E03B0609F48EC108F0FA
:101EB00061C0F8E92F16F8E03F0609F03FC484E15D
:101EC0001E01A9E22A0E311CF101282F11922A9538
:101ED000E9F7DE015596CA55DF4FB983A883C65A84
:101EE000D040E82F1D92EA95E9F7C855DF4FA88149
:101EF000B981C85AD0401D928A95E9F780E090E0F8
:101F00000E9411442B013C0181E090E00E941144A9
:101F10004B015C0182E090E00E9411446B017C0166
:101F2000810124E045E0C301B2010E9463680451CD
:101F3000110924E045E0C501B4010E946368045121
:101F4000110924E045E0C701B6010E946368C95544
:101F5000DF4FB881C75AD040BF93CA55DF4FE881E1
:101F6000C65AD040EF933F922F921F930F9383E86E
:101F700092E0C2C32AE9221628E0320609F428C1F9
:101F80003BE9231638E0330609F0D8C38FE992E025
:101F900024C18EE9281688E0380609F42AC108F41D
:101FA00021C1ACEA2A16A8E03A0609F43DC2BDEA0E
:101FB0002B16B8E03B0609F0C1C3A1961CAE1DAEBE
:101FC0001EAE1FAEA19765961CAE1DAE1EAE1FAE17
:101FD000659721961CAE1DAE1EAE1FAE219784E103
:101FE0001E0199E2290E311CD101E82F1D92EA95BC
:101FF000E9F79E012B5E3F4FCA55DF4F3983288397
:10200000C65AD040D901E82F1D92EA95E9F7C85584
:10201000DF4FA881B981C85AD0401D928A95E9F74F
:1020200080E090E00E941144CE54DF4F68837983B2
:102030008A839B83C25BD04081E090E00E94114480
:10204000CF53DF4F688379838A839B83C15CD04001
:1020500082E090E00E94114420E030E044EB52E442
:102060000E94DE6A2B013C01FE01FD964F019E019C
:102070002F5A3F4F5901CE01835A9F4F6C01830164
:102080007201CF53DF4F288139814A815B81C15C66
:10209000D040CE54DF4F688179818A819B81C25BB9
:1020A000D0400E947941A401B501C6010E94CC3EF6
:1020B000A1966CAD7DAD8EAD9FADA1976596CCAC74
:1020C000DDACEEACFFAC65979B01AC010E94116EDC
:1020D0004B015C01A7019601C701B6010E94116E78
:1020E0009B01AC01C501B4010E94DF6A0E947E6EB3
:1020F000810124E045E00E94636820E030E044EB89
:1021000052E4C301B2010E94DF6A0451110924E0C4
:1021100045E00E94636821966CAD7DAD8EAD9FADAC
:1021200021970451110924E045E00E9463681F9340
:102130000F93C955DF4FB881C75AD040BF93CA55D6
:10214000DF4FE881C65AD040EF933F922F9281EC47
:1021500092E0D2C220EC221628E0320609F431C205
:10216000D0F489EB281688E0380609F415C208F483
:1021700008C2AAEB2A16A8E03A0609F415C2BBEB7E
:102180002B16B8E03B0609F0D9C28091020185FB0D
:10219000882780F914C222EC221628E0320609F4BE
:1021A00081C208F450C283EC281688E0380609F48E
:1021B0008BC290E6291699E0390609F0BFC28091DA
:1021C000000D8F938091FF0CA5C281E992E005C0BC
:1021D0008EE79EE002C086EA92E09F938F938AE9A1
:1021E00092E09BC282E594E09F938F938DEA92E008
:1021F00094C280818E3409F04AC2818190ED292EEB
:10220000280E93E0921508F442C2AB961CAE1DAEA8
:102210001EAE1FAEAB97A1961CAE1DAE1EAE1FAE7E
:10222000A19765961CAE1DAE1EAE1FAE659784E1EC
:10223000C455DF4FA881B981CC5AD040E82F1D92F8
:10224000EA95E9F7FE01B996DF01282F1D922A953C
:10225000E9F77497DF01282F1D922A95E9F7C855F1
:10226000DF4FA881B981C85AD0401D928A95E9F7FD
:1022700060910413709105138091061390910713D8
:102280000E945A6CCE54DF4F688379838A839B8384
:10229000C25BD040609100137091011380910213D2
:1022A000909103130E945A6C2B013C016091FC1227
:1022B0007091FD128091FE129091FF120E945A6C53
:1022C000FE01EF5AFF4F4F019E01235A3F4F590124
:1022D000DE01A959BF4F6D01CE54DF4FE880F98070
:1022E0000A811B81C25BD040A30192010E945E4221
:1022F00020E030E044EB52E465966CAD7DAD8EADF0
:102300009FAD65970E94DF6A65966CAF7DAF8EAF1B
:102310009FAF65978091FF0C9091000D04970297F5
:1023200048F48090780E9090790EA0907A0EB0903C
:102330007B0E24C020E030E040E05FE360910002CB
:102340007091010280910202909103020E94DE6A64
:1023500020E030E040E05FE30E94116E20E030E0DA
:1023600044E353E40E94116E9B01AC0160E070E015
:1023700084E393E40E94DE6A4B015C01AB966CAD92
:102380007DAD8EAD9FADAB978E01035C1F4F24E0FA
:1023900045E00E9463687E01B9E2EB0EF11CA19654
:1023A0006CAD7DAD8EAD9FADA197870124E045E07A
:1023B0000E9463686E01E5E1CE0ED11C65966CAD9E
:1023C0007DAD8EAD9FAD6597860124E045E00E940E
:1023D00063680451110924E045E0C501B4010E947D
:1023E0006368F2E02F16B1F023E02216B1F031E07D
:1023F000231619F0DF92CF92F2CEC355DF4F8881BA
:10240000CD5AD0408F93C455DF4F9881CC5AD040DD
:102410009F93E5CEFF92EF92E2CEA1E0B0E0AC0F49
:10242000BD1FBF93AF93DBCEA1961CAE1DAE1EAEFB
:102430001FAEA19765961CAE1DAE1EAE1FAE659772
:1024400021961CAE1DAE1EAE1FAE219784E11E016B
:10245000B9E22B0E311CF101282F11922A95E9F7D0
:10246000DE015596CA55DF4FB983A883C65AD040BE
:10247000E82F1D92EA95E9F7C855DF4FA881B98189
:10248000C85AD0401D928A95E9F780E090E00E94FA
:1024900011442B013C0181E090E00E941144CE5494
:1024A000DF4F688379838A839B83C25BD04082E05D
:1024B00090E00E94114420E030E044EB52E40E949E
:1024C000DE6AFE01FD964F019E012F5A3F4F5901D2
:1024D000DE01A35ABF4F6D017B018C01CE54DF4F4B
:1024E000288139814A815B81C25BD040C301B2013E
:1024F0000E947941A401B501C6010E94CC3EA1967B
:102500006CAD7DAD8EAD9FADA197810124E045E01E
:102510000E94636865966CAD7DAD8EAD9FAD65978D
:102520000451110924E045E00E94636821966CADD6
:102530007DAD8EAD9FAD21970451110924E045E09A
:102540000E9463681F930F93C955DF4FF881C75AE4
:10255000D040FF93CA55DF4F2881C65AD0402F93F1
:102560003F922F9283EB92E0C7C0A49B11C08FE3F0
:102570000E9426518A30910558F08734910530F039
:1025800009C0479905C00898009904C082E017C0A7
:1025900080E015C081E013C082B38695869586954C
:1025A00091E0892781700BC08BE30E94265121E0C6
:1025B0008536910508F420E01F922F93ACC01F923E
:1025C000A9C081E090E08C0F9D1F9F938F938FECAB
:1025D00092E09F938F93FF93EF930E94856F0F90EC
:1025E0000F900F900F900F900F90181619060CF087
:1025F00041C029813A812634310508F048C0F901EB
:10260000EA57F54F8491F901E05CF54F1491F90117
:10261000E650F64F0491002391F081110E94A250E0
:10262000E02FF0E0EE0FFF1FEE5EFC4FA591B4919E
:10263000EC911E2381E090E021F480E002C080E074
:1026400090E09F9367C0A1E0B0E0AC0FBD1FBF93C7
:10265000AF938FEC92E09F938F93FF93EF930E9441
:10266000856F0F900F900F900F900F900F9018168E
:10267000190684F01F9281E08F938DE092E09F9382
:102680008F930E942A270F900F900F900F9082E354
:1026900090E056C089819A8180319105C0F70E94EF
:1026A0002651CFCF80913E0D8F9380913D0D8F931A
:1026B00080913C0D8F9380913B0D8F9380913A0DCB
:1026C0008F938091390D15C080E090E00E94BF4348
:1026D000182F092F81E090E00E94BF43F82EE92EC9
:1026E00082E090E00E94BF43EF92FF920F931F930E
:1026F0009F938F9383ED92E09F938F938DEC9CE05B
:102700009F938F930E94576F0FB6F894DEBF0FBE52
:10271000CDBF11C08F9389E893E09F938F938DEC89
:102720009CE09F938F930E94576F0F900F900F9094
:102730000F900F900F9080E090E002C081E090E059
:102740009C01215031092230310510F00C94A21E59
:10275000C554DF4FE881F981CB5BD040CF01A0E0C9
:10276000B0E0C255DF4F0880CE5AD04004C0B695C5
:10277000A795979587950A94D2F780FDACCA81E01A
:1027800090E0A0E0B0E0C255DF4F0880CE5AD040C4
:1027900004C0880F991FAA1FBB1F0A94D2F7E82B09
:1027A000F92BC554DF4FF983E883CB5BD0400C9401
:1027B000F905812F110F990BAA0BBB0BFC01E654F5
:1027C000F109E531F10510F00C94441E8827EE580C
:1027D000FF4F8F4F0C94246FC0922113D09222137D
:1027E000E0922313F0922413C255DF4F1882CE5A81
:1027F000D040D2C0C0922513D0922613E092271366
:10280000F0922813CB53DF4FF881C55CD040F160C4
:10281000CB53DF4FF883C55CD04021E04FC0C0925E
:102820002913D0922A13E0922B13F0922C13CB533E
:10283000DF4F3881C55CD0403260CB53DF4F3883E7
:10284000C55CD04082E053C0C0922D13D0922E13AD
:10285000E0922F13F0923013CB53DF4F9881C55C79
:10286000D0409460CB53DF4F9883C55CD040A3E049
:1028700058C0CF53DF4FB881C15CD040B093311303
:10288000E4E069C0C701B6010E94276C609332136F
:10289000709333138093341390933513F5E0C2553E
:1028A000DF4FF883CE5AD04077C0C0923613D09213
:1028B0003713E0923813F092391326E0C255DF4FF8
:1028C0002883CE5AD04068C0C0923A13D0923B13AE
:1028D000E0923C13F0923D1337E059C0C0923E1392
:1028E000D0923F13E0924013F092411388E0C2551A
:1028F000DF4F8883CE5AD0404FC0C0924313D0924E
:102900004413E0924513F0924613CA54DF4F988166
:10291000C65BD0409160CA54DF4F9883C65BD040FD
:10292000AAE0C255DF4FA883CE5AD04035C0C0922E
:102930004713D0924813E0924913F0924A13CA54B5
:10294000DF4FB881C65BD040B260CA54DF4FB88356
:10295000C65BD040EBE0C255DF4FE883CE5AD04093
:102960001BC0C0924B13D0924C13E0924D13F092C7
:102970004E13CA54DF4FF881C65BD040F460CA548E
:10298000DF4FF883C65BD0402CE098CF39E0C255CA
:10299000DF4F3883CE5AD040C255DF4F8881CE5AA0
:1029A000D040082FC154DF4FE881F981CF5BD04080
:1029B000CF01A0E0B0E0C255DF4F0880CE5AD04032
:1029C00004C0B695A795979587950A94D2F780FF8E
:1029D00002C00C943C1E81E693E0A0E0B0E0C2553A
:1029E000DF4F0880CE5AD04004C0B695A795979582
:1029F00087950A94D2F780FF0BC020E030E0A90150
:102A0000C701B6010E94B86B87FF02C00C943E1E3E
:102A100081E090E0A0E0B0E004C0880F991FAA1FF9
:102A2000BB1F0A95D2F7C154DF4F28813981CF5B94
:102A3000D040282B392BC154DF4F39832883CF5BFB
:102A4000D0400C94F905CA54DF4F3881C65BD040A2
:102A5000332369F0C654DF4F8881CA5BD0408111AF
:102A600006C092E0C654DF4F9883CA5BD040C15481
:102A7000DF4FA881CF5BD040A5FF0FC080913213FC
:102A800090913313A0913413B09135138038964947
:102A9000A849B10514F00C94401E809118138130A0
:102AA00091F4C654DF4FF881CA5BD040F23009F090
:102AB00040C0C154DF4F2881CF5BD04020FD02C011
:102AC0000C944A1E36C080915013811132C0C154FB
:102AD000DF4F3881CF5BD04030FF1BC0809119138E
:102AE000813039F523E333E34BEC51E4609121135A
:102AF0007091221380912313909124130E94116EE0
:102B000060932113709322138093231390932413C3
:102B100010C080915D1390915E13A0915F13B091EE
:102B200060138093211390932213A0932313B093E7
:102B30002413C154DF4F88819981CF5BD04090FD31
:102B400010C08091591390915A13A0915B13B091CA
:102B50005C1380933E1390933F13A0934013B09364
:102B60004113809116138130B9F4C154DF4F98811D
:102B7000CF5BD04096FD03C08CE10C94A21EC154E3
:102B8000DF4FA881B981CF5BD040AF7BC154DF4F0D
:102B9000B983A883CF5BD04080911B13882331F188
:102BA000813091F4B1E0C753DF4FB883C95CD040A6
:102BB000CE54DF4F1882C25BD040E2E0C255DF4FF7
:102BC000E883CE5AD04023C0C753DF4F1882C95C78
:102BD000D040F2E0CE54DF4FF883C25BD04021E01A
:102BE000C255DF4F2883CE5AD04011C032E0C753C0
:102BF000DF4F3883C95CD04081E0CE54DF4F8883FB
:102C0000C25BD040C255DF4F1882CE5AD04080916F
:102C10001913813049F0C654DF4F9881CA5BD04008
:102C2000933009F043C036C0B6E1EB2EB3E1FB2E82
:102C300000E010E0CA54DF4FA881C65BD0408A2E66
:102C4000912CA12CB12CD501C401002E04C0B69545
:102C5000A795979587950A94D2F780FF12C023E332
:102C600033E34BEC51E4F70165A576A587A590A960
:102C70000E94116ED7019D966D937D938D939C93C9
:102C8000D0970F5F1F4FB4E0EB0EF11C033011051E
:102C9000D1F6C1CF80911C13813041F4CA54DF4F6B
:102CA000E881C65BD040E43009F0ECC78CE0E2E795
:102CB000F3E1DE01119601900D928A95E1F7C5547A
:102CC000DF4F28813981CB5BD04031FD08C01091A6
:102CD00016131230C1F0183009F4EAC058C18091BF
:102CE0001D13873018F08DE10C94A21E909155139E
:102CF000891769F3BE016F5F7F4F0E946E3488238E
:102D000009F4D4C7E4CFCA54DF4F3881C65BD04042
:102D1000311103C08AE10C94A21EC154DF4F888197
:102D20009981CF5BD04080759927892B09F424CFF6
:102D30006091361370913713809138139091391345
:102D40000E94BF6E0E942C6C673068F68091311330
:102D5000843151F0823009F097C7C154DF4F888128
:102D6000CF5BD04087FD90C7C154DF4FA881B981A8
:102D7000CF5BD040AF7AC154DF4FB983A883CF5B1C
:102D8000D040662321F022242A94260E02C02090EF
:102D90001D13BE016B5E7F4F822D0E946E3488230F
:102DA00009F484C73090311380908A1390908B136C
:102DB000A0908C13B0908D13A6E1CA2EA3E1DA2E59
:102DC0008E010B5E1F4FEFE4F3E1C554DF4FF98333
:102DD000E883CB5BD040E12CF12CCA54DF4FF88163
:102DE000C65BD0404F2E512C612C712CD301C201F7
:102DF0000E2C04C0B695A795979587950A94D2F79F
:102E000080FF3BC024E132122EC0C554DF4FA881A1
:102E1000B981CB5BD0409F962D913D914D915C91B6
:102E2000D29757966D917D918D919C915A970E9462
:102E3000DE6AF60125A536A547A550A90E94DE6ADF
:102E4000D8016D937D938D939C931397B2E0EB1211
:102E500014C0A50194010E94DE6AF80160837183A9
:102E6000828393830AC0F60185A596A5A7A5B0A97C
:102E7000F80180839183A283B383FFEFEF1AFF0AE7
:102E800024E0C20ED11C0C5F1F4FC554DF4F888158
:102E90009981CB5BD0400496C554DF4F99838883DA
:102EA000CB5BD04093E0E916F10409F09FCF4CC111
:102EB000CA54DF4FA881C65BD040AA2309F42ACFA9
:102EC00080908A1390908B13A0908C13B0908D13E8
:102ED000FFE4CF2EF3E1DF2EFE0131961F0106E164
:102EE00013E1E12CF12C4A2E512C612C712CD301D1
:102EF000C2010E2C04C0B695A795979587950A94A4
:102F0000D2F780FF29C0D1012D913D914D915C9167
:102F1000F6016789708D818D928D0E94DE6AD801DD
:102F20009D962D913D914D915C91D0970E94DE6AC6
:102F3000F80165A776A787A790ABF2E0EF1216C05D
:102F4000A50194010E94DE6AD8019D966D937D9340
:102F50008D939C93D0970AC0F60187A590A9A1A94B
:102F6000B2A9F80185A796A7A7A7B0ABFFEFEF1A04
:102F7000FF0A24E0C20ED11C34E0230E311C0C5F8A
:102F80001F4F83E0E816F10409F0B1CFDCC0C6544E
:102F9000DF4F9881CA5BD040933009F49DC0CA547A
:102FA000DF4FA881C65BD040AA2309F4C1C60091B7
:102FB0001A1340908A1350908B1360908C1370906A
:102FC0008D137FE4A72E73E1B72EE6E1EE2EE3E149
:102FD000FE2EFE0131964F01C12CD12C8A2F90E09C
:102FE000A0E0B0E0C554DF4F88839983AA83BB83F8
:102FF000CB5BD040C554DF4F88819981AA81BB81CA
:10300000CB5BD0400C2C04C0B695A79597958795BF
:103010000A94D2F780FD0BC0F5018789908DA18DB0
:10302000B28DF70185A796A7A7A7B0AB43C017300D
:1030300009F440C001112BC0D5019F962D913D91FF
:103040004D915C91D297F40160817181828193816D
:103050000E94DF6AD7019D962D913D914D915C9123
:10306000D0970E94DF6AF70165A776A787A790AB84
:10307000F2E0CF121FC0A30192010E94DF6AD701C4
:103080009D966D937D938D939C93D09713C0F5017E
:103090002789308D418D528DD7019D966D917D91FF
:1030A0008D919C91D0970E94DF6AF70165A776A762
:1030B00087A790ABFFEFCF1ADF0A24E0A20EB11C66
:1030C00034E0E30EF11C84E0880E911C93E0C916F5
:1030D000D10409F08FCF2DC01530A9F0173071F150
:1030E000133089F5CA54DF4FA881C65BD040A111C7
:1030F00005C0C654DF4F1882CA5BD040BE016B5E6C
:103100007F4F86E010C0CA54DF4FB881C65BD04005
:10311000B11105C0C654DF4F1882CA5BD040BE0152
:103120006B5E7F4F87E00E946E34882309F4BEC532
:103130000AC01530A1F3173009F0F6C580911713B6
:10314000823008F0A3C5212C30901713E8E03E121E
:1031500011C0CA54DF4FF881C65BD040FF2309F489
:1031600005C3C654DF4F2881CA5BD040213009F027
:103170008FC511C3C654DF4F3881CA5BD04032308F
:1031800009F0F4C2311009C0CA54DF4F8881C65B10
:10319000D040882309F4F1C2FEC220E030E0A9014A
:1031A0006091211370912213809123139091241325
:1031B0000E94B86B882309F46DC593E0931538F02D
:1031C000A2E03A1690F4B1E03B1631F0E4C2E7E039
:1031D000E31508F0BEC2DFC2CA54DF4FF881C65BF8
:1031E000D040FF2309F4C9C2D6C2CA54DF4F288198
:1031F000C65BD040222309F48DCDC255DF4F9881A4
:10320000CE5AD040892F90E0C554DF4F99838883F0
:10321000CB5BD040CE54DF4FB881C25BD040AB2FE8
:10322000B0E0CF53DF4FB983A883C15CD04081E0C9
:1032300090E0A0E0B0E06C017D01C255DF4F088056
:10324000CE5AD04004C0CC0CDD1CEE1CFF1C0A94EE
:10325000D2F7CE54DF4F0880C25BD04004C0880F45
:10326000991FAA1FBB1F0A94D2F7C82AD92AEA2A93
:10327000FB2A822F90E0A0E0B0E08C219D21AE21BE
:10328000BF21892B8A2B8B2B09F406C5C554DF4F30
:1032900088819981CB5BD040880F991F880F991F37
:1032A000FC01EA5EFC4EDC01A15BBC4E57962D9101
:1032B0003D914D915C915A9765A576A587A590A9FA
:1032C0000E94DE6A4B015C01CF53DF4F88819981F8
:1032D000C15CD040880F991F880F991FFC01EA5EDE
:1032E000FC4EDC01A15BBC4E57962D913D914D915A
:1032F0005C915A9765A576A587A590A90E94DE6A7C
:10330000CA54DF4F688379838A839B83C65BD0402E
:10331000C154DF4F08811981CF5BD040007811275D
:10332000C154DF4FE881CF5BD040E7FF15C1C154E6
:10333000DF4F28813981CF5BD0402F77C154DF4FD9
:1033400039832883CF5BD0400E94FD64882311F02D
:1033500081E2F8C4809119138130B1F423E333E39F
:103360004BEC51E460913A1370913B1380913C1304
:1033700090913D130E94116E60933A1370933B132A
:1033800080933C1390933D1340903A1350903B131D
:1033900060903C1370903D13A5019401C501B401E8
:1033A0000E94116ECB53DF4F688379838A839B839E
:1033B000C55CD040CA54DF4F288139814A815B8186
:1033C000C65BD040CA01B9010E94116EC553DF4FE0
:1033D000688379838A839B83CB5CD04020E030E094
:1033E00040E850E4C301B2010E94116EA3019201B2
:1033F0000E94116ECB53DF4F288139814A815B8156
:10340000C55CD0400E94DE6AC553DF4F28813981F8
:103410004A815B81CB5CD0400E94DE6A6B017C01FB
:1034200020E030E0A9010E94B86B87FD37C4C701D6
:10343000B6010E947E6E6B017C01C553DF4F28816F
:1034400039814A815B81CB5CD040CB53DF4F6881AF
:1034500079818A819B81C55CD0400E94DF6A0E948D
:103460007E6E9B01AC01C701B60190580E94BF6BF4
:103470006B017C0133E0331204C0F7FAF094F7F8E3
:10348000F09420E030E0A901C301B2010E94B86BC2
:1034900087FF0FC0F7FAF094F7F8F094D301C20158
:1034A000B05880933A1390933B13A0933C13B0937E
:1034B0003D13C554DF4F08811981CB5BD040000F0D
:1034C000111F000F111F065E1C4ECA54DF4F2881CA
:1034D00039814A815B81C65BD040C701B6010E9439
:1034E000116E9B01AC01C501B4010E94DE6A20E0AF
:1034F00030E040E05FE30E94116ED8011B966D93AF
:103500007D938D939C931E97CF53DF4F0881198134
:10351000C15CD040000F111F000F111F065E1C4E32
:10352000A5019401C701B6010E94116ECA54DF4F74
:10353000288139814A815B81C65BD0400E94DF6A65
:1035400020E030E040E05FE30E94116EF801638705
:103550007487858796871FC1CB53DF4FF881C55C81
:10356000D0404F2E512C612C712CC420D520E62048
:10357000F720CD28CE28CF2809F492C3C154DF4FBD
:1035800028813981CF5BD040217FC154DF4F3983FF
:103590002883CF5BD04080911913813009F491C00A
:1035A000C554DF4FE881F981CB5BD040EE0FFF1FA0
:1035B000EE0FFF1FE65EFC4EC384D484E584F684E0
:1035C000A7019601C501B4010E94DE6A2B013C01EE
:1035D000CF53DF4FE881F981C15CD040EE0FFF1F70
:1035E000EE0FFF1FE65EFC4E83859485A585B685AC
:1035F000C554DF4F88839983AA83BB83CB5BD040BC
:103600009C01AD01CA54DF4F688179818A819B8119
:10361000C65BD0400E94DE6A4B015C01A3019201AF
:10362000C301B2010E94116E2B013C01A50194015E
:10363000C501B4010E94116E9B01AC01C301B2012E
:103640000E94DF6A0E947E6E4B015C01A701960119
:10365000C701B6010E94116E6B017C01C554DF4F9A
:10366000288139814A815B81CB5BD040CA01B90195
:103670000E94116E9B01AC01C701B6010E94DF6A76
:103680000E947E6E6B017C0160933A1370933B1332
:1036900080933C1390933D139B01AC01C501B40191
:1036A0000E94DE6A4B015C01E894B7F82AE037ED2E
:1036B00043EA5BE3C501B4010E94D66D181664F1BC
:1036C0006AC086E1E82E83E1F82ED301C201002E04
:1036D00004C0B695A795979587950A94D2F780FF71
:1036E00012C023E333E34BEC51E4D7011F966D91F5
:1036F0007D918D919C9152970E94116EF701678781
:10370000708B818B928B0F5F1F4FF4E0EF0EF11CDB
:1037100003301105D1F644CF20E030E040E05FE314
:10372000C501B4010E94D66D18160CF411CE2FE617
:1037300032E143E85AE3C701B6010E94116E9B01D2
:10374000AC01C501B4010E94D66D18160CF400CE70
:1037500022C0CA54DF4F2881C65BD040222309F41F
:10376000D9CA0E94FD648111F3CD15C0C654DF4F44
:103770003881CA5BD04031110EC0C154DF4F8881FF
:103780009981CF5BD0408E7D9C7FC654DF4F1882DD
:10379000CA5BD04008C0C154DF4F88819981CF5B9C
:1037A000D0408E7D907E892B09F07CC280913213AF
:1037B00090913313A0913413B09135138093621319
:1037C00090936313A0936413B093651380911813BF
:1037D000809350138091211390912213A091231371
:1037E000B091241380935D1390935E13A0935F13A5
:1037F000B0936013C0903E13D0903F13E0904013FD
:10380000F0904113A70196016091591370915A13DA
:1038100080915B1390915C130E94B86B8823F9F040
:1038200010915813112359F08091F912823039F018
:103830000E94E064B701A601812F0E9400338091AD
:103840003E1390913F13A0914013B0914113809388
:10385000591390935A13A0935B13B0935C13809108
:103860004213809361131091201380915813811794
:10387000B9F08091F912823079F0C0905913D0904C
:103880005A13E0905B13F0905C130E94E064B70160
:10389000A601812F0E94003380912013809358133A
:1038A00010911F1380915713811781F08091F912A5
:1038B000823041F00E94E064123011F45C9A02C040
:1038C0000E942D5980911F138093571380911613D6
:1038D000813089F080911B138093531380911913C9
:1038E00080935113C654DF4F8881CA5BD040833028
:1038F00009F074C054C08091F912823059F380905D
:10390000361390903713A0903813B090391320E0FD
:1039100030E040EA51E4C501B4010E94116E0E94FA
:10392000956C0E942C6C6B017C010E94E06420E08D
:1039300030E04AE754E4C501B4010E94116E4B0126
:103940005C0182E38C9DB0018D9D700D112480E09F
:1039500090E00E94586C9B01AC01C501B4010E942B
:10396000DE6A0E94956C0E942C6CCB010E948D2C0B
:1039700086010115110509F4ADCF0E94982C015064
:1039800011098091F8128111A5CF9FEFA0E7B2E055
:103990009150A040B040E1F700C00000EACF809114
:1039A0001C1380935413813089F480914B139091B0
:1039B0004C13A0914D13B0914E1380938A139093A2
:1039C0008B13A0938C13B0938D1308C010928A139D
:1039D00010928B1310928C1310928D1380911D13E3
:1039E00090915513981759F0809355138CE0FE0170
:1039F0003196A2E7B3E101900D928A95E1F78091AB
:103A00001A1380935213E09116138E2F90E0FC014D
:103A10003297E830F10508F060C08827E957FF4F7A
:103A20008F4F0C94246FBE016B5E7F4F822D0E94DE
:103A3000653480915513281250C08CE0FE017596B4
:103A4000A2E7B3E13EC0C654DF4FE881CA5BD04075
:103A5000EE2371F020915D1330915E1340915F135E
:103A60005091601300E063E473E181E00E9428520A
:103A700020915D1330915E1340915F13509160135C
:103A800000E0BE016B5E7F4F81E00E942852182F3C
:103A90008CE0FE017596A6E6B3E101900D928A9541
:103AA000E1F71CC066E673E186E003C066E673E1F9
:103AB00087E00E94653411C08CE0E3E4F3E1AEE7F7
:103AC000B3E101900D928A95E1F707C08CE0EEE733
:103AD000F3E1DF011D928A95E9F710E08091171359
:103AE00080934F13883009F470C0C654DF4FB881FB
:103AF000CA5BD040B23009F068C090E088309105D0
:103B000008F05AC0FC0140905D1350905E13609025
:103B10005F13709060138827E157FF4F8F4F0C940D
:103B2000246F00E0A301920163E473E180E007C029
:103B300000915013A301920163E473E181E00E94BC
:103B40002852182F39C060913A1370913B1380911D
:103B50003C1390913D138824839409C060913A13DB
:103B600070913B1380913C1390913D13812CC7536E
:103B7000DF4FA880C95CD040CE54DF4FC880C25B05
:103B8000D040C255DF4FE880CE5AD040009150134C
:103B9000A30192010E94D1650FC000E001C001E0C5
:103BA00020E004C000E001C001E021E0409150139A
:103BB000C301B2010E943B658CE0E3E4F3E1A6E6B9
:103BC000B3E101900D928A95E1F780911E138093E5
:103BD0005613882309F468C00E94E064909156133C
:103BE0008091F912913069F48230E9F19FB7F8942D
:103BF0008091A71288608093A7129FBF0E94982C83
:103C000032C091E090934F131092531310925213BD
:103C1000109250131092551310925813109257137C
:103C20008230A9F0BE016F5F7F4F80E00E946E344A
:103C30008823E1F18CE0FE013196A2E7B3E1019027
:103C40000D928A95E1F70E94F9320E942D5986ED76
:103C500098E00E9486278AE798E00E94862783E6FC
:103C600098E00E948627109256131EC081E06AC019
:103C700082E068C088E166C089E164C084E062C017
:103C80008BE160C085E25EC084E15CC08EE15AC019
:103C90008FE158C086E156C080E254C082E252C033
:103CA00083E250C084E24EC0812F4CC087E04AC0FE
:103CB000AEE12A16310411F40C94CD0C50F5EAE073
:103CC0002E16310411F40C949F0CFCE12F163104D4
:103CD00011F40C94B30C87E135C09CE5291631042E
:103CE00011F00C94490E21E0C654DF4F2883CA5BC3
:103CF000D040CE54DF4F88819981C25BD04000977D
:103D000029F00A9709F689E00C94D60C88E00C9407
:103D1000D60C25E32216310411F40C94F00C3CE58A
:103D20002316310431F3D7CF133009F00CCAE6C99A
:103D3000153009F4EFC9173009F400CA133009F03F
:103D400002CAD7C9CE52DF4F0FB6F894DEBF0FBEFE
:103D5000CDBFDF91CF911F910F91FF90EF90DF903A
:103D6000CF90BF90AF909F908F907F906F905F901B
:103D70004F903F902F9008958091E61282FF08C0E7
:103D80008A98809108018E7F809308015F9807C010
:103D90008A9A809108018160809308015F9A0E944D
:103DA0002D3B1092310D08952F923F924F925F92CA
:103DB0006F927F928F929F92AF92BF92CF92DF923B
:103DC000EF92FF920F931F93CF93DF93CDB7DEB7A0
:103DD000CA55D1090FB6F894DEBF0FBECDBFFB01A7
:103DE0008E3A28E0920708F048C08C3A38E09307F2
:103DF00008F02FC78B34A8E09A0709F4BCC1F0F48F
:103E0000833E27E0920709F47DC160F48231910579
:103E100009F478C18C3C910509F413C1419709F06C
:103E200070C072C08934A8E09A0709F48CC108F008
:103E300091C18834984009F441C163C0823A38E0A6
:103E4000930709F414C278F48A39B8E09B0709F49F
:103E5000C9C18B3928E0920709F4ECC1893998402F
:103E600009F04FC099C1863AA8E09A0708F4F1C654
:103E7000873A984009F437C244C0813C28E0920751
:103E800009F49DC3E0F4883BA8E09A0709F438C31D
:103E900050F48E3A28E0920709F42BC2873B9840F1
:103EA00009F41BC32EC08A3BA8E09A0709F4D1C6C7
:103EB00008F437C3803C984009F456C322C08B36BF
:103EC00039E0930709F430C570F48136B9E09B07F7
:103ED00009F4C8C48A3629E0920709F4DCC48036A4
:103EE000994079F4D0C38437A9E09A0709F493C5BF
:103EF0008537B9E09B0709F4E6C58C36994009F48B
:103F000042C581E090E0A7C68091E61282FF08C01A
:103F10008A9A809108018160809308015F9A07C0A6
:103F20008A98809108018E7F809308015F980E9493
:103F3000DF3B8FE08093310D8EE1E8EFF2E1DF01AE
:103F40001D928A95E9F7FDD70E94805880E090E0A5
:103F50000E94114460930D0D70930E0D80930F0D10
:103F60009093100D81E090E00E9411446093110D38
:103F70007093120D8093130D9093140D82E090E0D6
:103F80000E9411446093150D7093160D8093170DC8
:103F90009093180D0091FC121091FD122091FE12C9
:103FA0003091FF120093190D10931A0D20931B0DE1
:103FB00030931C0D009100131091011320910213F6
:103FC0003091031300931D0D10931E0D20931F0DB0
:103FD0003093200D009104131091051320910613C6
:103FE000309107130093210D1093220D2093230D80
:103FF0003093240D20E030E044EB52E40E94DE6A6E
:104000007B018C012091110D3091120D4091130D07
:104010005091140D60910D0D70910E0D80910F0D4A
:104020009091100DEDE28E2EEDE09E2EF9E2AF2E76
:10403000FDE0BF2EA5E2CA2EADE0DA2E0E94794146
:1040400008C68E010F5F1F4F1F930F938EE993E0F9
:104050009F938F93FF936F930E94856F0F900F90A4
:104060000F900F900F900F90181619060CF0AAC41D
:104070001D8A1E8A1F8A188EAE014B5E5F4F60E05C
:1040800070E0C8010E94E82E8823C9F14D895E893D
:104090006F89788D88E70E9463334D895E896F89C7
:1040A000788D89E70E9463334D895E896F89788DA9
:1040B0008AE70E9463330E94E937CBC58E010F5F08
:1040C0001F4F1F930F9389EA93E09F938F93FF9362
:1040D0006F930E94856F0F900F900F900F900F902D
:1040E0000F90181619060CF06DC4AE014B5E5F4FB1
:1040F00060E070E0C8010E94E82E811105C082E3F3
:1041000090E0A9C539DEA5C520E030E04AE754E4D7
:104110006D897E898F89988D0E94116E0E94276C0F
:104120001616170684F47093CB0C6093CA0C11E03A
:104130001093CC0C8091C90C81118BC50E947F3AE1
:104140001093C90C86C51092CC0C1092CB0C109217
:10415000CA0C7FC58081863591F68181805382307B
:1041600070F61092350D813019F01092340D71C532
:104170008093340D6EC58081863509F0C0CF818172
:104180008053823008F0BBCF813019F01092380D87
:1041900060C58093380D5DC580818E3409F0AFCF46
:1041A00091819053943008F0AACF923061F093300F
:1041B00099F08091310D913019F05F9A846025C09B
:1041C0008A9A816022C080910801816080930801F1
:1041D0008091310D826019C00E94DF3B8091310DCA
:1041E000886013C080818E3409F089CF918190530B
:1041F000943008F084CF923071F09330A9F0809120
:10420000310D913029F05F988B7F8093310D21C55E
:104210008A988E7FFACF809108018E7F8093080163
:104220008091310D8D7FF1CF0E942D3B8091310D1A
:10423000877FEBCF80818E3409F061CF81818053FD
:10424000843008F05CCF9091310D823051F0833092
:1042500059F0813019F090FF39C135C191FD33C15A
:1042600035C192FD30C132C193FF30C12CC11AA6B5
:1042700019A61D8A1E8A1F8A188E8E010F5F1F4F76
:104280008AE0D8011D928A95E9F7CE0189969F931D
:104290008F931F930F9382EB93E09F938F93FF93E2
:1042A0006F930E94856F0FB6F894DEBF0FBECDBF2F
:1042B00002970CF487C3AE014B5E5F4F60E070E085
:1042C000C8010E94E82E882309F419CF2D893E8960
:1042D0004F89588D69A57AA5072E000C880B990B7C
:1042E0000E949A3AB6C48FEF0E948E340E94153A0B
:1042F000B0C465961CAE1DAE1EAE1FAE659761962E
:104300001CAE1DAE1EAE1FAE61972D961CAE1DAE2F
:104310001EAE1FAE2D9784E16E0129E2C20ED11CA4
:10432000D601282F1D922A95E9F77E0135E1E30E8B
:10433000F11CD701282F1D922A95E9F7DE0111966D
:104340005D011D928A95E9F78E010B5A1F4F8FEF81
:1043500090E0D8018D939C931F930F93BF92AF92DF
:10436000FF92EF92DF92CF928EEB93E09F938F9329
:10437000FF936F930E94856F0FB6F894DEBF0FBE58
:10438000CDBF03970CF41EC3AE014F5A5F4F60E0E0
:1043900070E0C6010E94E82E882309F4B0CEAE0179
:1043A000435B5F4F60E070E0C7010E94E82E882306
:1043B00009F4A5CEAE01475B5F4F60E070E0C50138
:1043C0000E94E82E882309F49ACED8018D919C9101
:1043D0000097D9F1019709F092CE6596CCACDDAC8F
:1043E000EEACFFAC659720E030E044EB52E4619620
:1043F0006CAD7DAD8EAD9FAD61970E94DE6A21EE02
:104400003EE245E652E40E94BF6B4B015C010E9414
:10441000BC6B9B01AC01C701B6010E94116E659691
:104420006CAF7DAF8EAF9FAF6597C501B4010E94A1
:10443000746E9B01AC01C701B6010E94116E6196BA
:104440006CAF7DAF8EAF9FAF6197AE01475B5F4FA3
:10445000BE01635B7F4FCE018F5A9F4F0E94213E6A
:104460002D96ECACFDAC0EAD1FAD2D9761962CAD2D
:104470003DAD4EAD5FAD619765966CAD7DAD8EADDA
:104480009FAD6597FE01FD964F01DE01AF5BBF4F0B
:104490005D0138966F010E94C33F2196ECACFDACE4
:1044A0000EAD1FAD219725962CAD3DAD4EAD5FAD48
:1044B000259729966CAD7DAD8EAD9FAD29970E9455
:1044C000DB42882319F06DEA73E002C069E973E00A
:1044D0008DEC9CE00E94506FBCC38081863509F052
:1044E0000ECE81818053823008F009CE813019F0E0
:1044F0000E94103AAEC39C9A9D9AA49AA598A9C30B
:104500008081863509F0FBCD81818053823008F0AF
:10451000F6CD813019F00E940D3A9BC33F9A47981F
:1045200098C38081863509F0EACD8181805382303D
:1045300008F0E5CD813019F00E94FC398AC38091E2
:104540000101806280930101809101018064809368
:104550000101809102018062809302018091020139
:1045600080648093020175C3CE0101969F938F935F
:1045700044969F938F9380EE93E09F938F93FF9346
:104580006F930E94856F0FB6F894DEBF0FBECDBF4C
:1045900002970CF417C28D899E898634910508F024
:1045A000AECD29813A812230310508F0A8CD232BE8
:1045B00011F061E001C060E00E94F8504AC3CE01F2
:1045C00001969F938F9344969F938F9380EE93E0F1
:1045D0009F938F93FF936F930E94856F0FB6F8940C
:1045E000DEBF0FBECDBF02970CF4ECC18D899E8952
:1045F0008634910508F083CD29813A812230310536
:1046000008F07DCDFC01E05CF54F8650964F232BE2
:10461000D1F02491FC018491882309F41AC390E01D
:10462000880F991FFC01E455F84FA591B491FC0146
:10463000E052F64F859194918FB7F894EC91E22B6C
:10464000EC938FBF06C32491FC018491882309F465
:1046500000C390E0880F991FFC01E455F84F459185
:104660005491FC01E052F64FA591B4919FB7F89494
:10467000FA0180812095822380838C91E22FE823A8
:10468000EC939FBFE6C28081833509F038CD8181EC
:10469000E0EDE80FE83008F032CD8E2F90E0FC011D
:1046A0003197E730F10530F48827E956FF4F8F4FF7
:1046B0000C94246F0E942D3B1092000D1092FF0C61
:1046C0008AE999E1A5E9B2E48093050D9093060D7E
:1046D000A093070DB093080D8AE999E9A2E6B2E428
:1046E000B8C00E942D3B81E090E09093000D809334
:1046F000FF0C86EF98E2ACE4B2E48093050D909352
:10470000060DA093070DB093080D8DEC9CECA0E86E
:10471000B2E49FC00E942D3B82E090E09093000D98
:104720008093FF0C89E29CEDA4E9B2E48093050D2F
:104730009093060DA093070DB093080D80E090E0D4
:10474000A2E6B2E486C00E942D3B83E090E0909305
:10475000000D8093FF0C80E090E0ACE2B2E4809327
:10476000050D9093060DA093070DB093080D80E002
:1047700090E0ABE8B2E46DC00E942D3B84E090E095
:104780009093000D8093FF0C80E090E0ACE1B2E4E8
:104790008093050D9093060DA093070DB093080D1F
:1047A00080E090E0A9E9B2E418C00E942D3B85E0CA
:1047B00090E09093000D8093FF0C8DEC9CECA2E9AF
:1047C000B2E48093050D9093060DA093070DB0936E
:1047D000080D80E090E0A8E9B2E48093010D909389
:1047E000020DA093030DB093040D0E94063B99C0E7
:1047F0000E942D3B86E090E09093000D8093FF0C8B
:1048000086E696E6AAE9B2E48093050D9093060D3C
:10481000A093070DB093080D80E090E0AAE5B2E404
:1048200018C00E942D3B87E090E09093000D80938C
:10483000FF0C85E89BEEABECB1E48093050D909303
:10484000060DA093070DB093080D80E090E0A2E361
:10485000B2E48093010D9093020DA093030DB093E9
:10486000040D5FC080E090E00E94BF4390933C0D38
:1048700080933B0D81E090E00E94BF4390933E0DFA
:1048800080933D0D82E090E00E94BF4390933A0DEB
:104890008093390DDCC160910413709105138091F0
:1048A0000613909107130E945A6C2B013C016091F2
:1048B00000137091011380910213909103130E94D1
:1048C0005A6C6B966CAF7DAF8EAF9FAF6B9760915C
:1048D000FC127091FD128091FE129091FF120E94C5
:1048E0005A6C9E012F5F3F4F4901DE0155965D01D5
:1048F000FE01B9966F01830172016B962CAD3DAD3F
:104900004EAD5FAD6B970E94753F89819A81AB81F7
:10491000BC818093050D9093060DA093070DB09375
:10492000080D0E94403A95C11D8A1E8A1F8A188E62
:104930008E010F5F1F4F84E1D8011D928A95E9F720
:104940001F930F9387EE93E09F938F93FF936F9343
:104950000E94856F0F900F900F900F900F900F9007
:10496000181619067CF5AE014B5E5F4F60E070E0F3
:10497000C8010E94E82E882309F4C1CB8D899E8945
:10498000AF89B88D66CF1D8A1E8A1F8A188E8E0148
:104990000F5F1F4F84E1D8011D928A95E9F71F939D
:1049A0000F9382EF93E09F938F93FF936F930E94F7
:1049B000856F0F900F900F900F900F900F9018161B
:1049C00019066CF01F9281E08F938DE092E09F9327
:1049D0008F9340D20F900F900F900F9090CBAE011D
:1049E0004B5E5F4F60E070E0C8010E94E82E8823B4
:1049F00009F485CB8D899E89AF89B88D8093090D87
:104A000090930A0DA0930B0DB0930C0D0E94403AA9
:104A10000E94063B1EC18081803509F070CB8181E8
:104A20008053833008F06BCB8130D9F0823091F124
:104A300080E090E00E94BF4390934C0D80934B0D1B
:104A400081E090E00E94BF4390934E0D80934D0D06
:104A500082E090E00E94BF439093500D80934F0DF1
:104A6000F8C080E090E00E94BF439093460D809391
:104A7000450D81E090E00E94BF439093480D8093E4
:104A8000470D82E090E00E94BF4390934A0D8093CF
:104A9000490DDFC080E090E00E94BF439093400D3D
:104AA00080933F0D81E090E00E94BF439093420DC0
:104AB0008093410D82E090E00E94BF439093440DAB
:104AC0008093430DC6C060914B0D70914C0D0091C9
:104AD0004D0D10914E0D9B01202B312B80914F0DD0
:104AE0009091500D822B932B892B19F48DEF93E02D
:104AF00015C0E090450DF090460D6090470D709008
:104B0000480D2090490D30904A0DC70186299729FC
:104B100082299329892B41F483E094E09F938F931A
:104B200099D10F900F90EBCAC0903F0DD090400DDF
:104B30004090410D5090420D9601242935298091D5
:104B4000430D9091440D822B932B892B19F489E00E
:104B500094E0E4CF80E090E00E94586C24EE35E2CF
:104B60004EE652E40E94DF6A4B015C01B60180E030
:104B700090E00E94586C20E33CE44AEB52E40E942F
:104B8000DF6A9B01AC01C501B4010E94DF6A4B01E1
:104B90005C01B70180E090E00E94586C9B01AC0181
:104BA000C501B4010E94DF6A20E030E040E450E437
:104BB0000E94BF6B20E030E040E05FE30E94DF6ACC
:104BC0000E942C6C70933C0D60933B0DB80180E00B
:104BD00090E00E94586C2CE93DE241E853E40E94C9
:104BE000DE6A6B017C01B20180E090E00E94586CAB
:104BF00024E53AE146E953E40E94DF6A9B01AC01F7
:104C0000C701B6010E94DF6A6B017C01B30180E03D
:104C100090E00E94586C9B01AC01C701B6010E9454
:104C2000DF6A20E030E040E450E40E94BF6B20E007
:104C300030E040E05FE30E94DF6A0E942C6C7093DA
:104C40003E0D60933D0D30923A0D2092390D0E9439
:104C5000C44480E090E0C65ADF4F0FB6F894DEBF40
:104C60000FBECDBFDF91CF911F910F91FF90EF90BD
:104C7000DF90CF90BF90AF909F908F907F906F907C
:104C80005F904F903F902F9008958F929F92AF9298
:104C9000BF92CF92DF92EF92FF920F931F93CF9329
:104CA000DF93CDB7DEB72A970FB6F894DEBF0FBEFD
:104CB000CDBF6B017C01042F20E030E0A9010E94F0
:104CC000B86B87FF07C08DE20E945637F7FAF09461
:104CD000F7F8F094102F123060F020E030E048EC4C
:104CE00052E4C701B6010E94116E6B017C011250A3
:104CF000F2CF00FF0AC020E030E040E251E4C701FB
:104D0000B6010E94116E6B017C0120E030E040E0B2
:104D10005FE3C701B6010E94DF6A0E94276CE1E0F1
:104D2000F0E0EC0FFD1FE00FF11D2EE2208310E0FC
:104D30003AE0832E912CA12CB12C611571058105CF
:104D40009105A9F0101301C01F5FEE24E394F12C2C
:104D5000EC0EFD1EE10EF11CA50194010E94026FF4
:104D6000605DF7016083B901CA011F5FE6CF80E390
:104D7000101748F4E1E0F0E0EC0FFD1FE10FF11D2A
:104D800080831F5FF5CF10130BC081E0810FE1E03E
:104D9000F0E0EC0FFD1FE80FF11D1E5F80E3808344
:104DA000112341F0FE01E10FF11D80810E94563771
:104DB0001150F6CF2A960FB6F894DEBF0FBECDBFC6
:104DC000DF91CF911F910F91FF90EF90DF90CF90E7
:104DD000BF90AF909F908F900895CF92DF92EF9207
:104DE000FF921F93CF93DF93CDB7DEB7362F142FEB
:104DF000CDB6DEB64DB75EB7411B51090FB6F8947C
:104E00005EBF0FBE4DBF4F5F5F4F7A01242FFA0187
:104E10009E2F921B911728F4632F0E94E26E9193AC
:104E2000F7CF112351F0F701E10FF11D3197808188
:104E3000805D0E9456371150F4CF0FB6F894DEBE55
:104E40000FBECDBEDF91CF911F91FF90EF90DF900D
:104E5000CF9008951F93CF93DF93CDB7DEB7C0589F
:104E6000D1090FB6F894DEBF0FBECDBFAE014957D2
:104E70005F4FFA0161917191AF01CE0101960E94DD
:104E8000A66F10E0E1E0F0E0EC0FFD1FE10FF11D77
:104E90008081882321F00E9456371F5FF3CFC058CE
:104EA000DF4F0FB6F894DEBF0FBECDBFDF91CF91BD
:104EB0001F91089543E0E9CE2091E61220FF08C03B
:104EC0002BE832E441E25DE30E94116E41E001C053
:104ED00040E0DBCE2091E61220FF08C02BE832E450
:104EE00041E25DE30E94116E44E001C043E0CDCE9B
:104EF0008A3020F0843620F043E003C041E001C056
:104F000042E06AE06ACF48E062E067CFCF93DF9388
:104F1000FC018491EF012196882321F00E945637ED
:104F2000FE01F7CFDF91CF910895CF93DF93EC018E
:104F30008991882319F00E945637FACFDF91CF91DB
:104F40000895ACEFB2E1E2E5FDE04D915D916D9128
:104F50007D9141935193619371938DE0EE35F80704
:104F6000A1F708958CE1E2E5FDE0DF011D928A954D
:104F7000E9F7109297111092981181E08093510DEA
:104F80001092B40E08952F923F924F925F926F92BB
:104F90007F928F929F92AF92BF92CF92DF92EF92C9
:104FA000FF920F931F93CF93DF93C0919811C1117C
:104FB00001C0C2E1C150D091B40EDC1709F41DC18B
:104FC000EC2EF12C29E2C29F800111240B54114FC9
:104FD000F801A588B688C788D08C61A172A183A189
:104FE00094A19B01AC010E94DF6AF80125A136A1C2
:104FF00047A150A50E94116E4B018C019B01AC0191
:10500000B501C6010E94B86B87FD02C0540168015A
:1050100089E28E9DF0018F9DF00D1124EB54F14F2C
:10502000C501D601818B928BA38BB48BC11101C0BA
:10503000C2E1C150DC1761F029E22E9DC0012F9D15
:10504000900D11249C012B54314F7901D9E233C0CA
:1050500080919711D81360C00E946D455DC0AC2E41
:10506000B12CDA9DC001DB9D900D1124FC01EB54A5
:10507000F14F6F01C11101C0C2E1C1508091971180
:105080008C1302C00E946D45DA9D8001DB9D100DDE
:1050900011240B54114FF80185889688A788B08C8D
:1050A000A501940161897289838994890E94B86BF2
:1050B000811106C076018091B40EC813D0CF2CC0E8
:1050C000F80161A172A183A194A19B01AC010E948E
:1050D000DF6AF80125A136A147A150A50E94116EF3
:1050E000F70121893289438954890E94DF6A2B01A3
:1050F0003C019B01AC01C501B4010E94D66DF801D1
:1051000018162CF4418A528A638A748AD3CF818A12
:10511000928AA38AB48ACECFD091B40EF9E2DF9FEF
:10512000800111240B54114FC1E0CD0FC23109F49D
:10513000C0E02090981189E2382EC21509F45BC0B6
:10514000CC2ED12C3C9CC0013D9C900D11249C0187
:105150002B54314F7901F801418852886388748853
:10516000F90181889288A388B488A5019401C301BC
:10517000B2010E94B86B87FF24C0F80161A172A13F
:1051800083A194A19B01AC010E94DF6AF80125A1D3
:1051900036A147A150A50E94116EA30192010E9461
:1051A000DF6A2B013C019B01AC01C501B4010E94E7
:1051B000D66D181634F4F701418A528A638A748ACC
:1051C000DC2F3C9CF0013D9CF00D1124EB54F14F81
:1051D000258936894789508D6189728983899489A7
:1051E0000E94B86B811101C0DC2FCF5FC23109F47E
:1051F000C0E08701A2CFD093B40EDF91CF911F9171
:105200000F91FF90EF90DF90CF90BF90AF909F9065
:105210008F907F906F905F904F903F902F90089568
:105220002F923F924F925F926F927F928F929F92B6
:10523000AF92BF92CF92DF92EF92FF920F931F93A4
:10524000CF93DF93CDB7DEB7E5970FB6F894DEBF07
:105250000FBECDBF4B8F5C8F6D8F072F2DAB209175
:1052600098112EA3422F50E05BA34AA339E2239F5B
:10527000F0011124EB54F14F158616861786108A1B
:1052800015A216A217A210A6108249E956E766E9F0
:105290007EE741A352A363A374A31C0149EA52E130
:1052A00058A74FA3CE0101969AAB89AB22E53DE00A
:1052B0003EA72DA74EA139E2439FC00111249C01B6
:1052C0002A54314F3AA729A7AE01435F5F4F5DA330
:1052D0004CA359A348A382E59DE098AB8FA729EA88
:1052E00032E13F8F2E8F10E03F01AF01435F5F4FF0
:1052F0005CAB4BAB2F0155E2450E511CF1016191A6
:105300007191819191911F01EE8DFF8D819091900E
:10531000A190B190FF8FEE8FA50194010E94116EB4
:105320000E94E16DE9A9FAA9619371938193919328
:10533000FAABE9ABEFA5F8A9C190D190E190F1905B
:10534000F8ABEFA76C197D098E099F099B01AC0191
:1053500097FF07C022273327A901261B370B480BCD
:10536000590BE9A5FAA52193319341935193FAA7DB
:10537000E9A7EBA9FCA9C080D180E280F380C21626
:10538000D306E406F50610F469017A01EBA9FCA93D
:10539000C082D182E282F3820E945A6CA5019401FC
:1053A0000E94BF6B4B015C01E8A1F9A1619371936D
:1053B00081939193F9A3E8A320E030E0A9010E9432
:1053C000B86B87FF0DC0112321F0113021F084E06C
:1053D00003C081E001C082E0F3019081892B8083CA
:1053E000A5019401C501B4010E94116EF201208152
:1053F0003181428153810E94DF6AF20160837183AF
:10540000828393831F5F133009F078CF0E947E6EF2
:105410004B015C01F2016083718382839383CD2809
:10542000CE28CF2809F422C220E030E0A9016B8DFC
:105430007C8D8D8D902F0E94B86B87FD21C0FDA9BA
:10544000FF2361F0A50194016B8D7C8D8D8D902FD4
:105450000E94116E6B8F7C8F8D8F092F20E030E0C2
:1054600040E85FE36B8D7C8D8D8D902F0E94B86B33
:1054700087FF0DC01B8E1C8E20E82D8F0FE307C009
:1054800039E93B8F46E74C8F56E95D8F0EE7A50162
:10549000940160E070E080E89FE30E94BF6B69A721
:1054A0007AA78BA79CA7CE0149969A8F898FC12C8A
:1054B000D12C760129E2EAA1FBA12E9FC0012F9FEA
:1054C000900D11249C012A52314F39A328A3ECA13D
:1054D000FDA180809180A280B38020E030E0A9010E
:1054E000C501B4010E94B86B882309F472C0A501FC
:1054F000940169A57AA58BA59CA50E94116E2B012C
:105500003C01ECA1FDA160837183828393839B01A5
:10551000AC0160E070E080E89FE30E94BF6B4B014C
:105520005C01E894B7F8EFA1F8A524853585468598
:105530005785C501B4010E94116E1B018E8F192F72
:105540002B8D3C8D4D8D502F0E94D66D18162CF052
:105550002B8E3C8EFE8DFD8F012FE8A1F9A1F081ED
:10556000FE8FE8A1F9A1118122803380EFA1F8A577
:10557000208D318D428D538DC501B4010E94116E75
:105580005B014C019B01AC016E8D712FC1010E942A
:10559000B86B87FD03C0AE8E1B2D14018E8D912F2D
:1055A000D101E8A1F9A180839183A283B383EDA502
:1055B000FEA52485358546855785C301B2010E9425
:1055C000116E9B01AC01C701B6010E94DE6A6B013E
:1055D0007C012CA13DA12C5F3F4F3DA32CA34DA5E9
:1055E0005EA54C5F5F4F5EA74DA78FA198A504965F
:1055F00098A78FA3E98DFA8DE217F30709F067CF1B
:1056000080919711FEA1F8130FC089E22AA13BA156
:10561000829FF001839FF00D1124EB54F14F118A0A
:10562000128A138A148A14C02FEE3FEF4FE75FE30C
:10563000C701B6010E94D66D18167CF489E24AA112
:105640005BA1849FF001859FF00D1124EB54F14F75
:10565000118E128E138E148E6AC02FEE3FEF4FE71D
:105660005FEBC701B6010E94D66D181644F08FEEAD
:10567000C82EDD24DA948FE7E82E8FEBF82EA701F1
:10568000960160E070E080E89FE30E94DE6A20E01F
:1056900030E040E05FE30E94116E0E947E6E6B017D
:1056A0007C0189E22AA13BA1829FF001839FF00D3A
:1056B0001124EB54F14F2091DE123091DF12409112
:1056C000E0125091E11261A172A183A194A10E9404
:1056D000116EA70196010E94116E4B015C01A7019A
:1056E000960160E070E080E89FE30E94DE6A9B0123
:1056F000AC01C501B4010E94BF6B6B017C0120E0CD
:1057000030E0A9010E94B86B87FF03C0C12CD12CE7
:10571000760189E24AA15BA1849FF001859FF00D8B
:105720001124EB54F14FC18ED28EE38EF48E2B8D6B
:105730003C8D4D8D502F6B8D7C8D8D8D902F0E94CB
:10574000116E7B018C0189E22AA13BA1829FF001AD
:10575000839FF00D1124EB54F14FC701D801858FC1
:10576000968FA78FB0A3A18CB28CC38CD48C609081
:105770006A0D70906B0D80906C0D90906D0D930183
:10578000A401B701C8010E94B86B87FD05C0B62D02
:10579000A72DF82DE92D04C0BE2DAF2DF02FE12F40
:1057A0009501A6016B2F7A2F8F2F9E2F0E94D66D09
:1057B00018166CF09301A401B701C8010E94B86BE0
:1057C00087FD03C05301640102C05701680189E2EB
:1057D0004AA15BA1849FF001859FF00D1124EB5439
:1057E000F14FC501D601858B968BA78BB08F8CE0CE
:1057F000FE013D96AEE5BDE001900D928A95E1F780
:10580000C701D80180936A0D90936B0DA0936C0D26
:10581000B0936D0D8CE0FE013196A2E5BDE00190E4
:105820000D928A95E1F78091510D809398118F5FC9
:10583000823109F480E08093510DE5960FB6F8941B
:10584000DEBF0FBECDBFDF91CF911F910F91FF90B3
:10585000EF90DF90CF90BF90AF909F908F907F9010
:105860006F905F904F903F902F908DCBE5960FB645
:10587000F894DEBF0FBECDBFDF91CF911F910F9186
:10588000FF90EF90DF90CF90BF90AF909F908F9060
:105890007F906F905F904F903F902F90089561158B
:1058A000710581059105C1F16A3071058105910588
:1058B00048F425E02A95F1F700006150710981094B
:1058C0009109EDCF643671058105910548F4E5E352
:1058D000EA95F1F700006A50710981099109DFCF5B
:1058E000683EF3E07F078105910558F4EFE8F1E0A9
:1058F0003197F1F700C000006456710981099109E0
:10590000CECFEFE9FFE03197F1F700C00000685E0D
:10591000734081099109C3CF0895009741F0EFE9E1
:10592000FFE03197F1F700C000000197F6CF08952E
:105930003F924F925F926F927F928F929F92AF921F
:10594000BF92CF92DF92EF92FF920F931F93CF936C
:10595000DF93CDB7DEB768970FB6F894DEBF0FBE02
:10596000CDBF01E099E2A92E28E0722E30E2632E2D
:1059700040E1B42E50E4552E62E0462E1091F7120D
:10598000112309F450C00093F91211FF06C089E0F9
:1059900098E0BCDA8EEF97E01FC012FF06C089E0E6
:1059A00098E0B4DA83EF97E017C013FF06C089E0F0
:1059B00098E0ACDA80EE97E00FC014FF06C089E0F3
:1059C00098E0A4DA85ED97E007C015FF0CC089E0E8
:1059D00098E09CDA89EC97E099DA86EC97E096DA21
:1059E00084EF91E09ADF10FD08C08FB7F894909192
:1059F000F7121092F7128FBF16C086ED98E086DA84
:105A000084EC98E083DA83E698E080DA9FB7F89434
:105A10008091A7128F7E8093A7129FBF8091A712BB
:105A200084FFFCCFE2CF1091A712112309F4A7C184
:105A300014FF04C081E08093F812B2C110FFE2C0ED
:105A40008CE0ECEFF2E1DE011D9601900D928A955B
:105A5000E1F78091F9128430E9F040F48130E9F007
:105A600080F0823001F58EE398E01CC0803179F03F
:105A700018F4883049F017C0803291F0803421F05A
:105A800012C08DE598E00EC088E598E00BC082E575
:105A900098E008C08CE498E005C085E498E002C076
:105AA00088E398E033DA8091DD12837039F0BE012B
:105AB000635F7F4FCE0101960E9402458091DD1207
:105AC00080FD05C08091DD1281FF65C019C081E3B2
:105AD00098E01CDACE0101967C01D12CF70161918E
