:10000000D2C40000F1C40000EFC40000EDC4000041
:10001000EBC40000E9C40000E7C40000E5C4000030
:10002000E3C400000C942151DFC400000C94223082
:10003000DBC40000D9C40000D7C400000C94C04B3E
:10004000D3C400000C94D842CFC40000CDC400003B
:10005000CBC40000C9C40000C7C400000C946342B4
:10006000C3C400000C9404480C946548BDC400004F
:10007000BBC40000B9C40000B7C40000B5C4000090
:10008000B3C40000B1C40000AFC400000C94AA4B7C
:10009000ABC40000A9C40000A7C40000A5C40000B0
:1000A000A3C40000A1C400009FC400009DC40000C0
:1000B0009BC400000C946F4B97C4000095C40000D3
:1000C00093C4000091C400000C943A4B8DC400000E
:1000D0008BC4000089C4000087C4000085C40000F0
:1000E00083C40000F20B090C220C3B0C540C6D0C69
:1000F000900CAE139E1D9E1DBA13CF13E713FF1372
:100100009E1D03149E1D14149E1D1E14281471148C
:100110009E1D9E1D9E1D351449145D146E1C831C6E
:10012000B01C831CB41CCB1CBA1CC41CED1CF41CDE
:10013000FF1C0A1D271D291D2C1D2E1D3A46404659
:10014000434646464A4652465A46C746C746C746AB
:10015000624665466E467746C746C746C746C746A7
:10016000C746C7467F46894695469F46A246AB4648
:10017000B446BA46084AD73B3BCE016E84BCBFFDAD
:10018000C12F3D6C74319ABD56833DDA3D00C77F67
:1001900011BED9E4BB4C3E916BAAAABE0000008000
:1001A0003F072C7AA5BA6CC590DA3B9365FC8BBCF3
:1001B00053F810FD3C5692834DBD879D3AB63DCB1A
:1001C000C9BF5BBE73DA0FC93F05A84CCDB2D44E90
:1001D000B93836A9020C50B9918688083CA6AAAA5B
:1001E0002ABE000000803F0000407A10F35A00A0B1
:1001F000724E18090010A5D4E80000E876481700F0
:1002000000E40B54020000CA9A3B000000E1F5052F
:10021000000080969800000040420F000000A08679
:1002200001000000102700000000E80300000000AB
:100230006400000000000A0000000000010000004F
:1002400000002C76D888DC674F0823DFC1DFAE5969
:10025000E1B1B796E5E3E453C63AE651997696E8FC
:10026000E6C28426EB898C9B62ED407C6FFCEFBC80
:100270009C9F40F2BAA56FA5F490055A2AF75C93AB
:100280006B6CF9676DC11BFCE0E40D47FEF520E6E1
:10029000B500D0ED902E0300943577050080841EC4
:1002A000080000204E0A000000C80C333333330F1F
:1002B000986E12831141EF8D2114893BE65516CFBC
:1002C000FEE6DB18D1844B381BF77C1D901DA4BBC8
:1002D000E424203284725E228100C9F124ECA1E57D
:1002E0003D276364696E6F70737578585B000D0A03
:1002F0004772626C20302E396A205B2724272066E3
:100300006F722068656C705D0D0A000D0A003D007B
:10031000244E005D0D0A005B302E396A2E323031DA
:1003200036303732363A005D0D0A005B544C4F3A96
:10033000005D0D0A002C005B4739323A005D0D0A62
:10034000002C003A003330003238005B47005D0D6E
:100350000A00205300204600205400204D38002081
:100360004D3900204D3500204D3400204D33002004
:100370004D3200204D3100204D30002047393400EF
:1003800020473933002047393100204739300020D9
:1003900047323000204732310020473139002047B2
:1003A00031380020473137002047004733382E00CE
:1003B00047383000473300473200473100473000AC
:1003C0005B00290D0A00206D6178207472617665EA
:1003D0006C2C206D6D0020616363656C2C206D6D4D
:1003E0002F7365635E3200206D61782072617465E1
:1003F0002C206D6D2F6D696E002C20737465702F2D
:100400006D6D007A00790078002028003D002400FE
:100410002028686F6D696E672070756C6C2D6F6633
:10042000662C206D6D290D0A002028686F6D696E9D
:1004300067206465626F756E63652C206D736563FC
:10044000290D0A2432373D002028686F6D696E67D8
:10045000207365656B2C206D6D2F6D696E290D0AFB
:100460002432363D002028686F6D696E672066650E
:1004700065642C206D6D2F6D696E290D0A2432354F
:100480003D00290D0A2432343D002028686F6D6933
:100490006E672064697220696E76657274206D6182
:1004A000736B3A002028686F6D696E67206379630B
:1004B0006C652C20626F6F6C290D0A2432333D006D
:1004C000202868617264206C696D6974732C2062E5
:1004D0006F6F6C290D0A2432323D002028736F663D
:1004E00074206C696D6974732C20626F6F6C290DB8
:1004F0000A2432313D0020287265706F72742069C1
:100500006E636865732C20626F6F6C290D0A24324C
:10051000303D00202861726320746F6C6572616EDB
:1005200063652C206D6D290D0A2431333D00202890
:100530006A756E6374696F6E20646576696174694B
:100540006F6E2C206D6D290D0A2431323D00290D6E
:100550000A2431313D002028737461747573207250
:1005600065706F7274206D61736B3A002028707231
:100570006F62652070696E20696E766572742C20DA
:10058000626F6F6C290D0A2431303D0020286C69A0
:100590006D69742070696E7320696E766572742C53
:1005A00020626F6F6C290D0A24363D002028737479
:1005B000657020656E61626C6520696E7665727427
:1005C0002C20626F6F6C290D0A24353D00290D0A1D
:1005D00024343D00202864697220706F7274206991
:1005E0006E76657274206D61736B3A00290D0A2472
:1005F000333D0020287374657020706F7274206919
:100600006E76657274206D61736B3A002028737486
:1006100065702069646C652064656C61792C206D5F
:10062000736563290D0A24323D00202873746570B8
:100630002070756C73652C2075736563290D0A2411
:10064000313D0024303D0024242028766965772040
:100650004772626C2073657474696E6773290D0A42
:100660002423202876696577202320706172616DCC
:100670006574657273290D0A2447202876696577A9
:1006800020706172736572207374617465290D0A3C
:100690002449202876696577206275696C64206931
:1006A0006E666F290D0A244E2028766965772073BF
:1006B00074617274757020626C6F636B73290D0ABC
:1006C00024783D76616C75652028736176652047D6
:1006D00072626C2073657474696E67290D0A244E0A
:1006E000783D6C696E65202873617665207374614E
:1006F0007274757020626C6F636B290D0A2443203D
:1007000028636865636B2067636F6465206D6F6441
:1007100065290D0A245820286B696C6C20616C6176
:10072000726D206C6F636B290D0A24482028727546
:100730006E20686F6D696E67206379636C65290D43
:100740000A7E20286379636C652073746172742952
:100750000D0A2120286665656420686F6C64290D88
:100760000A3F202863757272656E74207374617419
:100770007573290D0A6374726C2D78202872657365
:100780006574204772626C290D0A000D0A00486FDB
:100790006D696E67206661696C0050726F626520DA
:1007A0006661696C0041626F727420647572696E73
:1007B00067206379636C6500536F6674206C696DA4
:1007C00069740048617264206C696D697400414C01
:1007D00041524D3A20003E0D0A002C4C696D3A0002
:1007E0002C52583A002C4275663A002C002C575077
:1007F0006F733A002C002C4D506F733A003C446FDD
:100800006F72003C436865636B003C416C61726DC4
:10081000003C486F6D65003C486F6C64003C52754D
:100820006E003C49646C65005D0D0A00526573748E
:100830006F72696E672064656661756C74730050D1
:10084000676D20456E6400436865636B20446F6F7D
:10085000720044697361626C656400456E61626C2C
:1008600065640043617574696F6E3A20556E6C6FF4
:10087000636B656400272448277C2724582720744D
:100880006F20756E6C6F636B0052657365742074B6
:100890006F20636F6E74696E7565005B005D0D0A95
:1008A000003A002C005B5052423A000D0A00496E9B
:1008B00076616C69642067636F64652049443A001F
:1008C000556E646566696E65642066656564207250
:1008D000617465004D6F64616C2067726F75702084
:1008E00076696F6C6174696F6E00486F6D696E67D1
:1008F000206E6F7420656E61626C656400416C618E
:10090000726D206C6F636B004E6F742069646C6550
:1009100000454550524F4D20726561642066616903
:100920006C2E205573696E672064656661756C7402
:10093000730056616C7565203C20332075736563C8
:100940000053657474696E672064697361626C65D5
:10095000640056616C7565203C203000496E7661FC
:100960006C69642073746174656D656E74004261B6
:1009700064206E756D62657220666F726D617400C1
:10098000457870656374656420636F6D6D616E6436
:10099000206C6574746572006572726F723A200023
:1009A0006F6B0D0A000011241FBECFEFD1E2DEBF36
:1009B000CDBF00E00CBF14E0A0E0B2E0E2E9F0EE51
:1009C00000E00BBF02C007900D92A232B107D9F729
:1009D00023E1A2E2B4E001C01D92AF34B207E1F717
:1009E0000E941D540C9447700BCB2F923F924F9254
:1009F0005F926F927F928F929F92AF92BF92CF92AF
:100A0000DF92EF92FF920F931F93CF93DF93CDB7B7
:100A1000DEB7C159D1090FB6F894DEBF0FBECDBF06
:100A2000C158DF4F99838883CF57D04089E3E7EFE0
:100A3000F2E1DF011D928A95E9F78AE0E8E6F2E14A
:100A4000A8EFB2E101900D928A95E1F7FE01E55918
:100A5000FF4F1082E9961FAE1EAEE997EF961FAECC
:100A60001EAEEF97CF57DF4F1882C158D040E396A4
:100A70001FAEE397E7961FAEE797AC968FADAC97A6
:100A8000C158DF4FE881F981CF57D040E80FF11D01
:100A90001081112311F40C94AC149FEB910F9A3137
:100AA00010F00C94901D8F5FAC968FAFAC97AE0199
:100AB0004B595F4FBE0165597F4FC158DF4F888149
:100AC0009981CF57D0400E94484C882311F40C9450
:100AD000921DA996CCACDDACEEACFFACA997C701DA
:100AE000B6010E9468690E94B5664B015C011B015A
:100AF00080E090E00E94E1669B01AC01C701B60175
:100B00000E94676520E030E048EC52E40E949A6859
:100B10000E94FD680E94B5663B011D3409F43FC286
:100B2000103511F40C943D0F173411F00C949B13F5
:100B3000AC968FADAC97C158DF4F68817981CF57A4
:100B4000D040680F711DAE0145595F4FC4010E942E
:100B500043219C01215031092230310510F00C94C1
:100B6000ED1DB8E28B16910409F4E1C180F5F4E1C2
:100B70008F16910498F421E18216910408F046C181
:100B800034E08316910409F46EC008F4D2C09AE0F0
:100B90008916910409F45AC00C949E1DACE18A1682
:100BA000910409F453C038F4E6E18E16910408F478
:100BB0007DC10C949E1DFEE18F16910409F446C080
:100BC00026E28216910409F4B4C00C949E1D3DE304
:100BD0008316910409F4A2C1F0F495E389169104F7
:100BE00009F441C060F4BBE28B16910409F46EC1B4
:100BF000E1E38E16910409F469C10C949E1DFCE397
:100C00008F16910410F00C949E1D8AEC880D809331
:100C1000FE1289E07FC12CE58216910460F43AE56A
:100C20008316910408F008C180E58816910409F440
:100C30008AC00C949E1D9CE58916910439F0AFE59D
:100C40008A16910408F41FC10C949E1D611471044E
:100C500011F00C94B01DE796BFADE797BB2309F4E4
:100C600040C00C94941DECE12E16310469F148F457
:100C700024E02216310479F03AE023163104C9F059
:100C80005BC18EE128163104A1F195E329163104E8
:100C900009F44BC051C181E049C0BFE12B163104BA
:100CA000D0F5EAE02E16310431F4A1E0E796AFAFBB
:100CB000E79782E03BC0FCE12F16310409F048C100
:100CC000B1E0E796BFAFE7976114710441F0EAE045
:100CD0006E16710411F00C949E1D84E00EC083E02A
:100CE0000CC0AEE12A163104C1F6F1E0E796FFAF81
:100CF000E7976114710439F485E08093F712E19667
:100D00001FAEE1972CC12AE06216710411F00C9419
:100D10009E1D86E0F2CF25E32216310411F00C94DB
:100D2000DE1D31E0E7963FAFE79787E08093F7124B
:100D300003C1E796AFADE797A1110C94941DB2E003
:100D4000E796BFAFE797E2E02E16310419F158F4A9
:100D500021143104D9F02A94232809F0F1C081E04C
:100D60008093F812EDC036E223163104C1F080E51D
:100D70002816310409F445C093E02916310409F01E
:100D8000DFC083E08093F812F1E08CC01092F8127B
:100D9000A1E0CEC082E08093F812E1E07CC02EE1B9
:100DA00062167104F1F070F484E16816710411F0B8
:100DB0000C949E1D84E08093F812B1E0E196BFAFE1
:100DC000E197CDC098E26916710499F0A2E36A1622
:100DD000710411F00C949E1D87E08093F81221E0BD
:100DE00035C085E08093F812E1E0E196EFAFE1973E
:100DF000B6C086E08093F812F1E0E196FFAFE1978C
:100E0000AEC088E08093F81231E058C082E18816C5
:100E1000910441F093E18916910449F01092FC127B
:100E2000A2E086C081E08093FC12B2E08AC082E03A
:100E30008093FC12E2E02FC06114710499F4FAE58A
:100E40008F16910439F41092FB1223E0E1962FAF34
:100E5000E19785C081E08093FB1233E0E1963FAFDC
:100E6000E1977DC08AE06816710411F00C949E1D14
:100E70009AE58916910411F40C949E1DA4E0E19664
:100E8000AFAFE1976CC0BDE58B16910441F481E0F2
:100E90008093F912E5E0E196EFAFE19755C010922B
:100EA000F912F5E0E196FFAFE1974EC024E182161A
:100EB000910441F481E08093FA1236E0E1963FAF6D
:100EC000E19742C01092FA1286E024C0E7969FADE7
:100ED000E79791110C94941DA1E32A16310441F473
:100EE0001092FD12B8E0E196BFAFE197E3E034C0A5
:100EF000FAE06F16710411F00C949E1D81E080934E
:100F0000FD1228E0E1962FAFE19733E0E7963FAF7F
:100F1000E79725C0E1968FAFE19716C0672811F0DB
:100F20000C949E1D9AE0E1969FAFE19718C0A7E050
:100F3000E196AFAFE19708C0E1961FAEE19704C01C
:100F4000B1E0E196BFAFE197672849F00C94C31D6B
:100F5000E1961FAEE197E1E0E796EFAFE79781E01A
:100F600090E0E1960FACE19702C0880F991F0A94B8
:100F7000E2F7EF962EAD3FADEF9728233923232BD1
:100F800019F085E10C94ED1DEF962EAD3FADEF9776
:100F9000282B392BEF963FAF2EAFEF976ECD672BF7
:100FA00011F00C94C31DAC968FADAC97C158DF4FB8
:100FB000E881F981CF57D040E80FF11D3EEA831652
:100FC00038E0930608F05AC08CEA881688E0980644
:100FD00008F042C19BE4891698E0990609F4F4C12F
:100FE00030F5B3EE8B16B7E09B0609F433C180F4FD
:100FF00032E18316910409F42DC18CEC881691041A
:1010000009F42DC191E18916910409F08EC090C0B8
:10101000A9E48A16A8E09A0609F4BCC108F0C1C187
:1010200028E4821628E0920609F457C17EC032EA0D
:10103000831638E0930609F449C298F49AE98916B0
:1010400098E0990609F4F7C1ABE98A16A8E09A0678
:1010500009F419C2B9E98B16B8E09B0609F065C01E
:10106000C4C1E6EA8E16E8E09E0608F4F5C0F7EA89
:101070008F16F8E09F0609F465C257C022EC82166D
:1010800028E0920638F530EC831638E0930608F035
:10109000E3C088EB881688E0980609F45AC368F420
:1010A000AEEA8A16A8E09A0609F452C2B7EB8B168C
:1010B000B8E09B0609F43AC338C029EB821628E051
:1010C000920609F457C33AEB831638E0930609F405
:1010D000C3C02BC08BE6881689E0980609F4BFC40C
:1010E00090F4A1E68A16A9E09A0609F43AC4BAE691
:1010F0008B16B9E09B0609F44DC420E6821629E060
:10110000920699F45AC334E7831639E0930609F43A
:101110001EC585E7881689E0980609F470C59CE627
:10112000891699E0990609F4C9C481E090E039C6AE
:101130008A9A809108018160809308015F9A0E94D9
:10114000D5268FE08093FB118EE1E1E3F3E1DF012F
:101150001D928A95E9F70E94763D0E946A5380E0CD
:1011600090E00E94F12E6093D7117093D811809374
:10117000D9119093DA1181E090E00E94F12E6093F2
:10118000DB117093DC118093DD119093DE1182E00E
:1011900090E00E94F12E6093DF117093E011809334
:1011A000E1119093E21100913513109136132091C3
:1011B0003713309138130093E3111093E411209307
:1011C000E5113093E6110091391310913A132091F3
:1011D0003B1330913C130093E7111093E8112093D7
:1011E000E9113093EA1100913D1310913E132091C3
:1011F0003F13309140130093EB111093EC112093A7
:10120000ED113093EE1120E030E044EB52E40E9407
:1012100067657B018C012091DB113091DC114091DD
:10122000DD115091DE116091D7117091D81180912C
:10123000D9119091DA11A7EF8A2EA1E19A2EB3EF7E
:10124000AB2EB1E1BB2EEFEECE2EE1E1DE2E0E9401
:10125000232C02C00E94F34B80E090E0A2C58E01D7
:101260000F5F1F4F1F930F938DE092E09F938F931B
:10127000FF93EF930E942F6A0F900F900F900F90A3
:101280000F900F90181619060CF037C41D8A1E8A8D
:101290001F8A188EAE014B5E5F4F60E070E0C801A0
:1012A0000E94484C882309F47AC54D895E896F896C
:1012B000788D88E70E94D1454D895E896F89788D48
:1012C00089E70E94D1454D895E896F89788D8AE7CB
:1012D0000E94D1450E940F49BFCF8E010F5F1F4F63
:1012E0001F930F9384E292E09F938F93FF93EF936A
:1012F0000E942F6A0F900F900F900F900F900F90F9
:10130000181619060CF0F9C3AE014B5E5F4F60E092
:1013100070E0C8010E94484C882309F440C520E0D1
:1013200030E04AE754E46D897E898F89988D0E9468
:101330009A680E94B0661616170664F57093A60C9C
:101340006093A50C91E09093A40C8091E10C811125
:1013500083CF27E03EE130930B1220930A121092C4
:10136000200185E08093210121EF3FEF30930D12A2
:1013700020930C1220910C1230910D123093250104
:101380002093240180917300816080937300909377
:10139000E10C62CF1092A40C1092A60C1092A50C36
:1013A0005BCF8081863509F0FAC481818053823019
:1013B00008F0F5C41092FF11813019F01092FE115F
:1013C0004BCF8093FE1148CF8081863509F0E7C46A
:1013D00081818053823008F0E2C4813019F010928C
:1013E00002123ACF8093021237CF80818E3409F0F7
:1013F000D6C491819053943008F0D1C4923061F0FA
:10140000933099F08091FB11913019F05F9A8460CC
:1014100031C08A9A81602EC08091080181608093DA
:1014200008018091FB11826025C00E94D526809121
:10143000FB1188601FC080818E3409F0B0C4918197
:101440009053943008F0ABC4923061F09330A9F01F
:101450008091FB11913019F05F988B7F0BC08A98B7
:101460008E7F08C0809108018E7F80930801809153
:10147000FB118D7F8093FB11EFCE0E949120809114
:10148000FB11877FF7CF80818E3409F088C481817A
:101490008053843008F083C49091FB11823081F036
:1014A000833089F0813019F090FF03C03CC191FD79
:1014B0003AC161E773E08FEA9CE00E94F969CCCE03
:1014C00092FD31C1F6CF93FFF4CF2DC11AA619A614
:1014D0001D8A1E8A1F8A188E8E010F5F1F4F8AE099
:1014E000D8011D928A95E9F7CE0189969F938F9333
:1014F0001F930F938DE292E09F938F93FF93EF934F
:101500000E942F6A0FB6F894DEBF0FBECDBF0297C0
:101510000CF4F3C2AE014B5E5F4F60E070E0C801B7
:101520000E94484C882309F43AC42D893E894F898A
:10153000588D69A57AA5072E000C880B990B0E947F
:10154000FE1F8ACE8FEF0E94FC460E949C1F84CE15
:10155000A5961CAE1DAE1EAE1FAEA597A1961CAEE5
:101560001DAE1EAE1FAEA1976D961CAE1DAE1EAE7B
:101570001FAE6D9784E15E0129E2A20EB11CD50178
:10158000282F1D922A95E9F77E0135E1E30EF11C23
:10159000D701282F1D922A95E9F7DE0111966D01DA
:1015A0001D928A95E9F78E0107591F4F8FEF90E042
:1015B000D8018D939C931F930F93DF92CF92FF924C
:1015C000EF92BF92AF9289E392E09F938F93FF9344
:1015D000EF930E942F6A0FB6F894DEBF0FBECDBF07
:1015E00003970CF48AC2AE014F595F4F60E070E080
:1015F000C5010E94484C882309F4D1C3AE01435A67
:101600005F4F60E070E0C7010E94484C882309F4F6
:10161000C6C3AE01475A5F4F60E070E0C6010E944A
:10162000484C882309F4BBC3D8018D919C91009745
:10163000D9F1019709F0B3C3A596CCACDDACEEAC03
:10164000FFACA59720E030E044EB52E4A1966CADEE
:101650007DAD8EAD9FADA1970E94676521EE3EE204
:1016600045E652E40E9448664B015C010E944566D3
:101670009B01AC01C701B6010E949A68A5966CAFA8
:101680007DAF8EAF9FAFA597C501B4010E941D69C4
:101690009B01AC01C701B6010E949A68A1966CAF8C
:1016A0007DAF8EAF9FAFA197AE01475A5F4FBE018E
:1016B000635A7F4FCE018F599F4F0E9417296D9615
:1016C000ECACFDAC0EAD1FAD6D97A1962CAD3DAD54
:1016D0004EAD5FADA197A5966CAD7DAD8EAD9FADC6
:1016E000A597FE01FD964F01DE01AF5ABF4F5D0188
:1016F00078966F010E946D2A2196ECACFDAC0EAD80
:101700001FAD219765962CAD3DAD4EAD5FAD659794
:1017100069966CAD7DAD8EAD9FAD69970E94D32D5E
:10172000882309F4C6CE68E272E0C5CE8081863592
:1017300009F035C381818053823008F030C3813095
:1017400019F00E94781F88CD9C9A9D9AA49AA5981A
:1017500083CD8081863509F022C381818053823018
:1017600008F01DC3813019F00E94751F75CD3F9A96
:10177000479872CD8081863509F011C381818053ED
:10178000823008F00CC3813019F00E94641F64CDD0
:101790008091010180628093010180910101806448
:1017A0008093010180910201806280930201809107
:1017B00002018064809302014FCD8081833509F05E
:1017C000EEC281818053883008F0E9C290E0873012
:1017D000910508F041C1FC018827EE58FF4F8F4F5B
:1017E0000C94CD690E9491201092CA111092C911D7
:1017F0008AE999E1A5E9B2E48093CF119093D011E1
:10180000A093D111B093D2118AE999E9A2E6B2E48A
:101810009FC00E94912081E090E09093CA11809334
:10182000C91186EF98E2ACE4B2E48093CF119093B3
:10183000D011A093D111B093D2118DEC9CECA0E803
:10184000B2E486C00E94912082E090E09093CA1199
:101850008093C91189E29CEDA4E9B2E48093CF1191
:101860009093D011A093D111B093D21180E090E069
:10187000A2E6B2E46DC00E94912083E090E09093D4
:10188000CA118093C91180E090E0ACE2B2E4809389
:10189000CF119093D011A093D111B093D21180E0C9
:1018A00090E0ABE8B2E454C00E94912084E090E064
:1018B0009093CA118093C91180E090E0ACE1B2E44A
:1018C0008093CF119093D011A093D111B093D211E6
:1018D00080E090E0A9E9B2E418C00E94912085E080
:1018E00090E09093CA118093C9118DEC9CECA2E911
:1018F000B2E48093CF119093D011A093D111B09303
:10190000D21180E090E0A8E9B2E48093CB119093EB
:10191000CC11A093CD11B093CE110E946A209CC02F
:101920000E94912086E090E09093CA118093C911A3
:1019300086E696E6AAE9B2E48093CF119093D0119F
:10194000A093D111B093D21180E090E0AAE5B2E467
:101950008093CB119093CC11A093CD11B093CE1165
:101960007BC080E090E00E94A42E9093751080933D
:10197000741081E090E00E94A42E909377108093E1
:10198000761082E090E00E94A42E909373108093D2
:10199000721002C260913D1370913E1380913F130B
:1019A000909140130E94E3662B013C016091391332
:1019B00070913A1380913B1390913C130E94E3661F
:1019C0009B01AC01609135137091361380913713F0
:1019D00090913813C357DF4F2883CD58D040C2575A
:1019E000DF4F3883CE58D040C057DF4F4883C059AF
:1019F000D040CF56DF4F5883C159D0400E94E36694
:101A0000DE0111964D01FE0175965F0198966D01FC
:101A100083017201C357DF4F2881CD58D040C25790
:101A2000DF4F3881CE58D040C057DF4F4881C05972
:101A3000D040CF56DF4F5881C159D0400E94852DEC
:101A400089819A81AB81BC818093CF119093D01111
:101A5000A093D111B093D2110E94C31FFDCB1D8A58
:101A60001E8A1F8A188E8E010F5F1F4F84E1D801D6
:101A70001D928A95E9F71F930F938BE592E09F9350
:101A80008F93FF93EF930E942F6A0F900F900F9008
:101A90000F900F900F90181619067CF5AE014B5E53
:101AA0005F4F60E070E0C8010E94484C882309F451
:101AB00076C18D899E89AF89B88D4ACF1D8A1E8ACD
:101AC0001F8A188E8E010F5F1F4F84E1D8011D926F
:101AD0008A95E9F71F930F9386E692E09F938F9381
:101AE000FF93EF930E942F6A0F900F900F900F902B
:101AF0000F900F901816190674F01F9281E08F93C3
:101B000088E192E09F938F930E94A53A0F900F90E7
:101B10000F900F9044C1AE014B5E5F4F60E070E0EC
:101B2000C8010E94484C882309F439C18D899E89D7
:101B3000AF89B88D8093D3119093D411A093D51110
:101B4000B093D6110E94C31F0E946A2085CB80816A
:101B5000803509F024C181818053833008F01FC192
:101B60008130D9F0823091F180E090E00E94A42E83
:101B700090932F0480932E0481E090E00E94A42E85
:101B8000909331048093300482E090E00E94A42E70
:101B900090933304809332045FCB80E090E00E9406
:101BA000A42E909329048093280481E090E00E9461
:101BB000A42E90932B0480932A0482E090E00E944C
:101BC000A42E90932D0480932C0446CB80E090E0CB
:101BD0000E94A42E909323048093220481E090E03D
:101BE0000E94A42E909325048093240482E090E028
:101BF0000E94A42E90932704809326042DCB6091FD
:101C00002E0470912F04E0903004F090310497017D
:101C1000262B372B8091320490913304822B932B07
:101C2000892B19F481E792E02FC0C0902804D0904E
:101C3000290480902A0490902B04E0912C04F091C8
:101C40002D04E296FFAFEEAFE297C4018C299D29E7
:101C50008E2B9F2B892B19F487E792E015C0A0905B
:101C60002204B090230400912404109125049801CB
:101C70002A293B298091260490912704822B932BBB
:101C8000892B49F48DE792E09F938F930E94A53AA8
:101C90000F900F9084C080E090E00E94E16624EEF7
:101CA00035E24EE652E40E9468652B013C01B50125
:101CB00080E090E00E94E16620E33CE44AEB52E4DD
:101CC0000E9468659B01AC01C301B2010E94686576
:101CD0002B013C01B60180E090E00E94E1669B018F
:101CE000AC01C301B2010E94686520E030E040E42D
:101CF00050E40E94486620E030E040E05FE30E944C
:101D000068650E94B5667093751060937410B70192
:101D100080E090E00E94E1662CE93DE241E853E476
:101D20000E9467656B017C01B80180E090E00E9431
:101D3000E16624E53AE146E953E40E9468659B01C7
:101D4000AC01C701B6010E9468656B017C01B4015A
:101D500080E090E00E94E1669B01AC01C701B60102
:101D60000E94686520E030E040E450E40E9448664C
:101D700020E030E040E05FE30E9468650E94B566C5
:101D80007093771060937610E2962EAD3FADE29798
:101D900030937310209372100E94A12F5DCA82E3CA
:101DA00090E09C01215031092230310510F00C9453
:101DB000ED1D36E02316310428F483E028163104A3
:101DC00088F024C098E02916310410F40C949E1D6C
:101DD000AAE02A163104C8F1BEE12B16310411F035
:101DE0000C949E1DE2E02E16310459F0FEE12F16F0
:101DF000310439F02328E1F581E08093FF122BE0D4
:101E00002CC082E08093FF123BE02EC084E02816B5
:101E1000310461F095E02916310481F081E080936E
:101E20000113ACE0E196AFAFE19765C482E0809327
:101E30000113BCE0E196BFAFE1975DC410920113BE
:101E4000ECE0E196EFAFE19756C4F9E02F163104CC
:101E500041F082E0809300132DE0E1962FAFE197EF
:101E60004AC4109200133DE0E1963FAFE19743C4AE
:101E70008BE0E1968FAFE1973EC4672B11F00C9495
:101E8000C31DAC968FADAC97B7EB8B16B8E09B0635
:101E900009F45DC3B8F5FCE98F16F8E09F0609F474
:101EA000C2C0D8F439E9831638E0930609F4AEC00D
:101EB00038F498E9891698E0990609F454C050C09E
:101EC000AAE98A16A8E09A0609F4A3C0BBE98B1612
:101ED000B8E09B0609F4A0C043C0EEE98E16E8E026
:101EE0009E0609F4A6C008F4A1C02CEA821628E0D8
:101EF000920609F4CEC13DEA831638E0930609F450
:101F000062C22EC082EC881688E09806D8F490EC65
:101F1000891698E0990608F0E1C3A9EB8A16A8E0B3
:101F20009A0609F473C308F466C3EAEB8E16E8E078
:101F30009E0609F473C3FBEB8F16F8E09F0609F4C5
:101F400078C30EC023EC821628E0920609F48AC3F7
:101F500008F476C380E6881689E0980609F4A8C3D9
:101F600081E090E0C0C384E17E0199E2E90EF11CBA
:101F7000D701E82F1D92EA95E9F76E01F5E1CF0E42
:101F8000D11CD601E82F1D92EA95E9F79E012F5F3B
:101F90003F4F1901D9011D928A95E9F780E090E041
:101FA0000E94F12EED966CAF7DAF8EAF9FAFED9797
:101FB00081E090E00E94F12E2B013C0182E090E054
:101FC0000E94F12E4B015C01870124E045E0ED9673
:101FD0006CAD7DAD8EAD9FADED970E94D562860153
:101FE00024E045E0C301B2010E94D562810124E0F2
:101FF00045E0C501B4010E94D562DF92CF92FF9205
:10200000EF923F922F9283E892E044C381E992E0FD
:1020100005C087EA9CE002C08AE992E09F938F9313
:1020200089E093E04DC381EA92E0F8CF88EA92E03C
:10203000F5CFC158DF4FE881F981CF57D040E80F85
:10204000F11D80818E3409F04CC381818053EA9662
:102050008FAFEA97843008F044C36D961CAE1DAE76
:102060001EAE1FAE6D9769961CAE1DAE1EAE1FAEA6
:10207000699765961CAE1DAE1EAE1FAE659784E1D6
:102080001E01FDE32F0E311CD101E82F1D92EA95B0
:10209000E9F7FE01B996DF01282F1D922A95E9F78D
:1020A0007497DF01282F1D922A95E9F7DE0111961A
:1020B000AE96BFAFAEAFAE971D928A95E9F760912D
:1020C0003D1370913E1380913F13909140130E94F5
:1020D000E3662B013C016091391370913A138091B2
:1020E0003B1390913C130E94E3669B01AC0160910D
:1020F0003513709136138091371390913813C3576D
:10210000DF4F2883CD58D040C257DF4F3883CE5899
:10211000D040C057DF4F4883C059D040CF56DF4F23
:102120005883C159D0400E94E366FE01EF5AFF4F29
:102130004F01DE01AB5ABF4F5D0138966F0183013D
:102140007201C357DF4F2881CD58D040C257DF4FAF
:102150003881CE58D040C057DF4F4881C059D04059
:10216000CF56DF4F5881C159D0400E94082D20E042
:1021700030E044EB52E465966CAD7DAD8EAD9FAD25
:1021800065970E94686565966CAF7DAF8EAF9FAF17
:1021900065978091C9119091CA110497029748F4EC
:1021A0008090A00C9090A10CA090A20CB090A30CD9
:1021B00024C023E333E343E35FE3609100027091C3
:1021C000010280910202909103020E94676520E063
:1021D00030E040E05FE30E949A6820E030E044E3B2
:1021E00053E40E949A689B01AC0160E070E084E3D4
:1021F00093E40E9467654B015C016D966CAD7DAD0B
:102200008EAD9FAD6D97810124E045E00E94D562BF
:102210006E01F9E2CF0ED11C69966CAD7DAD8EAD2D
:102220009FAD6997860124E045E00E94D5627E015A
:1022300025E1E20EF11C65966CAD7DAD8EAD9FADD6
:102240006597870124E045E00E94D5620451110999
:1022500024E045E0C501B4010E94D562EA963FAD95
:10226000EA97323051F0333059F0313019F03F9263
:102270002F920CC0DF92CF9209C0FF92EF9206C05E
:1022800081E090E08C0F9D1F9F938F9381EB92E0F4
:1022900017C269961CAE1DAE1EAE1FAE699765963D
:1022A0001CAE1DAE1EAE1FAE659721961CAE1DAEB8
:1022B0001EAE1FAE219784E1DE019996AE96BFAFA8
:1022C000AEAFAE97E82F1D92EA95E9F71E01F5E152
:1022D0002F0E311CD101E82F1D92EA95E9F79E01DE
:1022E0002F5F3F4FE0963FAF2EAFE097D9011D9291
:1022F0008A95E9F780E090E00E94F12E2B013C01E5
:1023000081E090E00E94F12EED966CAF7DAF8EAF34
:102310009FAFED9782E090E00E94F12E20E030E048
:1023200044EB52E40E946765FE01FD964F019E0159
:102330002F5A3F4F5901DE01AB5ABF4F6D017B0150
:102340008C01ED962CAD3DAD4EAD5FADED97C3016B
:10235000B2010E94232CA401B501C6010E94C2292A
:1023600069966CAD7DAD8EAD9FAD69978E01075DB1
:102370001F4F24E045E00E94D56265966CAD7DADAF
:102380008EAD9FAD6597810124E045E00E94D56246
:1023900021966CAD7DAD8EAD9FAD21970451110995
:1023A00024E045E00E94D5621F930F933F922F9245
:1023B000AE96FFADAE97FF93AD962FADAD972F9331
:1023C00085EB92E067C169961CAE1DAE1EAE1FAED6
:1023D000699765961CAE1DAE1EAE1FAE6597219621
:1023E0001CAE1DAE1EAE1FAE219784E1DE01999694
:1023F000AE96BFAFAEAFAE97E82F1D92EA95E9F764
:102400001E01F5E12F0E311CD101E82F1D92EA9536
:10241000E9F79E012F5F3F4FE0963FAF2EAFE09769
:10242000D9011D928A95E9F780E090E00E94F12E93
:10243000ED966CAF7DAF8EAF9FAFED9781E090E0F2
:102440000E94F12ECB57DF4F688379838A839B8369
:10245000C558D04082E090E00E94F12E20E030E0AC
:1024600044EB52E40E9467652B013C01FE01FD969E
:102470004F019E012F5A3F4F5901CE018B5A9F4F5A
:102480006C0183017201CB57DF4F288139814A816A
:102490005B81C558D040ED966CAD7DAD8EAD9FADE6
:1024A000ED970E94232CA401B501C6010E94C22908
:1024B00069966CAD7DAD8EAD9FAD69976596CCACE0
:1024C000DDACEEACFFAC65979B01AC010E949A6855
:1024D0004B015C01A7019601C701B6010E949A68F1
:1024E0009B01AC01C501B4010E9468650E94276987
:1024F0008E01075D1F4F24E045E00E94D56220E079
:1025000030E044EB52E4C301B2010E9468658101EE
:1025100024E045E00E94D56221966CAD7DAD8EAD84
:102520009FAD21970451110924E045E00E94D56236
:102530001F930F933F922F92AE96BFADAE97BF936E
:10254000AD96EFADAD97EF9383EC92E0A3C0A49B63
:1025500059C0CE0101967C016E0191E1C90ED11CDA
:1025600087018FE30E947D1FD7018D939D937D018D
:10257000AC15BD05B1F720E030E040E0842F90E0DD
:10258000B901680F791F67307105BCF4880F991F76
:10259000D801A80FB91F6D917C9111970296F8018F
:1025A000E80FF91F808191818617970720F48D939A
:1025B0009C93718360834F5FE1CF2F5F3F4F283043
:1025C0003105D9F62F8138858D819E81820F931F29
:1025D00029853A85820F931F2B853C85820F931F97
:1025E00096958795969587958A30910558F087340A
:1025F000910530F009C0479905C00898009904C0BA
:1026000082E01CC080E01AC081E018C082B38695C9
:102610008695869591E08927817010C08BE30E9492
:102620007D1F21E08536910508F420E01F922F934D
:1026300045C08091020185FB882780F91F923DC02B
:10264000809177108F93809176108F938091751081
:102650008F93809174108F93809173108F938091DA
:10266000721015C080E090E00E94A42E182F092F50
:1026700081E090E00E94A42EF82EE92E82E090E006
:102680000E94A42EEF92FF920F931F939F938F931C
:1026900081ED92E09F938F938FEA9CE09F938F93BD
:1026A0000E94006A0FB6F894DEBF0FBECDBF16C001
:1026B0008091CA118F938091C9118F9381E693E025
:1026C0009F938F938FEA9CE09F938F930E94006A61
:1026D0000F900F900F900F900F900F9080E090E070
:1026E00002C082E390E09C01215031092230310583
:1026F00010F00C94ED1D81E090E0E1960FACE197B5
:1027000002C0880F991F0A94E2F7EF962EAD3FADF5
:10271000EF9728233923232B11F00C94C107EF9650
:10272000AEADBFADEF97A82BB92BEF96BFAFAEAF55
:10273000EF970C943D05812F110F990BAA0BBB0B42
:10274000FC01E654F109E531F10510F00C949E1DF1
:102750008827E758FF4F8F4F0C94CD69C092021322
:10276000D0920313E0920413F0920513E1961FAE8A
:10277000E197BBC0C0920613D0920713E0920813F2
:10278000F0920913CF57DF4FB881C158D040B160E4
:10279000CF57DF4FB883C158D040E1E0A3C0C0920B
:1027A0000A13D0920B13E0920C13F0920D13CF5733
:1027B000DF4FF881C158D040F260CF57DF4FF88328
:1027C000C158D04022E0E1962FAFE1978EC0C09271
:1027D0000E13D0920F13E0921013F0921113CF57F3
:1027E000DF4F3881C158D0403460CF57DF4F388336
:1027F000C158D04083E0E1968FAFE19776C08092D8
:10280000121394E056C0C701B6010E94B0666093EF
:102810001313709314138093151390931613A5E05C
:10282000E196AFAFE19761C0C0921713D092181331
:10283000E0921913F0921A13B6E04FC0C0921B1326
:10284000D0921C13E0921D13F0921E13E7E04AC0D1
:10285000C0921F13D0922013E0922113F092221302
:10286000F8E0E196FFAFE19740C0C0922413D09208
:102870002513E0922613F0922713E3962FADE397EA
:102880002160E3962FAFE3973AE0E1963FAFE197FF
:102890002CC0C0922813D0922913E0922A13F092F0
:1028A0002B13E3968FADE3978260E3968FAFE397A8
:1028B0009BE0E1969FAFE19718C0C0922C13D09295
:1028C0002D13E0922E13F0922F13E396AFADE39702
:1028D000A460E396AFAFE397BCE0E196BFAFE197AA
:1028E00004C0E9E0E196EFAFE19701E010E0E19686
:1028F0000FACE19702C0000F111F0A94E2F7E996AE
:102900008EAD9FADE99780239123892B11F00C9414
:10291000961D81E693E0E1960FACE19702C0959594
:1029200087950A94E2F780FF0BC020E030E0A90110
:10293000C701B6010E94416687FF02C00C94981D32
:10294000E9962EAD3FADE997202B312BE9963FAFAD
:102950002EAFE9970C943D05E3963FADE397332303
:1029600049F0E7968FADE797811104C092E0E796B2
:102970009FAFE797E896AFADE897A5FF0FC08091AE
:10298000131390911413A0911513B091161380385E
:102990009649A849B10514F00C949A1D8091F9123A
:1029A000813069F4E796FFADE797F230E1F5E896FC
:1029B0002FADE89720FD02C00C94A41D34C0809177
:1029C0006912811130C0E8963FADE89730FF1BC017
:1029D0008091FA12813039F523E333E34BEC51E473
:1029E0006091021370910313809104139091051369
:1029F0000E949A68609302137093031380930413E8
:102A00009093051310C08091761290917712A09147
:102A10007812B09179128093021390930313A093CC
:102A20000413B0930513E9968EAD9FADE99790FD21
:102A300010C08091721290917312A0917412B09193
:102A4000751280931F1390932013A0932113B093BA
:102A500022138091F712813089F4E8969FADE897B0
:102A600096FD03C08CE10C94ED1DE996AEADBFADB3
:102A7000E997AF7BE996BFAFAEAFE9978091FC12C3
:102A8000882311F1813081F4B1E0CB57DF4FB88357
:102A9000C558D040EA961FAEEA97E2E0C158DF4F32
:102AA000E883CF57D0401FC0CB57DF4F1882C5589F
:102AB000D040F2E0EA96FFAFEA9721E0C158DF4F3D
:102AC0002883CF57D0400FC032E0CB57DF4F388339
:102AD000C558D04081E0EA968FAFEA97C158DF4FE2
:102AE0001882CF57D0408091FA12813031F0E796AA
:102AF0009FADE7979330C9F52EC074E2E72E73E1DE
:102B0000F72E00E010E0E396AFADE397CA2ED12C8C
:102B1000C601002E02C0959587950A94E2F780FFC2
:102B200011C023E333E34BEC51E4F7016081718181
:102B3000828193810E949A68D7016D937D938D93D2
:102B40009C9313970F5F1F4FB4E0EB0EF11C033003
:102B50001105F1F6CCCF8091FD12813031F4E3966E
:102B6000EFADE397E43009F0E7C78CE0EBE8F2E182
:102B7000DE01559601900D928A95E1F7EF962EAD04
:102B80003FADEF9731FD0AC09090F71232E09316F7
:102B9000C9F088E0981609F4C8C02BC18091FE12D4
:102BA000873018F08DE10C94ED1D90916E129817FE
:102BB00059F3BE016B5E7F4F0E94DC46882309F407
:102BC000CDC7E2CFE3969FADE397911103C08AE1B1
:102BD0000C94ED1DE9968EAD9FADE9978075992710
:102BE000892B09F43FCF60911713709118138091CE
:102BF000191390911A130E9468690E94B566673094
:102C000088F680911213843141F0823009F096C722
:102C1000E896AFADE897A7FD91C7E996EEADFFAD99
:102C2000E997EF7AE996FFAFEEAFE997662329F0CF
:102C30006150E1966FAFE19705C0F091FE12E19609
:102C4000FFAFE197BE016F5F7F4FE1968FADE197D8
:102C50000E94DC46882309F481C73090121340900B
:102C6000A3125090A4126090A5127090A6128E012B
:102C70000F5F1F4FC12CD12CE12CF12CE3962FAD0F
:102C8000E397822E912CC4010E2C02C09595879556
:102C90000A94E2F780FF3BC0C60189509D4E5C015B
:102CA00094E139122AC0F601E859FD4E27A530A952
:102CB00041A952A96789708D818D928D0E946765A7
:102CC000D5019D962D913D914D915C91D0970E949B
:102CD0006765F8016083718382839383F2E0EF1666
:102CE000F104A9F4A30192010E946765D8016D93D4
:102CF0007D938D939C9313970AC0F50185A596A5A6
:102D0000A7A5B0A9F80180839183A283B383FFEFC5
:102D1000EF1AFF0A24E0C20ED11C0C5F1F4F33E0F4
:102D2000E316F10409F0AFCF24C1E3968FADE3972A
:102D3000882309F44CCF4090A3125090A4126090C5
:102D4000A5127090A61204E213E1C12CD12CE12C43
:102D5000F12CA82EB12CF601E859FD4EC5010E2C20
:102D600002C0959587950A94E2F780FF2BC0A5E1F4
:102D7000B0E0AC0FBD1FAC0DBD1D2D913D914D912F
:102D80005C916789708D818D928D0E946765D801F5
:102D90002D913D914D915C910E946765F801608392
:102DA000718382839383F2E0EF16F104A1F4A3010F
:102DB00092010E946765D8016D937D938D939C93DA
:102DC000139709C087A590A9A1A9B2A9F80180838A
:102DD0009183A283B383FFEFEF1AFF0A24E0C20EB0
:102DE000D11C0C5F1F4F33E0E316F10409F0B3CFA1
:102DF000BDC0E7968FADE797833061F495E09916F3
:102E000009F497C0A7E09A1609F4ABC0B3E09B128F
:102E1000ADC082C0E396EFADE397EE2309F49BC00B
:102E20008090FB124090A3125090A4126090A512C3
:102E30007090A6126FE7C62E62E1D62E04E213E16F
:102E40005E01F5E1AF0EB11CE12CF12C2E2E312CE0
:102E5000C1010E2C02C0959587950A94E2F780FD7A
:102E60000BC0F60180819181A281B381F80180833A
:102E70009183A283B3833FC0F7E09F16E1F18110F5
:102E800029C0D60158962D913D914D915C915B974B
:102E9000F50160817181828193810E946865D8010A
:102EA0002D913D914D915C910E946865F801608380
:102EB000718382839383F2E0EF16F104E1F4A301BE
:102EC00092010E946865D8016D937D938D939C93C8
:102ED000139711C0F6012081318142815381D801BD
:102EE0006D917D918D919C910E946865F801608340
:102EF000718382839383FFEFEF1AFF0A24E0C20EEF
:102F0000D11C0C5F1F4F34E0A30EB11C83E0E81608
:102F1000F10409F09DCF72CFE3969FADE397911135
:102F200003C0E7961FAEE797BE016F5F7F4F86E055
:102F30000CC0E396AFADE397A11103C0E7961FAEB7
:102F4000E797BE016F5F7F4F87E00E94DC468823D2
:102F500009F404C60BC085E0981681F397E0991236
:102F600038C68091F812823008F0EAC5E1961FAEAB
:102F7000E1971091F812183069F4E396BFADE3972A
:102F8000BB2309F420C2E796EFADE797E13009F0E3
:102F9000D9C527C3E796FFADE797F23009F013C212
:102FA000111107C0E3962FADE397222309F410C255
:102FB00018C320E030E0A90160910213709103135F
:102FC00080910413909105130E944166882309F4AF
:102FD000BBC5143028F4123070F4113029F001C34D
:102FE000183008F4ACC1FDC2E3963FADE39733233C
:102FF00009F4EEC1F6C2E3968FADE397882309F496
:10300000E6CDC158DF4F9881CF57D040692E712C43
:10301000EA96BFADEA97AB2FB0E0EF96BFAFAEAF89
:10302000EF9781E090E07C01EA960FACEA9702C04E
:10303000EE0CFF1C0A94E2F7C158DF4F0880CF570F
:10304000D04002C0880F991F0A94E2F7E82AF92AB3
:10305000E396EFADE3978E2F90E08E219F21892B91
:1030600009F474C5C301880F991F880F991FFC01CB
:10307000E950FD4EDC01A859BD4E57962D913D916A
:103080004D915C915A9765A576A587A590A90E9458
:1030900067651B012C01EF968EAD9FADEF97880FF2
:1030A000991F880F991FFC01E950FD4EDC01A859BA
:1030B000BD4E57962D913D914D915C915A9765A5C6
:1030C00076A587A590A90E9467654B015C01E996EA
:1030D000CEACDFACE997F0E8CF22DD24E8962FAD47
:1030E000E89727FF47C0E9968EAD9FADE9978F77A8
:1030F000E9969FAF8EAFE997209124133091251365
:10310000409126135091271360917F127091801285
:1031100080918112909182120E944166811162C158
:10312000209128133091291340912A1350912B1389
:103130006091831270918412809185129091861211
:103140000E94416681114EC120912C1330912D13A4
:1031500040912E1350912F13609187127091881215
:103160008091891290918A120E94416681113AC120
:1031700081E233C5CF57DF4F3881C158D040232F6C
:1031800030E0E4963FAF2EAFE497E222F322EF283F
:1031900009F4DEC4E9968EAD9FADE997817FE9968B
:1031A0009FAF8EAFE9978091FA12813009F480C009
:1031B000F301EE0FFF1FEE0FFF1FE550FD4EC3841E
:1031C000D484E584F684A7019601C201B1010E946E
:1031D00067652B013C01EF96EEADFFADEF97EE0F6B
:1031E000FF1FEE0FFF1FE550FD4E83859485A585DB
:1031F000B685E6968CAF9DAFAEAFBFAFE6979C01AC
:10320000AD01C501B4010E9467654B015C01A301DA
:103210009201C301B2010E949A682B013C01A501F1
:103220009401C501B4010E949A689B01AC01C301DD
:10323000B2010E9468650E9427694B015C01A701E9
:103240009601C701B6010E949A686B017C01E6965F
:103250002CAD3DAD4EAD5FADE697CA01B9010E9400
:103260009A689B01AC01C701B6010E9468650E9483
:1032700027696B017C0160931B1370931C1380936F
:103280001D1390931E139B01AC01C501B4010E9454
:1032900067654B015C01E894B7F82AE037ED43EA33
:1032A0005BE3C501B4010E945F6818165CF199C127
:1032B00007EF12E1E4968EAD9FADE4970C2C02C0AF
:1032C000959587950A94E2F780FF12C023E333E3D4
:1032D0004BEC51E4D8011F966D917D918D919C919D
:1032E00052970E949A68F8016787708B818B928B46
:1032F000FFEFCF1ADF0A0C5F1F4F23E0C216D10485
:10330000C9F656CF20E030E040E05FE3C501B401EC
:103310000E945F6818160CF42BCF2FE632E143E8C9
:103320005AE3C701B6010E949A689B01AC01C5012E
:10333000B4010E945F6818160CF41ACF52C1E396CC
:103340003FADE397332309F442CC2091241330910D
:103350002513409126135091271360917F1270918D
:10336000801280918112909182120E944166811197
:1033700038C1209128133091291340912A1350917C
:103380002B13609183127091841280918512909119
:1033900086120E944166811124C120912C13309124
:1033A0002D1340912E1350912F136091871270911D
:1033B00088128091891290918A120E944166882316
:1033C00009F4D6CE0EC1E7968FADE797811109C1FA
:1033D000E9968EAD9FADE9978E7D9C7FE7961FAEF7
:1033E000E79705C18091FA128130B1F423E333E30A
:1033F0004BEC51E460911B1370911C1380911D13D1
:1034000090911E130E949A6860931B1370931C1373
:1034100080931D1390931E1380911B1390911C1386
:10342000A0911D13B0911E13E6968CAF9DAFAEAF69
:10343000BFAFE697A2019101C201B1010E949A6853
:10344000CF57DF4F688379838A839B83C158D040ED
:10345000A5019401C501B4010E949A68C757DF4FC6
:10346000688379838A839B83C958D04020E030E009
:1034700040E850E4E6966CAD7DAD8EAD9FADE6972D
:103480000E949A68E6962CAD3DAD4EAD5FADE697D5
:103490000E949A68CF57DF4F288139814A815B812A
:1034A000C158D0400E946765C757DF4F28813981D6
:1034B0004A815B81C958D0400E9467656B017C01DD
:1034C00020E030E0A9010E94416687FD5EC3C7018C
:1034D000B6010E9427696B017C01C757DF4F288125
:1034E00039814A815B81C958D040CF57DF4F68810D
:1034F00079818A819B81C158D0400E9468650E9471
:1035000027699B01AC01C701B60190580E9448662B
:103510006B017C01133021F4F7FAF094F7F8F09482
:1035200020E030E0A901E6966CAD7DAD8EAD9FAD9B
:10353000E6970E94416687FF13C0F7FAF094F7F808
:10354000F094E6968CAD9DADAEADBFADE697B058AC
:1035500080931B1390931C13A0931D13B0931E1301
:103560008301000F111F000F111F05501D4EA701F1
:103570009601C501B4010E949A689B01AC01C20189
:10358000B1010E94676520E030E040E05FE30E9407
:103590009A68D8011B966D937D938D939C931E978B
:1035A000EF960EAD1FADEF97000F111F000F111F0B
:1035B00005501D4EA7019601C201B1010E949A68F3
:1035C0009B01AC01C501B4010E94686520E030E0B8
:1035D00040E05FE30E949A68F801638774878587FB
:1035E0009687E9968EAD9FADE9978E7D907E892B6B
:1035F00009F0B0C28091131390911413A091151388
:10360000B091161380937B1290937C12A0937D123D
:10361000B0937E128091F912809369128091021307
:1036200090910313A0910413B09105138093761227
:1036300090937712A0937812B0937912C0901F13D1
:10364000D0902013E0902113F0902213A70196014F
:103650006091721270917312809174129091751230
:103660000E944166882341F1809171128823A1F064
:1036700090913213923081F0C157DF4F8883CF5839
:10368000D0400E94795FB701A601C157DF4F888102
:10369000CF58D0400E946E4580911F139091201307
:1036A000A0912113B0912213809372129093731200
:1036B000A0937412B09375128091231380937A12A1
:1036C0008091011390917112981709F446C04091AE
:1036D00072125091731260917412709175129091E0
:1036E00032139230B1F1C057DF4F4883C059D040F8
:1036F000CF56DF4F5883C159D040C357DF4F68833F
:10370000CD58D040C257DF4F7883CE58D040C157F4
:10371000DF4F8883CF58D0400E94795FC057DF4F7A
:103720004881C059D040CF56DF4F5881C159D04051
:10373000C357DF4F6881CD58D040C257DF4F7881E3
:10374000CE58D040C157DF4F8881CF58D0400E941B
:103750006E45809101138093711210910013809136
:103760007012811781F080913213823041F00E94F3
:10377000795F123011F45C9A02C00E941B54809150
:103780000013809370128091F712813079F080914C
:10379000FC1280936C128091FA1280936A12E79661
:1037A0009FADE797933009F074C054C08090171311
:1037B00090901813A0901913B0901A13809132139F
:1037C000823029F320E030E040EA51E4C501B40141
:1037D0000E949A680E941E670E94B5666B017C0178
:1037E0000E94795F20E030E04AE754E4C501B4016B
:1037F0000E949A684B015C0182E38C9DB0018D9D13
:10380000700D112480E090E00E94E1669B01AC0104
:10381000C501B4010E9467650E941E670E94B566DB
:10382000CB010E943D4CC114D10409F4B0CF0E94D9
:10383000103BA1E0CA1AD108809131138111A7CFA2
:10384000BFEFE0E7F2E0B150E040F040E1F700C048
:103850000000E9CF8091FD1280936D12813089F4D0
:1038600080912C1390912D13A0912E13B0912F13B2
:103870008093A3129093A412A093A512B093A612C2
:1038800008C01092A3121092A4121092A5121092C6
:10389000A6128091FE1290916E12981759F08093A3
:1038A0006E128CE0FE017596ABE8B2E101900D92CC
:1038B0008A95E1F78091FB1280936B12E091F712E9
:1038C0008E2F90E0FC013297E830F10508F063C0DC
:1038D0008827E257FF4F8F4F0C94CD69BE016F5F71
:1038E0007F4FE1968FADE1970E94D34680916E1293
:1038F000E1962FADE19782134EC08CE0FE01319628
:10390000ABE8B2E13CC0E7963FADE797332371F0F7
:10391000209176123091771240917812509179125D
:1039200000E064E273E181E00E94354D209176125F
:1039300030917712409178125091791200E0BE01D7
:103940006F5F7F4F81E00E94354D182F8CE0FE01A4
:103950003196AFE7B2E101900D928A95E1F71CC074
:103960006FE772E186E003C06FE772E187E00E94D3
:10397000D34611C08CE0E4E2F3E1A7E9B2E10190A3
:103980000D928A95E1F707C08CE0E7E9F2E1DF01EB
:103990001D928A95E9F710E08091F81280936812E1
:1039A000883009F46CC0E796BFADE797B23009F0F4
:1039B00066C090E08830910508F058C0FC01409046
:1039C0007612509077126090781270907912882752
:1039D000EA56FF4F8F4F0C94CD6900E0A30192018E
:1039E00064E273E180E007C000916912A3019201D3
:1039F00064E273E181E00E94354D182F37C0609179
:103A00001B1370911C1380911D1390911E13882419
:103A1000839409C060911B1370911C1380911D1336
:103A200090911E13812CCB57DF4FA880C558D040F2
:103A3000EA96CFACEA97C158DF4FE880CF57D04025
:103A400000916912A30192010E9441600FC000E041
:103A500001C001E020E004C000E001C001E021E07D
:103A600040916912C301B2010E94965F8CE0E4E2CA
:103A7000F3E1AFE7B2E101900D928A95E1F7809111
:103A8000FF1280936F12882309F466C00E94795F49
:103A900090916F1280913213913069F48230E9F184
:103AA0009FB7F8948091A71288608093A7129FBF58
:103AB0000E94103B32C091E09093681210926C12F9
:103AC00010926B121092691210926E121092711273
:103AD000109270128230A9F0BE016B5E7F4F80E0C1
:103AE0000E94DC468823D1F18CE0FE017596ABE89C
:103AF000B2E101900D928A95E1F70E9467450E941C
:103B00001B548BE998E00E94013B8FE398E00E94F0
:103B1000013B88E298E00E94013B10926F121CC0AA
:103B200081E05BC082E059C088E157C089E155C09F
:103B300084E053C08BE151C085E24FC084E14DC0A9
:103B40008EE14BC08FE149C086E147C080E245C0AD
:103B500083E243C084E241C0812F3FC087E03DC083
:103B6000EEE12E16310411F40C94790680F42AE06B
:103B70002216310411F40C9459063CE12316310449
:103B800011F40C94640687E128C082E226C085E324
:103B90002816310411F40C9495069CE5291631047D
:103BA00091F76114710439F09AE06916710431F6E5
:103BB00089E00C947D0688E00C947D063CE5231694
:103BC000310411F00C94A80781E0E7968FAFE797D6
:103BD000E8CFA3E09A12CAC9A4C9CF56DF4F0FB6E7
:103BE000F894DEBF0FBECDBFDF91CF911F910F9133
:103BF000FF90EF90DF90CF90BF90AF909F908F900D
:103C00007F906F905F904F903F902F9008952091FC
:103C1000EA0C3091EB0C21153105B9F08091E80CDC
:103C20009091E90C8217930734F401969093E90C74
:103C30008093E80C0AC01092E90C1092E80C1092E4
:103C4000EB0C1092EA0C1092FC112091A50C309113
:103C5000A60C21153105A1F08091E60C9091E70C9E
:103C60008217930734F401969093E70C8093E60C47
:103C700007C01092E70C1092E60C81E08093FD11D2
:103C80008091FC1181111BC08091A40C811117C07F
:103C9000809173008E7F809373001092E10C1092DC
:103CA000EB0C1092EA0C1092A60C1092A50C10923C
:103CB000E90C1092E80C1092E70C1092E60C0895B3
:103CC0008091E50C811107C081E08093E50C809123
:103CD0000B01806205C01092E50C80910B018F7D75
:103CE00080930B018091E30C9091E40C9C012F5F79
:103CF0003F4F3093E40C2093E30C20910402309169
:103D000005022817390748F41092E40C1092E30CCE
:103D1000809170008E7F8093700008952091C9116A
:103D20003091CA112430310529F426E636E646E6FC
:103D30005FE307C02530310539F526E636E646EE65
:103D40005FE30E94486620E030E040E852E40E94D1
:103D50009A680E94B06660939C0C70939D0C80934F
:103D60009E0C90939F0C82ED9EE190936212809343
:103D700061121092A00085E08093A1008DEF9FEF6B
:103D800090936412809363128091631290916412F5
:103D90009093A5008093A40080917200816080932D
:103DA0007200089580919C0C90919D0CA0919E0CA6
:103DB000B0919F0C181619061A061B06F4F42091F0
:103DC000E20C222389F01092E20C0197A109B109BB
:103DD00080939C0C90939D0CA0939E0CB0939F0C91
:103DE00080910201806406C081E08093E20C8091A2
:103DF00002018F7B8093020108950E94A44B1092D0
:103E00009C0C10929D0C10929E0C10929F0C089589
:103E1000CF93DF93EB018431D1F028F4882361F054
:103E20008C30A8F437C08233E9F018F4873190F170
:103E30000EC0833311F10BC08881882329F066E717
:103E400073E0CE010E94EE6968E773E020C08881CC
:103E5000882329F066E773E0CE010E94EE696BE7E4
:103E600073E015C08881882329F066E773E0CE01EE
:103E70000E94EE696FE773E00AC08881882329F009
:103E800066E773E0CE010E94EE6963E873E0CE015D
:103E90000E94EE698091AF0C882379F06FEA7CE094
:103EA000CE010E94EE6982E3EFEAFCE0DF011D92A1
:103EB0008A95E9F7DF91CF91089568E273E0CE012A
:103EC000DF91CF910C94EE69E1E0F1E080818062B6
:103ED0008083808180648083E2E0F1E080818F7D57
:103EE000808380818F7B808308953F9A479A0895CD
:103EF0009C9A9D9AA498A59A0895863308F08653B3
:103F000090917B00282F2870977F922B90937B00B5
:103F10008770806480937C0080917A0080648093B5
:103F20007A0080917A0086FFFCCF80917800209102
:103F3000790090E0922B0895809104018778809316
:103F40000401809103018877803451F467E873E0BD
:103F500087EA9CE00E94F96940E050E0BA010EC097
:103F600080910301887769F46EE873E087EA9CE04A
:103F70000E94F96940E050E060EE70E483E00E9446
:103F8000D1450C940F49CF93DF936091C91184E818
:103F900093E00E9470536091CA1185E893E00E94FB
:103FA000705388E993E0EC012196FC01ED5CF14F40
:103FB00060810E947053CE01CC39D340A1F78EE8C6
:103FC00093E0EC012196FC01EF5BF14F60810E94D0
:103FD0007053CE01C239D340A1F782E89CE0EC01D6
:103FE0002196FC01EF5AFA4F60810E947053CE0176
:103FF000C638DC40A1F7DF91CF910895CF92DF92D0
:10400000EF92FF920F931F93CF93DF9369017A0191
:10401000EAE0F1E0208120622083EBE0F1E0208102
:104020002F7D2083660F771F709305026093040233
:1040300003E012E180E69EE1F80191838083C0E70E
:10404000D0E088818E7F8883E0EBF0E080818C7FF8
:104050008083E1EBF0E08081877F8083A6EBB0E096
:104060008C918F7D8C9388818D7F88838081846003
:10407000808380818C7F808320E034E244EF59E4A8
:10408000C701B6010E94486620E034E244E75BE4E1
:104090000E949A6820E030E040E85CE30E949A6861
:1040A0000E94B06620E031E0C901861B970BF80141
:1040B00093838283828193818093B200888181601F
:1040C0008883DF91CF911F910F91FF90EF90DF9048
:1040D000CF9008958091C9119091CA1104970297C9
:1040E000F8F41092A00C1092A10C1092A20C109255
:1040F000A30C809107018F7D8093070180910801B7
:1041000080628093080180910201806280930201A5
:1041100060E070E084EB93E401DE81E080930012C4
:10412000089510929C0C10929D0C10929E0C10926F
:104130009F0C0E94A44B109200120C94A44B8F92DF
:104140009F92AF92BF92CF92DF92EF92FF926B015C
:104150007C0120E030E044EB53E40E945F681816D5
:104160000CF488C020E030E0A901C701B6010E942C
:10417000416687FD7FC08091C9119091CA11049753
:10418000029790F52091A00C3091A10C4091A20CC7
:104190005091A30CC701B6010E9467654B015C01F9
:1041A000C092A00CD092A10CE092A20CF092A30CB1
:1041B00020E030E0A9010E945F68181624F4809185
:1041C00002018F7D03C08091020180628093020111
:1041D000C501B4019F77FF90EF90DF90CF90BF9023
:1041E000AF909F908F909ACD20E030E044E353E46D
:1041F000C701B6010E945F6818161CF4C12CD12CAF
:104200007601A701960160E070E084E393E40E94E8
:10421000676520E030E044E353E40E9448669B0178
:10422000AC010E94686523E333E343E35FE30E944C
:10423000686560930002709301028093020290937C
:10424000030220E030E048EA51E40E94486620E0A2
:1042500030EC4FE754E40E949A680E94B566CB01A7
:10426000FF90EF90DF90CF90BF90AF909F908F9096
:104270000C94F74AFF90EF90DF90CF90BF90AF90F3
:104280009F908F9008952F923F924F925F926F92DE
:104290007F928F929F92AF92BF92CF92DF92EF92D6
:1042A000FF920F931F93CF93DF93CDB7DEB7CA5A18
:1042B000D1090FB6F894DEBF0FBECDBF8A3928E012
:1042C000920709F41AC148F4843DE7E09E0779F0AB
:1042D0008939984009F451C049C58C3928E09207C2
:1042E00009F42FC28D39984009F428C33FC51A82BA
:1042F0001982CE0101969F938F9387E592E09F9359
:104300008F937F936F930E942F6A0F900F900F905F
:104310000F900F900F90181619060CF035C3898175
:104320009A819093EB0C8093EA0C91E09093FC11AE
:104330008091E10C81111DC527E03EE130930B1205
:1043400020930A121092200185E08093210121EF31
:104350003FEF30930D1220930C1220910C123091EC
:104360000D12309325012093240180917300816008
:10437000809373009093E10CFCC48E010B5E1F4F81
:104380001F930F933E0189E2680E711C7F926F921A
:104390002E019DE3490E511C5F924F921E01E1E5F3
:1043A0002E0E311C3F922F9285E993E09F938F93BD
:1043B0007F936F930E942F6A0FB6F894DEBF0FBEF3
:1043C000CDBF04970CF4E0C2EF961CAE1DAE1EAE3E
:1043D0001FAEEF97E5961CAE1DAE1EAE1FAEE59765
:1043E000AB961CAE1DAE1EAE1FAEAB97A1961CAE1B
:1043F0001DAE1EAE1FAEA197CE0101967C018CE0D2
:10440000F70111928A95E9F7AE0145585F4F60E0D8
:1044100070E0C1010E94484C882309F4AAC4AE018F
:104420004F585F4F60E070E0C2010E94484C882303
:1044300009F49FC4AE0149595F4F60E070E0C301C9
:104440000E94484C882309F494C4AE01435A5F4F3C
:1044500060E070E0C8010E94484C882309F489C4D8
:1044600020E030E044EB52E4E5966CAD7DAD8EADDE
:104470009FADE5970E94676521EE3EE245E652E476
:104480000E9448662B013C01E5966CAF7DAF8EAF74
:104490009FAFE597EF968CAC9DACAEACBFACEF9701
:1044A0000E9445669B01AC01C501B4010E949A6857
:1044B00069837A838B839C83C301B2010E941D6947
:1044C0009B01AC01C501B4010E949A686D837E8393
:1044D0008F839887AB968CAD9DADAEADBFADAB97DE
:1044E00089879A87AB87BC87A1962CAD3DAD4EAD31
:1044F0005FADA19700E0B70134C4E5961CAE1DAED8
:104500001EAE1FAEE597AB961CAE1DAE1EAE1FAE27
:10451000AB979E012F5F3F4F79013F932F938E0101
:104520000B5E1F4F1F930F93CE0185589F4FCF55A2
:10453000DF4F99838883C15AD0409F938F938EEB2E
:1045400093E09F938F937F936F930E942F6A0FB690
:10455000F894DEBF0FBECDBF03970CF415C2AE01B9
:104560004F585F4F60E070E0C8010E94484C8823BC
:1045700009F4FFC3AE0149595F4F60E070E0C70125
:104580000E94484C882309F4F4C3A1961CAE1DAECA
:104590001EAE1FAEA19765961CAE1DAE1EAE1FAE21
:1045A000659721961CAE1DAE1EAE1FAE21971E0153
:1045B000F9E22F0E311C8CE0F10111928A95E9F796
:1045C0006091EB117091EC118091ED119091EE11D1
:1045D0000E94E3662B013C016091E7117091E811A4
:1045E0008091E9119091EA110E94E3669B01AC0170
:1045F0006091E3117091E4118091E5119091E611C1
:10460000C955DF4F2883C75AD040C855DF4F38837C
:10461000C85AD040C755DF4F4883C95AD040C65505
:10462000DF4F5883CA5AD0400E94E366FE01FD96D0
:104630004F0174965F013C966F0183017201C95569
:10464000DF4F2881C75AD040C855DF4F3881C85A3C
:10465000D040C755DF4F4881C95AD040C655DF4FBB
:104660005881CA5AD0400E94082DED968EAD9FAD5C
:10467000ED978130910569F1F4F4892B09F091C12E
:1046800020E030E044EB52E4E5966CAD7DAD8EADBC
:104690009FADE5970E9467657B018C01E5966CAF45
:1046A0007DAF8EAF9FAFE59765962CAD3DAD4EAD1E
:1046B0005FAD65972DC082309105F1F0039709F049
:1046C00070C1E5966CAD7DAD8EAD9FADE59737DDE4
:1046D00050C32196ECACFDAC0EAD1FAD2197659695
:1046E0002CAD3DAD4EAD5FAD6597E5966CAD7DAD46
:1046F0008EAD9FADE59712C02196ECACFDAC0EAD32
:104700001FAD2197E5962CAD3DAD4EAD5FADE59764
:10471000A1966CAD7DAD8EAD9FADA197FE01F196DA
:104720004F0134975F0161010E94232CA401B50160
:10473000C10128D6AB962CAD3DAD4EAD5FADAB976C
:104740000EC38E010B5E1F4F1F930F937E01F9E284
:10475000EF0EF11CFF92EF923E012DE3620E711CF1
:104760007F926F922E0131E5430E511C5F924F9262
:1047700086ED93E09F938F937F936F930E942F6AB0
:104780000FB6F894DEBF0FBECDBF04970CF4FCC08B
:10479000EF961CAE1DAE1EAE1FAEEF97E5961CAE9B
:1047A0001DAE1EAE1FAEE597AB961CAE1DAE1EAE87
:1047B0001FAEAB97A1961CAE1DAE1EAE1FAEA1974D
:1047C000AE0145585F4F60E070E0C2010E94484C66
:1047D000882309F4CEC2AE014F585F4F60E070E00D
:1047E000C3010E94484C882309F4C3C2AE01495951
:1047F0005F4F60E070E0C7010E94484C882309F4D5
:10480000B8C2AE01435A5F4F60E070E0C8010E9439
:10481000484C882309F4ADC26091EB117091EC1102
:104820008091ED119091EE110E94E3662B013C0105
:104830006091E7117091E8118091E9119091EA116E
:104840000E94E3669B01AC016091E3117091E41159
:104850008091E5119091E611C955DF4F2883C75A21
:10486000D040C855DF4F3883C85AD040C755DF4FB6
:104870004883C95AD040C655DF4F5883CA5AD040E2
:104880000E94E366FE0139964F0134975F01349729
:104890006F0183017201C955DF4F2881C75AD0408B
:1048A000C855DF4F3881C85AD040C755DF4F4881BF
:1048B000C95AD040C655DF4F5881CA5AD0400E94CD
:1048C000852DA401B501C6015DD5EF962CAD3DAD9A
:1048D0004EAD5FADEF9769817A818B819C810E949B
:1048E000686569837A838B839C83E5962CAD3DADA7
:1048F0004EAD5FADE5976D817E818F8198850E9479
:1049000068656D837E838F839887AB962CAD3DADB4
:104910004EAD5FADAB9769857A858B859C850E948E
:10492000686569877A878B879C87A1962CAD3DAD9A
:104930004EAD5FADA19700E0B60113C23E01FDE5AB
:104940006F0E711C7F926F922E0127E6420E511C52
:104950005F924F928E010F581F4F1F930F937E014E
:104960003BE7E30EF11CFF92EF9285E993E09F9302
:104970008F937F936F930E942F6A0FB6F894DEBFD8
:104980000FBECDBF049784F41F9281E08F9388E11E
:1049900092E09F938F930E94A53A0F900F900F90F3
:1049A0000F9082E390E0E7C1C356DF4F188219826F
:1049B0001A821B82CD59D040C756DF4F1882198208
:1049C0001A821B82C959D040CB56DF4F18821982F8
:1049D0001A821B82C559D040CF56DF4F18821982E8
:1049E0001A821B82C159D0401E01F1E52F0E311CE5
:1049F0008CE0F10111928A95E9F7AE0143565F4FC1
:104A000060E070E0C7010E94484C882309F4B1C1FE
:104A1000AE0147565F4F60E070E0C8010E94484C0D
:104A2000882309F4A6C1AE014B565F4F60E070E0E9
:104A3000C2010E94484C882309F49BC1AE014F5625
:104A40005F4F60E070E0C3010E94484C882309F486
:104A500090C1C357DF4F188219821A821B82CD582A
:104A6000D040C757DF4F188219821A821B82C9585B
:104A7000D040CB57DF4F188219821A821B82C5584B
:104A8000D0406091EB117091EC118091ED119091FB
:104A9000EE110E94E3662B013C016091E7117091D9
:104AA000E8118091E9119091EA110E94E3669B015F
:104AB000AC016091E3117091E4118091E511909146
:104AC000E611C955DF4F2883C75AD040C855DF4F7C
:104AD0003883C85AD040C755DF4F4883C95AD040A1
:104AE000C655DF4F5883CA5AD0400E94E366FE0184
:104AF000EB57FF4F4F0134965F0134966F018301EE
:104B00007201C955DF4F2881C75AD040C855DF4FC1
:104B10003881C85AD040C755DF4F4881C95AD04064
:104B2000C655DF4F5881CA5AD04072D72101F8E0EC
:104B30004F0E511C310124E0620E711C6091EB118B
:104B40007091EC118091ED119091EE110E94E3664D
:104B5000CD55DF4F688379838A839B83C35AD040C6
:104B60006091E7117091E8118091E9119091EA113B
:104B70000E94E3669B01AC016091E3117091E41126
:104B80008091E5119091E611C955DF4F2883C75AEE
:104B9000D040C855DF4F3883C85AD040C755DF4F83
:104BA0004883C95AD040C655DF4F5883CA5AD040AF
:104BB0000E94E366420153016101CD55DF4FE88059
:104BC000F9800A811B81C35AD040C955DF4F288123
:104BD000C75AD040C855DF4F3881C85AD040C75552
:104BE000DF4F4881C95AD040C655DF4F5881CA5A55
:104BF000D0408BD7A201B301C101C4D3F1016081C0
:104C0000718182819381C480D580E680F7809B0189
:104C1000AC010E949A684B015C01A7019601C70193
:104C2000B6010E949A689B01AC01C501B4010E94C3
:104C300068650E942769C356DF4F288139814A8100
:104C40005B81CD59D0400E9468652B013C01C35661
:104C5000DF4F688379838A839B83CD59D040C756C1
:104C6000DF4F288139814A815B81C959D040CB57B8
:104C7000DF4F688179818A819B81C558D0400E942D
:104C8000686521EE3EE245E652E40E9448664B012B
:104C90005C010E9445669B01AC01C301B2010E9408
:104CA0009A686B017C01F101608371838283938335
:104CB000C501B4010E941D699B01AC01C301B20191
:104CC0000E949A68F1016483758386839783CB562B
:104CD000DF4F288139814A815B81C559D040608589
:104CE0007185828593850E946865F101608771876F
:104CF000828793878E01035C1F4F24E045E0C70144
:104D0000B6010E94D562F101648175818681978127
:104D10000451110924E045E00E94D562F10160854B
:104D20007185828593850451110924E045E00E9434
:104D3000D562C356DF4F688179818A819B81CD59C5
:104D4000D0400451110924E045E00E94D562CF56BD
:104D5000DF4F288139814A815B81C159D04000E011
:104D6000B10180E00E94354D90E005C081E090E007
:104D700002C080E090E0C655DF4F0FB6F894DEBF6A
:104D80000FBECDBFDF91CF911F910F91FF90EF909C
:104D9000DF90CF90BF90AF909F908F907F906F905B
:104DA0005F904F903F902F9008958091C9119091FE
:104DB000CA110497029780F4809101018062809368
:104DC00001018091010180648093010180910201C1
:104DD000806280930201089580E18093A100109287
:104DE000A00082E08093671280E29EE490936612B6
:104DF000809365129093A7008093A60082E1809330
:104E0000A10020E030E048EA51E460910002709196
:104E1000010280910202909103020E94486620E004
:104E200030EC4FE754E40E949A680E94B566CB01CB
:104E30000C94F74ACF93DF93D82FC8E05E98559A29
:104E4000D7FF02C05D9A01C05D9865E070E080E028
:104E500090E00E94FF4B5E9A65E070E080E090E099
:104E60000E94FF4B5E98DD0F65E070E080E090E00F
:104E70000E94FF4BC15011F762E070E080E090E0CB
:104E80000E94FF4B559A5D9A62E070E080E090E0EE
:104E9000DF91CF910C94FF4B5E98559A5D9865E039
:104EA00070E080E090E00E94FF4B5E9A65E070E069
:104EB00080E090E00E94FF4B559A5D9A65E070E0BB
:104EC00080E090E00C94FF4BCF93559A5D9A62E09E
:104ED00070E080E090E00E94FF4B5E9A62E070E03C
:104EE00080E090E00E94FF4B55989BEF89B1C82F5E
:104EF000C07285FF05C09150C9F7CEDFC1E007C081
:104F00005E9862E070E080E090E00E94FF4B8C2FA2
:104F1000CF910895559A5D9A5E9A65E070E080E0C1
:104F200090E00E94FF4B559A5D9865E070E080E04C
:104F300090E00E94FF4B5E9862E070E080E090E0BD
:104F40000C94FF4BCF93DF93D82FC8E080910201E0
:104F50008F77809302018091010184608093010129
:104F600080910201D7FF02C0846001C08B7F8093D3
:104F7000020165E070E080E090E00E94FF4B8091CC
:104F8000020180688093020165E070E080E090E0BB
:104F90000E94FF4B809102018F7780930201DD0F09
:104FA00065E070E080E090E00E94FF4BC15071F638
:104FB00062E070E080E090E00E94FF4B8091010190
:104FC00084608093010180910201846080930201DA
:104FD00062E070E080E090E0DF91CF910C94FF4BB5
:104FE0000F931F93CF93DF93C2E0D1E088818F7737
:104FF000888301E011E0F8018081846080838881EA
:105000008B7F888365E070E080E090E00E94FF4B3A
:1050100088818068888365E070E080E090E00E948D
:10502000FF4BF8018081846080838881846088835D
:1050300065E070E080E090E0DF91CF911F910F91EB
:105040000C94FF4BCF938091010184608093010108
:105050008091020184608093020162E070E080E050
:1050600090E00E94FF4B80910201806880930201D2
:1050700062E070E080E090E00E94FF4B80910101CF
:105080008B7F809301019BEF80910001C82FC4703A
:1050900082FF05C09150C1F7A3DFC1E00BC0909122
:1050A00002019F779093020162E070E080E090E05F
:1050B0000E94FF4B8C2FCF9108950F931F93CF9396
:1050C000DF9301E011E0F801808184608083C2E019
:1050D000D1E088818460888388818068888365E0E6
:1050E00070E080E090E00E94FF4BF80180818460D6
:1050F000808388818B7F888365E070E080E090E02A
:105100000E94FF4B88818F77888362E070E080E0A7
:1051100090E0DF91CF911F910F910C94FF4BCF93B3
:10512000DF93D82FC8E04398399AD7FF02C0419A3D
:1051300001C0419865E070E080E090E00E94FF4B84
:10514000439A65E070E080E090E00E94FF4B439856
:10515000DD0F65E070E080E090E00E94FF4BC15001
:1051600011F762E070E080E090E00E94FF4B399A16
:10517000419A62E070E080E090E0DF91CF910C9482
:10518000FF4B4398399A419865E070E080E090E0E9
:105190000E94FF4B439A65E070E080E090E00E943F
:1051A000FF4B399A419A65E070E080E090E00C9402
:1051B000FF4BCF93399A419A62E070E080E090E033
:1051C0000E94FF4B439A62E070E080E090E00E9412
:1051D000FF4B39989BEF86B1C82FC27081FF05C085
:1051E0009150C9F7CEDFC1E007C0439862E070E09C
:1051F00080E090E00E94FF4B8C2FCF910895399A68
:10520000419A439A65E070E080E090E00E94FF4B95
:10521000399A419865E070E080E090E00E94FF4B91
:10522000439862E070E080E090E00C94FF4B4F9276
:105230005F926F927F92AF92BF92CF92DF92EF9286
:10524000FF920F931F93CF93DF935C01EB018A01D1
:10525000FC01408051806280738020E030E0A90131
:10526000C301B2010E94416620E030E0A901811132
:1052700011C0688179818A819B810E945F681816BC
:10528000E4F02AEDC22E2FE0D22E29ECE22E2FEBF5
:10529000F22E22C0C301B2010E94416687FD16C0F2
:1052A000A3019201688179818A819B810E9448666D
:1052B0000E9406666B017C010FC09AEDC92E9FE02B
:1052C000D92E99ECE92E9FE3F92E06C0C12CD12CE2
:1052D00080ECE82E8FE7F82EC701B6010E944566E4
:1052E0002091CB113091CC114091CD115091CE1124
:1052F0000E949A689B01AC01C301B2010E946765DC
:10530000F5016083718382839383C701B6010E9494
:105310001D692091CB113091CC114091CD1150914C
:10532000CE110E949A689B01AC01688179818A81C3
:105330009B810E946765688379838A839B83209120
:10534000CF113091D0114091D1115091D211F8016B
:1053500060817181828193810E946865F801608318
:10536000718382839383DF91CF911F910F91FF907F
:10537000EF90DF90CF90BF90AF907F906F905F9055
:105380004F9008954F925F926F927F92AF92BF922B
:10539000CF92DF92EF92FF920F931F93CF93DF9301
:1053A0005C01EB018A01FC014080518062807380C6
:1053B00020E030E0A901C301B2010E94416620E073
:1053C00030E0A901811111C0688179818A819B81B6
:1053D0000E945F681816E4F02AEDC22E2FE0D22E4C
:1053E00029ECE22E2FEBF22E22C0C301B2010E9463
:1053F000416687FD16C0A3019201688179818A8187
:105400009B810E9448660E9406666B017C010FC06A
:105410009AEDC92E9FE0D92E99ECE92E9FE3F92E43
:1054200006C0C12CD12C80ECE82E8FE7F82EC701E6
:10543000B6010E9445662091CB113091CC1140916C
:10544000CD115091CE110E949A689B01AC01C3010D
:10545000B2010E946865F501608371838283938342
:10546000C701B6010E941D692091CB113091CC116A
:105470004091CD115091CE110E949A689B01AC01D0
:10548000688179818A819B810E94686568837983BC
:105490008A839B832091CF113091D0114091D111FB
:1054A0005091D211F80160817181828193810E94B3
:1054B0006765F8016083718382839383DF91CF9165
:1054C0001F910F91FF90EF90DF90CF90BF90AF9022
:1054D0007F906F905F904F9008952F923F924F92E0
:1054E0005F926F927F928F929F92AF92BF92CF9274
:1054F000DF92EF92FF920F931F93CF93DF93CDB77D
:10550000DEB766970FB6F894DEBF0FBECDBF6983D6
:105510007A838B839C832D833E834F835887270117
:1055200038011601BA8AA98A84019B01AC010E9444
:105530009A686B017C012D813E814F815885CA019B
:10554000B9010E949A689B01AC01C701B6010E9493
:1055500068650E94276923E333E343E551E40E9431
:10556000676569877A878B879C872DEC3CEC46EDD5
:1055700052E4C301B2010E9467652B013C012985F9
:105580003A854B855C85CA01B9010E949A686B0116
:105590007C01A3019201C301B2010E949A689B01A0
:1055A000AC01C701B6010E9468656B017C0124ED66
:1055B00035E64DE955E40E9467654B015C0126EC38
:1055C0003FEA4DE957E4C701B6010E949A686D872A
:1055D0007E878F87988BA5019401C501B4010E9435
:1055E0009A689B01AC016D857E858F8598890E94A4
:1055F00067650E9427696B8B7C8B8D8B9E8BA701C7
:105600009601C701B6010E9468656D877E878F8706
:10561000988BA501940169857A858B859C850E946C
:105620009A684B015C012B893C894D895E89C301D5
:10563000B2010E949A689B01AC01C501B4010E94AD
:1056400067654B015C012CEE31E14EE053E46D8562
:105650007E858F8598890E949A689B01AC01C5015F
:10566000B4010E9448660E94596521EE3EE245E67B
:1056700052E40E949A68F10160837183828393836C
:1056800024ED35E64DE955E4C701B6010E94686591
:105690004B015C012BE339E045EC57E4C701B6014F
:1056A0000E949A686B017C01A5019401C501B401B7
:1056B0000E949A689B01AC01C701B6010E94676510
:1056C0000E9427696B017C01A501940169857A8597
:1056D0008B859C850E949A684B015C01A70196010D
:1056E000C301B2010E949A689B01AC01C501B401DB
:1056F0000E9468656B017C012CE53FEC4EE153E4B0
:105700006D857E858F8598890E949A689B01AC0182
:10571000C701B6010E9448660E94596521EE3EE22B
:1057200045E652E40E949A686B017C01E989FA8996
:10573000608371838283938321EE3EE245E652E4E7
:10574000F10160817181828193810E9448660E948B
:105750001D692CEE31E14EE053E40E949A689B01F2
:10576000AC01C301B2010E945F68181654F4F7FA45
:10577000F094F7F8F094E989FA89C082D182E28244
:10578000F38220E030E0A90169817A818B819C81DC
:105790000E94416620E030E0A901811112C06D81B4
:1057A0007E818F8198850E945F6818162CF480E0B6
:1057B00090E0A4EBB2E411C080E090E0A4EBB2EC86
:1057C0000CC069817A818B819C810E94416687FF30
:1057D0000AC080E090E0A0ECBFE7F80180839183ED
:1057E000A283B38317C029813A814B815C816D818B
:1057F0007E818F8198850E9448660E94066621EE10
:105800003EE245E652E40E949A68F80160837183A3
:105810008283938366960FB6F894DEBF0FBECDBF2A
:10582000DF91CF911F910F91FF90EF90DF90CF907C
:10583000BF90AF909F908F907F906F905F904F90B0
:105840003F902F9008952F923F924F925F926F92C8
:105850007F928F929F92AF92BF92CF92DF92EF9200
:10586000FF920F931F93CF93DF93CDB7DEB72E97A1
:105870000FB6F894DEBF0FBECDBF29833A834B83AA
:105880005C83ED82FE820F831887860115019E8658
:105890008D8621EE3EE245E652E40E9448662B01E9
:1058A0003C0121EE3EE245E652E469817A818B813A
:1058B0009C810E9448664B015C0121EE3EE245E678
:1058C00052E46D817E818F8198850E9448666B01CC
:1058D0007C01C301B2010E94456669837A838B8390
:1058E0009C83C501B4010E9445666D837E838F83CE
:1058F0009887C301B2010E941D692B013C01C501BB
:10590000B4010E941D6969877A878B879C872CEE7A
:1059100031E14EE053E469817A818B819C810E9460
:105920009A684B015C012CE53FEC4EE153E46D813C
:105930007E818F8198850E949A689B01AC01C50188
:10594000B4010E94686523E333E343E551E40E9418
:1059500068654B015C01C701B6010E9445669B0169
:10596000AC01C501B4010E949A68F801608371839B
:1059700082839383C701B6010E941D699B01AC011C
:10598000C501B4010E949A68F1016083718382832A
:1059900093832CEE31E14EE053E4C301B2010E9447
:1059A0009A686B017C012CE53FEC4EE153E469857C
:1059B0007A858B859C850E949A689B01AC01C70102
:1059C000B6010E9467652DEC3CEC46ED52E40E9466
:1059D0006865ED85FE8560837183828393832E964F
:1059E0000FB6F894DEBF0FBECDBFDF91CF911F91F0
:1059F0000F91FF90EF90DF90CF90BF90AF909F906E
:105A00008F907F906F905F904F903F902F90089570
:105A10004F925F926F927F928F929F92AF92BF92BE
:105A2000CF92DF92EF92FF920F931F93CF93DF936A
:105A300000D01F92CDB7DEB729013A01E982FA8280
:105A40000B831C8309EC11E120E030E040E253E4D9
:105A50000E9448669B01AC01F801668577858089C4
:105A600091890E946865F6016083718382839383C4
:105A700020E030E040E253E4C301B2010E944866F6
:105A80009B01AC01F80162897389848995890E9420
:105A90006865F501608371838283938320E030E041
:105AA00044EB52E4F80166897789808D918D0E94DC
:105AB00067652B013C0120E030E040E253E469815E
:105AC0007A818B819C810E9448669B01AC01C30155
:105AD000B2010E946865F4016083718382839383BD
